:020000040000FA
:1000000080090020F50000000F0100001101000030
:1000100000000000000000000000000000000000E0
:1000200000000000000000000000000013010000BC
:100030000000000000000000150100001701000092
:1000400019010000190100003D0200001901000023
:100050001901000000000000190100001901000052
:10006000F50100000D02000025020000190100004A
:100070001901000019010000190100001901000018
:100080001901000019010000190100001901000008
:1000900019010000190100001901000019010000F8
:1000A000190100001901000000000000000000001C
:1000B0000000000000000000000000000000000040
:1000C0000348854600F05AF8004800474D060000F6
:1000D00080090020401E00BF00BF00BF00BF00BF5E
:1000E00000BF00BF00BF00BF00BF00BF00BFF1D115
:1000F000704700000321094802680A43026008486B
:1001000002680A4302600748804707480047FEE745
:10011000FEE7FEE7FEE7FEE7FEE7000024050040FD
:1001200054050040A1010000C100000003460B433C
:100130009B0703D009E008C9121F08C0042AFAD29D
:1001400003E00B780370401C491C521EF9D2704723
:1001500030B50B46014600202022012409E00D465F
:10016000D5409D4205D31D469540491B25469540E7
:1001700040191546521E002DF1DC30BD064C0125FC
:10018000064E05E0E36807CC2B430C3C984710343F
:10019000B442F7D3FFF798FF681000008810000002
:1001A00010B500F027FA002805D00E490C48486029
:1001B000C8130D4988610D48018CC9B201290ED1BF
:1001C000818C09070BD1018D0906090F042906D17D
:1001D000808D0006000F02D105490120886010BD06
:1001E000DFFF07C000050040006C0040C00F00F0BA
:1001F0000006004010B504220249034800F0C6F989
:1002000010BD0000400100200080004010B5042215
:100210000249034800F0BAF910BD00004C0100206B
:100220000090004010B504220249034800F0AEF9E6
:1002300010BD00005801002000A0004010B500F0E3
:1002400041FE10BD0FB410B503A9044B044A029837
:1002500000F018F810BC08BC04B018477F05000077
:100260001800002002E008C8121F08C1002AFAD1B5
:1002700070477047002001E001C1121F002AFBD126
:1002800070470000FFB58DB00446002506E0252824
:100290000AD0109A0F999047641C6D1C2078002892
:1002A000F5D1284611B0F0BD00270121484A00973A
:1002B00000E00743641C23780846203B9840104226
:1002C000F7D120782E2817D1042007436078641CCA
:1002D0002A280CD10E98641C02C800910E900BE0E5
:1002E00000990A22514330394018641C009020784C
:1002F000014630390929F3D920780028D1D0642863
:1003000008D0692806D075281ED0109A0F999047FA
:100310006D1C5BE00A200E99019001C90E91002826
:1003200002DA40422D2102E0390504D52B216A462C
:100330001172012103E0F90704D02021F7E70BAE89
:100340000B910DE00021FAE70A200E99019001C9F6
:100350000E91F7E70199FFF7FBFE3031761E317001
:100360000028F7D103A8801B20300190780701D521
:10037000009801E0012000900199884201DD401AB7
:1003800000E000200027009006E002A8109AC05D5F
:100390000F9990476D1C7F1C0B988742F5DB04E09A
:1003A000109A30200F9990476D1C0099481E0090BC
:1003B0000029F5DC05E03078109A761C0F999047FB
:1003C0006D1C0199481E01900029F4DC641C65E74E
:1003D00009280100BFF34F8F04490348C860BFF3E9
:1003E0004F8F00BFFDE700000400FA0500ED00E0BC
:1003F0000EB50021029000916A4601910148FFF775
:10040000E9FF00000140000010B58268C368934214
:1004100003D000F0A1F8002010BD052010BD002978
:1004200006D0002A02D0531E134203D00920704781
:100430000E2070470160838000218160C160084602
:10044000704710B58268C3689A1A83889A4203D8A5
:1004500000F08CF8002010BD042010BD70B50446DB
:10046000224888B01E460D0042601CD0A88829682A
:1004700082B21F48FFF7D3FF002815D1A889A968C9
:1004800082B21B481030FFF7CAFF00280CD120228F
:1004900018496846FFF74AFEA068069020790028B0
:1004A00004D0012103E0072008B070BD0021684698
:1004B000017506776079002800D00E2069464875DE
:1004C000E0780290A0780390207801906078009006
:1004D0000949684600F08CFA0028E5D100F012FBCB
:1004E00002480121801C00F0E7FADDE7040000204B
:1004F0002001002010100000150E000010B5044669
:10050000064801214470401C00F056FB112803D11D
:1005100021460348FFF795FF10BD000004000020AE
:10052000300100200003000F01D00020704701209F
:100530007047000072B602480168491C01607047AC
:100540001400002003490868401E086000D162B60C
:100550007047000014000020826883881A400368F6
:100560009A5C0A708168491C81607047C268838800
:100570001A4003689954C168491CC160704710B59E
:100580000446C0B2FFF7BAFF204610BDF7B50025FC
:10059000164604462F4616E0A80001210904A9408A
:1005A000FF3041302258002A0BD003221202A21839
:1005B00052680A4205D02750019A01991268496889
:1005C00090476D1CEDB2B542E6D3FEBD01218140DE
:1005D00003484068014201D0012070470020704765
:1005E0000C000020014610B501208840FFF79AFF5B
:1005F00010BD00001048018CC9B2012917D1818CAF
:10060000090714D1018D09060A0F03D1828D120644
:10061000120F0ED0090F012903D1828D1206120F7D
:1006200007D0032903D1808D0006000F01D00020E0
:100630007047012070470000C00F00F00121814089
:100640000804000C00D001207047000088B0314A37
:100650000021314800F076F9002801D0FFF7C8FEEC
:100660002D482C4A0021083000F06CF9002801D0F8
:10067000FFF7BEFE002428480123284A21460830FF
:10068000009400F043F92448224A0021103000F081
:1006900059F9002801D0FFF7ABFE1F480123204A7B
:1006A00000211030009400F031F900F001FB1A4AEB
:1006B00001AB183207CA07C31A48012411C31A48EC
:1006C0000690200207900323184A04A901A8FFF707
:1006D000C5FE002801D0FFF78BFE154884630E4845
:1006E00000F006F90C48083000F002F90A48103012
:1006F00000F0FEF80021084800F0D6F801460DA0F1
:10070000FFF7A0FD044800F018F9642000F01CF881
:10071000F0E70000B10D0000EC0F0000FFFF00004B
:10072000FF7F00000000002020000020010E0000DC
:100730004000004043757272656E7420636F75747B
:100740003A2025640A0D000031B5054C04E0401E36
:1007500000902046FFF7BEFC00980028F7D138BD76
:10076000E70300008207D30EFF229A408907090E93
:1007700010B5994000280BDA03071B0F083B9C08B3
:100780000C4BA400E318DC6994430C43DC6107E0E4
:100790008408094BA400E418236893430B432360A7
:1007A000C106C90E01208840044908600449086058
:1007B00010BD000000ED00E000E400E080E200E099
:1007C00000E100E0F1B50427114E0024FFF7B2FE6E
:1007D0000125A540354204D02046FFF7F7FE00284A
:1007E0000AD0FFF7AFFE002F04D0641CAE43E4B282
:1007F000002EEBD13846F8BD064901204A68A040DA
:1008000010434860009800270470FFF79BFEF1E753
:10081000FFFF00000C00002070B514460D000646D6
:1008200011D0002C0FD0FFF709FF00280DD0304663
:10083000FFF7CCFE00280AD00648F1000818056131
:100840004461002070BD0E2070BD072070BD0820DF
:1008500070BD000000F5014010B50446FFF7C2FE70
:1008600000280FD02046FFF7E9FE002804D02046DC
:10087000FFF7ACFE002807D001200449A0404860E3
:10088000002010BD072010BD082010BD00F501405C
:1008900004480178002901D08520704701210170AA
:1008A000002070470C000020890010B50A46403235
:1008B0000368D2B201249C50152200689201891865
:1008C000405810BD70B5012424048C4003260568EF
:1008D0003602AD19002B01D06C6000E0AC600068FE
:1008E00089000818052109024018026470BD000043
:1008F000016801220A6000790C225043024A022159
:10090000801801727047000040010020F0B5FF25FB
:10091000023504688D40FF34FF340234059E276899
:10092000AF4327600468FF34FF34023425681D4359
:1009300025603346FFF7C6FFF0BD006801218160E6
:100940007047000070B504460D4600790C21264B17
:100950004143CE18317A002901D0082070BD002A09
:1009600002D0002D02D004E0072070BD1F49C00056
:1009700045183260686870600020034606E0810018
:10098000FF31226841315350401CC0B2617981422D
:10099000F5D82068E978000B40B2FFF7E3FE0520A8
:1009A0002168000209186A784B68D2075B085B006F
:1009B000D20F13434B602268A978121893688907F5
:1009C0009B089B00890F0B43936021682A780818C5
:1009D0000169120709090901120F11430161012080
:1009E0003072002070BD0000400100203010000077
:1009F000F3B52A4C0746E07E81B0002801D00820DC
:100A0000FEBD002F00D1264F386800F03AF9387843
:100A1000012631468140234881600021786800F03A
:100A200027F9214DB8696862787D397D0843E86609
:100A300003CFE8606961387B083F01280FD10021AE
:100A4000B86800F015F9F86800F01BF9387B3146FA
:100A5000814014488160F968B868A96028610298EB
:100A600060603969216000280ED0FF230F481D33D4
:100A7000397F0022C250FF234533C2500D4A0C4833
:100A800050600220FFF76EFE042028600020E07511
:100A90002076A075E676A076FEBD000064010020F9
:100AA00048100000000500500025004000200040D4
:100AB0008000020000230040F8B5104B81245E68DE
:100AC0000022A4000E4D002E00D0AC60DF7D002F70
:100AD0000BD01A7E002A04D0002E00D06C601120AA
:100AE000F8BD18610122197604E0D9750024D86098
:100AF0005C761C7600F012F8F8BD0000640100205E
:100B00000023004010B5044CA07E002803D100F063
:100B100041F90120A07610BD64010020F8B5234DF5
:100B2000A87E104301D100F035F96868204C0028F8
:100B300005D081201F49800048600020F8BDFF20BB
:100B4000453000212150FF212531204600F0A3F837
:100B50000546FF210931204600F09DF80746FF2198
:100B60004531204600F097F806463946314329437F
:100B7000E9D02846304306D100F0E2F80B48C17DA9
:100B8000407E8142DFD800210848002DC17501D088
:100B90000320F8BD002E01D00F20F8BD817E01207A
:100BA000002901D02060C8E76060C6E7640100202A
:100BB000002000400023004010B5064A937D002B22
:100BC00001D0112010BD917590600020908200F03E
:100BD00003F810BD64010020F8B50026194FFF2569
:100BE0001D357E510120B86000F0E4F8164C6168B4
:100BF000002910D022E0FF2701372946114800F0D4
:100C00004AF8002802D1A08AB842F6D1A08AB84298
:100C100001D000F0CFF8A08AA17D8842EBD3A18A51
:100C2000C81FF9380CD0074F2946384600F033F872
:100C30000028F9D00120F8600020A0753046F8BDEA
:100C40000F26F9E7002000406401002030B5520073
:100C50000A439900039C0A432102049D0A43290484
:100C60000A43024980004018026030BD000700506E
:100C70001CB500220B46009211460192FFF7E6FFD9
:100C80001CBD1CB5002100910B46012201911146AB
:100C9000FFF7DCFF1CBD4058002800D00120704742
:100CA0000322120280184068084000D001207047DB
:100CB00070B5FFF7EDFD002801D0FFF799FB1E4846
:100CC000FFF780FD002801D0FFF792FB1B4D1A4C67
:100CD0002846083001682A68641EFF316078413177
:100CE000121DFFF799FD002801D0FFF781FB124884
:100CF000401CFFF767FD002801D0FFF779FB0F4884
:100D00002A6810300168A078FF314131FFF784FD77
:100D1000002801D0FFF76CFB6078FFF79DFD0028ED
:100D200001D0FFF765FBA078FFF796FD002801D002
:100D3000FFF75EFB70BD000001000020EC0F00001B
:100D400030B50A48FF21C57D0022094C0931094B05
:100D5000002D625007D09969437EC268D154417E0C
:100D6000491C417630BD986930BD00006401002007
:100D700000200040002500401FB501236A46137083
:100D800010720348019106C8684690471FBD0000D5
:100D900064010020FF220548253200218150FF22F6
:100DA000093281500121016070470000002000409D
:100DB00070470000FF2107481D31002242500648BD
:100DC000828A8168895C828A521C82820348C1615E
:100DD0007047000000200040640100200025004012
:100DE0001FB500216A461170107204488268019292
:100DF000817506C8684690471FBD00006401002049
:100E000010B50178022901D0012902D14068FFF70D
:100E1000EFFA10BD7CB50178284D01290AD00229CE
:100E20002FD000292CD129462548FFF7EDFA0028BC
:100E300033D036E04068017821481038FFF701FBD5
:100E40001F4C103C002805D001216A46117001900A
:100E5000684608E0A068E168081A012805D100206A
:100E600069460870684669688847A068E168081A9A
:100E7000A188884204D811480121801CFFF71CFE7C
:100E80007CBD02216A461170C06801900B480121A7
:100E9000801CFFF711FE68460CE001210748FFF7B0
:100EA0008BFE07488168C0688842E9D10320694603
:100EB00008706846696888477CBD0000040000200F
:100EC00030010020F0B5454D012185B0490228468A
:100ED000FFF7E6FE01270026414C002824D0FF2121
:100EE00025312846FFF7D7FE00281DD0FF202530EA
:100EF0002E5081203B4980008860A07E002800D1D0
:100F00006F600221684601703749086808600390E5
:100F1000E17D68460172E0680190E675267606CCB0
:100F20006846083C90472BE004212846FFF7B8FEAE
:100F3000002825D0FF2109312846FFF7ACFE002804
:100F40001ED0FFF7FDFEE07D617E884218D1207E35
:100F5000002808D0627EE168E0752069E0602676AE
:100F6000667610460AE0A07E002800D16F608120DE
:100F70001C4980008860E675607EE168FFF7FCFE32
:100F8000FF211D312846FFF786FE00280DD0A18ADB
:100F9000A07D814202D2FFF70DFF06E0FF211D3147
:100FA0006E50002801D0FFF71BFFFF214531284676
:100FB000FFF771FE00280ED0FF2045302E50A07E96
:100FC000002800D02F60E07D002804D0E675607E08
:100FD000E168FFF7D1FE05B0F0BD00000020004041
:100FE0006401002000230040802400400080004075
:100FF00000040000009000400104000000A0004038
:10100000020400000B09080A0100000000509D00C6
:10101000090000000B0000000A00000008000000AA
:10102000000000000000000000509D0003000000D0
:10103000000103030000000009000003000000009D
:101040000900000300000000090000000B00000080
:101050000A0000000800000000000000000000007E
:1010600000509D00030000008810000000000020D8
:101070002000000064020000A810000020000020F2
:101080006009000074020000000000000000000081
:101090000000000000000000000000000000000050
:0810A000000000000024F40030
:04000005000000C136
:00000001FF
