:020000040000FA
:1000000050200020150400001D0400001F04000003
:10001000210400002304000025040000000000006B
:1000200000000000000000000000000027040000A5
:100030000000000000000000290400002B04000064
:100040002D0400002D0400002D0400002D040000EC
:100050002D0400002D0400005D0400002D040000AC
:100060002D0400002D0400002D0400002D040000CC
:100070002D0400002D0400002D0400002D040000BC
:100080002D0400002D0400002D0400002D040000AC
:100090002D0400002D0400002D0400002D0400009C
:1000A0002D0400002D0400002D0400002D0400008C
:1000B0002D0400002D0400000000000000000000DE
:1000C0002D0400002D0400002D0400002D0400006C
:1000D0002D0400002D0400000000000000000000BE
:1000E0000000000000000000000000000000000010
:1000F0000000000000000000000000000000000000
:1001000000000000000000000000000000000000EF
:1001100000000000000000000000000000000000DF
:10040000DFF80CD000F018F8004800478908000019
:10041000502000200648804706480047FEE7FEE7D8
:10042000FEE7FEE7FEE7FEE7FEE7FEE7FEE7000089
:100430005905000001040000064C074D06E0E06885
:1004400040F0010394E8070098471034AC42F6D31B
:10045000FFF7DAFF2C0C00004C0C00002DE9F047F0
:100460000025DFF8E890A8464FF4807601242F4657
:10047000304600F0B9FB38B1D9F80403204203D06C
:10048000304600F0A7FB2543361D64007F1CB6B242
:10049000082FEDD34FF4BE74204600F0A5FB38B111
:1004A000204600F097FB2A4845F00045D0F8008030
:1004B000284E15F0FF0F14D0012700242F420CD036
:1004C00009EB8401D1F81005D1F81015C0F3042010
:1004D00056F82420C1F3014190477F00641C082C8A
:1004E000ECD3002D1DDA96F94400401C19D096F883
:1004F000447027F0C004204600F0BAF956F82050A6
:10050000002D0ED0BE090121A140A00000F1A040A5
:10051000D0F8000711EA080FC0F3014003D0022809
:1005200003D0BDE8F0870328FBD1032E05D10228B4
:1005300009D00221204600F03EFB31462046AC4661
:10054000BDE8F04760470321F4E700000060004089
:100550001005005004000020F0B58C480022041D56
:100560000378211D081D0126062B17D125782D079C
:1005700014D10D78C5F30315032D03D1077817F0B7
:10058000F00F0ED0042D03D1077817F0F00F08D02C
:10059000052D03D1057815F0F00F02D0062B09D0F8
:1005A00014E04FF08055D5F84452794FC5F34235E9
:1005B0003D6002E025782D0708D10D78C5F30315BD
:1005C000032D03D1057815F0F00F02D0062B06D0CD
:1005D0001DE0704D2F6827F080772F601AE0257896
:1005E0002D0714D10D78C5F30315032D03D107781A
:1005F00017F0F00F0ED0042D03D1077817F0F00F8D
:1006000008D0052D03D1057815F0F00F02D0062B88
:100610000AD015E04FF08045C5F80C21C5F810212F
:100620005B4D2D1F2A6002E025782D0708D10D783B
:10063000C5F30315032D03D1057815F0F00F02D093
:10064000062B05D066E0524C03236434236002E09D
:1006500023781B075ED10978C1F30311052959D10D
:10066000007810F0F00F55D14B4800684B490860F6
:100670004948001D0068091D0860474808300068A7
:10068000091D086044480C300068091D0860424894
:1006900010300068091D08603F4814300068091DCB
:1006A00008603D48183000683C49203108603A48ED
:1006B0001C300068091D0860374820300068091D9B
:1006C0000860354824300068091D08603248283029
:1006D0000068091D086030482C300068091D08605A
:1006E0002D48303000682D49403108602A483430A8
:1006F0000068091D0860284838300068091D086036
:1007000025483C300068091D0860234840300068D7
:10071000091D08601F487438016841F470010160C8
:10072000BFF34F8FBFF36F8F4FF01021D1F800024E
:10073000002803DBD1F80002002822DA184B1E60E3
:1007400018480468002CFCD01524C1F80042056844
:10075000002DFCD0C1F8044201680029FCD01A60C9
:1007600001680029FCD0BFF34F8F0A48F0380168B8
:100770000D4A01F4E06111430160BFF34F8F00BFE8
:10078000FDE70B4909480860F0BD0000E00F00F0EC
:100790003C050040FCED00E00404001020C50040D2
:1007A00004E5014000E401400400FA050090D00394
:1007B0000000002002E008C8121F08C1002AFAD178
:1007C00070477047002001E001C1121F002AFBD1D1
:1007D00070470000BFF34F8F05480168054A01F4D8
:1007E000E06111430160BFF34F8F00BFFDE70000E0
:1007F0000CED00E00400FA050EB500210091CDE9F2
:1008000001106A4644F20100FFF7E4FF05494FF08A
:10081000FF32082841F8202002D3084480F83C2009
:100820007047000004000020F0B54FF0FF3512B112
:100830000023082601E0082309260C4C05E000BF30
:1008400054F823707F1C04D05B1CB342F8D32846B5
:10085000F0BD26185DB286F8245044F82310002A13
:10086000F5D1E11881F83C00F1E700000400002018
:100870000249084490F92400704700000400002059
:10088000112000F077B900001CB500F0EDF808B1B8
:10089000FFF7B2FF0020019001A9112000F00EF92E
:1008A00008B1FFF7A9FF0948094A694600680090A6
:1008B00003208DF801000D2000F07AF808B1FFF751
:1008C0009BFF01210D2000F021F8FEE7280C00001D
:1008D000810800004907090E002806DA00F00F021F
:1008E00002F1E02282F8141D03E000F1E02282F818
:1008F000001400F01F02012191404009800000F126
:10090000E020C0F88012C0F8001170472DE9F047D0
:100910008846814600F070F90124224E002848469E
:1009200018D0FFF7A5FF304490F83C008009032859
:1009300002D0012806D007E01B48006804FA09F439
:10094000204201D1022100E003214846BDE8F047E2
:1009500000F031B900F05CF9002820D04846FFF7DC
:1009600087FF0546114F4FF4807007EB850100EBC0
:100970008500D1F8102580B242F00102C1F810259F
:1009800000F028F9B8F1000F09D04846FFF770FFD2
:1009900056F82000002802D0AC40C7F80443BDE858
:1009A000F0870000040000201005005000600040A7
:1009B0002DE9FC41DFF8A480044608EB0400002781
:1009C00090F924001346C0170E46401C01D008279A
:1009D00040E0F27819462046FFF726FF0546401C06
:1009E00037D0B07848B1A00000F1A040D0F800178F
:1009F00021F00201C0F8001707E0002173782046BB
:100A000000910A46019100F0C5F8F078C0B1144891
:100A1000317800EB8500D0F81025124B1A40C0F851
:100A200010254FF4F8524FF4403302EA042203EA4F
:100A300001410A43D0F810150A43C0F8102509E017
:100A400008EB0500327810F83C1F41EA8211017072
:100A500000E004273846BDE8FC81000004000020C7
:100A600000600040FFE0FCFF70B5124D95F84500B6
:100A700008B1082070BD0020411E2A18401CC0B2D9
:100A800082F824102028F8D300242046FFF7BEFE69
:100A9000641CE4B2092CF8D303210620FFF71AFFE7
:100AA00005494FF00040C1F80403012085F84500D6
:100AB000002070BD04000020006000402DE9FC41D2
:100AC000044628480D462044002690F92410491C6D
:100AD00001D008263FE0A978002751B30122002168
:100AE0002046FFF7A1FE411C21D083001E482A7832
:100AF00018446978D0F81035DFF870C003EA0C03A9
:100B0000C0F81035D0F810354FF4F85C0CEA042C1E
:100B100043EA0C034FF4403C0CEA02424FF4801CC1
:100B20000CEA01510A431343C0F8103504E00426CF
:100B300011E0FE2180F8241069780120A0400129ED
:100B40000CD00B4908600122204600970023114673
:100B5000019700F01FF83046BDE8FC810449091FE9
:100B6000F0E700000400002000600040FFE0ECFF20
:100B70000C0500500121814005480068044B21EA22
:100B800000021B1D1A600840191D08607047000014
:100B90000405005030B541EA4201DDE9034541EA70
:100BA0008301800041EA042100F1A04041EA0541AF
:100BB000C0F8001730BD800000F5E06000F1A040F3
:100BC000026822F440320260026842EA0141016098
:100BD00070470000034908B508440021016000681F
:100BE000009008BD0060004002494058012800D034
:100BF00000207047006000400449084490F9240038
:100C0000082801DB01207047002070470400002005
:100C10000449084490F92400082801D201207047B3
:100C20000020704704000020030000014C0C00006D
:100C30000000002004000000B4070000500C000079
:100C4000040000204C200000C40700000090D003E6
:0400000500000401F2
:00000001FF
