:020000040001F9
:10B00000109D00202DB5010035B5010037B50100B8
:10B0100039B501003BB501003DB50100000000005D
:10B020000000000000000000000000008DB40100DE
:10B030000000000000000000D1B4010043B5010091
:10B0400045B5010045B501008DBF0100D5BC01002B
:10B0500045B5010045B5010075BB010045B50100CE
:10B0600045B5010045B5010045B5010045B50100F4
:10B0700045B5010045B5010045B5010045B50100E4
:10B0800045B5010079BC010045B5010045B5010099
:10B0900045B5010045B501000DBD010045B50100F4
:10B0A00045B5010045B5010045B5010045B50100B4
:10B0B00045B5010045B5010000000000000000009A
:10B0C00045B5010045B5010045B5010045B5010094
:10B0D00045B5010045B5010000000000000000007A
:10B0E0000000000000000000000000000000000060
:10B0F0000000000000000000000000000000000050
:10B10000000000000000000000000000000000003F
:10B11000000000000000000000000000000000002F
:10B40000DFF80CD000F0EAFA0048004709E9010033
:10B41000109D0020401E00BF00BF00BF00BF00BF46
:10B4200000BF00BF00BF00BF00BF00BF00BF00BF24
:10B4300000BF00BF00BF00BF00BF00BF00BF00BF14
:10B4400000BF00BF00BF00BF00BF00BF00BF00BF04
:10B4500000BF00BF00BF00BF00BF00BF00BF00BFF4
:10B4600000BF00BF00BF00BF00BF00BF00BF00BFE4
:10B4700000BF00BF00BF00BF00BF00BF00BF00BFD4
:10B4800000BF00BF00BFC5D170470000264B196840
:10B490000868B0E8F04F80F30988BFF36F8F4FF072
:10B4A000000080F311887047000000000748006822
:10B4B00080F3088862B661B6BFF34F8FBFF36F8F1A
:10B4C0004FF0600080F3118800DF000000B0010041
:10B4D000EFF30980BFF36F8F134B1A681EF0100F44
:10B4E00008BF20ED108A20E9F04F106008B44FF03B
:10B4F000200080F31188BFF34F8FBFF36F8F05F0EB
:10B50000B9FC4FF0000080F3118808BC1968086886
:10B51000B0E8F04F1EF0100F08BFB0EC108A80F3B7
:10B520000988BFF36F8F70470C20002006488047C2
:10B5300006480047FEE7FEE7FEE7FEE7FEE7FEE718
:10B54000FEE7FEE7FEE7000031BD010001B40100A7
:10B5500010B5431A934209D28318881803E010F8F3
:10B56000011D03F8011D521EF9D210BD40EA01036E
:10B570009B0703D009E008C9121F08C0042AFAD2A9
:10B5800003E011F8013B00F8013B521EF9D210BD57
:10B59000D2B201E000F8012B491EFBD27047002215
:10B5A000F6E710B513460A4604461946FFF7F0FFC2
:10B5B000204610BD421C10F8011B0029FBD1801A47
:10B5C000704730B504460020034600E05B1C934200
:10B5D00003D2E05CCD5C401BF8D030BD30B50B46EB
:10B5E000014600202022012409E021FA02F59D42B3
:10B5F00005D303FA02F5491B04FA02F52844151E87
:10B60000A2F10102F1DC30BD2DE9F05F054600201A
:10B6100092469B4688460646814640241BE02846C3
:10B6200041464746224600F0FAF953465A46C01AA8
:10B63000914110D311461846224600F0E1F92D1A27
:10B6400067EB01084F4622460120002100F0D8F99F
:10B6500017EB00094E41201EA4F10104DFDC48462F
:10B6600031462A464346BDE8F09F2DE9FE4F80460D
:10B6700081EA0300C00F0C46009021F0004123F046
:10B680000045B8EB0200A94105D24046214690464C
:10B690001C460B46024623F00040104347D0270DBE
:10B6A000C7F30A00C3F30A510290401A01904028E0
:10B6B0006BDAC3F3130040F4801B0098924620B16C
:10B6C0000023D2EB030A63EB0B0B01985946C0F140
:10B6D0004002504600F094F906460D465046594641
:10B6E000019A00F0ACF910EB08006141002487EAF0
:10B6F000115284EAE7731A4340D0009A62B3019A68
:10B70000012A4FEA075215DC001B61EB02014FF0E2
:10B71000004202EA0752CDE90042001C41F58011C7
:10B7200032462B4600F0ACF903B0BDE8F08F40463E
:10B730002146F9E7001B61EB0201001C41F5801373
:10B7400000185B412018A2F5001747EB030140EAFF
:10B75000D570B6196D4111E06D084FEA360645EA1D
:10B76000C0754FEA0752001B61EB0201001C41F556
:10B77000801149084FEA30000019514132462B46EA
:10B7800003B0BDE8F04F00F06CB900980122400012
:10B790000023D0EB020263EBE073009821464FEAEE
:10B7A000E074B8EB000061EB0401E9E783F00043CB
:10B7B0005BE781F0004158E72DE9FE4F81EA030481
:10B7C00004F0004421F0004100944FF0000B23F0FE
:10B7D000004350EA01045ED052EA03045BD0C3F395
:10B7E0000A54C1F30A552C44A4F2F3340194A0FB8B
:10B7F0000254C1F3130141F48011C3F3130343F462
:10B80000801301FB024400FB034E840A970A44EABA
:10B81000815447EA8357A4FB076802958D0A05FB0C
:10B8200007854FEA932C04FB0C542705029D4FEA31
:10B83000065847EA1637B5EB08056EEB070C870E7E
:10B84000920E47EA811742EA8312A7FB0201B6EB88
:10B850000B0164EB00042B0D43EA0C335E1844EB40
:10B860001C50DA465146E7FB0201C5F313044FEAC8
:10B870000B3343EA14534FEA0432019C43EA0603B4
:10B88000A4F10C040294009CCDE900B400F0F8F897
:10B8900003B0BDE8F08F00200146F9E72DE9F04D37
:10B8A00081EA030404F0004B21F0004514464FF0F8
:10B8B000000A23F0004150EA050220D054EA0102B8
:10B8C0001DD0C5F30A570246C5F31303C1F3130095
:10B8D000C1F30A5640F4801543F48013A7EB060821
:10B8E000101BD64608F2FD3873EB050002D308F1B1
:10B8F000010801E092185B41B8F1000F03DA002063
:10B900000146BDE8F08D00204FF4801106468446C4
:10B910000EE0171B73EB050705D3121B63EB050342
:10B9200006434CEA010C49084FEA300092185B418B
:10B9300050EA0107EDD152EA030012D082EA040076
:10B9400083EA0501084305D0101BAB4106D2012252
:10B95000002306E000224FF0004302E06FF00102F6
:10B9600053101AEB06004CEB085110EB0A0041EBA8
:10B970000B01BDE8F04D00F074B8C1F30A52C1F3F9
:10B98000130140F2FF3341F480119A4202DA0020A1
:10B990000146704740F233439A42A2F2334202DC3E
:10B9A000524200F03CB800F02BB8000030B5041E45
:10B9B00071F1000404DB4FF00044404264EB0101EC
:10B9C000141E73F1000405DB1C464FF00043524285
:10B9D00063EB0403994208BF904230BD064C074D0B
:10B9E00006E0E06840F0010394E80700984710344F
:10B9F000AC42F6D3FFF708FD80180200A018020041
:10BA0000202A04DB203A00FA02F10020704791401E
:10BA1000C2F1200320FA03F3194390407047202A13
:10BA200004DB203A21FA02F00021704721FA02F3E8
:10BA3000D040C2F120029140084319467047202AA5
:10BA400006DBCB17203A41FA02F043EAE07306E046
:10BA500041FA02F3D040C2F1200291400843194656
:10BA6000704710B5141E73F1000408DA401C41F150
:10BA7000000192185B411A4301D120F0010010BD72
:10BA80002DE9F04D92469B4611B1B1FA81F202E0E8
:10BA9000B0FA80F220329046FFF7B2FF04460F461C
:10BAA00040EA0A0041EA0B0153465A46084313D0C4
:10BAB000114653EA010019D0C8F140025046FFF781
:10BAC000AEFF05460E46504659464246FFF798FFE0
:10BAD000084305D0012004E020463946BDE8F08D3A
:10BAE0000020054346EAE0762C4337430A98630575
:10BAF000E40AA0EB08000022FD0A44EA47540A3099
:10BB000002D500200146E9E7010510196941DDE988
:10BB1000084500196941BDE8F04DA2E770B58C18E1
:10BB200010F8015B15F0070301D110F8013B2A1151
:10BB300006D110F8012B03E010F8016B01F8016B3E
:10BB40005B1EF9D12B0705D40023521E0DD401F83A
:10BB5000013BFAE710F8013BCB1A921C03E013F803
:10BB6000015B01F8015B521EF9D5A142D8D3002038
:10BB700070BD00002DE9F0470025DFF8F090A846E1
:10BB80004FF4807601242F46304603F065FC38B12F
:10BB9000D9F80403204203D0304603F053FC254378
:10BBA000361D64007F1CB6B2082FEDD34FF4BE746F
:10BBB000204603F051FC38B1204603F043FC2C48EA
:10BBC00045F00045D0F800802A4E15F0FF0F14D044
:10BBD000012700242F420CD009EB8401D1F8100575
:10BBE000D1F81015C0F3042056F82420C1F3014108
:10BBF00090477F00641C082CECD3002D32DA00241F
:10BC0000B14609EB04004E4690F95010491C26D06D
:10BC100090F8507027F0C005284601F09FFB56F8B9
:10BC20002060E6B1BF090120A840A90001F1A041B0
:10BC3000D1F8001710EA080FC1F3014102D0022920
:10BC400002D00CE003290AD1032F05D102290BD021
:10BC50000221284603F0DFFB39462846B047641C22
:10BC6000042CCED3BDE8F0870321F2E7006000404A
:10BC700010050050BC2A002038B5144C0025C4F82B
:10BC80000051D4F800010090C4F84051D4F84001AC
:10BC90000090202080F3118804F5807405F0C8FB23
:10BCA000D4F80414081A30F07F400CD0022802D9CE
:10BCB000401E05F0CFF805F0C1FB20B104494FF05C
:10BCC0008050086040BF85F3118838BD00100140E6
:10BCD00004ED00E070B50C480A4C0025C0F808518E
:10BCE000214604F0F9FC00280BD1A07EFF2801D0EA
:10BCF00003F0A0FB65762571201D2168BDE870402A
:10BD0000084770BD182C002000300040074810B5CF
:10BD1000406830B18047002807D0BDE8104000F0EF
:10BD2000BFBEBDE8104002F067BD10BDF81F002087
:10BD3000F0B58C480022041D0378211D081D012642
:10BD4000062B17D125782D0714D10D78C5F30315CF
:10BD5000032D03D1077817F0F00F0ED0042D03D177
:10BD6000077817F0F00F08D0052D03D1057815F0EE
:10BD7000F00F02D0062B09D014E04FF08055D5F813
:10BD80004452794FC5F342353D6002E025782D07D6
:10BD900008D10D78C5F30315032D03D1057815F0EF
:10BDA000F00F02D0062B06D01DE0704D2F6827F053
:10BDB00080772F601AE025782D0714D10D78C5F310
:10BDC0000315032D03D1077817F0F00F0ED0042DC3
:10BDD00003D1077817F0F00F08D0052D03D10578AF
:10BDE00015F0F00F02D0062B0AD015E04FF0804579
:10BDF000C5F80C21C5F810215B4D2D1F2A6002E00B
:10BE000025782D0708D10D78C5F30315032D03D12F
:10BE1000057815F0F00F02D0062B05D066E0524CE5
:10BE200003236434236002E023781B075ED1097882
:10BE3000C1F30311052959D1007810F0F00F55D145
:10BE40004B4800684B4908604948001D0068091DBF
:10BE50000860474808300068091D086044480C30F5
:10BE60000068091D0860424810300068091D08601C
:10BE70003F4814300068091D08603D4818300068CC
:10BE80003C49203108603A481C300068091D0860B0
:10BE9000374820300068091D0860354824300068A4
:10BEA000091D0860324828300068091D08603048C4
:10BEB0002C300068091D08602D48303000682D497D
:10BEC000403108602A4834300068091D086028485D
:10BED00038300068091D086025483C300068091D9D
:10BEE0000860234840300068091D08601F48743806
:10BEF000016841F470010160BFF34F8FBFF36F8F92
:10BF00004FF01021D1F80002002803DBD1F8000225
:10BF1000002822DA184B1E6018480468002CFCD058
:10BF20001524C1F800420568002DFCD0C1F8044278
:10BF300001680029FCD01A6001680029FCD0BFF319
:10BF40004F8F0A48F03801680D4A01F4E06111434F
:10BF50000160BFF34F8F00BFFDE70B490948086040
:10BF6000F0BD0000E00F00F03C050040FCED00E0FB
:10BF70000404001020C5004004E5014000E4014035
:10BF80000400FA050090D003682000200348007FD9
:10BF900008B104F0DFBC04F059BC0000142B0020F1
:10BFA0000FB4054B10B503A9044A029800F0CAF873
:10BFB00010BC5DF814FB000079E20100F41F0020C2
:10BFC00002E008C8121F08C1002AFAD17047704762
:10BFD000002001E001C1121F002AFBD170470000C0
:10BFE0002DE9FF5FDDE90220010DDDF838B00243E5
:10BFF00018D044F61050A1F2FF3141430D140F98B0
:10C00000012820D0A5EB0B00401C5FEA000A4FF08E
:10C010000004474EDFF81C91A046504616D5CAF1E1
:10C02000000728E00F98012443A2012808D000212E
:10C0300000980F9BC0E90021C0E90243BDE8FF9FC3
:10C040006FEA0B01F4E7CBF10000DEE7074612E0F0
:10C05000F80707D02246334640464946FFF7ACFB77
:10C06000804689462246334610461946FFF7A4FB10
:10C0700004460E467F10002FEAD1DDE90201BAF135
:10C08000000F42464B4602DAFFF796FB01E0FFF74E
:10C0900005FC04460E460022284BFFF787FC03D818
:10C0A0004FF0FF30014607E00022254B2046314685
:10C0B000FFF7DBFAFFF761FC102409E0002C0ADB34
:10C0C0000A220023FFF7A0FA019B30321A55641EA2
:10C0D00050EA0102F2D1641C019AC4F11103144424
:10C0E0000F9A012A03D0012208430DD10AE0084328
:10C0F00004D000204FF0110B0F9080E7A3EB0B054D
:10C100006D1E0DE05B4504DD4FF0000205F10105F9
:10C1100004E003DA4FF00002A5F10105002AECD09B
:10C1200000980F99C0E90231C0E9004586E7000098
:10C13000000024400000F03F300000000000F04309
:10C140000000E03F2DE9FF4F95B09B46894606462B
:10C1500000250FE2252877D100242746F84A01213F
:10C16000059400E0044316F8013F203B01FA03F078
:10C170001042F7D130782A2811D06FF02F03307891
:10C18000A0F13002092A16D8059A44F0020402EB05
:10C19000820203EB42021044761C0590EFE759F847
:10C1A000042B0592002A03DA504244F4005405900F
:10C1B00044F00204761C30782E2816D116F8010FB0
:10C1C00044F004042A280DD06FF02F023078A0F13B
:10C1D0003003092B09D807EB870302EB4303C71889
:10C1E000761CF3E759F8047B761C30786C280FD066
:10C1F00006DC4C2817D068280DD06A2814D104E03A
:10C20000742810D07A280FD10DE044F400140AE00D
:10C2100044F4801401E044F440147278824202D164
:10C2200004F58014761C761C307866280BD013DC5D
:10C23000582877D009DC002875D04528F6D0462844
:10C24000F4D047281AD19DE118E0632835D064283E
:10C2500079D0652812D195E1702873D008DC672861
:10C26000F1D069286FD06E280DD06F2806D1B5E0C7
:10C2700073282CD0752875D0782874D05A46179911
:10C2800090476D1C75E1C4F30250022809D00328C1
:10C290000DD0D9F8001004280DD00D6009F1040963
:10C2A00067E1D9F80010EA17C1E90052F6E7D9F8BA
:10C2B00000100D80F2E70D70F0E719F8041B8DF8FF
:10C2C000001000208DF80100EA46012003E059F833
:10C2D00004AB4FF0FF3061074FF0000102D40DE0D6
:10C2E00008F101018846B9420FDA8045F8DB1AF8F7
:10C2F00008100029F4D108E008F1010188468142C4
:10C30000FADB1AF808100029F6D105985B46A0EB75
:10C31000080721463846179A00F094FA284400EBA3
:10C32000080507E04DE029E10DE01AF8010B5A4637
:10C3300017999047B8F10108F7D25B462146384675
:10C34000179A13E142E00A220092C4F302524FF01E
:10C35000000A022A08D059F804CB032A4FEAEC71EC
:10C360000AD00DE029E02AE009F1070121F00702D7
:10C37000F2E802C1914609E00FFA8CFC4FEAEC7139
:10C38000042A03D14FFA8CFC4FEAEC71002907DA3A
:10C390000A460021DCF1000C61EB02012D2202E0D3
:10C3A000220504D52B228DF80420012203E0E207A8
:10C3B00001D02022F7E7904659E00A2102E010223E
:10C3C0000DE010214FF0000A00910BE010224FF019
:10C3D000000A44F004040827009203E008224FF00A
:10C3E000000A0092C4F30252022A05D059F804CB85
:10C3F0000021032A08D009E009F1070121F0070212
:10C40000F2E802C1914605E01FFA8CFC042A01D132
:10C410000CF0FF0C4FF00008220728D5702806D03A
:10C42000009B83F0100353EA0A0305D00EE040227C
:10C430008DF80420012208E05CEA010206D03022D7
:10C440008DF804208DF8050002229046009B83F0B1
:10C45000080353EA0A030AD15CEA010201D1620728
:10C4600005D530228DF804204FF001087F1E582892
:10C4700004D034A003900EA802900DE036A0F9E796
:10C4800053466046009AFFF7BFF884460398825CE3
:10C490000298401E029002705CEA0100F0D10298FE
:10C4A00006A9081A00F1200A600702D524F4803496
:10C4B00000E00127574502DDA7EB0A0000E000205D
:10C4C00000EB0A01009005984144401A0590E003F2
:10C4D00006D45B462146179A059800F0B3F9054447
:10C4E000002706E001A85A46C05D179990476D1CC9
:10C4F0007F1C4745F6DBE0030CD55B462146179AC7
:10C50000059800F09FF9054404E030205A46179939
:10C5100090476D1C0099481E00900029F5DC08E04A
:10C52000029802995A460078491C0291179990473F
:10C530006D1CBAF10001AAF1010AF1DC65E100000D
:10C5400009280100303132333435363738396162E9
:10C5500063646566000000003031323334353637AD
:10C5600038394142434445460000000000F058F984
:10C570000544761C307800287FF4ECAD19B02846CD
:10C58000BDE8F08F620700D4062709F1070222F008
:10C59000070CFCE80223E14603F000485FEA080CC0
:10C5A00002D00FF2702C0DE05FEA045C02D50FF2AE
:10C5B000682C07E05FEAC47C02D00FF2602C01E037
:10C5C000AFF2700C4FF0FF3823F00043CDF850C0AD
:10C5D00065280CD006DC452809D046281DD0472800
:10C5E0003DD13DE0662818D067287ED138E0002193
:10C5F000112F01DB112000E0781CCDE9000106A914
:10C600000EA8FFF7EDFCDDE90F010E9A0391002162
:10C61000009207F1010A04914DE04FF000400097AD
:10C62000CDE9011006A90EA8FFF7DAFCDDE90F023B
:10C6300003920E9B11990022DDF80CA00093049246
:10C6400011B9791C00EB010AB7EB0A0004D4C0F160
:10C65000FF3007F1010A0490AAEB0700019044E0C3
:10C66000012F00DA01270021112F01DD112000E048
:10C670003846CDE9000106A90EA8FFF7B1FCDDE9B7
:10C680000F010E9A0391002104910092BA462107EE
:10C690000CD40399514500DA8A46BAF1010F05DD41
:10C6A000009AAAF10101515C302908D0B84202DA9F
:10C6B00010F1040F06DA0121CDE9011015E0AAF10D
:10C6C0000101E9E7002805DC049901440491AAEB83
:10C6D000000102E0411C514500DD8A460499401AE0
:10C6E000401C01904FF000400290200704D40198B4
:10C6F000504501DBCDF8048000208DF84F000298F2
:10C700000DF14F07B0F1004F25D02B200E9002986D
:10C710004FF0020800280CDA404202902D200E90C3
:10C7200007E00A210298FEF759FF3031029007F81E
:10C73000011DB8F10001A8F10108F2DC02980028FF
:10C74000EFD1791E0E980870307800F0200040F08C
:10C75000450007F8020D12A8C01B00F10708149845
:10C76000007800B1012000EB0A01019801EBE071B3
:10C7700005984144401A401E0590E00306D45B46EC
:10C780002146179A059800F05DF805441498007842
:10C7900018B15A46179990476D1CE00324D55B46A3
:10C7A0002146179A059800F04DF805441CE00498BE
:10C7B000002807DBDDE90301884203DD0098405CC7
:10C7C000179901E0179930205A469047049805F1CF
:10C7D0000105401C04900198401E019004D12E20B8
:10C7E0005A46179990476D1CBAF10001AAF1010A47
:10C7F000DDDC05E017F8010B5A46179990476D1CD0
:10C80000B8F10001A8F10108F4DC5B462146179A53
:10C810000598ABE62D0000002B0000002000000072
:10C820002DE9F041044600251E461746880404D42D
:10C8300005E039462020B0476D1C641EF9D5284616
:10C84000BDE8F0812DE9F041044600251E469046E2
:10C85000C80301D5302700E02027880404D505E06F
:10C8600041463846B0476D1C641EF9D52846BDE8E0
:10C87000F0810B46012103F001BB2DE9FC5F00258F
:10C88000168807461580406B14468946A8464FF027
:10C890000C0A11234FF0020B98B101784846032E81
:10C8A00048D380F800B02288521C92B22280835470
:10C8B0002288521C92B2228009F802102088401C63
:10C8C00020803A6BDAB12088494600F11205B54262
:10C8D00030D80B5420881023401C80B220800B5489
:10C8E0002088401C20800F202388155C401ECD54DA
:10C8F000238840B25B1C23800028F5DA454697F870
:10C900002E0030B133462246494601F0D3FF0500E0
:10C9100011D197F82D0030B132462146484600F03B
:10C92000EDFB050007D1B87820B32088C846001D6C
:10C93000B04202D95046BDE8FC9F684679DF002826
:10C94000F9D12188032008F8010020881921401C12
:10C9500080B2208008F800102088401C80B220801F
:10C9600000EB0801BDF8000004F060F801462088E3
:10C9700008442080F878B8B1228897F90310D31CB6
:10C980004846B342D6D800F802B022880123521C90
:10C9900092B2228083542288521C92B2228009F8DB
:10C9A00002102088401C20807868B8B1218890F956
:10C9B0000020CB1C4846B342BCD800F801B0218807
:10C9C0000A23491C89B2218043542188491C89B219
:10C9D000218009F801202088401C2080388950B12E
:10C9E000CDE900464B460622022107F1080004F07B
:10C9F00033F805009FD1388A50B1CDE900464B4647
:10CA00000722032107F1100004F026F8050092D157
:10CA1000388B50B1CDE900464B461522142107F161
:10CA2000180004F019F8050085D1386A30B1334692
:10CA30002246494600F026FE0500DBD1786A30B177
:10CA400033462246494602F02FF90500D2D197F825
:10CA50002C0038B1334622464946384603F0FCFAEA
:10CA60000500C7D1387838B13346224649463846A2
:10CA700002F04CF90500BDD128465CE7BFF34F8FAB
:10CA800005480168054A01F4E06111430160BFF304
:10CA90004F8F00BFFDE700000CED00E00400FA0539
:10CAA0000EB500210091CDE901106A4644F2010063
:10CAB000FFF7E4FF014B1B6818470000782A0020AD
:10CAC00010B58268C368934203D001F02BFB0020AD
:10CAD00010BD052010BD29B112B1531E134203D061
:10CAE000092070470E20704701608380002181601B
:10CAF000C1600846704710B58268C3689A1A838877
:10CB00009A4203D801F018FB002010BD042010BD8C
:10CB100038B50C46074BA268097802EB420253F87D
:10CB20002250054A126A0092024604F10800236965
:10CB3000A84738BD002C0020D01F0020074910B5A1
:10CB40000A7802EB820201EB8201091DFFF7E0FF88
:10CB5000BDE81040042003F083BB0000342B00200C
:10CB600010B5044609488168C2688088511A81421C
:10CB700006D10121064802F09FFA08B1052010BD38
:10CB80002146BDE810400148FFF79ABF9C2A0020CB
:10CB9000CA1F002070B50446234888B01E460D0009
:10CBA000426035D0A888296882B22048FFF793FFF9
:10CBB00000282ED1A889A96882B21C481030FFF73E
:10CBC0008AFF002825D1202219496846FEF7C0FCBB
:10CBD000A0680690207900B101208DF814008DF82E
:10CBE0001C60607900B10E208DF81500E07802908D
:10CBF000A078039020780190607800900D496846F5
:10CC000002F010FA002804D19DF81D0018B104E0CC
:10CC1000072008B070BD02F095FA03480121801C7E
:10CC200002F04AFAF5E70000C81F00209C2A002005
:10CC300004180200A507020010B5044607480121A8
:10CC40004470401C02F024FB112805D12146BDE8A8
:10CC500010400348FFF74FBF10BD0000C81F002061
:10CC6000AC2A00202DE9F0410446006802F0BFFB29
:10CC70002078174F012606FA00F03860002160681E
:10CC800002F0ACFB1348144D007FA069C5F82405E1
:10CC9000607D217D0843C5F86C05D4E90001C5F825
:10CCA0000C05C5F81415207D01280FD10021A068BE
:10CCB00002F094FBE06802F09AFB207B86403E6025
:10CCC000D4E90201C5F80815C5F81005BDE8F081E2
:10CCD00008050050142B002000200040F0B50C4641
:10CCE00093B01F210726ADF80010ADF804100027FF
:10CCF00050B1C17849070DD56A4602A9FFF7BDFDBD
:10CD0000002808D102AD02E00025ADF800706CB13A
:10CD1000E07810B1304613B0F0BD01AA0AA9204650
:10CD2000FFF7ABFD0028F6D10AAA02E00022ADF819
:10CD30000470BDF80400C3B2BDF80000C1B22846BB
:10CD400072DFE8E770B50D4604991646040040D03E
:10CD5000F6B3414800224271C0E903312422314632
:10CD60003E48FEF7F5FB00F0D5F83C493431A1F11F
:10CD7000100001602031816038215C38FEF70FFC23
:10CD80003648217838380170A1788170E178C17017
:10CD900061784170D4E90412C0E90412D4E90212A6
:10CDA000C0E90212D4E90612C0E90612616AD1B1E3
:10CDB00000F1AC0100F1B80241628A60636A1B882D
:10CDC0000B80616A436A898899800021436A07E081
:10CDD000FFE70E2070BD666AB668765C5654491C43
:10CDE0009E888E42F7D8A16AD9B11C4AAC32A2F112
:10CDF0000C018A608162A36A9B888B80A16A836A26
:10CE0000098819800021836A04E0A66AB668765C06
:10CE10005654491C9E888E42F7D894F82C1080F8FE
:10CE20002C10216A49B10C4914310162226A5288DE
:10CE30004A80216A026A09881180616821B1064925
:10CE4000891D4160616841602946BDE87040034822
:10CE50003838FFF743BF0000981F0020302900201A
:10CE600010B502881D4C102A18D00021112A1BD0A1
:10CE7000192A18D18079002815D16079012820D08D
:10CE8000022824D0032824D004280CD12171E26880
:10CE90000846002A07D0BDE810401047017D01294F
:10CEA00001D18088208110BD6170808821898842ED
:10CEB000F9D1012006E021690029F4D0BDE8104035
:10CEC0000847022000F02EF80028F4D110BD0320FE
:10CED000F8E7032020710420F4E70000981F0020E9
:10CEE00010B5022801D0032810D1094C2078002861
:10CEF0000CD000202070607900F014F8002805D0D4
:10CF00002169002902D0BDE81040084710BD00008B
:10CF1000981F00200248002181618183817770473A
:10CF2000981F00202DE9F04F724C87B000266071E9
:10CF300006A8069602F09AFD0127082805D00028C9
:10CF400071D1069810B12770C0E00696FFF7E2FF96
:10CF5000694D687810B16079012804D0A87848B18B
:10CF60006079022806D1E16819B1E7700820884786
:10CF700000E0E6706079DFF87C814FF0020A08F18A
:10CF800018084FF0030B012806D1687840B108F16A
:10CF9000010002F005FB18B16079022802D00AE016
:10CFA00084F805A0A87820B108F1010002F0F8FA91
:10CFB00008B984F805B0287B4FF0040920B96079DE
:10CFC000032801D184F80590287E20B960790428CF
:10CFD00001D166712671E16841B16079032801D001
:10CFE000042803D1287808B16078C0B1A670182150
:10CFF0006846FEF7D4FA8DF8006001968DF8086057
:10D000000396607901280FD0022817D03A4E2436B3
:10D01000A6F15C0703281ED004284DD13BE0A77081
:10D0200007208847E3E752E0ADF81260CDF80480AE
:10D030008DF80070ADF8106027713FE0CDF80480E6
:10D040008DF800702889ADF81200A888ADF810009E
:10D0500084F804A032E0A88AADF81200288AADF85E
:10D0600010002548243003F027FF18B1287808B1B4
:10D07000607810B184F804B01EE01F488DF808A055
:10D08000039687F8039000213838FFF727FE002821
:10D090001DD105202BE0A88BADF81000288CADF831
:10D0A00012001548243003F007FF18B1287808B1A2
:10D0B000607878B184F80490607918B1684673DFBD
:10D0C000002804D1E16809B120798847002007B021
:10D0D000BDE8F08F08488DF808A0039687F8039004
:10D0E00000213838FFF7FAFD0028F0D10620207122
:10D0F000E2E70000981F0020302900207CB505469B
:10D1000008880C460930904201D90C207CBD684645
:10D1100071DF0028FAD121880820685420881B215B
:10D12000401C80B2208029542088401C80B220807E
:10D130002844DDF801100160BDF8051081802088C9
:10D14000801D80B220809DF8001001B1012129547A
:10D150002088401C208000207CBD10B5044600F0D3
:10D1600053FC204602F098F92046BDE81040FFF736
:10D1700077BE0FB585B061B1A0F57F43FF3B06D008
:10D18000BDF82030142B06D9072009B000BD0820B7
:10D19000FBE70E20F9E7002300930193029303932A
:10D1A0000988ADF8001001218DF8021008A9CDE919
:10D1B0000212ADF804306946A6DFE6E700B585B097
:10D1C000002348221449082003F092F808B1FFF721
:10D1D00067FC6A460121002003F074F808B1FFF7EC
:10D1E0005FFC0E4802F030FF08B1FFF759FC6846BB
:10D1F00003F05EF808B1FFF753FC094803F04EF85E
:10D2000008B1FFF74DFC074803F08AF8002801D069
:10D21000FFF746FC05B000BD9C220020001E002048
:10D220005BD10100B10602001CB5044681786A4654
:10D230000C4802F02DFC002813D160780A49C0EB9D
:10D24000C00001EB80001C231A46694602F0CAFCAC
:10D25000054806494430807A51F820202146684626
:10D2600090471CBDC01F0020342A0020E417020094
:10D270002DE9F05FDFF878900024A346A9F1080AB1
:10D28000661E09F1080800BF4FF48077384601F0A8
:10D29000D5FC4D4649F8240018B9214615A0FEF7E3
:10D2A0007FFE55F82400621C3946FEF771F91049DB
:10D2B0004FF4C2774439384601F804B001F0BEFC9F
:10D2C00055464AF8240018B9214612A0FEF768FE18
:10D2D00055F824003946FEF762F9314648F82460D3
:10D2E00016A0FEF75DFE641C022CCDDBBDE8F09FAE
:10D2F0005C1F00204461746120627566666572205F
:10D30000256420416C6C6F63206661696C65640DF7
:10D310000A0000005472616E736D697373696F6EF9
:10D320002062756666657220256420416C6C6F63AF
:10D33000206661696C65640D0A0000007478733AB8
:10D3400025640D0A00000000816840680968814278
:10D3500001D20120704700207047000002490844B4
:10D3600090F9300070470000BC2A00202DE9F04100
:10D370003B48017801EB810100EB8104D4E903060D
:10D3800000EB40013648241DCC3000EB8100B0F8A2
:10D3900008804589476802F0FAFBB6FBF0F100FB14
:10D3A000116088B35FF0000008FB05776188A288F0
:10D3B000DFF8B08011448D190022C8F8102040B168
:10D3C00002F0E5FB6188884221D0BD4201D1A088EE
:10D3D000E8B1A06802281AD002F0D9FBA18844461F
:10D3E0003144B1FBF0F200FB12108008C8F80C00C9
:10D3F00002F0CDFBB5FBF0F100FB115078B100203D
:10D40000BD4228D068B126E0FFE70120CCE702F05A
:10D41000BEFBB6FBF0F10320C8F814101CE001209D
:10D42000EEE7ADB2BEB202F0B2FBB6FBF0F702F02F
:10D43000AEFBB5FBF0F0874201D1701B09E002F0B2
:10D44000A6FB064602F0A3FBB5FBF0F100FB115072
:10D45000301A800820610220BDE8F04102F000BFD0
:10D46000342B0020D01F00200648017801EB8101F9
:10D4700000EB81000079042801D000F059B80120A8
:10D4800002F0EEBE342B00200A480B4A017801EB73
:10D49000810100EB8100C18811620079012805D06B
:10D4A000032801D0042804D1FFF760BF012002F057
:10D4B000D7BE7047342B0020D01F002000EB800225
:10D4C0000548002100EB820001220171C180C0E902
:10D4D0000321416101817047342B00202DE9F04187
:10D4E000114D069E6C780A2C1BD02F783C440A2CD8
:10D4F00000D30A3C04EB840405EB840420716261D0
:10D50000D1E90001C4E90301E38026816878401C69
:10D5100068700648007808B9FFF7B6FF0020BDE83C
:10D52000F0810420FBE70000342B0020D01F0020F6
:10D5300010B50E4C207800EB800004EB8001002039
:10D54000091DFFF7E5FA2078FFF7B8FF6078401E65
:10D5500060702078401CC0B220700A2801D10020E1
:10D560002070BDE81040002002F07ABE342B00206D
:10D570002DE9F84F4FF0000A06460F46544655462F
:10D580001E48CDF800A001F08BF82BE01C483A1B98
:10D590006B4650F826000119184801F095F80098DC
:10D5A0000444BC4202D1154800F08EFFDFF85090D1
:10D5B000A9F10809C5F5C27259F826006B46411950
:10D5C0000E4800F094FF009901280D44F2D0B5F503
:10D5D000C27F02D30BA0FEF7E3FCBC4202D1074896
:10D5E00000F072FFBC42D1D30549443901F14C002F
:10D5F00001F806A040F82650BDE8F88FE42200208C
:10D600005C1F0020636F6D7072657373696F6E20AD
:10D6100073686F756C64206E6576657220657870CE
:10D62000616E642074686174206D756368720D0AA0
:10D6300000000000124EA6F1180404F16405607A9F
:10D64000315C61B155F82010491C08D14FF480714C
:10D65000FFF78EFF607A401C00F001006072A07A34
:10D6600055F820100029EADD325C002AE7D1E27982
:10D67000002AE4D10122E271A16400F09BF8DEE708
:10D68000181F00202DE9F04117880646B81D1446E2
:10D690000D46984202D90C20BDE8F081318807225E
:10D6A00006290AD34FF4486C4FF6FF73614501D940
:10D6B000994202D17088062801D21046ECE76045F5
:10D6C00001D99842F9D1994203D0984201D08142C0
:10D6D000F3D80520E85520881221401C80B2208014
:10D6E00029542088401C80B220804119308803F0E2
:10D6F0009DF92188084480B220804119708803F088
:10D7000095F92188084420800020C5E770B5094BB1
:10D71000044608209E7A00250E4208D0A4F57F40DA
:10D72000FF3802D01889A04202D10020156070BDD8
:10D73000052070BD6C2A002000EB40020748012143
:10D7400000EB820081724FF6FF710181FF21C172EF
:10D750000021016081808171704700006C2A0020E7
:10D7600010B5134C207900071ED46069401C60611D
:10D77000E06808B104200AE001F074F808B1022062
:10D7800005E0206960B16068C10704D00320BDE8EE
:10D79000104002F057BF40F0010060600020F6E743
:10D7A000BDE81040FFF760BEBDE8104002F040BF8A
:10D7B000D01F00202DE9F041DFF86C800C46A8F165
:10D7C00010070646A7F15405142919D2A96C57F879
:10D7D0002600091B42181449A3B21839288AFFF7FA
:10D7E000C8FC0028F2D1C4F114040F49A3B20F4AB7
:10D7F0001839288AFFF7BDFC0028F6D100210FE078
:10D80000A96C57F82600091B421807491423183938
:10D81000288AFFF7AEFC0028F2D158F826101439F8
:10D8200048F82610BDE8F081641F00207420002015
:10D8300006494868020707D4820702D540F0010074
:10D840004860022002F0FEBE02F0F2BED01F0020AF
:10D850002DE9FC410E46044681786A46254802F0CF
:10D8600017F9002829D16078234F00EB400007EB1F
:10D870008000807A400622D4022E20D0012E20D0B3
:10D880001E4D1D49A0787039C0EBC00001EB80012E
:10D8900000231C226846A847A8B1022E0DD020788C
:10D8A000154900EB40000C3101EB80001449807AEF
:10D8B00051F82020214668469047BDE8FC81114D73
:10D8C000DFE7114DDDE7022EF7D0607800EB400076
:10D8D00007EB8000817A21F040018172064960786F
:10D8E0003839C0EBC00001EB80011C231A466846A2
:10D8F000A847D4E7C01F00206C2A0020B905020009
:10D90000D4170200FDFD010035FD01002DE9F047AF
:10D9100005250F4F9046894606460024C4EBC400F7
:10D9200007EB800036B1072231461030FDF749FE83
:10D9300018B106E0018B414503D10025C9F800402C
:10D9400002E0641C022CE9D32846BDE8F087000001
:10D95000FC2900207CB5054681B26A46074802F0E2
:10D9600097F8040008D15821684602F0B7F804007F
:10D9700002D1284601F01EFE20467CBDC01F0020BB
:10D980000A780748112A02D0122A06D102E0496813
:10D99000098801E04FF6FF71018200207047000006
:10D9A000001F00201FB58DF80C0002F0F5F808B13B
:10D9B000FFF776F803A800F05FFA08B1FFF770F8F8
:10D9C0009DF80500694620F01E0040F001000C3073
:10D9D00020F020008DF8050007208DF806001020AB
:10D9E0008DF807000648009001208DF804000548D6
:10D9F00000F056FB002801D0FFF752F81FBD0000D1
:10DA000081D901000E1F00202DE9F04F054693B08B
:10DA1000FA48FF240E9400784FF0000A002858D0EE
:10DA2000DFF8DC83D8F80000002852D001A800F00D
:10DA300017FA08B1FFF734F8281D05902A20ADF831
:10DA400018000027FF208DF806008DF8047000975D
:10DA5000EB4C28880C3CBB4610280FD0A8886A469F
:10DA60000221FFF753FE48B9009800EB400104EB98
:10DA70008101C97A8DF806108DF80500DFF88093D2
:10DA80002888A9F14409132109F11C02A2F15406C6
:10DA9000172875D010DC10281ED011285ED013284E
:10DAA0006FD0142815D1009800EB400004EB8000E3
:10DAB000C07AFF287DD09AE0D24B182877D01C2856
:10DAC00076D0522805D198F80A0053F8201001A802
:10DAD000884713B0BDE8F08F4FF6FF766A46012104
:10DAE0003046FFF713FE0028F3D10099022201EB24
:10DAF000410004EB8000827211228DF810208DF815
:10DB00000510A9880181D5F8061001606989818016
:10DB1000297B8171687DC10708D0B849491C01EB98
:10DB200050000078FF2808D00E9006E032460EA97B
:10DB3000A81DFFF7EBFE00280FD100990E9801EB0E
:10DB4000410104EB8101C8728A7A42F008028A72AC
:10DB50008DF8060001A8FFF767FB6BE1009800EB6A
:10DB6000400004EB8001887A20F0020088720107EF
:10DB700008D500060FD5002101A8FFF769FE0AE0CD
:10DB8000B8E043E09DF80600FF2804D001F012FD44
:10DB9000FF208DF806000099102001EB410104EBF5
:10DBA0008101887212208DF8100043E101E0F9E054
:10DBB0003EE1EA890EA90020FFF7A8FE78B9009996
:10DBC0000E9801EB410104EB8101C8728A7A42F0A0
:10DBD00008028A728DF8060001A8FFF725FB00985D
:10DBE00000EB400004EB8000C07AFF2804D00098CE
:10DBF000C0EBC00109EB810A00980023C0EBC00014
:10DC000006EB8002A888514682DF62E700988DF813
:10DC1000101000EB400104EB81018B7A43F0040308
:10DC20008B72CB7AFF2B32D01621C0EBC0008DF85F
:10DC3000101002EB800014210830FDF7B0FC0098B2
:10DC400000EB400004EB8000817A41F040018172DA
:10DC50000099CDF82CB001EB410204EB820208AB35
:10DC6000D27ACDF828B0C2EBC20206EB8202CDE92F
:10DC70000C2BC1EBC10209EB8201CDE9081BA8887E
:10DC800008F1040200217FDF0028BED1D2E00DF1AF
:10DC9000380C48F243020020C0EBC00306EB8303BC
:10DCA0009B7EFF2B04D0401C0228F5D31746CFE7FC
:10DCB0000A78022A0CD0C0EBC00206EB8202FD23D8
:10DCC00093760B6813618B8893828979917505E04F
:10DCD000C0EBC00106EB8101FE228A768CF80000C1
:10DCE00000990E9801EB410104EB81018DF80600CB
:10DCF000C872ADE798F8091021F0010188F8091001
:10DD0000DDF800C00CEB4C0304EB8300817A21F0BA
:10DD10000402827214218DF81010A97921B1C07A01
:10DD2000FFF718FEAF7985E0E979490739D59DF805
:10DD30000610FF297ED042F008028272EA7A92072A
:10DD400007D5C1EBC10206EB8202957E25F00105E5
:10DD50009576C27AFF2A6DD014F82320022A0ED0BD
:10DD6000C1EBC10106EB810102680A6182888A82E7
:10DD700080798875887E20F0020088760DE0CCEBF3
:10DD8000CC0209EB8200428AC1EBC10006EB8000A5
:10DD90000283817E21F001018176012101A8FFF734
:10DDA00057FD47E0A8790121B1EB101F2CD100F0FD
:10DDB0000F00012828D1009800EB400104EB8101FD
:10DDC000897A090720D5C0EBC00002EB800014213E
:10DDD0000830FDF7E4FB16208DF81000009800EBEA
:10DDE000400004EB8000817A41F06001817298F874
:10DDF000091041F0020188F8091017E0B81F00204F
:10DE0000782A0020F4170200009800EB400004EB91
:10DE10008000817A41F08001817215208DF8100018
:10DE200098F80A0053F8201001A88847002701E05D
:10DE30008DF810103A4604A901A8FEF73BFE9DF8A4
:10DE4000100012287FF4E1AE009800EB400104EBD3
:10DE50008101897A01293FF4D8AEFFF76DFC38E6DD
:10DE600030B1FF21017041708170C1700020704796
:10DE700048F20E00704700002DE9FF4105003AD03E
:10DE80002B4800240460447284722046FFF754FC3F
:10DE900027481C212838FDF782FB0026DFF89480F4
:10DEA000FF27304601F086FB08F80670761C022E2C
:10DEB000F7D35820ADF804000220ADF806001E4844
:10DEC0001C490090C91D684601F0DAFE00280FD1F8
:10DED000184E0120761E3070287878B1BDF8040005
:10DEE000BDF80610484381B206F1080001F0F6FDC6
:10DEF00004B0BDE8F08148F20E00F9E70C4F0025B0
:10DF00007C3F0C48A9B202AAC01D01F0C1FD48B96E
:10DF1000C5EBC50007EB800000231C2202A901F01D
:10DF200061FE08B13470E3E76D1C022DE9D3DFE731
:10DF3000782A0020B91F00203DDF01002DE9F047BD
:10DF40008046554890B01E460068189F9246894604
:10DF5000002854D0582F52D86846FFF781FF08B1E7
:10DF6000FEF79EFD00248DF800408DF80440CDE9B9
:10DF700005762546A9B20DAA484801F089FD28B9C1
:10DF800008220DA94046FDF71CFB00B36D1C022DB5
:10DF9000F0D300BF9DF80200FF2830D02025402399
:10DFA0000DF11008B9F1030F14D0DFF8ECC01C22FA
:10DFB000ACF17C0CA6EB0C01B1FBF2F70121022FB6
:10DFC0002BD2CDF80880BAF1000F1BD020E08DF8DD
:10DFD0000250DFE7582F02D08DF8043001E08DF8B1
:10DFE00004509DF8040040F0030000BF8DF80400C9
:10DFF000524601A96846CDF80880FEF75BFD10B0D7
:10E00000BDE8F087254A8140083A52681142F6D0AF
:10E0100002F018FD8DF8045033E01F484438371AD9
:10E02000B7FBF2F73FB11C30351AB5FBF2F2CAB1BB
:10E030008DF80430E3E718498DF804508DF801405D
:10E040000C31CDE90A41CDF8088007909DF8020017
:10E05000C0EBC0000CEB8000089007A806901820C9
:10E0600005900EE08DF801408DF803100A4930222A
:10E070000C398DF80420897A890702D41C21FDF718
:10E080008EFA9DF80400B9F1020F02D040F00200B0
:10E09000ACE740F00100A9E7782A0020C01F00206B
:10E0A000164A10B512785AB148F20E0258B151B161
:10E0B0000B6843B1124A14683CB148F2040010BD29
:10E0C00048F2080010BD104610BD0D4C1360241D11
:10E0D000D1F8053023604B7A23710979917223F0CE
:10E0E000050141F002011172D17921F0040141F0E2
:10E0F0000301D17100210170084610BDB81F002036
:10E10000782A002005490120096809B100207047DC
:10E110000349096A0029F9D170470000AC2C00209E
:10E120000C200020826883881A4003689A5C0A7079
:10E130008168491C81607047C26883881A400368FF
:10E140009954C168491CC16070472DE9F04F00F235
:10E15000124700F1100A0AEB42004FF6FF7E00253D
:10E16000F34607EB020CB0F902600FFA81F91BE0ED
:10E17000B8191CF80540415DA14211D1012406E007
:10E18000015D1CF80480414503D1641CA4B29C428B
:10E19000F6D3AC4204D925461FFA86FB9C4206D032
:10E1A0000AEB4600B0F90260B6EB0900E0D5012D9C
:10E1B00006D909980580A2EB0B0080B2BDE8F08F6C
:10E1C0007046FBE7002808D0112801D0FEF7B6BC46
:10E1D0000248416841F0080141607047D01F0020AB
:10E1E00010B51F4C204621784068012910D0022923
:10E1F0002DD0032932D1000725D46069401C60610D
:10E2000000F030FBD8B12078BDE8104002F028B80B
:10E21000000718D41348A28B017801EB810100EBB1
:10E220008100C188891A0904090CC18003D0BDE8A6
:10E23000104002F0C3B9BDE81040FFF779B9BDE85E
:10E240001040FFF711B9BDE8104000F0EDBC0648E2
:10E25000617850F82100BDE81040004710BD000073
:10E26000D01F0020342B00205818020028DFFFF7B1
:10E27000A9BF29DFFFF7A6BF10B50446C0B2FEF75D
:10E28000DBFC204610BD00207047002070470020B6
:10E29000704700002DE9F0474178DFF8A49005466B
:10E2A000C1EBC10209EB8200002401EB410109F13D
:10E2B0001C0A4368274626460AEB810163B191F8A0
:10E2C0000AC05FEA0C6807D55FEA4C6C04D459F8C1
:10E2D000226000F108049FB20889D04633463A46CE
:10E2E0002146A9DF48F241090B281CD000B148465D
:10E2F000012E16D168784FF6FF7200EB400008EB54
:10E3000080000C210089A7DF00280AD0A0F5405129
:10E31000023913D0082811D0891E0FD011280DD032
:10E320000020BDE8F0876878012300EB400008EB8F
:10E3300080003A4600892146A9DFDBE74846F0E73E
:10E34000502A002070B50C46014660780A4DC0EB9B
:10E35000C00005EB800038231C2201F043FC00289C
:10E3600008D16178C1EBC10105EB81014A68521CFB
:10E3700000D14A6070BD0000502A00202DE9F04114
:10E3800086B0804603271420ADF8140048782A4E42
:10E3900000EB400006EB80000D4600893B4605AAD5
:10E3A0006946AADF28BB6878A6F11C04C0EBC00050
:10E3B00004EB8000BDF8142069460830FDF701F930
:10E3C0000028687807D0C0EBC00004EB80014968E2
:10E3D00081B11A4E0FE000EB400106EB8101897A12
:10E3E000890724D4C0EBC00004EB80001C21FDF79A
:10E3F000D6F81CE0124E44F820706878BDF814205E
:10E40000C0EBC00004EB8000694642606878C0EB56
:10E41000C00004EB80000830FDF79AF868783823D4
:10E42000C0EBC00004EB80011C224046B04706B0A0
:10E430000020BDE8F08100006C2A0020FDFD0100F5
:10E4400035FD0100FFF726BFFFF77CBFFFF796BF42
:10E4500070B51B4C207900072DD41A48017801EBC8
:10E46000810100EB81052E6901F091FBE9882A8981
:10E47000761E11443144B1FBF0F02169002549B109
:10E480006169814206D1E560606840F0010060602A
:10E49000002008E000F0E6F910B10220E56002E09B
:10E4A000206920B10320BDE8704002F0CBB8BDE880
:10E4B0007040FEF7D9BFBDE8704002F0B9B8000067
:10E4C000D01F0020342B002048B1C17A41F0010157
:10E4D000C172017B31B1092907D0012070474FF08B
:10E4E000FF30704701210173F7E7002070472DE9E5
:10E4F000F04FADF5037D1D461746040018D0B9B1A5
:10E50000B5B16FF0010B002F71D04FF0000AC5F8C4
:10E5100000A0CDE9801704F212498295267B0A2ECD
:10E5200065D2DFE806F0B90B323651677A8FA6B9AB
:10E530004FF0FF300DF5037DBDE8F08F04F11008BA
:10E54000FF224FF400716846FDF722F820886A46E2
:10E5500000F5807083B2002008F1020809E019F884
:10E56000001032F811C028F810C022F81100401C29
:10E5700080B29842F3D363E02073C0B2B042CDD1F1
:10E580002868B842CAD10120D4E7204601F03FFFF5
:10E59000F2E70DF500784046FEF7D6FE90B1A08870
:10E5A00050B1002241462046FEF763F9E088401E44
:10E5B00020810821A17228E0012241462046FEF771
:10E5C00058F915E00320D7E780A8A0460090FEF791
:10E5D000BBFE68B1B8F802000821FF3080B24044A9
:10E5E000009B90F81224404601F048FC28E055E0DA
:10E5F0000420C1E70DF500784046FEF7A5FE20B1E6
:10E600004146204601F06CFC08B10520B4E7A08823
:10E61000401E20810421A1720AE00DF500784046D9
:10E62000FEF792FE20B14146204601F059FC08B1A8
:10E630000620A1E76188A08808446080A4F804A0AF
:10E64000022099E76088C0F5807080B200F5807183
:10E65000C0F580768AB23119484601F21241FCF7C2
:10E6600077FFA4F802A02188891B218084F80CA0E0
:10E6700054E7A17B80A880290AD0FEF765FE48B147
:10E680008298829D809B0068627B411C29601A549D
:10E69000092000E00820207300204BE7584649E796
:10E6A00010B504464FF4007100F21240FCF777FFFA
:10E6B0000020208020736080E0728021A17360734D
:10E6C000A0802081A07210BD2DE9F0411F460400FA
:10E6D00025D021B31FB3E07AC3076FF001001CD12E
:10E6E000237B002B19D1208800F58073C0F5807042
:10E6F00086B29BB2964200D2324695B2E0182A46C4
:10E7000000F21240FCF724FF3D602088B542284407
:10E71000208001D1012020730020BDE8F0814FF05E
:10E72000FF30FAE72DE9F0439BB0342230490DA8C1
:10E73000FCF70EFF2E49342234316846FCF708FFFF
:10E740002C4D00242646287F05F1160700F03F00D7
:10E750000090286A0190686A0290A86A0390E86AAB
:10E760000490286B0590686B0690A86B0790D5E91C
:10E770000F0100EB81100890A8790028FCD0AE7141
:10E780000DA81C4910F824203DF82400143140EA5B
:10E79000022040F40040020A0A7048703E707E7009
:10E7A0000220687101F058FF0A2000F003FB641C8E
:10E7B0000D2CE1DBDFF83C80002408F114084FF059
:10E7C0000509A8790028FCD0AE7188F8006088F8A7
:10E7D00001603E707E7085F8059001F03DFF0A20D3
:10E7E00000F0E8FA641C022CEBDB1BB0BDE8F08300
:10E7F00050170200001F0020F8B5194C207800289F
:10E800002CD0E068002640B10025684652DF05287C
:10E8100005D030B1FEF744F90AE00125F5E70126FD
:10E8200006E0009800F0DAFA216909B100988847FB
:10E8300085B96088ADF800006946A06861DF0528E9
:10E8400003D020B1FEF72CF904E0012502E0D4E961
:10E8500002018847002ED8D0002DE9D0F8BD000075
:10E86000F81F002070B50E48017801EB810100EB24
:10E870008104256901F08BF9E18822896D1E11441C
:10E880002944B1FBF0F1074842698A4205D301D11E
:10E89000006910B14FF0000070BD4FF0010070BD75
:10E8A000342B0020D01F0020800701D000207047AB
:10E8B0000120704730B51488E51C9D4201D90C2019
:10E8C00030BD02250D5513881C245B1C9BB21380A0
:10E8D000CC5413885B1C9BB21380012807D00228FC
:10E8E00007D0032807D0042807D0072030BD002018
:10E8F00004E0012002E0CD5401E00320C854108858
:10E90000401C1080002030BD7B4A9AB004AB07CA7F
:10E9100083E807007948009079494FF48070CDE989
:10E92000010103900323774A694604A8FEF732F9F0
:10E9300008B1FEF7B5F874A0FDF732FBFEF73EFC18
:10E9400074A0FDF72DFB2046FFF72CF874A0FDF70F
:10E9500027FB9DF8080078A120F00F00401C20F054
:10E96000F00010308DF80800092202A87CDF08B101
:10E97000FEF796F80024019400940626ADF80440B2
:10E980004FF4C870ADF80060ADF80600ADF8026055
:10E9900068467ADF08B1FEF783F86AA0FDF700FB4E
:10E9A000382101A8FCF7FBFD02208DF804000125A9
:10E9B0008DF806508DF8076024210FA8FCF7EFFDB5
:10E9C00050201390B420009414908DF84850604B60
:10E9D0000FAA002101A8FEF7B5F908B1FEF760F80B
:10E9E0005CA0FDF7DDFA01F07BFB5FA0FDF7D8FA34
:10E9F000FFF798FE4120FEF71FF90028FAD1FEF735
:10EA000037FC4220FEF718F90028FAD118A8009523
:10EA1000CDE9010400234FF4827257A158480394B2
:10EA200002F034FC189810B956A0FDF7B9FA43204B
:10EA3000FEF702F90028FAD15B480090002301227A
:10EA400032215AA002F010FE060002D159A0FDF7B3
:10EA5000A7FA4420FEF7F0F80028FAD102F0E2FC11
:10EA60000246002301213046009402F03DFE0128B9
:10EA700002D057A0FDF794FA4520FEF7DDF80028F4
:10EA8000FAD10320FEF74EFA044659A0FDF788FAA2
:10EA9000200001D0FEF704F85D4F5E4C41F288364D
:10EAA0006078E178227920EA0101914310D0594A37
:10EAB00014236C32A2F12001208AFEF75AFB20B108
:10EAC0005FF00A0000F076F9EAE725713046F9E7D1
:10EAD000A17830EA01010AD04FA0FDF761FAA570D4
:10EAE000386840F00400386002F08CF9D8E700285C
:10EAF000D6D002F061FDD3E7C81702009C200020A9
:10EB00009C210020710702007561727420696E6992
:10EB1000740D0A00626C6520696E69740D0A00004C
:10EB2000646576696365206D616E616765722069F1
:10EB30006E69740D0A0000004D756C74696C696E25
:10EB40006B00000067617020696E69740D0A000037
:10EB500089F401006164766572746973696E672077
:10EB6000696E69740D0A0000736572766963657376
:10EB700020696E69740D0A00635F7461736B000035
:10EB800035D60100636F6D7072657373696F6E20A7
:10EB90007461736B20696E6974206D65737365644D
:10EBA0002075700D0A00000035030200735F746960
:10EBB0006D6572005350492074696D657220696EED
:10EBC0006974206D65737365642075700D0A0000AB
:10EBD00054696D657220636F756C64206E6F74206C
:10EBE000626520737461727465640D0A0000000030
:10EBF0006D61696E5F6164766572746973696E6771
:10EC000020737461727420696E69740D0A000000CB
:10EC100010ED00E0001F0020626567696E206D65E1
:10EC200061730D0A000000000348416821F00801EB
:10EC30004160007801F014BBD01F0020F0B50B300C
:10EC4000154D20F007010024144A0FE003688B42A1
:10EC50000BD38B4205D95E1A43184768C3E9006796
:10EC600000E04368136002C004E0021D1068002841
:10EC7000ECD12046002802D1286808B10020F0BD60
:10EC8000064A07481060074A121A22F00702C0E934
:10EC9000002401202860D7E7702000206C2000208D
:10ECA000143D0020107D002070B5144682880E4669
:10ECB00005462088111D0144921C994201D8FE2A64
:10ECC00001D90C2070BD521C32542088FF21401CF9
:10ECD00080B2208031542088401C80B2208081196D
:10ECE000288801F0A3FE2188084480B22080AA88E9
:10ECF00042B1A96841B13044FCF72AFC2088A988B8
:10ED000008442080002070BD072070BDF8B50E4675
:10ED1000017814460546012901D1687830B1208870
:10ED2000821C9A422DD8012902D006E00720F8BDA6
:10ED300069780144891C994223D8181A801E87B229
:10ED4000ADF800702188B01C084469467DDF0028BA
:10ED5000EDD12878022805D1BDF80010B94201D8BC
:10ED600009210AE00821012805D16878B84202D8B3
:10ED7000ADF8000001E0ADF80070BDF80000FE281D
:10ED800001D90C20F8BD2288401CB0542088401CBA
:10ED900080B2208031542088401C2080BDF80010B3
:10EDA000084420800020F8BD0020704700207047F4
:10EDB0000020704731B540F2E73404E0401E009077
:10EDC0002046FCF727FB00980028F7D138BD002823
:10EDD00002D04168012008477047000070B5002844
:10EDE0000AD1064C00252168002905D0086820605A
:10EDF000496828468847F6E770BD0000102C0020BF
:10EE00004907090E002806DA00F00F0202F1E0229D
:10EE100082F8141D03E000F1E02282F8001400F0F3
:10EE20001F02012191404009800000F1E020C0F85C
:10EE30008012C0F8001170472DE9FC5F0746407949
:10EE4000DFF80CA10C460AEB4016317E11B1082008
:10EE5000BDE8FC9F14B93F4901EB00143260207BF0
:10EE600001250128DFF8F0B0207804D805FA00F079
:10EE7000CBF8000001E000F0DDFA2178A946890016
:10EE800001F1A041C1F8005765784FF0FF38FF2D20
:10EE900007D009FA05F0CBF80000284600F0B1FAD7
:10EEA00000E04546A0784FF0000BFF2809D0002273
:10EEB00080465B46CDF800B01146CDF804B000F0B6
:10EEC0007CFAE078FF2804D000F0B4FAE07800F093
:10EED00098FA7979E0780AEB4111887638682378D6
:10EEE000C0F80835C0F80C55C0F81085A168C0F806
:10EEF0002415237B617B01B10121012B04D0022B5E
:10EF000005D0032B08D105E041F0020104E041F0F7
:10EF1000040101E041F00601C0F854157B796179E4
:10EF20000AEB4312D176316811B10421C0F8041301
:10EF30004D46C0F80095306820B1217997F904005A
:10EF4000FFF75EFF86F819B03576002080E70000F5
:10EF5000182C00206C1802000C0500501FB5069CF0
:10EF600000918DF8042002938DF80C400022694630
:10EF700000F024F804B010BD10B541790E4A02EB40
:10EF80004112116859B190F90410012301F01F04D6
:10EF9000A3404909890001F1E021C1F880310068EE
:10EFA000116819B14FF0FF31C0F808130021C0F803
:10EFB0000015117610BD0000182C00202DE9F0413D
:10EFC00013460C464179154A02EB41114A7E12B1B3
:10EFD0001120BDE8F0810A6801251AB113F0140F61
:10EFE00000D14D7694E8C41001F1080888E8C410F7
:10EFF0004A7F22F003024A778A7EFF2A02D0954098
:10F00000074A15601BB1002048760620E1E700683A
:10F01000224601F0C5F90020DBE70000182C002093
:10F020000C0500502DE9F0411E4C07460D46E07ED0
:10F0300010B10820BDE8F08107B91B4F787F207719
:10F040003846FDF70FFE6560386920602800174ECE
:10F050004FF0000516D0397F207F48B1C6F8105117
:10F06000C6F82051C6F82451C6F84451104804E0AF
:10F07000C6F81C51C6F844510E48C6F804030220D5
:10F08000FFF7BEFE207F08B1082000E00420C6F88C
:10F090000005E5752576A5750120E076A5760020AA
:10F0A000C8E70000142B00202418020000200040B4
:10F0B00010030200800002002DE9F0411F4B1C7F6D
:10F0C0003CB14FF40052B2EB104F02D01020BDE81B
:10F0D000F081D3F804C00022194D4FF404764FF4A8
:10F0E0000177BCF1000F05D014B1C5F8086301E049
:10F0F000C5F8087393F817E0BEF1000F10D01A7E20
:10F1000052B1BCF1000F05D014B1C5F8046301E0A1
:10F11000C5F804731120DAE718610122197604E0BA
:10F12000D9750025D8605D761D761CB1BDE8F0412B
:10F1300000F066B8BDE8F04100F014B8142B0020D0
:10F140000020004010B5064C207F002806D1A07E8C
:10F15000002803D100F04CFF0120A07610BD000074
:10F16000142B00202DE9F05F234DA87E104301D120
:10F1700000F03EFF214C686830B14FF40170C4F8D4
:10F1800004030020BDE8F09F4FF000094FF4A27A7D
:10F19000C4F844914FF4927BA8465946204600F0AB
:10F1A00063F905464FF48471204600F05DF9074687
:10F1B0005146204600F058F9064647EA0601294321
:10F1C000EBD055EA060007D100F0EAFE98F81710D8
:10F1D00098F819008142E0D888F817900DB1032003
:10F1E000D0E70EB10F20CDE798F81A10012009B131
:10F1F0002060C6E76060C4E7142B002000200040B8
:10F200002DE9F05F204C00264FF48873C4F810619C
:10F210004FF4A275C4F84461C4F83405C4F8381535
:10F220008AB1D4F8000240F02000C4F80002DFF8F0
:10F230005C80D8F8040048B14FF40470C4F80403AB
:10F240000020BDE8F09F01202060F0E79A46A94623
:10F250004FF4927B5146204600F011F9054649468D
:10F26000204600F00CF907465946204600F007F901
:10F270003D430543EED088F8176008B10320E0E76E
:10F28000002FDDD00F20DCE700200040142B0020F1
:10F290002DE9F0471E4D2A7F3AB14FF40053B3EBEE
:10F2A000104F02D01020BDE8F087AB7D0BB11120CC
:10F2B000F9E7A9750023A860AB822AB3154C002694
:10F2C0004FF490729846C4F820314FF4AC73C4F8F0
:10F2D0005881C4F84405C4F848150120A060686846
:10F2E00080B9924699465146204600F0C8F8074634
:10F2F0004946204600F0C3F80743F4D000B10F267A
:10F3000085F816803046CEE7BDE8F04700F004B837
:10F31000142B0020002000402DE9F05F1C4F002539
:10F320004FF48E7A2E46C7F81C514FF00108C7F8EB
:10F33000088001F0F9F9174CB815616879B123E03C
:10F340005F465146484600F08FF810B9A08AB8428F
:10F35000F7D1A08AB84204D001F0E6F901E0834673
:10F36000B946A08AA17D8842EAD3A08A584501D136
:10F370000F2508E04F465146384600F075F8002842
:10F38000F9D0C7F80C80A6752846BDE8F09F0000AC
:10F3900000200040142B002030B541EA4201DDE995
:10F3A000034541EA8301800041EA042100F1A040C5
:10F3B00041EA0541C0F8001730BD30B541EA4201CD
:10F3C000DDE9034541EA8301800041EA042100F1BF
:10F3D000A04041EA0541C0F8001730BD1CB500222D
:10F3E0000B46009211460192FFF7D6FF1CBD1CB5DB
:10F3F000002100910B46012201911146FFF7CCFF3D
:10F400001CBD1CB5002100910B4601220191114643
:10F41000FFF7D3FF1CBD800000F5E06000F1A040C5
:10F42000026822F440320260026842EA014101604F
:10F4300070470000012181400148016070470000D1
:10F4400008050050034908B5084400210160006820
:10F45000009008BD0060004002494058012800D0DB
:10F4600000207047006000404058002800D0012074
:10F470007047D0F80403084000D00120704740587E
:10F48000002800D001207047002804D13CDF00286C
:10F4900001D0FDF705BB70472DE9F04101882F4CE5
:10F4A000112953D00EDC4FF00106012919D0102983
:10F4B00006D1808820822AA0FCF772FD2670667033
:10F4C000BDE8F0815029FBD05229F9D100231A461A
:10F4D0001946208AA9DFBDE8F041014626A0FCF7C5
:10F4E0005FBDE07878B31D4FA07A64374FF0FF38E6
:10F4F00057F8201007F108024B1C04D071B1FEF739
:10F5000059F92670DCE74E2191744421D174002111
:10F51000401CE17100F00100A072F2E7A16C054609
:10F52000080A9074D1741CA0FCF73AFD47F82580B6
:10F530000A4A14236C32A2F12001208AFDF719FE39
:10F540000028F5D1DDE7FFE7E670B9E74FF6FF7079
:10F550002082BDE8F04101F085BC0000001F0020C2
:10F5600043656E7472616C20436F6E6E6563746583
:10F5700064200D0A00000000535953206174747216
:10F58000206D697373696E67206572726F723A20BD
:10F5900025640D0A0000000025640D0A000000002B
:10F5A0000021425C0AB101207047491C0629F8D3AA
:10F5B0000020704770B50546C0EBC5010B4800EB55
:10F5C00081040020C4F81100A4F815002046102181
:10F5D000FBF7E5FFFF202074A0764FF6FF70208335
:10F5E0002846BDE8704001F02DBA0000FC2900203B
:10F5F00070B50B4C0546206845602069216885423E
:10F6000005D2A06BBDE87040091D01F0ACBA606B7B
:10F61000091D01F0A8FAE06A854200D2E56270BDDA
:10F620000C20002010B501F0C3FA0E4C2068A0B9E0
:10F630000D4801F08AFA0C48143001F086FA0A48A5
:10F64000E0601430206100221021202001F062FCD3
:10F65000206010B105A101F011FBBDE8104001F0E0
:10F66000B1BA000048200020E82C0020546D7251EF
:10F670000000000070B5124E124C1AE001F0F2FBCF
:10F680003068D0B101F098FF01F092FAF068C568D7
:10F69000281D01F048FAE068401EE0606068401EE6
:10F6A000606001F08FFA286B01F096FA284601F0AD
:10F6B00093FA60680028E1D170BD01F07DFFF8E7A2
:10F6C000C02C00200C20002030B4026C0B46002A15
:10F6D0000BD0C1681144C1604468A14201D30168E4
:10F6E000C16030BC1846FBF733BF30BC704770B503
:10F6F0001646026C0446002582B1C6B1E068FBF7ED
:10F7000027FFE168206C091AE1602268914202D269
:10F710006168081AE060022E16D01AE02068C0B9AD
:10F72000606801F0DBFE05460020606011E0A06823
:10F73000FBF70EFF216CA0680844A0606168884256
:10F7400007D32068A06004E0A06B10B1A06B401E3E
:10F75000A063A06B401CA063284670BD06480168EA
:10F76000C96A09B100207047044909680129F9D81C
:10F77000C16A0069081A70470C200020482C00203C
:10F780000E4C4FF080550E4EFFF774FF2068012895
:10F7900005D9356040BFBFF34F8FBFF36F8FFFF7C1
:10F7A000DDFF0228F0D301F05DFBFFF7D7FF022851
:10F7B00001D301F02FFA01F0FFFEE5E7482C00200D
:10F7C00004ED00E070B5002441600B4D00619142F2
:10F7D00006D8D11A8269914206D2011D286907E034
:10F7E0009A4203D2994201D3012403E0011DE86843
:10F7F00001F0B9F9204670BD4820002030B589B02D
:10F80000274D42E00498002806DADDE90601059A52
:10F8100090470498002838DB069C606910B1201DD1
:10F8200001F081F902A800F099F8024604980A282C
:10F830002BD2DFE800F00505052A1F2705052A1F42
:10F840000598A169034601442046FFF7BBFF012844
:10F850001BD1616A20468847E069012815D1002044
:10F8600000900598A169002342181946204601F02E
:10F870003BFF0AE00598A061811813462046FFF778
:10F88000A1FF02E0204601F0A7F900231A4604A9CF
:10F89000286801F05DFB0028B4D109B030BD00003C
:10F8A000482000202DE9FC410F46054601F0DAFA18
:10F8B00001A800F053F80446019818B101F07CFE4D
:10F8C000BDE8FC811B4E17BBA54220D801F074FE99
:10F8D000F0682746C068C468201D01F024F9E0697B
:10F8E000012810D1A0692B4641193A462046FFF75E
:10F8F00069FF012807D100200346014600902A46EF
:10F90000204601F0F1FE616A20468847D8E7291BAE
:10F91000306801F0C7F901F04FFE0028D0D1064948
:10F920004FF08050086040BFBFF34F8FBFF36F8F21
:10F93000C6E700004820002004ED00E00648416BC7
:10F94000096829B1416BC968C9684968C1627047D3
:10F950004FF0FF31FAE700000C20002070B505469B
:10F9600001F060FD064E0446B068844203D200F008
:10F9700009F8012000E0002028602046B46070BD36
:10F9800048200020F8B5144D1EE0C068C468066821
:10F99000201D01F0C8F8616A20468847E069012807
:10F9A00012D1A0693044B04206D924616060211DA3
:10F9B000E86801F0D8F807E000200346014600900F
:10F9C0003246204601F090FEE86801680029DCD14B
:10F9D0002969C5E90310F8BD48200020202080F3E4
:10F9E0001188FEE7074CE068016841B1C06800215A
:10F9F000D0F80000FFF756FFFFF700FFF3E7012103
:10FA00000020F7E74820002070B5044601F0D0F848
:10FA100004F124050AE0606A58B1284601F096FD19
:10FA200008B101F05BF9A06C401EA064A06C002836
:10FA3000F1DC4FF0FF36A66401F0C4F801F0B8F82D
:10FA400004F110050AE0206958B1284601F07EFD56
:10FA500008B101F043F9606C401E6064606C0028DE
:10FA6000F1DC6664BDE8704001F0ACB80649097984
:10FA7000490701D40820704720B104494978016042
:10FA8000002070470E207047D01F0020342B00202C
:10FA900030B5104B1B795B0701D4082030BD18B17D
:10FAA00012B104687CB901E00E2030BD0A4B1D681C
:10FAB0004DB140681D8901FB050059685B8903FB56
:10FAC0000511814201D8072030BDC2E90040002065
:10FAD00030BD0000D01F0020002C0020F8B50546E6
:10FAE00021480E460079400701D40820F8BD15B121
:10FAF000286870BB01E00E20F8BD1C4C0027206870
:10FB000038B361892289606801FB0201686881421B
:10FB10001FD9FEF7C9FE70B1D5E9000200EB400025
:10FB200004EB800043680189D41AB4FBF1FC01FBAB
:10FB30001C4474B901E01020F8BDB6FBF1F401FBE0
:10FB4000146434B92EB14089324400FB0130824242
:10FB500001D90720F8BD334600222946032000972B
:10FB6000FDF7BCFCF8BD0000D01F0020002C0020D9
:10FB700010B54FF010204469601C04D000F007F865
:10FB8000B4FBF0F010BD4FF08050406910BD4FF055
:10FB90008050006980B2704770B510480024254637
:10FBA000047044702846FDF789FC6D1C0A2DF9D3BA
:10FBB0000B4D6C80FFF7DCFF861EFFF7E8FF464326
:10FBC0000648AE60CC306C610460048144812C70C6
:10FBD000AC610420EC616860002070BD342B002013
:10FBE000D01F00202DE9F843804623481F461646C3
:10FBF00000790D46400702D40820BDE8F8832DB1F6
:10FC0000B8F1000F02D0286898B901E00E20F4E79F
:10FC10001A4C206868B162892089616802FB001172
:10FC20006A68914205D926B1B04202D3F1198142E6
:10FC300001D90720E1E74046FEF736FED0B138464D
:10FC4000FEF732FEB0B16868FEF72EFE90B168682C
:10FC50003246C1194046FBF77BFC0096286800221B
:10FC600000EB4000434654F8204002212846A047BC
:10FC70000020C2E71020C0E7D01F0020002C002089
:10FC80002DE9F041294D04460E462879400702D45B
:10FC90000820BDE8F081ECB1E6B12068D0B1FFF7F3
:10FCA00076FF0146A088814212D3102810D3E08845
:10FCB00070B1FFF75DFF471EFFF769FF4743E2881A
:10FCC000A188A86802FB0102974201D3890703D0EB
:10FCD0000720DEE70E20DCE76988012924D0C6E989
:10FCE0000010134A01EB410302EB830148602068D6
:10FCF00042F82300A0880881E0884881FFF747FF89
:10FD0000A188E288401E01FB0204FFF740FF94FB3C
:10FD1000F0F4FFF73CFFA96804FB0010A8606888B6
:10FD2000401C68800020B4E70420B2E7D01F002008
:10FD3000002C0020F8B504461C481E4615460079E4
:10FD40000F46400701D40820F8BD1FB114B1206848
:10FD500098B901E00E20F8BD1548016869B14289E3
:10FD60004168008902FB00116268914205D925B102
:10FD7000A84202D3A919814201D90720F8BD38460B
:10FD8000FEF792FD78B13046FEF78EFD58B16068FF
:10FD9000FEF78AFD38B12B463A46214601200096EF
:10FDA000FDF79CFBF8BD1020F8BD0000D01F00201F
:10FDB000002C002010490246087800281AD0042898
:10FDC00018D0022A14D0032A14D10A7912070FD4AA
:10FDD0008A69521C8A61B2F57A7F06D0022801D066
:10FDE00000F03EBA487800F02DBC0D20FCF7A6BE0E
:10FDF000FEF7F6B970470000D01F0020F8B50446A2
:10FE00001C481E46154600790F46400701D40820BD
:10FE1000F8BD1FB114B1206898B901E00E20F8BDFB
:10FE20001548016869B142894168008902FB0011E7
:10FE30006268914205D925B1A84202D3A91981422D
:10FE400001D90720F8BD3846FEF72EFD78B13046BF
:10FE5000FEF72AFD58B16068FEF726FD38B12B4643
:10FE60003A46214604200096FDF738FBF8BD1020E5
:10FE7000F8BD0000D01F0020002C0020F0B508299C
:10FE800002D0491E04D5F0BD817B80290FD0072107
:10FE90005FF0010606FA01F5154203D0447B857B2D
:10FEA0002C434473847B6408847307D015E09968FD
:10FEB0001C680868431C0B602254F0BD80248473C6
:10FEC0009D68D3F800C0477B2C6804F1010EC5F88B
:10FED00000E00CF8047000244473491EDAD5F0BD2C
:10FEE00070B505460B46807A2989082804D908246C
:10FEF0000838C140CAB202E00400CAB206D02146A6
:10FF00002846FFF7BBFFA87A001BA872204670BDE9
:10FF100070B504460025400704D004F00700C0F186
:10FF20000800044400F09EFF0A49486818B90A48CE
:10FF300020F0070048600A6840F6F87310199842EC
:10FF400004D2904202D94B6808609D1801F034FB3E
:10FF5000284670BD5C200020182D00200449086848
:10FF600018B10868C26B521CC26308687047000071
:10FF70000C20002010B5084C031F24681C601B1FB8
:10FF80001960191F054B0B6014390A60091F6FF0C7
:10FF9000020244380A6010BD7C180200DDF901003D
:10FFA00009480A490022C37DC1F8082143B1D1F8AC
:10FFB0001815437EC268D154417E491C4176704772
:10FFC000D1F8180570470000142B002000200040D5
:10FFD0001FB501228DF8080004488DF8002001911A
:10FFE000D0E90012684690471FBD0000142B002086
:10FFF00004480021C0F82411C0F808110121016053
:020000040002F8
:1000000070470000002000400E4810B5817999B17A
:1000100000228271416C00F1140321F07F441C70B6
:100020005A709B1C1A705A7004224271491C416418
:10003000BDE8104000F010BB4520FCF7FDFD002896
:10004000FAD110BD001F002008B502490020009120
:1000500008BD0000001F00202DE9F0410746806A1E
:1000600014468846C8B3002531E000BFB96A05EBE5
:10007000450001EB8006B088801CFE2802D90C20C8
:10008000BDE8F0812288401C08F802002088162272
:10009000401C80B2208008F800202088401C80B2DC
:1000A000208000EB0801308800F0C0FC2188084463
:1000B00080B22080B28842B1B16871B14044FBF790
:1000C00047FA2088B188084420806D1CEDB297F86B
:1000D0002C00A842CAD80020D2E7FFE70720CFE7CC
:1000E00010B55D4B96B00EAC0FCB84E80F005B49AA
:1000F0000EA863DF08B1FCF7D3FC584815AA0D38E9
:1001000013A9407B8DF84E0049F20100ADF84C0078
:100110000120A0DF08B1FCF7C3FC49F20A00ADF8EA
:100120004C00142107A8FBF73AFA13A807900CA873
:1001300008901420ADF8280048480024801E0B9039
:10014000ADF826400120ADF824000C949DF8300055
:100150000D9420F00F00401C20F0F00010308DF8BE
:1001600030009DF831001C2120F00F00401C20F0D1
:10017000F00020308DF831009DF8320020F00600AC
:10018000801C20F001008DF832009DF8340020F032
:100190000F00401C20F0F00010308DF834009DF866
:1001A000350020F00F00401C20F0F00020308DF8CA
:1001B00035009DF8360020F00600801C8DF83600D2
:1001C0006846FBF7ECF90DA805909DF8000040F09B
:1001D0003E008DF800009DF8010040F002008DF80F
:1001E000010014A804901D4873300190FBF7E2F958
:1001F000C0B2ADF80A0019487330FBF7DBF9C0B2A2
:10020000ADF8080014949DF85200144B20F006003D
:10021000801C40F001008DF852009DF8500007AAA4
:1002200020F00F00401C20F0F00010308DF850003E
:100230009DF85100694620F00F00401C20F0F000AE
:1002400010308DF851003F330020A2DF002801D08C
:10025000FCF726FC16B010BDB81702000D1F0020D9
:100260000C49087040B101280FD002280FD0032894
:100270000FD14869FDF7FABF00208861C8610648C0
:100280004078002805D0FDF7FFB800F097B900F0DE
:10029000F3B87047D01F0020342B002018B1034959
:1002A000C860002070470E2070470000F81F002033
:1002B0001CB5034901910091694660DF1CBD000037
:1002C000001F002070B50E46054614461421104646
:1002D000FBF765F90120208000212161217326723E
:1002E000657205B1A072002070BDFCF7C7BB0000AD
:1002F00070B509B18C0701D0072070BD064C0125EF
:10030000A16062800549636010DF0028F5D1257087
:1003100016202EDF70BD0000F81F0020EB02020047
:1003200018B103490861002070470E207047000093
:10033000F81F0020FFF768BE70B5007800282AD1AA
:100340001548FEF719FE154C0122A271207A04F11E
:1003500018030025195C29B14620FCF76DFC002824
:10036000FAD10EE0618A61B1491E0904090C61826B
:1003700007D11A544FF480716182012808D0401CC3
:100380002072606C022805D0BDE87040FFF73CBECB
:100390002572F6E7656470BD38170200001F002063
:1003A00070B5002604460E7704200D46C4F80803F5
:1003B000C4F80861107910B11068007800E0E87E98
:1003C000C4F81C051079012802D91068407803E0B0
:1003D000107B012802D9E87EC4F81C05286818B1F2
:1003E0000420C4F8040370BDD4F808010028FBD031
:1003F000C4F808612946204600F06EF90028F3D1C0
:10040000A87EFF28EFD0BDE87040FFF713B87CB599
:1004100004461023E17A4088258811F0010101D0BB
:10042000012200E01A46AA1A824204DA09B1082021
:100430007CBD07207CBD00F580718AB2A2F5807179
:10044000281A89B2102800DA83B201A8002500908A
:10045000ADF804502046FDF778FEA0F57F41FF3946
:1004600005D0E080BDF80400A08003207CBD60883A
:10047000401C6080A580F8E72DE9F041164C6068CB
:1004800020F0010060601548017801EB810100EB6C
:1004900081063569FFF77BFBB5FBF0F76761FFF776
:1004A00076FBF1886D1E2944B1FBF0F0874260684D
:1004B00002D140F0020001E020F0020060602079EB
:1004C000E16800F00200084304D00020BDE8F041DC
:1004D00000F0B8B80220F9E7D01F0020342B00202C
:1004E00001484069FDF7C2BED01F002010B5FFF7DC
:1004F0003FFB441EFFF74BFB4443FFF748FB054916
:100500004A69521E5043CA682146BDE81040FDF7B3
:10051000B0BE0000D01F00202DE9F0411048017846
:1005200001EB810100EB81042569FFF730FBE188D5
:10053000228911442944B1FBF0F200FB1216FFF7A7
:1005400017FB471EFFF723FB07FB0061E0882289AA
:100550001044044A28441269BDE8F041FDF789BE01
:10056000342B0020D01F002010B5FFF701FB441EE4
:10057000FFF70DFB4443FFF70AFBB4FBF0F0BDE8C7
:100580001040FDF773BE000070B5FFF700FB860852
:10059000FFF7FDFA0749496900FB01F4FFF7E8FAA4
:1005A000451EFFF7F4FA684332462146BDE8704025
:1005B000FDF75FBED01F00200020704770B51448C3
:1005C000017801EB810100EB8104241DFFF7DFFAC4
:1005D0006188104E884211D2FFF7D9FA61880D1A4E
:1005E000FFF7D5FA8208A188E06808442169284409
:1005F0002944FDF73EFEFFF7CAFA07E0A288E0684B
:1006000010448A082169FDF734FE6088F06170BDEE
:10061000342B0020D01F002004480079000702D4AA
:10062000012000F00FB800F003B80000D01F002038
:100630000348416821F008014160407800F002B8A9
:10064000D01F002002494870024951F8200000479D
:10065000D01F0020441802007FB5124C002104F185
:10066000080620466CCE8DE86C008DF80D10182120
:100670008DF8001017218DF8011016218DF8021049
:1006800019218DF80310084A6946FEF7D5FB08B119
:10069000FCF706FA0549022220468B1C0092FEF761
:1006A0005DFC7FBD3817020039030200141F0020D3
:1006B00010B50446FFF77EFB2046BDE81040FCF76E
:1006C0000FBC000003480079000701D4FCF7CCBE42
:1006D000FFF7AEBFD01F002038B5D0F818258DF831
:1006E00000200A7F0B7D9A4203D29DF800300C69EE
:1006F000A3540A7F521CD3B20B770C7B5A1C944232
:1007000002D98968895C03E00D7D954203D9C97ED1
:10071000C0F81C1503E0A34201D3AB4201D2012073
:1007200038BD002038BD0000064A0020C2F81C0178
:100730000548838A8168C95C838A5B1C8382C2F80E
:100740001C15704700200040142B00201FB500210D
:100750008DF8080005488DF80010826801928175B7
:10076000D0E90012684690471FBD0000142B0020FE
:1007700010B5017841B1012901D002290DD140689D
:10078000BDE81040FCF78CB9054C0448217B0844B7
:10079000FCF7E6F9207B401C207310BD8820002068
:1007A000001F00207CB50178264D012909D00229BF
:1007B0002CD0002929D129462348FCF781F980B3A0
:1007C00034E04068017820481038FCF794F91E4C5A
:1007D000103C20B101218DF80010019007E0A068C5
:1007E000E168081A012805D100208DF80000696829
:1007F00068468847A068E168081AA188884204D83A
:1008000010480121801CFEF757FC7CBD02218DF8A9
:100810000010C06801900B480121801CFEF74CFCC1
:100820000CE0FFE701210748FEF732FD064881682A
:10083000C0688842E9D103208DF8000069686846E5
:1008400088477CBDC81F0020AC2A00202DE9FF414D
:100850003E4D4FF400712846FEF70BFE01273C4C3D
:100860004FF40178002600B34FF492712846FEF74A
:10087000FBFDD0B1C5F82461C5F80883A07E00B99E
:100880006F6002208DF80000D5F88004C5F8800460
:100890000390E07D8DF80800E0680190E67526760B
:1008A000D4E900126846904724E004212846FEF768
:1008B000E0FDF8B14FF484712846FEF7D5FDC8B1CC
:1008C000FFF76EFBE07D617E884213D1227E3AB154
:1008D000607EE168E2752269E2602676667607E06E
:1008E000A07E00B96F60C5F80883E675607EE16898
:1008F000FFF76EFB4FF48E712846FEF7B5FD58B139
:10090000A18AA07D814202D2FFF70EFF04E0C5F864
:100910001C6108B1FFF71AFF4FF4A2712846FEF7D9
:10092000A3FD00280FD0C5F84461A07E00B12F6060
:10093000E07D002807D0E675607EE16804B0BDE880
:10094000F041FFF745BBBDE8FF81000000200040FB
:10095000142B00207FB5334C4FF492712046FEF7E4
:100960008EFD314D0026B0B1C4F8246102208DF80F
:100970000000D4F88004C4F880040390D4F83C0547
:100980008DF80800E8680190EE752E76D5E9001222
:10099000684690471FE04FF488712046FEF76FFDD0
:1009A000C8B1C4F81061D4F83C05E97DC0B28142F9
:1009B00011D12A7E5AB1E968D4F8003223F020031D
:1009C000C4F80032EA752A69EA602E7601E0EE7515
:1009D000E968FFF7FDFA4FF4A2712046FEF74FFDDC
:1009E00050B1C4F84461E87D30B1EE75D4F83C05EF
:1009F000E968C0B2FFF7ECFA4FF490712046FEF7B9
:100A00003EFD00280CD0C4F82061A87D002807D046
:100A1000D4F84C0504B0C0B2BDE87040FFF796BEF4
:100A20007FBD000000200040142B00200870000A49
:100A3000487002207047EFF31180202181F3118864
:100A40007047000001218140024842688A434260A9
:100A500070470000B81F00202DE9FC411646DDE973
:100A60000854CDE900541F468046022200F00CF8DD
:100A7000002807D1CDE900543B46102231464046BC
:100A800000F002F8BDE8FC812DE9FC5F0026DDE9FD
:100A90000C4B994692468E4680462788354630E074
:100AA000D8F80400002200EB850069460068019038
:100AB00001A865DF002830D19DF8000050451FD106
:100AC0000EB1002100E00221228808441118594586
:100AD00022D846B9521C90B2208009F800E0208844
:100AE000401C20800126218801A801EB09026946EB
:100AF00065DF002811D120889DF80010084420806F
:100B00006D1CB8F80000A842CADC56B12088C01B92
:100B1000401E80B2FF2802D90C20BDE8FC9F09F8D6
:100B200007000020F9E7D0E9013201699A60D0E9B5
:100B300001235A604A68824201D182684A600022D9
:100B400002610868401E0860704700F108014FF01C
:100B5000FF32C0E90112C1600161002101607047EC
:100B600000210161704730B50B685A1C02D000F1BA
:100B7000080202E0026904E02246546825689D42AA
:100B8000FAD953684B6099608A60516008610168C6
:100B9000491C016030BD42684A6093688B6093686D
:100BA0005960916008610168491C0160704700004C
:100BB000202080F3118802480168491C01607047B9
:100BC0006420002003490868401E086001D180F3BA
:100BD00011887047642000207047000010B5002085
:100BE000FEF7F5F809482021C0F808150121C0F8E2
:100BF0000413816001600649602081F800044FF011
:100C0000E0214FF40030C1F8000110BD0010014098
:100C100011E000E0F8B505461648854200D90546C2
:100C2000202080F31188144C0120C4F80803D4F864
:100C30000405284420F07F40C4F840050026C4F88D
:100C40004061D4F840014FF480370090C4F8047339
:100C5000FDF758FA28B125B1BFF34F8F86F31188FD
:100C600048DF86F31188C4F808730120C4F8040330
:100C7000F8BD0000FDFFFF000010014010B5084B5B
:100C8000002200BF53F832401CB1521C022AF9D393
:100C900010BD43F8321003EBC201486010BD0000E4
:100CA000382C002070B50D460446FFF781FF616CBB
:100CB0000020491C00D16064A16C491C00D1A064D3
:100CC000FFF780FFA06B20B9294604F1240000F053
:100CD00033F82046BDE87040FEF796BE014901207A
:100CE000086270470C20002070B5114C0D46216839
:100CF0001831FFF738FF2068001DFFF714FF38B9DF
:100D0000206890F82C10012088406169814361615E
:100D1000681C05D020692844BDE87040FEF768BC17
:100D20002168BDE870400348091DFFF734BF00008B
:100D30000C200020D42C002070B50C4C0D462168EE
:100D40001831FFF728FF2068001DFFF7ECFE38B9C7
:100D5000206890F82C10012088406169814361610E
:100D600020692844BDE87040FEF742BC0C200020FA
:100D700070B5040039D01D4DE06A2968C96A8842FF
:100D800033D2A069002804DB2868C06AC0F10300E0
:100D9000A061E16A164E01EB8101606906EB8101F9
:100DA00088421FD1201DFFF7BEFE012150B9E06A25
