:020000040000FA
:1000000018080020D5000000EF000000F1000000FB
:1000100000000000000000000000000000000000E0
:10002000000000000000000000000000F3000000DD
:100030000000000000000000F5000000F7000000D4
:10004000F9000000F9000000F9000000F9000000CC
:10005000F900000000000000F9000000F9000000B5
:1000600085010000F9000000F9000000F90000001F
:10007000F9000000F9000000F9000000F90000009C
:10008000F9000000F9000000F9000000F90000008C
:10009000F9000000F9000000F9000000F90000007C
:1000A000F9000000F900000000000000000000005E
:1000B0000000000000000000000000000000000040
:1000C0000348854600F022F800480047650200001A
:1000D000180800200321094802680A430260084802
:1000E00002680A4302600748804707480047FEE766
:1000F000FEE7FEE7FEE7FEE7FEE70000240500401E
:100100005405004031010000C1000000064C0125EB
:10011000064E05E0E36807CC2B430C3C98471034AF
:10012000B442F7D3FFF7D0FFB4040000D4040000BA
:1001300010B500F073F8002805D00E490C4848604F
:10014000C8130D4988610D48018CC9B201290ED12F
:10015000818C09070BD1018D0906090F042906D1ED
:10016000808D0006000F02D105490120886010BD76
:10017000DFFF07C000050040006C0040C00F00F02A
:1001800000060040F8B50E4C04270025BE03A80069
:100190003146A940FF3041302258002A0BD00322BB
:1001A0001202A21852680A4205D000212150054AC5
:1001B0005168126890476D1CEDB2BD42E7D3F8BD9F
:1001C000008000400800002002E008C8121F08C19B
:1001D000002AFAD170477047002001E001C1121FC8
:1001E000002AFBD170470000BFF34F8F044903483A
:1001F000C860BFF34F8F00BFFDE700000400FA05A1
:1002000000ED00E00EB50021029000916A460191D8
:100210000148FFF7E9FF0000014000001048018C91
:10022000C9B2012917D1818C090714D1018D0906A2
:100230000A0F03D1828D1206120F0ED0090F012969
:1002400003D1828D1206120F07D0032903D1808DAE
:100250000006000F01D00020704701207047000009
:10026000C00F00F008B5FF240020F5340125194B1C
:10027000024603212E468640F601360F02D0860044
:10028000F6183160401C2028F4D30F21124849058C
:100290008160C260114A0021114800F08FF80028E7
:1002A00001D0FFF7AFFF0E48052100680902401892
:1002B000006922467D21C9014A43C2400123002131
:1002C0000748009500F062F8054800F051F830BF8B
:1002D000FDE7000000070050000500506904000021
:1002E000A40400008207D30EFF229A408907090E5A
:1002F00010B5994000280BDA03071B0F083B9C0838
:100300000C4BA400E318DC6994430C43DC6107E068
:100310008408094BA400E418236893430B4323602B
:10032000C106C90E012088400449086004490860DC
:1003300010BD000000ED00E000E400E080E200E01D
:1003400000E100E070B5012424048C400326056818
:100350003602AD19002B01D06C6000E0AC60006883
:1003600089000818052109024018026470BD0000C8
:10037000016801220A6000790C225043024A0221DE
:10038000801801727047000008000020F0B5FF25BA
:10039000023504688D40FF34FF340234059E27681F
:1003A000AF4327600468FF34FF34023425681D43DF
:1003B00025603346FFF7C6FFF0BD000070B5044668
:1003C0000D4600790C21264B4143CE18317A002985
:1003D00001D0082070BD002A02D0002D02D004E018
:1003E000072070BD1F49C000451832606868706002
:1003F0000020034606E08100FF312268413153505E
:10040000401CC0B261798142F5D82068E978000BC0
:1004100040B2FFF767FF05202168000209186A78DB
:100420004B68D2075B085B00D20F13434B60226816
:10043000A9781218936889079B089B00890F0B43C2
:10044000936021682A7808180169120709090901CF
:10045000120F1143016101203072002070BD0000B5
:1004600008000020AC04000010B50A4B0A4C1A68C2
:100470009107890F645C0121A140521CFF381A606A
:10048000412806D1054842680B46934383601140DA
:10049000C16010BD00000020A00400000005005055
:1004A0001516171800800040000400000000030328
:1004B00000000000D404000000000020080000003C
:1004C000C8010000DC040000080000201008000043
:0C04D000D8010000000000000024F4002F
:04000005000000C136
:00000001FF
