:020000040001F9
:10F000007048002015F401001DF401001FF40100F8
:10F0100021F4010023F4010025F4010000000000A8
:10F0200000000000000000000000000027F40100C4
:10F03000000000000000000029F401002BF4010092
:10F040002DF401002DF401002DF401002DF4010038
:10F050002DF401002DF401002DF401002DF4010028
:10F060002DF401002DF401002DF401002DF4010018
:10F070002DF401002DF401002DF401002DF4010008
:10F080002DF401002DF401002DF401002DF40100F8
:10F090002DF401002DF401002DF401002DF40100E8
:10F0A0002DF401002DF401002DF401002DF40100D8
:10F0B0002DF401002DF4010000000000000000000C
:10F0C0002DF401002DF401002DF401002DF40100B8
:10F0D0002DF401002DF401000000000000000000EC
:10F0E0000000000000000000000000000000000020
:10F0F0000000000000000000000000000000000010
:10F1000000000000000000000000000000000000FF
:10F1100000000000000000000000000000000000EF
:10F40000DFF80CD000F04AF8004800470DF9010081
:10F41000704800200648804706480047FEE7FEE7A0
:10F42000FEE7FEE7FEE7FEE7FEE7FEE7FEE7000099
:10F43000D9F4010001F4010040EA01039B0703D065
:10F4400009E008C9121F08C0042AFAD203E011F823
:10F45000013B00F8013B521EF9D27047D2B201E0E5
:10F4600000F8012B491EFBD270470022F6E710B5C9
:10F4700013460A4604461946FFF7F0FF204610BD22
:10F4800030B504460020034600E05B1C934203D2E3
:10F49000E05CCD5C401BF8D030BD0000064C074D51
:10F4A00006E0E06840F0010394E807009847103454
:10F4B000AC42F6D3FFF7A8FF20FC010040FC01009E
:10F4C00000F01F02012191404009800000F1E0207E
:10F4D000C0F880127047000070B53F483E490024D4
:10F4E000091D00780A1D131D012506280BD10E7871
:10F4F000360708D11678C6F30316032E03D11E78FB
:10F5000016F0F00F02D0062806D011E0334801684B
:10F5100021F0807101600EE00E78360708D1167870
:10F52000C6F30316032E03D11E7816F0F00F02D097
:10F53000062804D015E02A49032008600BE008786B
:10F5400000070ED11078C0F30310032809D11878F2
:10F5500010F0F00F05D14FF08040C0F80C41C0F81A
:10F5600010411E487438016841F470010160BFF316
:10F570004F8FBFF36F8F4FF01021D1F8000200289A
:10F5800003DBD1F80002002821DA164A156016487C
:10F590000368002BFCD01523C1F800320568002D4C
:10F5A000FCD0C1F8043201680029FCD01460016865
:10F5B0000029FCD0BFF34F8F0848F03801680B4A90
:10F5C00001F4E06111430160BFF34F8FFEE7094989
:10F5D0000748086070BD0000E00F00F0FCED00E09F
:10F5E000A005004004E5014000E401400400FA05E4
:10F5F0000090D0034028002002E008C8121F08C174
:10F60000002AFAD170477047002001E001C1121FA3
:10F61000002AFBD170470000114810B501784278EC
:10F6200001F00F0102290ED8252A0CD821B1012999
:10F630000BD05523002110E00A49801CFFF720FF62
:10F6400008B9012010BD002010BD0F23F2E74418B7
:10F65000A4789C42F7D1491CC9B29142F7D3F0E794
:10F6600044280020F8FB01002DE9F041444C944669
:10F67000D2B2A272C4E90E31012565720026E6817C
:10F68000277847B148B103280AD0012F0FD0E58170
:10F690000220BDE8F0810520FBE700F0D5F86DE021
:10F6A000012FF4D0A08940F40040E081F5E727293C
:10F6B00002D9E5810120ECE7A681012802D00228C9
:10F6C00009D05BE027212F48FFF7CFFE012000F093
:10F6D000E1F904202FE0252A02D9E5810320D8E7AB
:10F6E000284803F00F07B3F1FF3F0770264F427021
:10F6F00023D02BB1012B09D0022B09D0E58137E0B3
:10F7000062462249801CFFF797FE06E00F2200E0C8
:10F7100055226146801CFFF7A1FE002000F0BAF9D7
:10F720001B49A06900F5A0700860081D0760184813
:10F730000C3805600220207020E00846BCF1000F64
:10F7400009D0BCF1010F06D0BCF1020F0DD0BCF105
:10F75000030F13D10EE0002000F09CF90D48066065
:10F76000C7F800523D600320E5E700F05BF803E0D6
:10F7700004208EE700F034F80028F9D0002088E754
:10F78000002800204428002000100040F8FB010061
:10F7900010F5014050160040034900234A7A4B728D
:10F7A000C9890160104670470028002010B500F09C
:10F7B000BFF910B900F016F908B1042010BD0648D1
:10F7C00000214172012101700448016841F01001DB
:10F7D0000160002010BD00000028002010ED00E0B6
:10F7E0000C490A78012A04D828B1012807D0022838
:10F7F00009D00020704708488861082006E00748C3
:10F800008861092002E0064888610A2048700120CA
:10F810007047000000280020008000400090004059
:10F8200000A00040074942B20B78012B04D82832CF
:10F830002D2A01D2820701D00020704748610120A3
:10F840007047000000280020084910B5002008601B
:10F85000074901240C60064908310860091D086049
:10F8600000F048F90348047010BD00005016004035
:10F8700008F50140002800202DE9F0411E480168EC
:10F8800041F0100101601D4D0127DFF874801D4C0F
:10F89000002600BFD5F80C01B0B1C5F80C610120FD
:10F8A000FFF70EFE207804280ED16F60D8F8000014
:10F8B000012805D1FFF7B0FE10B1A089401CA0813E
:10F8C00027211148FFF7D1FDA069D0F8401111B1EF
:10F8D000C0F84061DEE7D0F844010028DAD0A06922
:10F8E000C0F8446194F90100FFF7EAFD2069401C6B
:10F8F0002061BDE8F081000010ED00E00010004044
:10F900000014004000280020442800202DE9F84F72
:10F9100000263746344600F03BF9FFF747FF4FF02B
:10F92000FF3910B14846BDE8F88FDFF88CA04FF0E2
:10F930000008224DFFF7A0FFD5F808110029F9D0E3
:10F94000C5F808811C49091F0968C9B237B106F119
:10F950001502904204D90C020646EBE70127FAE7AC
:10F960000C430027A00B04F00303C4F30521C4F3E8
:10F970008502032B00D14B46FFF776FE6846FFF762
:10F980000BFF0028D6D0009A5146C2F30720CAF8D0
:10F99000000000BFD5F81C010128FBD14046C5F886
:10F9A0001C81D2B2C1F80020D5F81C110129FBD16D
:10F9B000C5F81C01BEE700001C25004000200040E7
:10F9C00030B541EA4201DDE9034541EA83018000A7
:10F9D00041EA042100F1A04041EA0541C0F80017C6
:10F9E00030BD000010B5294C606930F0FC0108D131
:10F9F00040B2042805DC10F1280F02DB207A03282E
:10FA000001D9042010BD00F075F821496069086033
:10FA1000091D207A08601E481830016821F0FF0196
:10FA200001600268A16A42EA116202600802184994
:10FA30001031086016490120243108600020091F98
:10FA40000860E079617940EA0120114928310860B5
:10FA50002079E178000440EA0120A17808430C49AC
:10FA60000831086094F8240094F82010400640EA19
:10FA70000160A18B40EA0140A17940EA01200449DC
:10FA800040F025000C310860002010BD0028002047
:10FA90000C150040124910B500220A601149124CA1
:10FAA000CB6A2360241D0B6B2360CB6B022404EB19
:10FAB00043030D4C303C2360241F0C4B23600C4B44
:10FAC000C3F800210324C3F8004220B1C3F80C217D
:10FAD0000120586010BD486903492C39086010BDE9
:10FAE000501600400028002038150040442800200F
:10FAF000001000400B49032008600B490020C1F8AA
:10FB00000002C1F810010122C1F81020D1F8102123
:10FB1000002AFBD0C1F810014860086003498881C1
:10FB20007047000008F50140001000400028002048
:10FB300010B54FF080400021C0F800110122026092
:10FB4000D0F80031002BFBD0104B98694260C260A6
:10FB5000C0F80415C0F84011C0F84411C0F84811AD
:10FB6000C0F84C114FF48034C0F80443C0F80022B0
:10FB70000424C0F810455C6BC0F840454FF4827413
:10FB8000C0F8444502600020196110BD0028002023
:10FB90001CB500240122062000942346114601943E
:10FBA000FFF70EFF0022082000942346114601941F
:10FBB000FFF706FF0D49062008600C4908200831B0
:10FBC00008600A490A48183108600A48C0F8084124
:10FBD000C0F81C41C0F82441044A04210C3A1160C9
:10FBE000C0F804430121816001601CBD0C25004068
:10FBF00000A04E0000200040FFC1FBE84C90728B3B
:10FC0000E7B3518963AB232302841872AA612F3BA7
:10FC100051A8E53749FBC9CA0C18532CFD00000058
:10FC200040FC01000028002044000000F8F501001D
:10FC300084FC0100442800202C20000008F601006C
:10FC4000000808010001000303000000000000009C
:10FC500000000000040000000080004003000000DD
:10FC60000000000000000000294176715B060000E2
:10FC70005555550071020000000000000000000012
:04FC80000090D0031D
:040000050001F40101
:00000001FF
