:020000040000FA
:1000000060080020D5000000EF000000F1000000B3
:1000100000000000000000000000000000000000E0
:10002000000000000000000000000000F3000000DD
:100030000000000000000000F5000000F7000000D4
:10004000F9000000F9000000F9000000F9000000CC
:10005000F90000000000000031010000F90000007C
:1000600081020000F9000000F9000000F900000022
:10007000F9000000F9000000F9000000F90000009C
:10008000F9000000F9000000F9000000F90000008C
:10009000F9000000F9000000F9000000F90000007C
:1000A000F9000000F900000000000000000000005E
:1000B0000000000000000000000000000000000040
:1000C0000348854600F022F800480047B9040000C4
:1000D000600800200321094802680A4302600848BA
:1000E00002680A4302600748804707480047FEE766
:1000F000FEE7FEE7FEE7FEE7FEE70000240500401E
:10010000540500402D020000C1000000064C0125EE
:10011000064E05E0E36807CC2B430C3C98471034AF
:10012000B442F7D3FFF7D0FF000900002009000018
:10013000F8B50024FF2501350126274600942846FE
:1001400000F0CCFB002808D031484068304204D091
:10015000304800212818344301602D1D76007F1C93
:10016000ADB2042FEBD3FF207D3000F0B7FB0028A9
:1001700007D029480021016040070443274800694F
:100180000090274E200712D00127002527420AD0D1
:100190002448AA00111808690969C004C00E89031F
:1001A000B258890F90477F006D1C042DEED3002CB0
:1001B0001DDA3046203014214156491C17D0077DE6
:1001C000BC06A40E204600F0DFF880003558002D54
:1001D0000DD0BE090121A140134AA000801800687B
:1001E000009A8003800F114202D0022802D0F8BD8D
:1001F0000328FCD1032E05D1022807D00221204676
:1002000000F05CFB31462046A847F8BD0321F6E725
:1002100000630040006000407C6100400005005029
:1002200018000020006500400007005010B500F0E5
:10023000D9F8002805D00E490C484860C8130D496C
:1002400088610D48018CC9B201290ED1818C090742
:100250000BD1018D0906090F042906D1808D0006F6
:10026000000F02D105490120886010BDDFFF07C0E3
:1002700000050040006C0040C00F00F00006004088
:10028000F8B50E4C04270025BE03A8003146A9404E
:10029000FF3041302258002A0BD003221202A2184C
:1002A00052680A4205D000212150054A516812685F
:1002B00090476D1CEDB2BD42E7D3F8BD0080004011
:1002C0005000002002E008C8121F08C1002AFAD11D
:1002D00070477047002001E001C1121F002AFBD1C6
:1002E00070470000BFF34F8F04490348C860BFF355
:1002F0004F8F00BFFDE700000400FA0500ED00E0AD
:100300000EB50021029000916A4601910148FFF765
:10031000E9FF0000014000000003000F01D00020B1
:1003200070470120704700000022D2438300044937
:100330000428CA5002D30818203002747047000005
:1003400018000020F0B50025ED43002A02D000235C
:10035000042601E0042305260A4C04E09F00E75927
:100360007F1C04D05B1CB342F8D32846F0BD5DB2BD
:10037000261835759E00A151002AF6D1E1182031CA
:100380000874F2E7180000200249091814200856E2
:10039000704700001800002072B602480168491C2E
:1003A000016070471000002003490868401E086083
:1003B00000D162B67047000010000020012181408A
:1003C00003484068014201D0012070470020704777
:1003D00008000020014610B501208840FFF79CFF6F
:1003E00010BD00001048018CC9B2012917D1818CC1
:1003F000090714D1018D09060A0F03D1828D120657
:10040000120F0ED0090F012903D1828D1206120F8F
:1004100007D0032903D1808D0006000F01D00020F2
:100420007047012070470000C00F00F0012181409B
:100430000804000C00D00120704700003EB51B48A6
:1004400002A900680290152000F0B4F8002801D03D
:10045000FFF756FF0020014600900123144A15487B
:1004600000F0ACF901A800F013F9002801D0FFF763
:1004700047FF104804681520FF34413400F0E6F8C7
:10048000024668462146007900F02CF9002801D088
:10049000FFF736FF6846007900F044F9002801D0E4
:1004A000FFF72EFF152000F0DBF83EBDF40800003A
:1004B000400D03000000002000F050F9002801D09A
:1004C000FFF71EFF00F04CF8002801D0FFF718FFDF
:1004D000084A0021084800F089F9002801D0FFF7F8
:1004E0000FFF06490120C860FFF7A8FF024800F08F
:1004F00057F9FEE7F108000000000020008C0040E2
:100500008207D30EFF229A408907090E10B5994041
:1005100000280BDA03071B0F083B9C080C4BA400B8
:10052000E318DC6994430C43DC6107E08408094B61
:10053000A400E418236893430B432360C106C90E4B
:1005400001208840044908600449086010BD00008B
:1005500000ED00E000E400E080E200E000E100E007
:1005600070B5124D687D002801D0082070BD0F497C
:1005700000202039421E0B18401CC0B21A752028DA
:10058000F9D300242046FFF7CFFE641CE4B2052C0B
:10059000F8D303210620FFF7B3FF01200449C00769
:1005A000486001206875002070BD00003800002000
:1005B00000630040FEB5044620480D460019142192
:1005C00041560026491C01D0082633E0A9780029AD
:1005D0001DD0012200212046FFF7B4FE411C14D09B
:1005E000830017482A78181869780369154F3B402B
:1005F00003610369E706FF0C9207920BC907C90A5A
:100600003B430A431343036104E0042612E0012143
:10061000C94301756A780120A0400B49012A0BD01B
:10062000C860002100910B4601220191204611462D
:1006300000F032F93046FEBD8860F2E71800002075
:1006400000650040FFE0ECFF0005005010B5FFF72B
:100650009BFE80060149000E401810BD006000405E
:100660000949091814200856810008480918086922
:10067000032210431F22120202430A6100BF00BF7F
:1006800000BF0861704700001800002000650040AE
:10069000F1B50427114E0024FFF77EFE0125A54089
:1006A000354204D02046FFF789FE00280AD0FFF724
:1006B0007BFE002F04D0641CAE43E4B2002EEBD1CD
:1006C0003846F8BD064901204A68A04010434860FA
:1006D000009800270470FFF767FEF1E7FFFF0000B6
:1006E0000800002070B514460D00064611D0002CFD
:1006F0000FD0FFF79BFE00280DD03046FFF75EFEBF
:1007000000280AD00648F10008180561446100205D
:1007100070BD0E2070BD072070BD082070BD0000A8
:1007200000F5014010B50446FFF754FE00280FD035
:100730002046FFF77BFE002804D02046FFF73EFE50
:10074000002807D001200449A0404860002010BDC7
:10075000072010BD082010BD00F5014004480178B5
:10076000002901D0852070470121017000207047C9
:100770000800002070B5012424048C40032605687D
:100780003602AD19002B01D06C6000E0AC6000684F
:1007900089000818052109024018026470BD000094
:1007A000016801220A6000790C225043024A0221AA
:1007B000801801727047000050000020F0B5FF253E
:1007C000023504688D40FF34FF340234059E2768EB
:1007D000AF4327600468FF34FF34023425681D43AB
:1007E00025603346FFF7C6FFF0BD000070B5044634
:1007F0000D4600790C21264B4143CE18317A002951
:1008000001D0082070BD002A02D0002D02D004E0E3
:10081000072070BD1F49C0004518326068687060CD
:100820000020034606E08100FF3122684131535029
:10083000401CC0B261798142F5D82068E978000B8C
:1008400040B2FFF75DFE05202168000209186A78B2
:100850004B68D2075B085B00D20F13434B602268E2
:10086000A9781218936889079B089B00890F0B438E
:10087000936021682A78081801691207090909019B
:10088000120F1143016101203072002070BD000081
:1008900050000020F808000030B552000A439900CB
:1008A000039C0A432102049D0A4329040A43024986
:1008B00080004018026030BD0007005082000648EA
:1008C0001018026803231B049A430260026809049B
:1008D0000A430260704700000007005003494018B7
:1008E0000068012800D00020704700000060004030
:1008F0007047000003000100040003030000000033
:10090000200900000000002018000000C4020000C0
:10091000380900001800002048080000D402000038
:100920000080004000040000000000000000000003
:08093000000000000024F400A7
:04000005000000C136
:00000001FF
