:020000040000FA
:10000000702100208D04000095040000970400007A
:10001000990400009B0400009D0400000000000003
:100020000000000000000000000000009F0400002D
:100030000000000000000000A1040000A304000074
:10004000A5040000A5040000D5070000A5040000D9
:10005000A5040000A5040000A5040000A5040000FC
:10006000A5040000A5040000A5040000A5040000EC
:10007000A504000025050000A5040000A50400005B
:10008000A5040000A5040000A5040000A5040000CC
:10009000A5040000A5040000A5040000A5040000BC
:1000A000A5040000A5040000A5040000A5040000AC
:1000B000A5040000A50400000000000000000000EE
:1000C000A5040000A5040000A5040000A50400008C
:1000D000A5040000A50400000000000000000000CE
:1000E0000000000000000000000000000000000010
:1000F0000000000000000000000000000000000000
:1001000000000000000000000000000000000000EF
:1001100000000000000000000000000000000000DF
:10040000DFF80CD000F07CF800480047790D0000C0
:1004100070210020401E00BF00BF00BF00BF00BF12
:1004200000BF00BF00BF00BF00BF00BF00BF00BFD4
:1004300000BF00BF00BF00BF00BF00BF00BF00BFC4
:1004400000BF00BF00BF00BF00BF00BF00BF00BFB4
:1004500000BF00BF00BF00BF00BF00BF00BF00BFA4
:1004600000BF00BF00BF00BF00BF00BF00BF00BF94
:1004700000BF00BF00BF00BF00BF00BF00BF00BF84
:1004800000BF00BF00BFC5D17047000006488047CD
:1004900006480047FEE7FEE7FEE7FEE7FEE7FEE769
:1004A000FEE7FEE7FEE7000079050000010400001A
:1004B00040EA01039B0703D009E008C9121F08C0E6
:1004C000042AFAD203E011F8013B00F8013B521E66
:1004D000F9D2704730B50B46014600202022012496
:1004E00009E021FA02F59D4205D303FA02F5491B02
:1004F00004FA02F52844151EA2F10102F1DC30BD18
:10050000064C074D06E0E06840F0010394E8070060
:1005100098471034AC42F6D3FFF776FF1817000067
:100520003817000070B511480F4903680022002BEE
:1005300019D0D1F8081311F0010F14D002600C4843
:1005400000680C4CC1B2201D00F047FB0546201D81
:1005500000F0FEFB2189884201D8042D03D1BDE8BB
:10056000704000F001BF70BD00D0004000D10040DD
:1005700008D5004034010020F0B58C480022041D4D
:100580000378211D081D0126062B17D125782D077C
:1005900014D10D78C5F30315032D03D1077817F097
:1005A000F00F0ED0042D03D1077817F0F00F08D00C
:1005B000052D03D1057815F0F00F02D0062B09D0D8
:1005C00014E04FF08055D5F84452794FC5F34235C9
:1005D0003D6002E025782D0708D10D78C5F303159D
:1005E000032D03D1057815F0F00F02D0062B06D0AD
:1005F0001DE0704D2F6827F080772F601AE0257876
:100600002D0714D10D78C5F30315032D03D10778F9
:1006100017F0F00F0ED0042D03D1077817F0F00F6C
:1006200008D0052D03D1057815F0F00F02D0062B68
:100630000AD015E04FF08045C5F80C21C5F810210F
:100640005B4D2D1F2A6002E025782D0708D10D781B
:10065000C5F30315032D03D1057815F0F00F02D073
:10066000062B05D066E0524C03236434236002E07D
:1006700023781B075ED10978C1F30311052959D1ED
:10068000007810F0F00F55D14B4800684B490860D6
:100690004948001D0068091D086047480830006887
:1006A000091D086044480C300068091D0860424874
:1006B00010300068091D08603F4814300068091DAB
:1006C00008603D48183000683C49203108603A48CD
:1006D0001C300068091D0860374820300068091D7B
:1006E0000860354824300068091D08603248283009
:1006F0000068091D086030482C300068091D08603A
:100700002D48303000682D49403108602A48343087
:100710000068091D0860284838300068091D086015
:1007200025483C300068091D0860234840300068B7
:10073000091D08601F487438016841F470010160A8
:10074000BFF34F8FBFF36F8F4FF01021D1F800022E
:10075000002803DBD1F80002002822DA184B1E60C3
:1007600018480468002CFCD01524C1F80042056824
:10077000002DFCD0C1F8044201680029FCD01A60A9
:1007800001680029FCD0BFF34F8F0A48F038016898
:100790000D4A01F4E06111430160BFF34F8F00BFC8
:1007A000FDE70B4909480860F0BD0000E00F00F0CC
:1007B0003C050040FCED00E00404001020C50040B2
:1007C00004E5014000E401400400FA050090D00374
:1007D000100000200348007F08B100F009BF00F0BE
:1007E00083BE0000500100200FB4054B10B503A9D3
:1007F000044A029800F018F810BC5DF814FB0000E1
:100800006B0D00000C00002002E008C8121F08C198
:10081000002AFAD170477047002001E001C1121F81
:10082000002AFBD1704700002DE9FF4F8BB08846AE
:100830000546002606E025280BD0DDE90D1290477D
:100840006D1C761C28780028F5D10FB03046BDE825
:10085000F08F0024A146A2460122AE4900E00443E5
:1008600015F8013F203B02FA03F00842F7D128783F
:100870002A2810D06FF02F022878A0F13001092922
:1008800015D809EB890102EB410144F0020400EBA9
:1008900001096D1CF0E758F8041B5FEA010903D554
:1008A00044F40054C9F1000944F002046D1C287896
:1008B0002E2817D115F8010F44F004042A280ED071
:1008C0006FF02F022878A0F1300109290AD80AEB2D
:1008D0008A0102EB410100EB010A6D1CF2E758F8B6
:1008E00004AB6D1C28786C280FD006DC4C2817D080
:1008F00068280DD06A2814D104E0742810D07A2812
:100900000FD10DE044F400140AE044F4801401E037
:1009100044F440146978814202D104F580146D1CBE
:100920006D1C2878692865D006DC00288DD06328E6
:1009300027D0642806D15DE06E2808D073282AD01D
:10094000752877D0DDE90D129047761CE0E0C4F3FE
:100950000250022809D003280DD0D8F8001004282E
:100960000DD00E6008F10408D2E0D8F80010F2179C
:10097000C1E90062F6E7D8F800100E80F2E70E70C9
:10098000F0E718F8041B8DF8001000208DF8010026
:10099000EB46012003E058F804BB4FF0FF3061073D
:1009A0004FF0000701D40AE07F1C57450DDA87425B
:1009B000FADB1BF807100029F6D106E07F1C8742FE
:1009C000FCDB1BF807100029F8D1DDE90D23A9EBAA
:1009D00007008146214600F0B1F83044C61904E012
:1009E000DDE90D121BF8010B90477F1EF8D221465E
:1009F000484688E058F8040BC4F302514FF00A0B44
:100A0000032900D100B2042900D140B2002802DA43
:100A100040422D2102E0210505D52B218DF824101F
:100A2000012104E006E0E10710D02021F6E708AF3D
:100A3000089113E058F8040BC4F302514FF00A0B6D
:100A4000032900D180B2042900D1C0B20021EEE711
:100A50005946FFF73FFD303107F8011D0028F7D157
:100A6000ADEB070000F1200B600702D524F48034C1
:100A700001E04FF0010ADA4502DDAAEB0B0000E0CD
:100A80000020824600EB0B0108980144A9EB01000D
:100A90000A90E00306D4DDE90D2321460A9800F010
:100AA0004DF806444FF0000908E009A911F80900C3
:100AB000DDE90D12904709F10109761C0899894575
:100AC000F3DBE0030CD5DDE90D2321460A9800F0A5
:100AD00035F8064404E0DDE90D1230209047761C1D
:100AE000BAF10001AAF1010AF5DC05E0DDE90D1219
:100AF00017F8010B9047761CBBF10001ABF1010B1D
:100B0000F4DC0A982146DDE90D2300F005F80644DF
:100B10006D1C97E6092801002DE9F04104460025E7
:100B20001E461746880404D405E039462020B04705
:100B30006D1C641EF9D52846BDE8F0812DE9F04111
:100B4000044600251E469046C80301D5302700E024
:100B50002027880404D505E041463846B0476D1C7F
:100B6000641EF9D52846BDE8F0810000BFF34F8F21
:100B700005480168054A01F4E06111430160BFF3D3
:100B80004F8F00BFFDE700000CED00E00400FA0508
:100B90000EB500210091CDE901106A4644F2010032
:100BA000FFF7E4FF10B58268C368934203D000F0FA
:100BB000C5F8002010BD052010BD29B112B1531E8B
:100BC000134203D0092070470E20704701608380D4
:100BD00000218160C1600846704710B58268C36813
:100BE0009A1A83889A4203D800F0B6F8002010BD04
:100BF000042010BD70B50446234888B01E460D0081
:100C0000426035D0A888296882B22048FFF7D5FF16
:100C100000282ED1A889A96882B21C481030FFF79D
:100C2000CCFF002825D1202219496846FFF740FC57
:100C3000A0680690207900B101208DF814008DF88D
:100C40001C60607900B10E208DF81500E0780290EC
:100C5000A078039020780190607800900D49684654
:100C600000F064F9002804D19DF81D0018B104E0DB
:100C7000072008B070BD00F0E9F903480121801C8D
:100C800000F09EF9F5E700000400002014010020A8
:100C9000D41600004114000010B504460748012195
:100CA0004470401C00F078FA112805D12146BDE8B7
:100CB00010400348FFF791BF10BD00000400002062
:100CC000240100202DE9F0410446006800F002FBF9
:100CD0002078174F012606FA00F03860002160687E
:100CE00000F0EFFA1348144D007FA069C5F8240501
:100CF000607D217D0843C5F86C05D4E90001C5F885
:100D00000C05C5F81415207D01280FD10021A0681D
:100D100000F0D7FAE06800F0DDFA207B86403E6004
:100D2000D4E90201C5F80815C5F81005BDE8F08141
:100D30000805005050010020002000408268838890
:100D40001A4003689A5C0A708168491C8160704788
:100D50008168C068401A7047C26883881A40036877
:100D60009954C168491CC160704710B50446C0B2AF
:100D7000FFF792FF204610BD88B01B4A032307CA25
:100D80008DE8070019480390012004901848059049
:100D90004FF480700690174A03A96846FFF72AFFB0
:100DA00008B1FFF7F5FE002000F06AF808B1FFF780
:100DB000EFFE03AE102103A800F0A6FA05460EA030
:100DC000FFF712FD002405E0315D0FA0FFF70CFDD9
:100DD000641CE4B2AC42F7D30DA0FFF705FD64201C
:100DE00000F018F8E6E70000C81600000000002038
:100DF000140000202D14000052616E646F6D2056A7
:100E00006563746F723A00002025336400000000AF
:100E10000A0D000031B540F2E73404E0401E0090B6
:100E20002046FFF7F7FA00980028F7D138BD4907A8
:100E3000090E002806DA00F00F0202F1E02282F823
:100E4000141D03E000F1E02282F8001400F01F02FC
:100E5000012191404009800000F1E020C0F880129B
:100E6000C0F800117047000070B505460024034823
:100E7000FFF76EFF2870204670BD0000380100208B
:100E800070B5144E0446307810B10825284670BD60
:100E9000104908221431301DFFF78FFE054604B9B2
:100EA0000D4C002DF2D1207820B10C48016841F0A2
:100EB0000101016061780D20FFF7B9FF0848D0F803
:100EC000001221F00101C0F8001200F035FA0120F3
:100ED0003070DBE734010020F416000004D5004038
:100EE00000D000402DE9F041DFF83C8007460E4677
:100EF00008F10400FFF72CFFB04211D300252C4667
:100F0000002E0AD9391908F10400FFF74BFE641CC2
:100F10000546B44201D2002DF4D000F00DFA00E0F5
:100F200004252846BDE8F081340100202DE9F04178
:100F30001E4C07460D46E07E10B10820BDE8F0814A
:100F400007B91B4F787F20773846FFF7BBFE6560F7
:100F5000386920602800174E4FF0000516D0397F01
:100F6000207F48B1C6F81051C6F82051C6F8245168
:100F7000C6F84451104804E0C6F81C51C6F8445164
:100F80000E48C6F804030220FFF751FF207F08B186
:100F9000082000E00420C6F80005E5752576A57553
:100FA0000120E076A5760020C8E70000500100206F
:100FB000F81600000020004010030200800002002C
:100FC0002DE9F0411F4B1C7F3CB14FF40052B2EBB6
:100FD000104F02D01020BDE8F081D3F804C00022E9
:100FE000194D4FF404764FF40177BCF1000F05D092
:100FF00014B1C5F8086301E0C5F8087393F817E069
:10100000BEF1000F10D01A7E52B1BCF1000F05D016
:1010100014B1C5F8046301E0C5F804731120DAE7E0
:1010200018610122197604E0D9750025D8605D7633
:101030001D761CB1BDE8F04100F066B8BDE8F04196
:1010400000F014B8500100200020004010B5064CFC
:10105000207F002806D1A07E002803D100F0B6F939
:101060000120A07610BD0000500100202DE9F05FA6
:10107000234DA87E104301D100F0A8F9214C6868E7
:1010800030B14FF40170C4F804030020BDE8F09FB4
:101090004FF000094FF4A27AC4F844914FF4927BC8
:1010A000A8465946204600F01FF905464FF48471C2
:1010B000204600F019F907465146204600F014F981
:1010C000064647EA06012943EBD055EA060007D158
:1010D00000F054F998F8171098F819008142E0D8F8
:1010E00088F817900DB10320D0E70EB10F20CDE79F
:1010F00098F81A10012009B12060C6E76060C4E7C3
:1011000050010020002000402DE9F05F204C002617
:101110004FF48873C4F810614FF4A275C4F84461A9
:10112000C4F83405C4F838158AB1D4F8000240F088
:101130002000C4F80002DFF85C80D8F8040048B151
:101140004FF40470C4F804030020BDE8F09F0120B0
:101150002060F0E79A46A9464FF4927B514620461C
:1011600000F0CDF805464946204600F0C8F807468D
:101170005946204600F0C3F83D430543EED088F8B9
:10118000176008B10320E0E7002FDDD00F20DCE777
:1011900000200040500100202DE9F0471E4D2A7F1D
:1011A0003AB14FF40053B3EB104F02D01020BDE81A
:1011B000F087AB7D0BB11120F9E7A9750023A8607A
:1011C000AB822AB3154C00264FF490729846C4F8AF
:1011D00020314FF4AC73C4F85881C4F84405C4F806
:1011E00048150120A060686880B99246994651462A
:1011F000204600F084F807464946204600F07FF874
:101200000743F4D000B10F2685F816803046CEE7AC
:10121000BDE8F04700F004B8500100200020004075
:101220002DE9F05F1C4F00254FF48E7A2E46C7F84B
:101230001C514FF00108C7F8088000F0D3F8174C94
:10124000B815616879B123E05F465146484600F021
:101250004BF810B9A08AB842F7D1A08AB84204D09E
:1012600000F0C0F801E08346B946A08AA17D88421B
:10127000EAD3A08A584501D10F2508E04F465146D0
:10128000384600F031F80028F9D0C7F80C80A67570
:101290002846BDE8F09F00000020004050010020DB
:1012A00030B541EA4201DDE9034541EA83018000AE
:1012B00041EA042100F1A04041EA0541C0F80017CD
:1012C00030BD1CB500220B46009211460192FFF77B
:1012D000E7FF1CBD1CB5002100910B4601220191C6
:1012E0001146FFF7DDFF1CBD4058002800D001204B
:1012F0007047D0F80403084000D0012070474058E0
:10130000002800D00120704738B505460C466846D5
:10131000FFF7AAFD08B1FFF73BFC9DF800008442EF
:1013200000D3044621462846FFF7DCFD08B1FFF74D
:101330002FFC204638BD000010B5084C201DFFF7DB
:1013400007FD2189884207D8064A00210448116018
:101350000121C0F80413016010BD00003401002019
:1013600000D0004000D1004003490120C1F808032B
:10137000091D08607047000000D0004009480A4974
:101380000022C37DC1F8082143B1D1F81815437E6E
:10139000C268D154417E491C41767047D1F8180586
:1013A0007047000050010020002000401FB50122BE
:1013B0008DF8080004488DF800200191D0E9001252
:1013C000684690471FBD00005001002004480021DE
:1013D000C0F82411C0F80811012101607047000015
:1013E00000200040064A0020C2F81C010548838AFC
:1013F0008168C95C838A5B1C8382C2F81C157047B4
:1014000000200040500100201FB500218DF8080089
:1014100005488DF80010826801928175D0E90012AC
:10142000684690471FBD0000500100200178022946
:1014300001D0012902D14068FFF7AABB7047000024
:101440007CB50178264D012909D002292CD000292C
:1014500029D129462348FFF7A5FB80B334E0406833
:10146000017820481038FFF7B8FB1E4C103C20B123
:1014700001218DF80010019007E0A068E168081ACA
:10148000012805D100208DF800006968684688476A
:10149000A068E168081AA188884204D81048012190
:1014A000801CFFF78DFD7CBD02218DF80010C06807
:1014B00001900B480121801CFFF782FD0CE0FFE743
:1014C00001210748FFF768FE06488168C068884226
:1014D000E9D103208DF800006968684688477CBD23
:1014E00004000020240100202DE9FF413E4D4FF46F
:1014F00000712846FFF7FDFE01273C4C4FF40178B0
:10150000002600B34FF492712846FFF7EDFED0B1EC
:10151000C5F82461C5F80883A07E00B96F60022079
:101520008DF80000D5F88004C5F880040390E07DB4
:101530008DF80800E0680190E6752676D4E900127F
:101540006846904724E004212846FFF7D2FEF8B110
:101550004FF484712846FFF7C7FEC8B1FFF70EFFAE
:10156000E07D617E884213D1227E3AB1607EE168DF
:10157000E2752269E2602676667607E0A07E00B911
:101580006F60C5F80883E675607EE168FFF70EFFBF
:101590004FF48E712846FFF7A7FE58B1A18AA07DAF
:1015A000814202D2FFF71EFF04E0C5F81C6108B1BA
:1015B000FFF72AFF4FF4A2712846FFF795FE002897
:1015C0000FD0C5F84461A07E00B12F60E07D0028F7
:1015D00007D0E675607EE16804B0BDE8F041FFF732
:1015E000E5BEBDE8FF810000002000405001002062
:1015F0007FB5334C4FF492712046FFF780FE314D9A
:101600000026B0B1C4F8246102208DF80000D4F89F
:101610008004C4F880040390D4F83C058DF80800D9
:10162000E8680190EE752E76D5E90012684690477D
:101630001FE04FF488712046FFF761FEC8B1C4F87F
:101640001061D4F83C05E97DC0B2814211D12A7EF7
:101650005AB1E968D4F8003223F02003C4F800320C
:10166000EA752A69EA602E7601E0EE75E968FFF70F
:101670009DFE4FF4A2712046FFF741FE50B1C4F821
:101680004461E87D30B1EE75D4F83C05E968C0B23C
:10169000FFF78CFE4FF490712046FFF730FE0028D4
:1016A0000CD0C4F82061A87D002807D0D4F84C05E0
:1016B00004B0C0B2BDE87040FFF7A6BE7FBD000019
:1016C000002000405001002008060507010000002E
:1016D00000509D0006000000080000000700000008
:1016E00005000000000000000000000000009D0058
:1016F00003000000010300000600000008000000D5
:1017000007000000050000000000000000000000CD
:1017100000009D00030000003817000000000020BA
:1017200014000000080800004C17000014000020FE
:101730005C2100001808000000000000000000000C
:0C17400000000000000000000090D0033A
:0400000500000401F2
:00000001FF
