:020000040000FA
:1000000070230020150400001D0400001F040000E0
:10001000210400002304000025040000000000006B
:1000200000000000000000000000000027040000A5
:100030000000000000000000290400002B04000064
:100040002D0400002D0400007D0D00002D04000093
:100050002D0400002D0400002D0400002D040000DC
:10006000390D00002D0400002D0400002D040000B7
:100070002D0400002D0400002D0400002D040000BC
:100080002D0400002D0400002D0400002D040000AC
:100090002D0400002D0400002D0400002D0400009C
:1000A0002D0400002D0400002D0400002D0400008C
:1000B0002D0400002D0400000000000000000000DE
:1000C0002D0400002D0400002D0400002D0400006C
:1000D0002D0400002D0400000000000000000000BE
:1000E0000000000000000000000000000000000010
:1000F0000000000000000000000000000000000000
:1001000000000000000000000000000000000000EF
:1001100000000000000000000000000000000000DF
:10040000DFF80CD000F07EF90048004741150000ED
:10041000702300200648804706480047FEE7FEE7B5
:10042000FEE7FEE7FEE7FEE7FEE7FEE7FEE7000089
:10043000DD0A00000104000040EA01039B0703D02D
:1004400009E008C9121F08C0042AFAD203E011F813
:10045000013B00F8013B521EF9D270470FB400B5C2
:1004600089B00BA800906A4603480A9900F040F949
:1004700009B05DF814FB0000240000202DE9FF5FA7
:100480001D464FF0FF3BD5E9014691465F464FF0D0
:100490000008A9697F1C01988847296A8246884715
:1004A0000028F6D1BAF1FF3F0CD024F4C064002E2E
:1004B00019DD600614D5BAF12B0F09D0BAF12D0F52
:1004C0000ED103E0584604B0BDE8F09F44F48064C8
:1004D000A9697F1C01988847761E8246002E02DD9E
:1004E000BAF1300F03D0B9F1000F26D032E0A9697C
:1004F000761E44F400747F1C019888478246002EC3
:1005000005DDBAF1780F06D0BAF1580F03D0B9F172
:10051000000F10D01EE0B9F1000F02D0B9F1100F9A
:1005200018D1A969761E24F400747F1C01988847AD
:100530008246102002E0082000E00A20814609E0FF
:1005400008FB0908A969761E44F400747F1C019811
:1005500088478246002E05DD4946504600F0BAF82D
:100560000028EDDAE96901988847A00502D46FF008
:100570000100A8E7E00725D1600613D5600502D584
:10058000C8F1000000E0404629680A1D2A60096899
:10059000220501D5087015E0220701D5088011E079
:1005A00008600FE02868011D29600068210502D558
:1005B00080F8008006E0210702D5A0F8008001E065
:1005C000C0F8008038467EE72DE9FF5FD2E901A739
:1005D0004FF00008916999461446DDF838B0464658
:1005E00001988847054659EA0B0005D009E0A16942
:1005F000761C019888470546216A284688470028C6
:10060000F5D1681C03D05FEACA7005D015E04FF041
:10061000FF3004B0BDE8F09F2068011D2160D0F8D4
:1006200000800AE05FEACA7001D108F8015BA169A5
:10063000761C7F1E019888470546002F1ADD681C2E
:1006400018D0B9F1000F0DD0E81705EBD0604211BA
:1006500020F01F0059F822102A1A01209040014270
:10066000E0D107E0BBF1000FDCD1216A28468847C2
:100670000028D7D0E16901988847BBF1000F07D166
:10068000002E05DD5FEACA7002D1002188F8001053
:10069000A068B84203DDBBF1000F03D017B16FF0C3
:1006A0000100B6E73046B4E730B50B4601460020FE
:1006B0002022012409E021FA02F59D4205D303FA24
:1006C00002F5491B04FA02F52844151EA2F10102A5
:1006D000F1DC30BD3A2800D2303820F02002412A27
:1006E00001D3A2F13700884201D34FF0FF307047A9
:1006F000024B9361024BD36100F032B88D110000C0
:1007000045070000064C074D06E0E06840F0010395
:1007100094E8070098471034AC42F6D3FFF774FE14
:1007200098240000B8240000094910B508784C1C32
:1007300018B1401E0870205C10BD00210720ABBE20
:10074000207010BD02490878421C0A7070470000F2
:100750002C0000200268114413780160184670478D
:10076000D1600449516104491162002111611146AF
:1007700000F00AB8550700007D070000C0B24FF432
:10078000F05100F097B900002DE9F34F8BB04FF016
:10079000000801F10C000C464FF0010B46460DF12C
:1007A000080A01906269012101989047051E2DD029
:1007B000252D2CD0216A8847C0B16269012101989A
:1007C0009047216A88470028F7D1411E6269019845
:1007D000904700E0761CA1690B988847216A8847FA
:1007E0000028F7D1E1690B988847DBE7A1690B98EE
:1007F00088470746A84201D1761CD3E7E1690B98E8
:1008000088477F1C02D1B8F1000F6FD046E1002766
:1008100062693D463946019890472A2804D16269A9
:100820000121019890470125DFF884926269012136
:1008300001989047A0F130010A290AD24F45E5DC22
:1008400007EB870100EB4107303FDFD445F010058F
:10085000ECE7E90601D46FF000476C280AD04C2879
:1008600014D0682815D06A280DD074281CD07A2896
:100870001AD01DE062690121019890476C2802D0CE
:1008800045F0040514E045F002050DE045F02005B3
:100890000AE06269012101989047682802D045F07A
:1008A000080505E045F4006562690121019890475B
:1008B000C4E9015765283DD019DC58287AD00CDCF2
:1008C000452837D004DC252826D0412831D131E015
:1008D00046282FD047282CD12CE05B2877D06128E0
:1008E00028D063287CD0642823D15AE0D0E06F2838
:1008F00048D008DC66281DD067281BD0692821D085
:100900006E2816D127E0702845D0732868D0752846
:1009100047D078280DD14DE0A1690B98884705464E
:1009200025283FF469AFE1690B9888476D1C3FF4B7
:100930006AAFB3E023466A466FF001000B99AFF34C
:1009400000809EE045F040006060A80723464FF01D
:10095000000236D43EE0E8077FF447AF2068011D6F
:1009600021600068290501D506701BE7290701D51C
:10097000068017E7A90703D5F117C0E9006111E761
:1009800006600FE745F040006060A80723464FF07F
:10099000080216D41EE040F60E0125EA0100606050
:1009A00016E045F040006060A80723464FF00A02B9
:1009B00007D40FE045F040006060A80708D5234643
:1009C00010226FF001000B99AFF3008059E007E0AF
:1009D000234610226FF001000B99FFF74FFD50E006
:1009E0004FF000094F464B46632802D05B2806D0E3
:1009F00040E0E80601D40120A06001273AE06269E6
:100A00000121019890475E2805D14FF001096269E4
:100A1000494601989047216939B900210A46534651
:100A200043F82120491C0829FADBB0B3216969B9D0
:100A3000C11700EBD16253110AEB830122F01F02B0
:100A4000821A01200B68904003430B606269012108
:100A5000019890475D28E8D1B9F1000F09D0002036
:100A6000514651F82020D24341F82020401C08284C
:100A7000F7DB02AB224600976FF001000B99FFF7FE
:100A8000A3FD00280CDA401C08D1BBF1000F05D0F3
:100A90004FF0FF300DB0BDE8F08FFFE74046F9E7BB
:100AA000E90701D108F1010806444FF0000B79E68F
:100AB000CCCCCC0C7F2801D9002208E0064A02EBFE
:100AC0005002C007127800D1120902F00F02012073
:100AD0009040084070470000C4230000F0B58C48E7
:100AE0000022041D0378211D081D0126062B17D1A5
:100AF00025782D0714D10D78C5F30315032D03D1E7
:100B0000077817F0F00F0ED0042D03D1077817F0F7
:100B1000F00F08D0052D03D1057815F0F00F02D0A5
:100B2000062B09D014E04FF08055D5F84452794F88
:100B3000C5F342353D6002E025782D0708D10D78D8
:100B4000C5F30315032D03D1057815F0F00F02D07E
:100B5000062B06D01DE0704D2F6827F080772F60A0
:100B60001AE025782D0714D10D78C5F30315032D50
:100B700003D1077817F0F00F0ED0042D03D10778BA
:100B800017F0F00F08D0052D03D1057815F0F00F00
:100B900002D0062B0AD015E04FF08045C5F80C2195
:100BA000C5F810215B4D2D1F2A6002E025782D0726
:100BB00008D10D78C5F30315032D03D1057815F081
:100BC000F00F02D0062B05D066E0524C03236434AC
:100BD000236002E023781B075ED10978C1F303117B
:100BE000052959D1007810F0F00F55D14B48006815
:100BF0004B4908604948001D0068091D08604748C6
:100C000008300068091D086044480C300068091D60
:100C10000860424810300068091D08603F481430E1
:100C20000068091D08603D48183000683C492031C3
:100C300008603A481C300068091D086037482030B9
:100C40000068091D0860354824300068091D0860E7
:100C5000324828300068091D086030482C30006890
:100C6000091D08602D48303000682D49403108606A
:100C70002A4834300068091D086028483830006868
:100C8000091D086025483C300068091D086023489C
:100C900040300068091D08601F487438016841F43D
:100CA00070010160BFF34F8FBFF36F8F4FF01021C2
:100CB000D1F80002002803DBD1F80002002822DA74
:100CC000184B1E6018480468002CFCD01524C1F88D
:100CD00000420568002DFCD0C1F8044201680029DB
:100CE000FCD01A6001680029FCD0BFF34F8F0A487E
:100CF000F03801680D4A01F4E06111430160BFF36F
:100D00004F8F00BFFDE70B4909480860F0BD0000A8
:100D1000E00F00F03C050040FCED00E00404001092
:100D200020C5004004E5014000E401400400FA054C
:100D30000090D0032800002010B50E4C20466279A8
:100D4000017900782AB10A460146607801F016F967
:100D500001E001F0EBF82079401CC0B22071E1788D
:100D6000884201D9A078207103490020C1F84001D0
:100D700010BD000010000020008000400348007FEC
:100D800008B101F08DBA01F007BA0000500300204D
:100D90000FB4054B10B503A9044A029800F018F8E7
:100DA00010BC5DF814FB0000C511000020000020FD
:100DB00002E008C8121F08C1002AFAD17047704724
:100DC000002001E001C1121F002AFBD17047000082
:100DD0002DE9FF4F8BB09A460F460546002606E0E8
:100DE00025280BD052460D9990476D1C761C28780B
:100DF0000028F5D10FB03046BDE8F08F0024A046A2
:100E00000122604900E0044315F8013F203B02FA4B
:100E100003F00842F7D128782E2817D115F8010FD2
:100E200044F004042A280ED06FF02F022878A0F195
:100E3000300109290AD808EB880102EB410100EBD7
:100E400001086D1CF2E757F8048B6D1C287869289F
:100E50003ED006DC0028CDD063280BD0642804D116
:100E600036E0732810D075284BD052460D99904724
:100E7000761C85E017F8040B8DF8000000208DF833
:100E80000100E946012003E057F8049B4FF0FF30D2
:100E900061074FF0000401D40AE0641C44450DDAF8
:100EA0008442FADB19F804100029F6D106E0641C2C
:100EB0008442FCDB19F804100029F8D1264404E030
:100EC00019F8010B52460D999047641EF8D257E06D
:100ED00001CF4FF00A0B002802DA40422D2102E038
:100EE000210504D52B218DF82410012103E0E10711
:100EF00005D02021F7E70DF1200908910CE0002131
:100F0000F9E701CF4FF00A0BF9E75946FFF7CCFBA1
:100F100001F1300209F8012D0028F6D1ADEB0900EE
:100F200000F1200B600701D44FF00108D84502DD25
:100F3000A8EB0B0000E000208046002406E009A892
:100F40005246005D0D999047641C761C08988442B7
:100F5000F5DB04E0302052460D999047761CB8F13D
:100F60000001A8F10108F5DC05E019F8010B524673
:100F70000D999047761CBBF10001ABF1010BF4DC3D
:100F80006D1C34E709280100BFF34F8F0548016845
:100F9000054A01F4E06111430160BFF34F8F00BFC8
:100FA000FDE700000CED00E00400FA050EB500219D
:100FB0000091CDE901106A4644F20100FFF7E4FF19
:100FC00010B58268C368934203D000F0E8F80020AF
:100FD00010BD052010BD29B112B1531E134203D01C
:100FE000092070470E2070470160838000218160D6
:100FF000C1600846704710B58268C3689A1A838832
:101000009A4203D800F0D5F8002010BD042010BD8E
:1010100010B5044609488168C2688088511A814227
:1010200006D10121064800F07BFC08B1052010BD67
:101030002146BDE810400148FFF7C2BF3003002041
:101040001A00002070B50446234888B01E460D00E3
:10105000426035D0A888296882B22048FFF7BBFFDC
:1010600000282ED1A889A96882B21C481030FFF749
:10107000B2FF002825D1202219496846FFF7DCF984
:10108000A0680690207900B101208DF814008DF839
:101090001C60607900B10E208DF81500E078029098
:1010A000A078039020780190607800900D49684600
:1010B00000F0ECFB002804D19DF81D0018B104E0FD
:1010C000072008B070BD00F071FC03480121801CAE
:1010D00000F026FCF5E70000180000203003002097
:1010E00084230000F120000010B5044607480121C8
:1010F0004470401C00F000FD112805D12146BDE8D8
:1011000010400348FFF777BF10BD00001800002013
:10111000400300202DE9F0410446006800F08AFDFC
:101120002078174F012606FA00F038600021606829
:1011300000F077FD1348144D007FA069C5F8240521
:10114000607D217D0843C5F86C05D4E90001C5F830
:101150000C05C5F81415207D01280FD10021A068C9
:1011600000F05FFDE06800F065FD207B86403E609A
:10117000D4E90201C5F80815C5F81005BDE8F081ED
:1011800008050050500300200020004008B56846C4
:10119000FFF73EFF0528FAD09DF8000008BD8268E1
:1011A00083881A4003689A5C0A708168491C8160D0
:1011B0007047C26883881A4003689954C168491C03
:1011C000C160704710B50446C0B2FFF78DFF2046DE
:1011D00010BD000070B500F0F9FE15490860002050
:1011E0000446050200F0F2FE641C2843E4B2042C1D
:1011F000F7D30F49083908600D49082010390860F5
:10120000091D0C4808600A490020103108600A4D89
:10121000FE205FF00004287000F0D8FE2919641C3D
:10122000E4B24870FE2CF7D301482038056070BD49
:1012300024150040FF0004033002002008B51348C5
:10124000FFF7A6FD694612A0FFF708F99DF8000018
:101250003038022811D89DF800100EA0FFF798FD35
:101260009DF800100D4830290CD031290CD00121F7
:1012700001700BA0FFF78CFD08BD072105A0FFF74B
:1012800087FDDFE70221F3E70021F1E754240000A6
:101290002563000025630D0A000000000000002007
:1012A0000D0A000008B51AA0FFF772FD694628A0D4
:1012B000FFF7D4F89DF80000303807280FD89DF8C4
:1012C0000000FFF711FF9DF8001022483039072970
:1012D0001BD2DFE801F0080A1012141618000720CC
:1012E000FFF702FFE2E7042100E0002141701AA0AD
:1012F000FFF74EFD08BDFC21F8E7F821F6E7F421E1
:10130000F4E7F021F2E7EC21F0E7D821EEE7000066
:10131000456E746572206F757470757420706F7788
:10132000657220282730273D2B342064426D2C2005
:101330002731273D302064426D2C2E2E2E2C27374E
:10134000273D2D33302064426D293A0D0A000000FC
:1013500025630000000000200D0A000010B514A055
:10136000FFF716FD15A0FFF713FD24A0FFF710FDF2
:101370002BA0FFF70DFD30A0FFF70AFD39A0FFF706
:1013800007FD3FA0FFF704FD43A0FFF701FD4AA0C2
:10139000FFF7FEFC4EA0FFF7FBFC59A0FFF7F8FC9F
:1013A0005CA0FFF7F5FCBDE810405FA0FFF7F0BCC4
:1013B00055736167653A0D0A00000000613A2045E7
:1013C0006E746572207374617274206368616E6EEE
:1013D000656C20666F722073776565702F63686136
:1013E0006E6E656C20666F7220636F6E7374616ED3
:1013F0007420636172726965720D0A00623A204559
:101400006E74657220656E64206368616E6E656CD3
:1014100020666F722073776565700D0A000000000A
:10142000633A20537461727420545820636172725D
:101430006965720D0A000000643A20456E74657299
:101440002074696D65206F6E206561636820636834
:10145000616E6E656C2028316D732D39396D73297D
:101460000D0A0000653A2043616E63656C20737756
:101470006565702F636172726965720D0A00000004
:101480006D3A20456E7465722064617461207261EA
:1014900074650D0A000000006F3A20537461727485
:1014A000206D6F64756C61746564205458206361AD
:1014B00072726965720D0A00703A20456E74657229
:1014C000206F757470757420706F7765720D0A00E7
:1014D000733A205072696E742063757272656E740F
:1014E0002064656C61792C206368616E6E656C7335
:1014F00020616E6420736F206F6E0D0A0000000083
:10150000723A205374617274205258207377656563
:10151000700D0A00743A205374617274205458207C
:1015200073776565700D0A00783A205374617274A0
:1015300020525820636172726965720D0A000000C2
:1015400088B00025774801242E46046080042F4689
:10155000C0F80051C0F80040D0F800110029FBD0BD
:10156000714A01AB07CA83E807007048CDE904045B
:101570006F4806904FF40070079003236D4A04A94A
:1015800001A8FFF75FFD08B1FFF710FD6AA0FFF7A4
:10159000FFFB4FF0E0214FF48070A046C1F800013E
:1015A00062B6624CE41E04A966A0FEF757FF9DF8E0
:1015B00010006F285DD00EDC64283DD006DC612869
:1015C00013D0622822D063286DD133E0652849D03A
:1015D0006D2868D14AE07038092864D2DFE800F04D
:1015E0004E635156596363635E0057A0FFF7D0FB0B
:1015F0004E4963A0491CFEF731FF6068502801D8AE
:10160000014626E05FA0FFF7C3FBEEE76648FFF761
:10161000BFFB46495AA0491DFEF720FFA06850288D
:1016200004DC6068002801DBA16812E055A0FFF728
:10163000AFFBEBE7012541E05CA0FFF7A9FB3B49CD
:101640004FA00931FEF70AFFE068401E632805D26B
:10165000E16863A0FFF79CFB354626E062A0FFF738
:1016600097FBE9E700F082FC00261EE0FFF7E6FDAD
:10167000F2E7022565A0FFF78BFB2AE0FFF712FED9
:10168000EAE7052567A0FFF783FB42E000F0ECFAEC
:101690000BE0032566A0FFF77BFB25E0042567A090
:1016A000FFF776FB29E0FFF759FE062DBFF47BAF6D
:1016B000DFE805F003040F1A232F74E7A07810B1B8
:1016C00000F054FCA77022792178607800F056FC75
:1016D0001CE0A07810B100F049FCA77022792178B5
:1016E000607800F009FC11E0207B0090237A2279D9
:1016F0002178607800F05AFC11E0A07810B100F079
:1017000035FCA7702179207800F010FC2E460025CA
:1017100049E7237B227A2179207800F017FC84F8AE
:101720000280F3E700D0004078230000030000208F
:1017300030000020DD200000524620546573740DF7
:101740000A00000025630000456E74657220737402
:10175000617274206368616E6E656C202874776FA7
:1017600020646563696D616C206469676974732CBA
:1017700020303020746F203830293A0D0A000000E4
:10178000256400004368616E6E656C206D7573742E
:10179000206265206265747765656E203020616E19
:1017A000642038300D0A000004240000456E746582
:1017B000722064656C617920696E206D73202874D5
:1017C000776F20646563696D616C20646967697413
:1017D000732C20303120746F203939293A0D0A00DA
:1017E00025640D0A0000000044656C6179206D7568
:1017F0007374206265206265747765656E203120A0
:10180000616E642039390D0A000000005458206DC3
:101810006F64756C6174656420636172726965726E
:101820000D0A000052582053776565700D0A0000BC
:1018300054582053776565700D0A00005258206394
:101840006F6E7374616E7420636172726965720D7C
:101850000A0000004907090E002806DA00F00F020E
:1018600002F1E02282F8141D03E000F1E02282F888
:10187000001400F01F02012191404009800000F196
:10188000E020C0F88012C0F8001170472DE9F04147
:101890001E4C07460D46E07E10B10820BDE8F081E1
:1018A00007B91B4F787F20773846FFF733FC656018
:1018B000386920602800174E4FF0000516D0397F98
:1018C000207F48B1C6F81051C6F82051C6F82451FF
:1018D000C6F84451104804E0C6F81C51C6F84451FB
:1018E0000E48C6F804030220FFF7B4FF207F08B1BA
:1018F000082000E00420C6F80005E5752576A575EA
:101900000120E076A5760020C8E700005003002003
:10191000A423000000200040100302008000020009
:101920002DE9F0411F4B1C7F3CB14FF40052B2EB4C
:10193000104F02D01020BDE8F081D3F804C000227F
:10194000194D4FF404764FF40177BCF1000F05D028
:1019500014B1C5F8086301E0C5F8087393F817E0FF
:10196000BEF1000F10D01A7E52B1BCF1000F05D0AD
:1019700014B1C5F8046301E0C5F804731120DAE777
:1019800018610122197604E0D9750025D8605D76CA
:101990001D761CB1BDE8F04100F066B8BDE8F0412D
:1019A00000F014B8500300200020004010B5064C91
:1019B000207F002806D1A07E002803D100F03EFB46
:1019C0000120A07610BD0000500300202DE9F05F3B
:1019D000234DA87E104301D100F030FB214C6868F4
:1019E00030B14FF40170C4F804030020BDE8F09F4B
:1019F0004FF000094FF4A27AC4F844914FF4927B5F
:101A0000A8465946204600F01FF905464FF4847158
:101A1000204600F019F907465146204600F014F917
:101A2000064647EA06012943EBD055EA060007D1EE
:101A300000F0DCFA98F8171098F819008142E0D805
:101A400088F817900DB10320D0E70EB10F20CDE735
:101A500098F81A10012009B12060C6E76060C4E759
:101A600050030020002000402DE9F05F204C0026AC
:101A70004FF48873C4F810614FF4A275C4F8446140
:101A8000C4F83405C4F838158AB1D4F8000240F01F
:101A90002000C4F80002DFF85C80D8F8040048B1E8
:101AA0004FF40470C4F804030020BDE8F09F012047
:101AB0002060F0E79A46A9464FF4927B51462046B3
:101AC00000F0CDF805464946204600F0C8F8074624
:101AD0005946204600F0C3F83D430543EED088F850
:101AE000176008B10320E0E7002FDDD00F20DCE70E
:101AF00000200040500300202DE9F0471E4D2A7FB2
:101B00003AB14FF40053B3EB104F02D01020BDE8B0
:101B1000F087AB7D0BB11120F9E7A9750023A86010
:101B2000AB822AB3154C00264FF490729846C4F845
:101B300020314FF4AC73C4F85881C4F84405C4F89C
:101B400048150120A060686880B9924699465146C0
:101B5000204600F084F807464946204600F07FF80A
:101B60000743F4D000B10F2685F816803046CEE743
:101B7000BDE8F04700F004B850030020002000400A
:101B80002DE9F05F1C4F00254FF48E7A2E46C7F8E2
:101B90001C514FF00108C7F8088000F07BFA174C81
:101BA000B815616879B123E05F465146484600F0B8
:101BB0004BF810B9A08AB842F7D1A08AB84204D035
:101BC00000F068FA01E08346B946A08AA17D884208
:101BD000EAD3A08A584501D10F2508E04F46514667
:101BE000384600F031F80028F9D0C7F80C80A67507
:101BF0002846BDE8F09F0000002000405003002070
:101C000030B541EA4201DDE9034541EA8301800044
:101C100041EA042100F1A04041EA0541C0F8001763
:101C200030BD1CB500220B46009211460192FFF711
:101C3000E7FF1CBD1CB5002100910B46012201915C
:101C40001146FFF7DDFF1CBD4058002800D00120E1
:101C50007047D0F80403084000D001207047405876
:101C6000002800D00120704710B523A0FFF790F89E
:101C7000254C207828B1012812D0022804D123A0B5
:101C800000E02BA0FFF784F86078F0282DD009DC65
:101C900088B104280DD0D8282BD0EC280ED126E00E
:101CA0002CA0EFE7F4281ED0F8281AD0FC2805D184
:101CB00015E031A000E038A0FFF76AF83EA06168A7
:101CC000FFF766F843A0A168FFF762F848A0E16853
:101CD000FFF75EF8BDE810404CA0FFF759B84DA0E3
:101CE000EAE754A0E8E75BA0E6E762A0E4E769A0C2
:101CF000E2E770A0E0E70000506172616D65746515
:101D000072733A0D0A000000000000204461746103
:101D100020726174652E2E2E2E2E2E2E2E2E2E2EFD
:101D20003A20323530204B6269742F730D0A00005F
:101D30004461746120726174652E2E2E2E2E2E2E1B
:101D40002E2E2E2E3A2031204D6269742F730D0AEB
:101D5000000000004461746120726174652E2E2EB3
:101D60002E2E2E2E2E2E2E2E3A2032204D626974CB
:101D70002F730D0A00000000545820506F776572D1
:101D80002E2E2E2E2E2E2E2E2E2E2E2E3A202B3472
:101D90002064426D0D0A0000545820506F77657220
:101DA0002E2E2E2E2E2E2E2E2E2E2E2E3A20302061
:101DB00064426D0D0A00000028537461727429207A
:101DC0004368616E6E656C2E2E2E2E2E3A20256491
:101DD0000D0A0000456E64204368616E6E656C2ECE
:101DE0002E2E2E2E2E2E2E2E3A2025640D0A000089
:101DF00054696D65206F6E2065616368206368615A
:101E00006E6E656C3A2025640D0A0000206D730D1E
:101E10000A000000545820506F7765722E2E2E2E27
:101E20002E2E2E2E2E2E2E2E3A202D342064426D54
:101E30000D0A0000545820506F7765722E2E2E2EFA
:101E40002E2E2E2E2E2E2E2E3A202D382064426D30
:101E50000D0A0000545820506F7765722E2E2E2EDA
:101E60002E2E2E2E2E2E2E2E3A202D313220644252
:101E70006D0D0A00545820506F7765722E2E2E2E4D
:101E80002E2E2E2E2E2E2E2E3A202D31362064422E
:101E90006D0D0A00545820506F7765722E2E2E2E2D
:101EA0002E2E2E2E2E2E2E2E3A202D323020644213
:101EB0006D0D0A00545820506F7765722E2E2E2E0D
:101EC0002E2E2E2E2E2E2E2E3A202D3330206442F2
:101ED0006D0D0A0007480021C0F80012C0F810116B
:101EE00001220261D0F81021002AFBD0C0F81011A5
:101EF000704700000010004070B514460D460646BD
:101F0000FFF7E8FFFFF766F906480721C0F800125F
:101F100005490E60091D0D600349091F0C60012170
:101F2000016070BD001000400C15004010B50C465B
:101F3000FFF7D0FF03480121C0F80012024A1460E5
:101F4000416010BD001000400815004030B4044648
:101F50000548047081700171C2700021417130BC6C
:101F6000184600F077B80000100000200249012058
:101F70004860FFF7AFBF00000080004070B5144616
:101F80000D460646FFF7A6FF06480121C0F80012DD
:101F9000054A1660121D1560034A121F1460016085
:101FA00070BD0000001000400C15004030B4064C1D
:101FB000029D60702170A2702271E3700120607137
:101FC000284630BC00F046B810000020054800212B
:101FD000C0F80011D0F800110029FBD002480068B9
:101FE0007047000000D0004008D5004009480A4969
:101FF0000022C37DC1F8082143B1D1F81815437EF2
:10200000C268D154417E491C41767047D1F8180509
:102010007047000050030020002000401FB501223F
:102020008DF8080004488DF800200191D0E90012D5
:10203000684690471FBD000050030020044800215F
:10204000C0F82411C0F80811012101607047000098
:10205000002000400D4910B501224A60C1F800225D
:102060000B4C002323600223241D2360084C04230F
:102070000C3423601304C1F804334FF47A7310FB5B
:1020800003F0034B3C3318600A6010BD0080004031
:1020900004850040064A0020C2F81C010548838AD6
:1020A0008168C95C838A5B1C8382C2F81C157047F7
:1020B00000200040500300201FB500218DF80800CB
:1020C00005488DF80010826801928175D0E90012F0
:1020D000684690471FBD0000500300200178022988
:1020E00001D0012902D14068FEF760BF70470000AF
:1020F0007CB50178264D012909D002292CD0002970
:1021000029D129462348FEF75BFF80B334E04068BD
:10211000017820481038FEF76EFF1E4C103C20B1AD
:1021200001218DF80010019007E0A068E168081A0D
:10213000012805D100208DF80000696868468847AD
:10214000A068E168081AA188884204D810480121D3
:10215000801CFFF7E5FB7CBD02218DF80010C068F4
:1021600001900B480121801CFFF7DAFB0CE0FFE730
:1021700001210748FFF7C0FC06488168C068884213
:10218000E9D103208DF800006968684688477CBD66
:1021900018000020400300202DE9FF413E4D4FF480
:1021A00000712846FFF755FD01273C4C4FF401789C
:1021B000002600B34FF492712846FFF745FDD0B1D9
:1021C000C5F82461C5F80883A07E00B96F600220BD
:1021D0008DF80000D5F88004C5F880040390E07DF8
:1021E0008DF80800E0680190E6752676D4E90012C3
:1021F0006846904724E004212846FFF72AFDF8B1FD
:102200004FF484712846FFF71FFDC8B1FFF7EEFEBB
:10221000E07D617E884213D1227E3AB1607EE16822
:10222000E2752269E2602676667607E0A07E00B954
:102230006F60C5F80883E675607EE168FFF7EEFE23
:102240004FF48E712846FFF7FFFC58B1A18AA07D9C
:10225000814202D2FFF71EFF04E0C5F81C6108B1FD
:10226000FFF72AFF4FF4A2712846FFF7EDFC002884
:102270000FD0C5F84461A07E00B12F60E07D00283A
:1022800007D0E675607EE16804B0BDE8F041FFF775
:10229000C5BEBDE8FF8100000020004050030020C3
:1022A0007FB5334C4FF492712046FFF7D8FC314D87
:1022B0000026B0B1C4F8246102208DF80000D4F8E3
:1022C0008004C4F880040390D4F83C058DF808001D
:1022D000E8680190EE752E76D5E9001268469047C1
:1022E0001FE04FF488712046FFF7B9FCC8B1C4F86D
:1022F0001061D4F83C05E97DC0B2814211D12A7E3B
:102300005AB1E968D4F8003223F02003C4F800324F
:10231000EA752A69EA602E7601E0EE75E968FFF752
:102320007DFE4FF4A2712046FFF799FC50B1C4F82E
:102330004461E87D30B1EE75D4F83C05E968C0B27F
:10234000FFF76CFE4FF490712046FFF788FC0028E1
:102350000CD0C4F82061A87D002807D0D4F84C0523
:1023600004B0C0B2BDE87040FFF7A6BE7FBD00005C
:10237000002000405003002008060507010000006F
:1023800000509D000600000008000000070000004B
:1023900005000000000000000000000000009D009B
:1023A0000300000006000000080000000700000015
:1023B00005000000000000000000000000009D007B
:1023C00003000000DDDDDDDDDCBBBBDDDDDDDDDDF3
:1023D000DDDDDDDD9888888888888888777777775D
:1023E0007788888885555556666666666666666629
:1023F00066688888833333322222222222222222D4
:102400002228888D456E74657220656E642063682D
:10241000616E6E656C20202020202020202020204E
:1024200020202020202020202020202020202020AC
:1024300020202874776F20646563696D616C206467
:1024400069676974732C20303020746F203830290C
:102450003A0D0A00456E74657220646174612072E1
:1024600061746520282730273D323530204B626962
:10247000742F732C202731273D31204D6269742F32
:102480007320616E64202732273D32204D626974CB
:102490002F73293A0D0A0000B82400000000002024
:1024A00030000000B00D0000E824000030000020E3
:1024B00040230000C00D00000100000000000000EB
:1024C000500000000A0000000000000000000000B2
:1024D00000000000000000000000000000000000FC
:0824E0000090D0030000000091
:0400000500000401F2
:00000001FF
