:020000040001F9
:10F00000185300208DF4010095F4010097F40100DD
:10F0100099F401009BF401009DF401000000000040
:10F020000000000000000000000000009FF401004C
:10F030000000000000000000A1F40100A3F40100A2
:10F04000A5F40100A5F401000DFA0100A5F40100EA
:10F05000A5F40100A5F401009DF50100A5F401004F
:10F06000A5F40100A5F40100A5F40100A5F4010038
:10F07000A5F40100A5F40100A5F40100A5F4010028
:10F08000A5F4010015F70100A5F40100A5F40100A5
:10F0900039F70100A5F401008DF70100A5F4010086
:10F0A000A5F40100A5F40100A5F40100A5F40100F8
:10F0B000A5F40100A5F4010000000000000000001C
:10F0C000A5F40100A5F40100A5F40100A5F40100D8
:10F0D000A5F40100A5F401000000000000000000FC
:10F0E0000000000000000000000000000000000020
:10F0F0000000000000000000000000000000000010
:10F1000000000000000000000000000000000000FF
:10F1100000000000000000000000000000000000EF
:10F40000DFF80CD000F08CF800480047A133020070
:10F4100018530020401E00BF00BF00BF00BF00BF48
:10F4200000BF00BF00BF00BF00BF00BF00BF00BFE4
:10F4300000BF00BF00BF00BF00BF00BF00BF00BFD4
:10F4400000BF00BF00BF00BF00BF00BF00BF00BFC4
:10F4500000BF00BF00BF00BF00BF00BF00BF00BFB4
:10F4600000BF00BF00BF00BF00BF00BF00BF00BFA4
:10F4700000BF00BF00BF00BF00BF00BF00BF00BF94
:10F4800000BF00BF00BFC5D17047000006488047DD
:10F4900006480047FEE7FEE7FEE7FEE7FEE7FEE779
:10F4A000FEE7FEE7FEE70000B5F7010001F401000A
:10F4B00040EA01039B0703D009E008C9121F08C0F6
:10F4C000042AFAD203E011F8013B00F8013B521E76
:10F4D000F9D27047D2B201E000F8012B491EFBD2ED
:10F4E00070470022F6E710B513460A46044619464F
:10F4F000FFF7F0FF204610BD421C10F8011B002949
:10F50000FBD1801A704730B504460020034600E066
:10F510005B1C934203D2E05CCD5C401BF8D030BD55
:10F52000064C074D06E0E06840F0010394E8070050
:10F5300098471034AC42F6D3FFF766FF104E020036
:10F54000304E020070B58C1810F8015B15F00703FF
:10F5500001D110F8013B2A1106D110F8012B03E06C
:10F5600010F8016B01F8016B5B1EF9D12B0705D474
:10F570000023521E0DD401F8013BFAE710F8013BBD
:10F58000CB1A921C03E013F8015B01F8015B521ED9
:10F59000F9D5A142D8D3002070BD00002DE9F05F5D
:10F5A00000250127DFF8FCA0A8464FF480762C4602
:10F5B000B946304604F0C6F948B1DAF8041309FA3E
:10F5C00004F0014203D0304604F0B2F93D43361D49
:10F5D0007F00641CB6B2082CEBD34FF4BE742046F7
:10F5E00004F0B0F938B1204604F0A2F92E4845F0F5
:10F5F0000045D0F800802D4E280715D001270024A3
:10F600002F420DD00AEB8401D1F81005D1F8101566
:10F61000C0F3042006EB8402C1F301415268904715
:10F620007F00641C082CEBD3002D36DA0024CB4677
:10F63000B2460AEB0400574690F8540020F0C0058B
:10F640004FEA90190BFA05F6284604F07FFB08B341
:10F65000284602F0D9F807EB80004768D7B1A80028
:10F6600000F1A040D0F8000716EA080FC0F30140EF
:10F6700002D0022802D00DE003280BD1B9F1030F0C
:10F6800005D102280BD00221284604F042F9494650
:10F690002846B847641C042CCBD3BDE8F09F032157
:10F6A000F2E700000060004010050050D03100205B
:10F6B00000F01F02012191404009800000F1E0208C
:10F6C000C0F88012704700F01F02012191404009EC
:10F6D000800000F1E020C0F80011704700F01F0228
:10F6E000012191404009800000F1E020C0F80012A3
:10F6F00070474907090E002806DA00F00F0000F1F4
:10F70000E02080F8141D704700F1E02080F800141C
:10F710007047000007480021C0F84011C0F84411AC
:10F72000C0F84811C0F84C11C0F80011C0F804111D
:10F7300005F0CAB9001001402DE9F04186B04FF044
:10F74000FF30114D02906846D5E9046803F0A6F831
:10F75000074603F051FD044647B102AA414600980E
:10F7600003F0BCF8029803F099FD04E0029803F05E
:10F7700095FD00B914B1304602F0A4F9002068717B
:10F7800006B0BDE8F0810000B0290020084810B59F
:10F79000406840B18047002809D00022BDE81040F1
:10F7A000114600F073BBBDE8104003F07FBC10BDF4
:10F7B000D4290020F0B58B480022041D0378211DB8
:10F7C000081D0126062B17D125782D0714D10D7899
:10F7D000C5F30315032D03D1077817F0F00F0ED0F2
:10F7E000042D03D1077817F0F00F08D0052D03D1B1
:10F7F000057815F0F00F02D0062B09D014E04FF079
:10F800008055D5F84452784FC5F342353D6002E04B
:10F8100025782D0708D10D78C5F30315032D03D1E5
:10F82000057815F0F00F02D0062B06D01DE06F4DC5
:10F830002F6827F080772F601AE025782D0714D1E4
:10F840000D78C5F30315032D03D1077817F0F00FDA
:10F850000ED0042D03D1077817F0F00F08D0052D36
:10F8600003D1057815F0F00F02D0062B0AD015E071
:10F870004FF08045C5F80C21C5F810215A4D2D1FB9
:10F880002A6002E025782D0708D10D78C5F303150D
:10F89000032D03D1057815F0F00F02D0062B05D00B
:10F8A00066E0514C03236434236002E023781B0795
:10F8B0005ED10978C1F30311052959D1007810F000
:10F8C000F00F55D14A4800684A4908604848001D71
:10F8D0000068091D0860464808300068091D086076
:10F8E00043480C300068091D08604148103000682A
:10F8F000091D08603E4814300068091D08603C4836
:10F90000183000683B492031086039481C300068D5
:10F91000091D0860364820300068091D0860344819
:10F9200024300068091D0860314828300068091D2E
:10F9300008602F482C300068091D08602C483030C2
:10F9400000682C4940310860294834300068091D9E
:10F950000860274838300068091D086024483C309A
:10F960000068091D0860224840300068091D0860D1
:10F970001E487438016841F470010160BFF34F8F75
:10F98000BFF36F8F4FF01021D1F80002002803DB86
:10F99000D1F80402002821DA174B1E6017480468CA
:10F9A000002CFCD01524C1F800420568002DFCD0C5
:10F9B000C1F8044201680029FCD01A6001680029DE
:10F9C000FCD0BFF34F8F0948F03801680C4A01F4AE
:10F9D000E06111430160BFF34F8FFEE70A49094818
:10F9E0000860F0BDE00F00F03C050040FCED00E0D9
:10F9F0000404001020C5004004E5014000E401407B
:10FA00000400FA050090D003E82900202DE9FF4703
:10FA1000584C0026584DE07D4FF0020900284FF465
:10FA200092714FF4A27A284649D003F098FFA0B112
:10FA3000C5F824618DF80090D5F88004C5F88004DD
:10FA40000390D5F83C058DF80800E0680190E67455
:10FA5000D4E90012684690470FE04FF488712846B9
:10FA600003F07DFF48B1C5F81061D5F83C05E17C95
:10FA7000C0B2814201D104F08DFD5146284603F009
:10FA80006EFF40B1C5F84461E07C20B1D5F83C057B
:10FA9000C0B204F07FFD4FF49071284603F05FFF81
:10FAA000002865D0C5F82061A07C002860D0D5F87A
:10FAB0004C0504B0C0B2BDE8F04705F05BB803F0F8
:10FAC00049FF4FF401780127C0B1C5F82461C5F89A
:10FAD0000883607D00B96F608DF80090D5F88004D0
:10FAE000C5F880040390E07C8DF80800E068019080
:10FAF000E674D4E900126846904713E04FF484712D
:10FB0000284603F027FF68B104F032FDE07C217D38
:10FB1000884207D1607D00B96F60C5F80883207DF9
:10FB200004F038FD4FF48E71284603F013FF58B1EE
:10FB3000A07C218A884202D905F00AF804E0C5F8C1
:10FB40001C6108B105F016F85146284603F002FF83
:10FB500000280DD0C5F84461607D00B12F60E07CC5
:10FB6000002805D0207D04B0BDE8F04704F012BDA8
:10FB7000BDE8FF87283200200020004002E008C8CE
:10FB8000121F08C1002AFAD170477047002001E017
:10FB900001C1121F002AFBD170472DE9FC5F00252F
:10FBA000168807461580406B14468946A8464FF0D4
:10FBB0000C0A11234FF0020B98B101784846032E2E
:10FBC00048D380F800B02288521C92B2228083541D
:10FBD0002288521C92B2228009F802102088401C10
:10FBE00020803A6BDAB12088494600F11205B5420F
:10FBF00030D80B5420881023401C80B220800B5436
:10FC00002088401C20800F202388155C401ECD5486
:10FC1000238840B25B1C23800028F5DA454697F81C
:10FC20002E0030B133462246494603F0B1FA0500B2
:10FC300011D197F82D0030B132462146484600F0E8
:10FC4000A1FF050007D1B87820B32088C846001D61
:10FC5000B04202D95046BDE8FC9F684679DF0028D3
:10FC6000F9D12188032008F8010020881921401CBF
:10FC700080B2208008F800102088401C80B22080CC
:10FC800000EB0801BDF8000004F086FF0146208863
:10FC900008442080F878B8B1228897F90310D31C63
:10FCA0004846B342D6D800F802B022880123521C3D
:10FCB00092B2228083542288521C92B2228009F888
:10FCC00002102088401C20807868B8B1218890F903
:10FCD0000020CB1C4846B342BCD800F801B02188B4
:10FCE0000A23491C89B2218043542188491C89B2C6
:10FCF000218009F801202088401C2080388950B1DB
:10FD0000CDE900464B460622022107F1080004F027
:10FD1000B8FF05009FD1388A50B1CDE900464B4667
:10FD20000722032107F1100004F0ABFF050092D178
:10FD3000388B50B1CDE900464B461522142107F10E
:10FD4000180004F09EFF050085D1386A30B13346B3
:10FD50002246494601F00AFF0500DBD1786A30B13E
:10FD600033462246494603F0FAFB0500D2D197F804
:10FD70002C0038B1334622464946384604F042FC4E
:10FD80000500C7D1387838B133462246494638464F
:10FD900003F05EFC0500BDD128465CE710B50122EA
:10FDA0000221002001F06CFB08B1072810D10722C6
:10FDB0000221012001F064FB08B1072808D10021CD
:10FDC0000A22084601F05CFB08B1072800D1002098
:10FDD00010BD0000064800684FF40021044A81432A
:10FDE000121D1160111D00F4002008607047000012
:10FDF0000405005070B50024064D06E06868012136
:10FE000010F8340003F094FC641C28788442F5D385
:10FE1000002070BD88290020F8B515460C4606461E
:10FE2000052A01D20720F8BD03F05AFD18B903F0E6
:10FE30002FFD0028F7D1114900204E600C70086199
:10FE40008D6048610E4D0DE006EBC40029680091FD
:10FE500081788DF8011000780A4A694603F0B2FCF7
:10FE60000028E0D1641EE4B2EED2BDE8F8400348B9
:10FE70000021054A0C3000F009B900008829002053
:10FE80000C4E02001D2C0200191D0200BFF34F8F03
:10FE900004480168044A01F4E06111430160BFF3C2
:10FEA0004F8FFEE70CED00E00400FA05014B1B68E4
:10FEB00018470000AC31002038B50C46074BA2684B
:10FEC000097802EB420253F82250054A126A009266
:10FED000024604F108002369A84738BD0C3300200E
:10FEE00064290020074910B50A7802EB820201EB71
:10FEF0008201091DFFF7E0FFBDE81040042004F077
:10FF0000E3BB00004032002070B50F4B05460520D2
:10FF10001C785E78A64216D01C7818789E88B0426D
:10FF200001DA401C00E0002018705E88D86804FBED
:10FF300006002860986800EBC4039B880B8050F88B
:10FF400034001060002070BDA02900202DE9F84F7A
:10FF5000394C8246934660880F46814269D83748BB
:10FF60004FF000098DF800904FF6FF780068454685
:10FF700010EAE81012D0103840B2002806DA00F07B
:10FF80000F0000F1E02090F8140D03E000F1E020F4
:10FF900090F800044609012E01D109E004266846C4
:10FFA00036DF02280BD018B100221146FFF76EFF92
:10FFB00021786078A288904203DA401C02E072B691
:10FFC000F6E70020C0B2884207D06578607890429A
:10FFD00001DA401C00E000206070012E0AD062B6F9
:10FFE0009DF8000037DF022804D018B10022114626
:10FFF000FFF74CFF45451AD0A068BAF1000F40F852
:020000040002F8
:1000000035B00DD067B16188E0683A4605FB010064
:100010005146FFF74DFAA06800EBC500878003E06A
:1000200000EBC500A0F804900020BDE8F88F042084
:10003000FBE70920F9E70000A029002004ED00E01B
:100040000EB504E0029ABDF804100098904702AA89
:1000500001A96846FFF758FF0028F3D00EBD000045
:1000600030B5CB0008339DB293074FF0000401D0A8
:10007000072030BD044B9A602A44DA605C701C7023
:1000800058809980002030BDA029002070B5114D06
:10009000AC6824B12AB120B100232D780AE00820F1
:1000A00070BD072070BD00BF03EBC30614F82660C7
:1000B00026B15B1CAB42F7DB042070BD03EBC3052C
:1000C000012604F8256004EB85046170A2610360D9
:1000D000002070BDB029002010B50446082904D0C6
:1000E000002211461046FFF7D1FED4E90010BDE80A
:1000F000104008471CB5044ACDE9000108216846B4
:10010000FFF724FF1CBD0000D90002002DE9F047D5
:100110008146089C1D461746884698074FF0000602
:100120000AD14DB104F006FA2046244CA06184F8AF
:1001300000800020A5600BE00720BDE8F08700BF2D
:1001400000EBC001401C05F8216005EB81010E7534
:100150004045F5DB08EBC80005EB8001032060702B
:1001600001F11800002207EB4705E16001EBC20333
:10017000521C1E705E709F70586000EBC500032A11
:10018000F4DB4FF0FF302061A670E6701420FFF71B
:100190008FFA03211420FFF7ACFA1420FFF793FA2B
:1001A0000749C1F8009003211120FFF7A2FA044883
:1001B000001F006860610020BFE70000B029002038
:1001C000081501402DE9F84304461F480D4617461F
:1001D000816869B10278944201D2052D02D20720CC
:1001E000BDE8F88304EBC40211F82230012B01D0E2
:1001F0000820F5E7814601EB8200407801281FD0F6
:100200005FF0000604F008FDD9F80C10804601EB01
:10021000C800694604F022FDA0B1012100F8041BCA
:100220000A4910C0096880E8E200D9F80C1000986B
:1002300001EBC80148701420FFF750FA0020CFE707
:100240002E46DFE70420CBE7B0290020041501404B
:10025000F8B5154C0546A06850B121788D4201D300
:100260000720F8BD05EBC50110F82100012801D0D9
:100270000820F8BD04F0D0FC0646E068694600EBB3
:10028000C60004F0EBFC60B1022101704560E0683B
:1002900000EBC601009848701420FFF71FFA0020F9
:1002A000F8BD0420F8BD0000B029002000B585B0DD
:1002B00014216846FFF715F9002000900290642091
:1002C0008DF80C009DF80D00012120F00F00401C5E
:1002D00020F0F00020308DF80D009DF80E008DF814
:1002E000041020F00F00401C20F0F00020308DF8AA
:1002F0000E009DF80F00694620F0FF008DF80F00FA
:100300009DF8100020F00F00401C20F0F00020307D
:100310008DF81000054800F07FFB002803D0002274
:100320001146FFF7B3FD05B000BD00003C2F0020D3
:100330002DE9F0430546007D93B00E460024A0B1A0
:1003400007949DF81C0020F00F00401C20F0F000E6
:1003500010308DF81C00707B8DF81D009DF81E007C
:1003600020F00600801C8DF81E001C216846FFF757
:10037000B8F89DF8000040F002008DF80000297DDB
:1003800011B140F0100001E020F010008DF80000E5
:10039000019403940494287D00B107A8CDE90504D5
:1003A00001278DF8427042F61920ADF840000D94F7
:1003B000B07B8DF83400F07B8DF835009DF8360069
:1003C000142120F00600801C20F019008DF8360062
:1003D000307B8DF8440008A8FFF783F80DF1400842
:1003E0000DF13409ADF8287011A8CDE90889ADF8F0
:1003F0002A40ADF82C700C90A888AB1D08AA69465D
:10040000A2DF002838D1B06898B38DF8427042F668
:100410000810ADF840000D94307C8DF834009DF844
:10042000350020F0FF008DF835009DF8360020F0F3
:100430000600801C20F019008DF836000EA8B16867
:1004400000F003FE0646142108A8FFF74AF8ADF8AD
:1004500028600EA8CDE90889ADF82A40ADF82C60D7
:100460000C90E88805F10E0208A9A3DF002803D14B
:1004700001E0FFE7EC81002013B0BDE8F08300004D
:1004800010B50E490E4804F0A2F8C1B20B48183856
:1004900000F08AFA00280FD008280DD0A0F54051AE
:1004A000043909D043F20141884205D00022BDE859
:1004B00010401146FFF7EABC10BD0000542F002089
:1004C00010280020F0B50C4693B01F210726ADF888
:1004D0000010ADF80410002750B1C17849070DD5C0
:1004E0006A4602A9FFF759FB002808D102AD02E0D5
:1004F0000025ADF800706CB1E07810B1304613B053
:10050000F0BD01AA0AA92046FFF747FB0028F6D153
:100510000AAA02E00022ADF80470BDF80400C3B2DC
:10052000BDF80000C1B2284672DFE8E7002211469C
:10053000FFF7ACBC70B50D4604991646040040D0D8
:10054000F6B3414800224271C0E90331242231460A
:100550003E48FEF7ADFF00F0EDF83C493431A1F123
:10056000100001602031816038215C38FEF7B9FF4E
:100570003648217838380170A1788170E178C170EF
:1005800061784170D4E90412C0E90412D4E902127E
:10059000C0E90212D4E90612C0E90612616AD1B1BB
:1005A00000F1AC0100F1B80241628A60636A1B8805
:1005B0000B80616A436A898899800021436A07E059
:1005C000FFE70E2070BD666AB668765C5654491C1B
:1005D0009E888E42F7D8A16AD9B11C4AAC32A2F1EA
:1005E0000C018A608162A36A9B888B80A16A836AFE
:1005F000098819800021836A04E0A66AB668765CDF
:100600005654491C9E888E42F7D894F82C1080F8D6
:100610002C10216A49B10C4914310162226A5288B6
:100620004A80216A026A09881180616821B10649FD
:10063000891D4160616841602946BDE870400348FA
:100640003838FFF73FBF0000C8280020A82F00203F
:1006500010B502881D4C102A18D00021112A1BD079
:10066000192A18D18079002815D16079012820D065
:10067000022824D0032824D004280CD12171E26858
:100680000846002A07D0BDE810401047017D012927
:1006900001D18088208110BD6170808821898842C5
:1006A000F9D1012006E021690029F4D0BDE810400D
:1006B0000847022000F062F80028F4D110BD0320A2
:1006C000F8E7032020710420F4E70000C828002088
:1006D00010B5022801D0032810D1094C2078002839
:1006E0000CD000202070607900F048F8002805D078
:1006F0002169002902D0BDE81040084710BD000064
:10070000C828002030B50A4BD97871B103F118021E
:10071000017811700021441855186478491C6C70D8
:100720000629F8DB0020D87030BD082030BD00005D
:10073000C8280020024800218161818381777047A9
:10074000C82800200B4810B50078012810D10A4CA9
:10075000607868B9607910B174DF002809D1012090
:100760006070607900F00AF810B1216901B1884722
:10077000002010BDA82F0020C82800202DE9F04F30
:10078000724C87B00026607106A8069603F05AFBEB
:100790000127082805D0002871D1069810B12770CC
:1007A000C0E00696FFF7C6FF694D687810B1607922
:1007B000012804D0A87848B16079022806D1E16800
:1007C00019B1E7700820884700E0E6706079DFF82B
:1007D0007C814FF0020A08F118084FF0030B012842
:1007E00006D1687840B108F1010003F086FA18B12B
:1007F0006079022802D00AE084F805A0A87820B128
:1008000008F1010003F079FA08B984F805B0287BF3
:100810004FF0040920B96079032801D184F80590CC
:10082000287E20B96079042801D166712671E168BB
:1008300041B16079032801D0042803D1287808B198
:100840006078C0B1A67018216846FEF74AFE8DF8A0
:10085000006001968DF808600396607901280FD03A
:10086000022817D03A4E2436A6F15C0703281ED082
:1008700004284DD13BE0A77007208847E3E752E00A
:10088000ADF81260CDF804808DF80070ADF81060FE
:1008900027713FE0CDF804808DF800702889ADF80D
:1008A0001200A888ADF8100084F804A032E0A88AED
:1008B000ADF81200288AADF810002548243004F065
:1008C00047FA18B1287808B1607810B184F804B0FC
:1008D0001EE01F488DF808A0039687F803900021BA
:1008E0003838FFF7EFFD00281DD105202BE0A88B3D
:1008F000ADF81000288CADF812001548243004F033
:1009000027FA18B1287808B1607878B184F8049093
:10091000607918B1684673DF002804D1E16809B135
:1009200020798847002007B0BDE8F08F08488DF88F
:1009300008A0039687F8039000213838FFF7C2FD1E
:100940000028F0D106202071E2E70000C82800202E
:10095000A82F002070B5124B997841B11149027946
:10096000104D0A71047B0C730021303507E008201C
:1009700070BD866856F8216045F82160491C8C429C
:10098000F7D8084C0021103405E0056855F82150CF
:1009900044F82150491C8A42F7D80020987070BD55
:1009A000C8280020CC2F002073B586B004469DF8DF
:1009B0001C10227C00208A422AD0002501260095A6
:1009C000ADF8006007A8ADF8025001902174E188ED
:1009D000608A6A46A4DF00281AD1608AA0F57F41A8
:1009E000FF3917D0207DA8B1029503950495059590
:1009F000E088ADF80800BDF80200ADF80C000198E1
:100A00008DF80A60CDF810D00590608A02A9A6DFA3
:100A100008B070BD0820FBE738B5044608682060C0
:100A20004FF6FF70608208792075FF202074012046
:100A30008DF8020041F60F000D46ADF80000221DB2
:100A400069460120A0DF002803D129462046FFF790
:100A50006FFC38BD08B50A88102A17D0112A17D0A4
:100A6000502A18D1027D002A15D031F8062F43896B
:100A70009A4210D10A8B022A0DD10268002A0AD0AC
:100A8000897E11F0010F07D0002106E0898801E07E
:100A90004FF6FF71418208BD01218DF800106946B3
:100AA000904708BD70B5054601461C221048FEF768
:100AB000FFFC104C00262670286838B10168A16040
:100AC0004068E06004F108007ADF02E0094808307D
:100AD0007BDF00280BD14FF6FF7060806670BDE8A9
:100AE000704004480021044A001DFFF7CFBA70BDD2
:100AF00074300020E8280020B94B020070B5204C6B
:100B0000068800251D49E289102E16D00B46112EAD
:100B10005B681ED0122E2BD0502E19D130F8061F34
:100B2000914215D1018B022912D1807E10F0010F64
:100B300013D0BDE8704001F061B883884B80D0F8D5
:100B400016300B61D0F81A0048614D70002AF0D0C1
:100B500070BD4FF6FF7048804D701846FFF778FB68
:100B60000028F5D0A1690029F2D0BDE870400847FF
:100B700050F8062F0A6140684861DAE7E82800204B
:100B8000743000207CB5054608880C460930904238
:100B900001D90C207CBD684671DF0028FAD121887C
:100BA0000820685420881B21401C80B220802954D2
:100BB0002088401C80B220802844DDF801100160AC
:100BC000BDF8051081802088801D80B220809DF8AE
:100BD000001001B1012129542088401C20800020F0
:100BE0007CBD00007FB5044601208DF8060041F66B
:100BF0000A00ADF80400454A01A90120A0DF002841
:100C00007ED1228804F13C0552B140482B46801C1D
:100C1000009042F62920616800F0FEFD002873D1A3
:100C2000228952B139482B460A30009042F62420DE
:100C3000E16800F0F1FD002866D1228A52B1334804
:100C40002B461230009042F62520616900F0E4FD49
:100C5000002859D1228B52B12C482B461A300090D3
:100C600042F62720E16900F0D7FD00284CD1228C04
:100C700052B126482B462230009042F62620616A67
:100C800000F0CAFD00283FD1228D52B11F482B46EB
:100C90002A30009042F62820E16A00F0BDFD0028CD
:100CA00032D1216B71B102A803F06BFE17482B46BD
:100CB00032300090082202A942F6232000F0ACFD59
:100CC000002821D1606B58B110492B463A31009170
:100CD0000279016842F62A2000F09EFD002813D117
:100CE000A16B81B102A803F049F808482B464230B5
:100CF0000090072202A942F6502000F08DFD00E08E
:100D000002E0002800D1002004B070BD00290020BE
:100D100010B5044601F066F9204600F0C5FA2046F9
:100D200002F08AFE2046FFF793FC2046FFF7E6FE1E
:100D30002146044800F031F92146BDE81040024840
:100D4000FFF788BEC42D00203C2F0020F0B50546DB
:100D500087B01646B5F87641DDE90C20A4F57F474B
:100D6000FF3F2FD0D41CA7B2ADF80070082F26D8B3
:100D70008DF814108DF815608DF8163005AE1AB187
:100D80000146F01CFEF794FB0020019002900390B6
:100D90000490B5F85E11ADF8041001218DF806102D
:100DA000ADF808006846CDE90306B5F8760101A95B
:100DB000A6DF002804D1BDF80010A14200D00C200D
:100DC00007B0F0BD0820FBE7F0B50546887A85B08E
:100DD0000C460A2805D8207C0A2802D8207E0A283A
:100DE00002D9072005B0F0BD2068286060686860FF
:100DF000A07AA874207C85F87800207E85F8DE0033
:100E00004FF6FF70A5F8760101208DF80E0041F62F
:100E10001200ADF80C0005F1080203A90120A0DFC3
:100E20000028DFD1002609E0A06B6A4630F81610D2
:100E30002889A1DF0028D5D1761CF6B294F83600B7
:100E4000B042F1D8207A002708B9607A30B104F1B5
:100E50003C01284602F0B0FF0028C3D121462846B5
:100E600002F0E8F80028BDD12146284602F015FF1F
:100E70000028B7D1207E30B3E06920B300261FE000
:100E8000E069049700EBC6039DF8100006EB8601AD
:100E900040F00A008DF8100005EB4100D979E030F0
:100EA00001F00102191D0091CDE9012033F8022B58
:100EB00004A9284603F0C4F9002893D1761CF6B2A1
:100EC000207EB042DCD82146284603F052FA0028A2
:100ED00088D1207A90B105F5A770009004F1430302
:100EE000082242F62221284600F00CF9002898D169
:100EF0002146284600F06EF9002892D1607A60B150
:100F000005F5AF70009004F14003082242F633214A
:100F1000284600F0F7F800288DD12146284601F038
:100F200024FF002887D104F13E01284601F0D8FEB5
:100F300058E730B51446827C85B08A422BD901EB44
:100F40008101B0F8762100EB41011431A2F57F4513
:100F5000FF3D1ED00022ADF80040019202920392A4
:100F600004920988ADF8041001218DF80610ADF83F
:100F700008206946CDE90313B0F8760101A9A6DF80
:100F8000002804D1BDF80010A14200D00C2005B00B
:100F900030BD0820FBE70720F9E730B50446088894
:100FA00087B0102820D011283BD050283ED051289F
:100FB00018D10D4611F8060F012813D1498801AA4E
:100FC000204603F075FA00280CD02168204600293D
:100FD00008D007218DF80810019906950391026841
:100FE00002A9904707B030BD8888A4F876016089CF
:100FF0000028F7D0012000210091ADF800008DF805
:10100000080002A8ADF8021001906189B4F87601D9
:101010006A46A4DF0028E5D061680029E2D088474D
:10102000E0E74FF6FF70A4F87601DBE707B0204653
:10103000BDE8304002F0B4BD70B504460D46084628
:10104000FEF75AFA2080656070BD0A780270497810
:1010500041700220704700001CB5144B482214490F
:10106000082003F073FB18B100221146FEF70EFFB3
:101070000020009001908DF80000684660DF18B1F4
:1010800000221146FEF702FF0A4803F041FB18B1A7
:1010900000221146FEF7FAFE074803F06FFB002816
:1010A00003D000221146FEF7F1FE1CBD3D470200B1
:1010B000CC2C0020110D0200714902001CB5044621
:1010C00081786A460C4802F0CFFE002813D1607880
:1010D0000A49C0EBC00001EB80001C231A46694698
:1010E00002F062FF054806495830807A51F8202006
:1010F0002146684690471CBD5C29002054310020E1
:10110000C44D02002DE9F0438FB00024DDF8589063
:10111000804607949DF81C000F4620F00F00401CED
:1011200020F0F00010308DF81C0018788DF81D00AC
:101130009DF81E001D4620F00600801C8DF81E0044
:1011400016461C216846FEF7CCF99DF8000040F0D9
:1011500002008DF80000A978090702D040F00800CD
:1011600001E020F0080040F010008DF8000007A812
:10117000CDE904400120019403948DF83A000694CF
:10118000ADF838700D9468788DF83400A8788DF833
:1011900035009DF83600142120F00600801C20F058
:1011A00019008DF8360008A8FEF79BF90EA80890E4
:1011B0000DA8ADF828400990ADF82A40ADF82C6094
:1011C0000C94B8F808004B4608AA6946A2DF0FB095
:1011D000BDE8F083F0B58FB00E4605461C21684689
:1011E000FEF77FF900249DF80000039440F00E0004
:1011F0008DF80000012701948DF8367042F63220F8
:10120000049405940694ADF834000C9416F8460F37
:101210008DF8300070788DF831009DF8320014217F
:1012200020F00600801C20F019008DF8320007A87D
:10123000FEF757F90DA807900CA8ADF824400890C8
:10124000ADF82640ADF828700B94288905F5AB73EE
:1012500007AA6946A2DF0FB0F0BD00007CB5114EB1
:101260000C004FF00005306015D06946002000F0FA
:10127000AFF8002815D101A9012000F0A9F8002835
:101280000FD19DF8041009B1022003E09DF8001071
:1012900001B10B202070706810B9FEF77FFD054684
:1012A00028467CBDC028002010B51A4C0188606813
:1012B00010290ED011292BD1401E606028D1FEF7D5
:1012C0006DFD002824D02168002921D0BDE8104000
:1012D0000847D0B900210122084600F0D1F808B132
:1012E00007280FD107220221012000F0C9F808B118
:1012F000072807D104220221002000F0C1F820B104
:10130000072802D0216801B188476068401C6060EE
:1013100010BD0000C028002010B5032000F01EFA08
:1013200008B1062800D1002010BD00002DE9F047CB
:1013300007460024234802E0641C042C3FD250F8E6
:101340002420BA42F8D1042C39D2DFF87C90DFF89F
:101350007C80A9F11006F06939B301290ED0022969
:101360002DD104EB440040444578002D27D0F1688E
:10137000002924D02846BDE8F047084704EB440183
:1013800018F80150884498F8011049B171680E4A64
:1013900001EB810149000F3AFEF714FF00B97770A5
:1013A00098F8021009F80410DFE7FEF751FF04EB8C
:1013B0004401414419F804008D78A842D5D0BDE815
:1013C000F0870000844D0200B0280020642F002028
:1013D00004280CD2074A1268074B13F8203001206A
:1013E0009840904300D001200870002070470020F2
:1013F000FAE7000010050050844D0200011F10B5EF
:101400001E4A4FF6FF736FF004000D291CD2DFE86F
:1014100001F00B1B1B171B1B071B1B1C21262C0081
:10142000BDE8104003F036B91321508876DF09E09B
:10143000002809D00022BDE810401146FEF726BD65
:10144000FFF780F90828F3D110BD51889942FBD0ED
:1014500000210FE051889942F6D0014609E05088FA
:101460009842F1D00021052004E050889842EBD04A
:1014700005210020BDE8104002F0A4B8002800209B
:1014800070B50023042810D20D4D00EB4004012A52
:1014900002D101290CD00022094E00EB400030445B
:1014A00061B1012906D0022906D00723184670BD74
:1014B0000D30C2B22A55F9E74270F7E78270F5E7BE
:1014C000642F0020044A01460020127AD20702D07D
:1014D000084600F055B87047A028002070B50E46A9
:1014E0002149054600204E60C1E90252A9071BD5DB
:1014F0000024012211462046FFF7C2FF641C042C81
:1015000002D20028F5D00FE070B972080421174804
:10151000FEF782FC40B9FEF76DFC28B91248144A68
:1015200000211C30FEF7B2FDE9070AD0114A4FF442
:10153000F01111600F4B00221B1D1A600D4A103272
:10154000116000280FD108480B4A00211430FEF723
:101550009DFD002807D1BDE8704003480121074ADE
:101560001830FEF793BD70BDA0280020944D0200F6
:101570009917020008050050E5310200D5FD010071
:101580002DE9F05F07467448DFF8C89100224168F2
:1015900009F10404251DD0F814C04FF4A01A4FF42B
:1015A00000334FF4802B01EB810E1646182F12D218
:1015B000DFE807F00C1212334453607577807780B0
:1015C0008B8F8F8F8F8FB1B9BFC5CBCB4FF4B0113D
:1015D00021602E600670A3E0C4F800A02E60D9F848
:1015E000002082F4F012920309D523602E60022FAE
:1015F00002D14FF4E16209E04FF47A6206E02B6019
:101600002660022F34D000BF4FF4C87207706420E8
:10161000B2FBF0F0414300223CE0C4F800A02E6091
:10162000D9F8002082F4F012920304D523602E60D2
:101630004FF44872EAE72B60266019E0C4F800A076
:101640002E60D9F8002082F4F012920302D52360B4
:101650002E60D1E72B602660D6E7C4F800A02E608C
:10166000D9F8002082F4F0129203E4D523602E60B2
:10167000C822CBE7C4F800A02E60D9F8002082F47D
:10168000F012920302D523602E6001E02B602660E9
:10169000077018E06046FEF795FD024640E05146AF
:1016A00043E0D9F800002BEA0002226000F4802019
:1016B000286008E0D9F800002BEA0001216000F45E
:1016C0008020286071460022E4E74FF4F010286083
:1016D0001FE080468069FEF7BBFD0246D7F111008E
:1016E0004FF4002700D012B127602E6018E00128C7
:1016F0000ED9C82110FB01F16420B1FBF0F1D8F83C
:101700000420D8F8180051430022FEF75BFD024682
:101710002F60266004E04FF4F01121602E60077006
:101720001046BDE8F09F4FF4E01121602E602B6061
:101730000EE04FF4D01121602E60594607E04FF4BF
:10174000C01121602E60891001E04FF4F011296072
:101750002660E4E704050050A028002070B50021B1
:101760000C4D012455F82120920002F1A042D2F83C
:10177000006704FA01F3034000D0032326F4403647
:1017800046EA0343C2F80037491C0429EAD3002083
:1017900070BD0000844D020000780221FFF7C6BD35
:1017A00005494FF0FF3201EB800308285A6002D34D
:1017B000084480F84C207047D0310020F0B54FF03D
:1017C000FF3512B10023082601E008230C260D4C3A
:1017D00006E000BF04EB83077F687F1C04D05B1C1E
:1017E000B342F7D32846F0BD26185DB286F83450D0
:1017F00004EB8306002A7160F4D1E11881F84C00F3
:10180000F0E70000D03100200249084490F934008C
:1018100070470000D03100202DE9F0438FB01E4604
:10182000DDF8589015460F00804604D1002211467D
:101830001046FEF72BFB25B9002211461046FEF795
:1018400025FB1C216846FDF74CFE00249DF8000096
:10185000039440F002008DF80000012001948DF8FF
:101860003600049405940694ADF834800C943078D6
:101870008DF8300070788DF831009DF83200142119
:1018800020F00600801C20F019008DF8320007A817
:10189000FDF727FE0DA807900CA808900748ADF8A3
:1018A0002450ADF82640ADF828500B974B4607AAB8
:1018B00069460088A2DF0FB0BDE8F0830029002050
:1018C0002DE9F0413B48017801EB810100EB8104F7
:1018D000D4E9030600EB40013648241DCC3000EB70
:1018E0008100B0F808804589476802F031FBB6FBFB
:1018F000F0F100FB116088B35FF0000008FB057792
:101900006188A288DFF8B08011448D190022C8F8E0
:10191000102040B102F01CFB6188884221D0BD42FA
:1019200001D1A088E8B1A06802281AD002F010FB0B
:10193000A18844463144B1FBF0F200FB121080084C
:10194000C8F80C0002F004FBB5FBF0F100FB1150ED
:1019500078B10020BD4228D068B126E0FFE7012021
:10196000CCE702F0F5FAB6FBF0F10320C8F814104A
:101970001CE00120EEE7ADB2BEB202F0E9FAB6FB20
:10198000F0F702F0E5FAB5FBF0F0874201D1701BE9
:1019900009E002F0DDFA064602F0DAFAB5FBF0F1F2
:1019A00000FB1150301A800820610220BDE8F04190
:1019B00002F08ABE403200206429002006480178E7
:1019C00001EB810100EB81000079042801D000F0D7
:1019D00059B8012002F078BE403200200A480B4A74
:1019E000017801EB810100EB8100C188116200796F
:1019F000012805D0032801D0042804D1FFF760BFD7
:101A0000012002F061BE70474032002064290020AE
:101A100000EB80020548002100EB820001220171E9
:101A2000C180C0E90321416101817047403200203B
:101A30002DE9F041114D069E6C780A2C1BD02F78B1
:101A40003C440A2C00D30A3C04EB840405EB8404D8
:101A500020716261D1E90001C4E90301E3802681BC
:101A60006878401C68700648007808B9FFF7B6FF30
:101A70000020BDE8F0810420FBE700004032002098
:101A80006429002010B50E4C207800EB800004EB98
:101A900080010020091DFEF70FFA2078FFF7B8FF3C
:101AA0006078401E60702078401CC0B220700A2808
:101AB00001D100202070BDE81040002002F004BEDB
:101AC000403200202DE9F05F254801694A1C41D0D1
:101AD000826801EBC101DFF88CB002EB8101814625
:101AE0004E68DBF8004047690079E11B21F07F4533
:101AF000ED1CB0B9DFF870804FF48030C8F84403B3
:101B0000C8F804031120FDF7D3FD1120FDF7DBFD1C
:101B10004FF0010AC8F800A02F20FDF77BFC89F8E0
:101B200004A0B54200D235460E49E8193C3120F0F8
:101B30007F400860DBF80010001B091B21F07F418B
:101B400020F07F40C91C814208D9BDE8F05F112018
:101B5000FDF7C4BDBDE8F05F02F0ECBCBDE8F09F4E
:101B6000B029002004150140001001402DE9F0418A
:101B700017880646B81D14460D46984202D90C2017
:101B8000BDE8F0813188072206290AD34FF4486C5A
:101B90004FF6FF73614501D9994202D1708806283A
:101BA00001D21046ECE7604501D99842F9D199423B
:101BB00003D0984201D08142F3D80520E85520880F
:101BC0001221401C80B2208029542088401C80B201
:101BD00020804119308802F0DFFF2188084480B25C
:101BE00020804119708802F0D7FF218808442080A6
:101BF0000020C5E700221146FEF748B9F8B51248A3
:101C000001F090FA104D0026104C103D30B1616982
:101C1000B1B101208DF80000684610E0287820B1AD
:101C2000616969B18DF80060F6E7687850B1A16824
:101C300000226868FEF7C6FA10B1A16901B18847B1
:101C40002E70F8BD6168F3E7F8280020743000209A
:101C500070B5094B044608209E7A00250E4208D034
:101C6000A4F57F40FF3802D01889A04202D100209D
:101C7000156070BD052070BDA031002000EB400252
:101C80000748012100EB820081724FF6FF7101814C
:101C9000FF21C172002101608180817170470000C5
:101CA000A031002010B5134C207900071ED46069C4
:101CB000401C6061E06808B104200AE001F040FACD
:101CC00008B1022005E0206960B16068C10704D056
:101CD0000320BDE8104002F041BE40F0010060600A
:101CE0000020F6E7BDE81040FFF768BEBDE81040F1
:101CF00002F02ABE6429002006494868020707D47A
:101D0000820702D540F001004860022002F026BEA2
:101D100002F01ABE642900202DE9F04100260125B9
:101D2000144C22E06068626900EBC607387805FA57
:101D300000F1114217D08A43626101F09FFD024613
:101D40003878236905FA00F1194002FA00F3994244
:101D500009D17978012901D0012100E00021514009
:101D60007A6802B19047761CF6B220788642D9D3C1
:101D7000BDE8F081882900202DE9FC410E4604468B
:101D800081786A46254802F06FF8002828D16078EB
:101D9000234F00EB400007EB8000807A400621D4FF
:101DA000022E1FD0012E1FD01E4DA0781E49C0EB61
:101DB000C00001EB800100231C226846A847A8B19F
:101DC000022E0DD02078164900EB40000C3101EBBB
:101DD00080001649807A51F82020214668469047B5
:101DE000BDE8FC81124DE0E7124DDEE7022EF7D090
:101DF000607800EB400007EB8000817A21F0400121
:101E00008172074960784C39C0EBC00001EB80015A
:101E10001C231A466846A847D4E700005C29002026
:101E2000A0310020D148020090300020B44D0200C3
:101E3000C1410200F94002002DE9F04705250F4F8E
:101E40009046894606460024C4EBC40007EB800098
:101E500036B1072231461030FDF755FB18B106E0C8
:101E6000018B414503D10025C9F8004002E0641C04
:101E7000072CE9D32846BDE8F08700009030002009
:101E80007CB5054681B26A46074801F0EDFF0400C3
:101E900008D16C21684602F00DF8040002D12846F2
:101EA00001F036FF20467CBD5C29002070B5054658
:101EB0000C46100003D000221146FDF7E7FF207802
:101EC000142801D0212802D102482968C1600020CD
:101ED00070BD0000002800201FB58DF80C001F48C1
:101EE00000F0AAFA18B100221146FDF7CFFF02F068
:101EF00035F818B100221146FDF7C8FF03A800F01D
:101F0000A7FA18B100221146FDF7C0FF0020CDF856
:101F100005008DF809009DF80500694620F01E00B7
:101F200040F001000C3020F020008DF80500072063
:101F30008DF8060010208DF8070009480090012058
:101F40008DF8040005480B3800F0D6FB002803D0BC
:101F500000221146FDF79AFF1FBD00000C2800204B
:101F6000AD1E020000B593B002208DF8400041F68E
:101F70001510ADF842004EF6EE60ADF844000120B9
:101F8000ADF8460040216846FDF7ABFA10A168465F
:101F9000FFF752F810A80E909DF83C0020F00F00BB
:101FA000401C20F0F00020308DF83C009DF83D00F2
:101FB00020F0FF008DF83D006846FEF713FE002874
:101FC00003D000221146FDF761FF13B000BD0000F1
:101FD0004E6F7264696353656D69636F6E64756398
:101FE000746F72002DE9F04F054693B0F948FF2455
:101FF0000E9400784FF0000A00285AD0DFF8D883FA
:10200000D8F80000002854D001A800F015FA18B143
:1020100000221146FDF73AFF281D05902A20ADF851
:1020200018000027FF208DF806008DF80470009737
:10203000E94C28880C3CBB4610280FD0A8886A467B
:102040000221FFF705FE48B9009800EB400104EBC0
:102050008101C97A8DF806108DF80500DFF87893B4
:102060002888A9F15809132309F11C02A2F1E006FE
:10207000172875D010DC10281ED011285ED0132828
:102080006FD0142815D1009800EB400004EB8000BD
:10209000C07AFF287DD09AE0D049182877D01C2834
:1020A00076D0522805D198F80A0051F8201001A8DE
:1020B000884713B0BDE8F08F4FF6FF766A460121DE
:1020C0003046FFF7C5FD0028F3D10098022200EB4F
:1020D000400104EB81018A7211228DF810208DF8E5
:1020E0000500A8880881D5F80600086068898880FE
:1020F000287B8871687DC10708D0B649083101EB9B
:1021000050000078FF2808D00E9006E032460EA955
:10211000A81DFFF791FE00280FD100990E9801EB42
:10212000410104EB8101C8728A7A42F008028A7286
:102130008DF8060001A8FEF7C1FF67E1009800EBEB
:10214000400004EB8001887A20F0020088720107C9
:1021500008D500060FD5002101A8FFF70DFE0AE003
:10216000B6E043E09DF80600FF2804D001F0D0FD62
:10217000FF208DF806000099102001EB410104EBCF
:102180008101887212208DF810003FE101E0F7E034
:102190003AE1EA890EA90020FFF74EFE78B90099CE
:1021A0000E9801EB410104EB8101C8728A7A42F07A
:1021B00008028A728DF8060001A8FEF77FFF0098DA
:1021C00000EB400004EB8000C07AFF2804D00098A8
:1021D000C0EBC00109EB810A00980023C0EBC000EE
:1021E00006EB8002A888514682DF62E700988DF8EE
:1021F000103000EB400004EB80018B7A43F00403C5
:102200008B72CB7AFF2B30D016218DF8101002EB99
:10221000001026210830FDF764F9009800EB40001B
:1022200004EB8000817A41F0400181720099CDF881
:102230002CB001EB410204EB820208ABD27ACDF85C
:1022400028B0C2EBC20206EB8202CDE90C2BC1EB37
:10225000C10209EB8201CDE9081BA88808F104023C
:1022600000217FDF0028C0D1D0E00DF1380C48F20A
:1022700043020020C0EBC00306EB83039B7EFF2BD1
:1022800004D0401C0728F5D31746CFE70A78022A66
:102290000CD0C0EBC00206EB8202FD2393760B68E4
:1022A00013618B8893828979917505E0C0EBC00139
:1022B00006EB8101FE228A768CF8000000990E98C8
:1022C00001EB410104EB81018DF80600C872ADE716
:1022D00098F8091021F0010188F80910DDF800C014
:1022E0000CEB4C0304EB8300817A21F00402827230
:1022F00014218DF81010A97921B1C07AFFF7C0FD23
:10230000AF7983E0E979490739D59DF80610FF29AF
:102310007CD042F008028272EA7A920707D5C1EBBC
:10232000C10206EB8202957E25F001059576C27A00
:10233000FF2A6BD014F82320022A0ED0C1EBC10172
:1023400006EB810102680A6182888A828079887539
:10235000887E20F0020088760DE0CCEBCC0209EB01
:102360008200428AC1EBC10006EB80000283817EBD
:1023700021F001018176012101A8FFF7FDFC45E074
:10238000A8790123B3EB101F2AD100F00F00012818
:1023900026D1009800EB400004EB80039B7A1B07DA
:1023A0001ED502EB001026210830FDF79AF8162002
:1023B0008DF81000009800EB400004EB8000817A5B
:1023C00041F06001817298F8091041F0020188F82B
:1023D000091017E04C290020AC310020D44D020038
:1023E000009800EB400004EB8000827A42F080020B
:1023F000827215208DF8100098F80A0051F820100C
:1024000001A88847002701E08DF810303A4604A95A
:1024100001A8FDF74BFD9DF8100012287FF4E5AEF2
:10242000009800EB400104EB8101897A01293FF417
:10243000DCAEFFF723FC3CE630B1FF2101704170B8
:102440008170C1700020704748F20E007047000094
:102450002DE9FF4105003AD02B4800240460447266
:1024600084722046FFF70AFC274830213C38FDF7EC
:1024700038F80026DFF89480FF27304601F048FC4A
:1024800008F80670761C072EF7D36C20ADF8040010
:102490000720ADF806001E481C4900900831684628
:1024A00001F0D0FD00280FD1184E0120083E3070F9
:1024B000287878B1BDF80400BDF80610484381B211
:1024C00006F1100001F0F6FC04B0BDE8F08148F21E
:1024D0000E00F9E70F4F00250C48A9B202AA0830F8
:1024E00001F0C2FC48B9C5EBC50007EB8000002332
:1024F0001C2202A901F058FD08B13470E4E76D1CFC
:10250000072DE9D3E0E70000AC310020542900207A
:1025100095250200903000201B4A137848F20802EB
:10252000F3B1931D18B111B10378CBB901E018468E
:102530007047164B1B689BB1837848F20502FF2B4E
:1025400010D01348C3EBC30300EB8300837E9B07CB
:1025500006D402690A60828A8A80807D887100229E
:10256000104670474078FF28FAD000EB4003074838
:102570000C3800EB8300837A9B07F1D502680A6070
:1025800082888A808079E9E74C290020AC310020DC
:10259000903000202DE9F0478046544890B01E4608
:1025A0000068189F92468946002852D06C2F50D858
:1025B0006846FFF741FF18B100221146FDF766FC9F
:1025C00000248DF800408DF80440CDE905762546BD
:1025D000A9B20DAA464801F047FC28B908220DA966
:1025E0004046FCF790FFE8B16D1C072DF0D300BF0B
:1025F0009DF80200FF282CD0202540220DF1100864
:10260000B9F1030F11D03B4B4FF01C0CF11AB1FB89
:10261000FCF70121072F2AD2CDF80880BAF1000F6C
:102620001AD01FE08DF80250E2E76C2F02D08DF82F
:10263000042001E08DF804509DF8040040F00300F0
:102640008DF80400524601A96846CDF80880FDF7D0
:102650002DFC10B0BDE8F087254A8140103A526841
:102660001142F6D002F09EFA8DF8045033E01F4874
:102670005838371AB7FBFCF747B11C30331A3025EE
:10268000B3FBF5F3CBB18DF80420E2E717498DF8E1
:1026900004508DF801400C31CDE90A41CDF8088095
:1026A00007909DF80200C0EBC00003EB800008908B
:1026B00007A80690182005900DE08DF801408DF8D0
:1026C00003100A498DF804500C39897A890702D41D
:1026D0003021FCF706FF9DF80400B9F1020F02D08B
:1026E00040F00200ACE740F00100A9E7AC31002067
:1026F0005C29002090300020174A10B512785AB19A
:1027000048F20E0258B151B10B6843B1134A146834
:102710003CB148F2040010BD48F2080010BD10465C
:1027200010BD0E4C13601C3CD1F8053023624B7A6F
:1027300084F824300979917223F0050141F00201F7
:102740001172D17921F0040141F00301D17100210E
:102750000170084610BD00004C290020AC3100205B
:102760007CB5044621480D46017848F2080000294E
:1027700028D0811D2CB325B32178002922D11C49F2
:10278000096800291ED0607848F21001C8B91848BD
:102790000C38807A012814D0A078072811D2154A65
:1027A000C0EBC00002EB8000807EFF2809D0E96802
:1027B00069B1AA685AB1262A09D22878012802D01C
:1027C00005E008467CBD0A483438FCF771FE07482E
:1027D000A1786A46103001F047FB2878064951F885
:1027E00020202146684690477CBD00004C290020EF
:1027F000AC31002090300020B44D0200F0B5254AE5
:1028000048F20803127832B39A1D38B131B10C681E
:1028100024B18C6814B10078E8B901E01046F0BD2D
:102820001D480068B8B100231B4C1A460C3C1846E2
:10283000A4F58875E67A864202D1A67AB60722D434
:102840000E7B964210D9C0EBC00605EB8606B77E1C
:10285000FF0702D008E01846F0BD8F6847F82260F5
:102860000C4E0836B054521C0E799E420BD9C0EB68
:10287000C00605EB8606B77EBF0704D40F68103686
:1028800047F823605B1C401C0728D3D30B710A73E5
:102890000020F0BD4C290020AC3100200E4910B5BD
:1028A0008A78CC780023A24212D0521CD2B28A700D
:1028B000022A00D18B70084A8B781C3252F82320F0
:1028C00002604869104420F07F404861012010BD3B
:1028D0000360002010BD0000B02900202DE9F04366
:1028E000154E89460024B768336920E003EBC30125
:1028F00007EB81014D68854202D9281A486018E02B
:10290000401B2C4400254D600D751D46D1F810C0AC
:102910000B6ABCF1000F0AD009EB040828F07F48CD
:10292000C1E9028CD2F800C0C1F820C01560591C62
:10293000DCD13361BDE8F083B0290020002808D045
:10294000112801D0FDF7CEBA0248416841F00801D4
:10295000416070476429002010B51F4C2046217843
:102960004068012910D002292DD0032932D1000757
:1029700025D46069401C606100F0E2FBD8B120788A
:10298000BDE8104001F0A0BE000718D41348A28B88
:10299000017801EB810100EB8100C188891A0904EB
:1029A000090CC18003D0BDE8104001F093BFBDE821
:1029B0001040FFF767B8BDE81040FEF7FFBFBDE865
:1029C000104000F0B9BD0648617850F82100BDE81C
:1029D0001040004710BD0000642900204032002054
:1029E000F84D020028DFFFF7A9BF29DFFFF7A6BFD8
:1029F0000EB51AA19DF8080020F00F00401C20F031
:102A0000F00010308DF808000C2202A87CDF18B10D
:102A100000221146FDF73AFA40F2C23078DF18B1D1
:102A200000221146FDF732FA0020009001900620A6
:102A3000ADF800000C20ADF802001420ADF8040041
:102A40004FF49670ADF8060068467ADF002803D090
:102A500000221146FDF71AFA0EBD00004E6F726497
:102A600069635F4D6F75736500000000002070475B
:102A700000207047002070472DE9F0470546407858
:102A8000002400EB40012448234F00EB01103037B5
:102A90004268A046264607EB810152B18B7A5FEA75
:102AA000036C06D55B0604D4066800F108041FFA1F
:102AB00082F80889334642462146A9DF48F2410997
:102AC0000B281CD000B14846012E16D168784FF66D
:102AD000FF7200EB400007EB80000C210089A7DFAC
:102AE00000280AD0A0F54051023913D0082811D08F
:102AF000891E0FD011280DD00020BDE8F08768781E
:102B0000012300EB400007EB80004246008921468C
:102B1000A9DFDBE74846F0E77031002070B50C46CE
:102B2000014660780A4D00EB400005EB00103823A9
:102B3000302201F039FA002808D1617801EB410117
:102B400005EB01114A68521C00D14A6070BD0000BB
:102B5000703100202DE9F0418CB0804603272620FB
:102B6000ADF828004878274E00EB400006EB8000C7
:102B70000C4600893B460AAA6946AADF08BB607872
:102B8000A6F1300500EB400005EB0010BDF8282051
:102B900069460830FCF7B7FC0028607800EB40007D
:102BA00005D005EB0010416861B1174E0BE006EB54
:102BB0008001897A890721D405EB00103021FCF7C8
:102BC00090FC1BE0114E07606078BDF8282000EBF8
:102BD000400005EB001069464260607800EB400061
:102BE00005EB00100830FCF763FC6078382300EB3D
:102BF000400005EB001130224046B0470CB00020E9
:102C0000BDE8F081A0310020C1410200F94002007E
:102C1000FFF732BFFFF782BFFFF79CBF70B5114CC3
:102C200006460125B540E068FDF712FB00280CD1EF
:102C30006169294207D1304600F020FE0028206952
:102C400004D0284303E0A943616170BDA84320611B
:102C5000606928436061D4E90210BDE87040002239
:102C6000FDF7B0BA8829002070B51B4C2079000709
:102C70002DD41A48017801EB810100EB81052E6902
:102C800001F066F9E9882A89761E11443144B1FBC6
:102C9000F0F02169002549B16169814206D1E56002
:102CA000606840F001006060002008E000F048FA31
:102CB00010B10220E56002E0206920B10320BDE8E8
:102CC000704001F04BBEBDE87040FEF777BEBDE836
:102CD000704001F039BE000064290020403200201D
:102CE000F0B58FB00F4605461C216846FCF7F9FB8E
:102CF00000249DF80000039440F004008DF80000CB
:102D0000012601948DF8366042F64C200494059417
:102D10000694ADF834000C9438788DF8300078784B
:102D20008DF831009DF832008DF8384020F0060013
:102D3000801C20F019008DF83200142107A8FCF740
:102D4000D0FB0DA807900CA80890ADF824600EA841
:102D5000ADF82640ADF828600B90288905F5B773CB
:102D600007AA6946A2DF0FB0F0BD70B590B00D465E
:102D700006461C2105A8FCF7B4FB00249DF81400AE
:102D8000069440F002008DF814000A9401208DF89A
:102D90003E00089442F64A2009940B94ADF83C009A
:102DA0000D9495F834008DF8340095F835008DF8C1
:102DB00035009DF83600142120F00600801C20F01C
:102DC00019008DF8360035F8300F8DF83800000AFC
:102DD0008DF83900A8788DF83A00E8788DF83B0036
:102DE00004256846FCF77DFB0FA800900DA8019014
:102DF000ADF808500EA8ADF80A40ADF80C5004909C
:102E0000308906F5B3736A4605A9A2DF10B070BD1C
:102E100030B599B018216846FCF763FB9DF80400B3
:102E2000032520F00F00401C20F0F00020308DF82A
:102E300004009DF80500ADF8085020F00F00401C7C
:102E400020F0F00020308DF805009DF806000124E8
:102E500020F00F00401C20F0F00020308DF806001C
:102E600002208DF80A009DF80C00ADF8005020F00B
:102E70000F00401C20F0F00020308DF80C009DF871
:102E80000D008DF8024020F00F00401C20F0F000F3
:102E900020308DF80D009DF80E008DF8034020F0D5
:102EA0000F00401C20F0F00020308DF80E009DF83F
:102EB0001400ADF8104020F00F00401C20F0F0008E
:102EC00020308DF814009DF815008DF8125020F078
:102ED0000F00401C20F0F00020308DF815009DF808
:102EE00016008DF80B4020F00F00401C20F0F00081
:102EF00020308DF816008DF81340482106A8FCF705
:102F0000F0FA484806904848079000208DF82800BD
:102F10008821ADF83C108DF82000CDF824D043492D
:102F20008DF821400E918DF822500D9040F2011144
:102F3000ADF848100B908DF830008DF84A008DF8F0
:102F40004E0014909DF844008DF84B5020F00F0077
:102F5000401C20F0F00020308DF844009DF8450022
:102F600020F0FF008DF845009DF84C0020F00F0088
:102F7000401C20F0F00020308DF84C009DF84D00F2
:102F800020F0FF008DF84D009DF8580020F00F0054
:102F9000401C20F0F00020308DF858009DF85900BA
:102FA00020F00F00401C20F0F00020308DF8590078
:102FB0009DF85A0020F00F00401C20F0F000203057
:102FC0008DF85A009DF8540020F00F00401C20F0AE
:102FD000F00020308DF854009DF8550020F00F00CF
:102FE000401C20F0F00020308DF855009DF8560070
:102FF00020F0FF008DF856009DF8570006A920F03C
:103000000F00401C20F0F00020308DF857000848D9
:10301000FDF7DAFE002803D000221146FCF736FF48
:1030200019B030BDDD3A02008D460200182800209C
:10303000C42D00207FB50646887A0D4698B3E8680F
:1030400088B300242CE0E86800EBC4030020039060
:103050009DF80C0040F002008DF80C0099790907EA
:1030600002D040F0080001E020F0080040F010001D
:103070008DF80C00D97904EB840001F001011A1DD0
:1030800006EB4000CDE900211430029033F8022B0A
:1030900003A9304601F0D4F8002805D1641CE4B23D
:1030A000A87AA042CFD8002004B070BDF8B51C4C5F
:1030B0002078002832D0206928B10026E06820B1AD
:1030C000002526B112E00126F8E70125F9E7684658
:1030D00051DF052805D030B100221146FCF7D6FE9D
:1030E00004E0012602E021690098884795B96088CC
:1030F000ADF800006946A06861DF052805D030B151
:1031000000221146FCF7C2FE04E0012502E0D4E9EA
:1031100002018847002EDAD0002DD2D0F8BD000081
:10312000D4290020054940880A88904204D3498860
:10313000884201D80120704700207047F028002005
:1031400070B50E48017801EB810100EB810425691F
:1031500000F0FEFEE18822896D1E11442944B1FB76
:10316000F0F1074842698A4205D301D1006910B1E4
:103170004FF0000070BD4FF0010070BD40320020E4
:1031800064290020800701D000207047012070478B
:1031900030B51488E51C9D4201D90C2030BD0225B4
:1031A0000D5513881C245B1C9BB21380CC541388D0
:1031B0005B1C9BB21380012807D0022807D003288C
:1031C00007D0042807D0072030BD002004E00120EC
:1031D00002E0CD5401E00320C8541088401C108048
:1031E000002030BD0348017AC90702D00078FEF7FD
:1031F000C7B97047A02800202DE9F04726484FF0B6
:10320000000980464578D0F810A038E0D8F80C00C6
:1032100000EBC50634782FE004EB44017068641CB1
:1032200000EBC100B178E4B2A14200D100240178E2
:10323000022902D003291FD115E04068D8F80810F0
:1032400000EBC00201EB8207397DA9B101F0FEFB62
:1032500087F8149010E000BF00EBC00002EB800084
:103260000375006A04E0D8F80820D8F810004B462F
:10327000471CF1D1C8F810007078A042CCD16D1E67
:10328000EDB2C3D2D8F81010514502D00120BDE8EC
:10329000F0870020FBE70000B02900202DE9F0476F
:1032A00004463D48002781464678D0F810A067E0E4
:1032B000D9F80C1001EBC6055CE0601C08D0224672
:1032C000D9F8080004EBC20100EB8100046A2FE08A
:1032D0002878696800EB4002401CC0B201EBC201D3
:1032E0002870AA78904200D12F704A68D9F808C097
:1032F00002EBC2000CEB800091F800C0BCF1010FA2
:103300003AD190F814C0BCF1000F35D1D1F808C003
:10331000C0F808C0D1F80CC0C0F80CC0D1F810C07B
:10332000C0F810C04969C16199F8051001B1876002
:103330008368D9F814C0DFF86480A3EB0C0121F096
:103340007F41414502D2C368194407E0ACEB030159
:10335000C36821F07F418B4202D9591A416000E0D5
:10336000476087600121C7600175891E01621046B0
:1033700001F036FB601CA0D12878697888429CD186
:10338000761EF6B294D2D9F81010514502D0012021
:10339000BDE8F0870020FBE7B0290020FFFF7F0099
:1033A00098B05A4800905A4B052207210020FCF79C
:1033B000ADFE18B100221146FCF768FD554A012107
:1033C0005548FCF763FE18B100221146FCF75EFD7C
:1033D000524A40F6CD410320FEF780F818B1002292
:1033E0001146FCF753FD69460020FDF737FF18B181
:1033F00000221146FCF74AFD9DF80000022878D013
:103400005FF00004FDF728FE454A0A210820FCF77A
:1034100027FE18B100221146FCF738FD2046FEF7C2
:103420005BFDFFF7E5FA382101A8FCF75AF8022105
:103430008DF80410012405208DF806408DF8070052
:103440003548ADF81440001F0690242235490FA8D6
:10345000FCF72EF834480090344B0FAA002101A845
:10346000FDF768F818B100221146FCF70FFDFEF7D2
:1034700079FDFCF71BFFFFF7CBFC2D4851210160C4
:103480006421C0E90114047301462348083001F0A7
:1034900093F81C216846FCF724F800204FF42031F3
:1034A000CDE900014FF47021029103218DF80C1039
:1034B000ADF80E008DF8100005901E480690684685
:1034C000FDF7F0FA18B100221146FCF7DFFC1248B4
:1034D000002208384FF480318068FCF773FE18B181
:1034E00000221146FCF7D2FC0320FDF747F906E065
:1034F000FFE7012486E700BFFCF7A2FD48DF0028B4
:10350000FAD000221146FCF7C1FCF5E7F5000200F5
:10351000EC2900208104020008280020FD1302008D
:10352000142D0020604D02002D05020069390200B3
:10353000542F0020F51B02000348416821F00801C8
:103540004160007801F0C0B864290020002360F3D6
:103550000F03184661F3174062F31F60704770B5A0
:10356000144682880E4605462088111D0144921C8F
:10357000994201D8FE2A01D90C2070BD521C325448
:103580002088FF21401C80B2208031542088401CBC
:1035900080B220808119288801F0FEFA2188084431
:1035A00080B22080AA8842B1A96841B13044FBF7BB
:1035B0007FFF2088A98808442080002070BD072054
:1035C00070BD00001CB5204A12787AB1FF2800DBDC
:1035D000FF20FF2900DBFF210022009201924BB265
:1035E00042B200211948FDF7B1FB18E040F6FF7226
:1035F000904200DB1046914200DB11468DF800003E
:10360000C0F3032040EA01108DF8010008098DF88D
:1036100002006B46032201210C48FDF78AFC0028BA
:1036200010D008280ED0A0F5405104390AD043F23A
:103630000141884206D002B00022BDE81040114688
:10364000FCF724BC1CBD000000280020C42D002075
:10365000F8B50E46017814460546012901D168786F
:1036600030B12088821C9A422DD8012902D006E070
:103670000720F8BD69780144891C994223D8181A9B
:10368000801E87B2ADF800702188B01C08446946DE
:103690007DDF0028EDD12878022805D1BDF8001083
:1036A000B94201D809210AE00821012805D168782A
:1036B000B84202D8ADF8000001E0ADF80070BDF8E6
:1036C0000000FE2801D90C20F8BD2288401CB0540F
:1036D0002088401C80B2208031542088401C2080EB
:1036E000BDF80010084420800020F8BD002070477D
:1036F00000207047002070474907090E002806DAAD
:1037000000F00F0202F1E02282F8141D03E000F144
:10371000E02282F8001400F01F02012191404009CC
:10372000800000F1E020C0F88012C0F8001170475E
:103730002DE9F0410E46054600F008FB0124002863
:10374000284619D0FEF760F81B490838084490F85D
:1037500054008009032802D0012805D006E017484C
:103760000068AC40204201D1022100E0032128463C
:10377000BDE8F04100F0CDB800F0F4FA002818D010
:103780002846FEF741F805460D4F4FF4807007EBD1
:10379000850100EB8500D1F8102580B242F00102CE
:1037A000C1F8102500F0C4F8002E02D0AC40C7F8D4
:1037B0000443BDE8F0810000D03100201005005026
:1037C000006000402DE9FC41DFF8A480044608EBCE
:1037D0000400002790F934001346C0170E46401C21
:1037E00001D0082740E0F27819462046FDF7E6FFB1
:1037F0000546401C37D0B07848B1A00000F1A04089
:10380000D0F8001721F00201C0F8001707E00021EE
:103810007378204600910A46019100F069F8F0782B
:10382000C0B11448317800EB8500D0F81025124B58
:103830001A40C0F810254FF4F8524FF4403302EA12
:10384000042203EA01410A43D0F810150A43C0F8E4
:10385000102509E008EB0500327810F84C1F41EA0A
:103860008211017000E004273846BDE8FC810000A9
:10387000D031002000600040FFE0FCFF03490968F0
:10388000C14011F0010000D0012070471005005028
:1038900070B5114D287808B1082070BD0020411E78
:1038A0002A18401CC0B282F834102028F8D3002413
:1038B0002046FDF775FF641CE4B20C2CF8D30121FF
:1038C0000620FFF719FF05494FF00040C1F8040337
:1038D00001202870002070BDD03100200060004021
:1038E00002480078002800D001207047D031002025
:1038F00030B541EA4201DDE9034541EA8301800038
:1039000041EA042100F1A04041EA0541C0F8001756
:1039100030BD800000F5E06000F1A040026822F4B4
:1039200040320260026842EA0141016070470000D3
:10393000034908B50844002101600068009008BDF3
:103940000060004002494058012800D00020704724
:10395000006000404058002800D0012070474058C7
:10396000002800D00120704700B595B009284AD240
:10397000DFE800F0220549071315172F4B0005203B
:1039800000E00220FDF79EFD00283CD015B000228B
:1039900011465DF804EBFCF779BA0420F2E7032046
:1039A000F0E70320FDF78EFD18B100221146FCF769
:1039B0006DFAFCF7C7FEE7E70020FDF783FD18B1BD
:1039C00000221146FCF762FA15B05DF804EB00F036
:1039D00061BE08208DF804008DF80C0004A800904A
:1039E0000CA8029069461348FEF708FF18B10022A0
:1039F0001146FCF74BFA6846FCF7ACFF17E00022D3
:103A00001146FCF743FA15B000BD0A480B300078A8
:103A1000FF28F8D0074869460B30FEF77DFD18B146
:103A200000221146FCF732FA6846FCF76BFE0028CC
:103A3000E5D1E8E7012800207FB504460088264D3F
:103A4000392816D011DC022821D0102815D01128D1
:103A50000AD10020FDF736FD18B100221146FCF70F
:103A600015FA4FF6FF7068807FBD512818D0552891
:103A7000FAD11321688876DF29E00720FDF722FDBF
:103A800018B100221146FCF701FAA088EBE70021EB
:103A9000688867DF1BE000221146FCF7F7F97FBD5D
:103AA000A1790029FBD0A07A042803D0062801D0F0
:103AB0000528F4D102290DD05FF001008DF8000037
:103AC0004FF4C170ADF8040069466888A8DF00288B
:103AD000E1D17FBD0220F1E7002800201FB50C785E
:103AE00000200123154A022C07D0052C03D0062CF8
:103AF00000D110701FBD13701FBD8DF800300290F3
:103B00000390107828B18888A0F52851333906D061
:103B10001FBDC8790128FBD188790128F8D1074851
:103B200069460C30FEF71CFE0828F1D00028EFD0C3
:103B300000221146FCF7AAF91FBD00000028002052
:103B400000B5138B85B0022B10D10368002B0DD06C
:103B5000927E12F0010F01D0022200E003228DF8C4
:103B600000200968019102686946904705B000BDD0
:103B700000B5036885B0002B0FD004238DF800300A
:103B8000126801928A8BADF80820CA8B2031ADF8FB
:103B90000A20039102686946904705B000BD000005
:103BA000F0B50E4604468D1DC988B0F86E0100229E
:103BB000012387B0814214D1298B204601290BD1E2
:103BC0000168002908D0A97E41B1012904D18DF8EE
:103BD0000430026801A9904707B0F0BD8DF80420B9
:103BE000F7E76089814210D1298B20460129F3D162
:103BF00001680029F0D0A97E29B10129ECD1062164
:103C00008DF80410E5E70521FAE7B4F8522142F6F1
:103C10002220914205D100221146FFF797FC009027
:103C200025E0B4F84E21914205D100221146FFF75C
:103C30008DFC00902BE0B4F8622142F633209142D3
:103C4000E9D0B4F85E219142EFD06F460022A07C0B
:103C500015E000BF02EB820304EB43031B8B8B4296
:103C60000BD1012142F64D20FFF770FC38602A4647
:103C700069462046FFF764FFAEE7521CD2B290427D
:103C8000E8D83A46204600F013FC0028A4D06A4643
:103C900031462046FFF76CFF9EE77FB50646087C5D
:103CA0000D4638B3686928B3002420E0686900EB4A
:103CB000C403002003909DF80C001A1D40F00E0074
:103CC0008DF80C00D97904EB840001F0010106EBBA
:103CD0004000CDE900217A30029033F8022B03A98D
:103CE000304600F0ADFA002805D1641CE4B2287C0F
:103CF000A042DBD8002004B070BD0021425C0AB1B4
:103D000001207047491C0629F8D3002070470000A5
:103D100070B50546C0EBC5010B4800EB81040020DF
:103D2000C4F81100A4F8150020461021FBF7D9FBB8
:103D3000FF202074A0764FF6FF7020832846BDE850
:103D4000704000F02FBF000090300020044908446C
:103D500090F93400082801DB0120704700207047EB
:103D6000D03100200449084490F93400082801D2D9
:103D70000120704700207047D031002070B50D0041
:103D8000044604D1002211461046FCF77FF824B9FE
:103D9000002211461046FCF779F8287820706988CF
:103DA0006170090AA170A988E170090A2171E88887
:103DB0006071000AA07170BDF0B58FB00F46064665
:103DC0001C216846FBF78DFB00249DF8000003943E
:103DD00040F006008DF80000012501948DF8365062
:103DE00042F64E20049405940694ADF834000C94E9
:103DF00038788DF8300078788DF831009DF83200F1
:103E0000142120F00600801C20F019008DF83200EB
:103E100007A8FBF766FB0DA807900CA88DF8385093
:103E20000890ADF824500EA8ADF82640ADF8285003
:103E30000B90308906F10A0307AA6946A2DF0FB08A
:103E4000F0BD000006490979490701D408207047F0
:103E500020B1044949780160002070470E20704766
:103E6000642900204032002030B5104B1B795B07DD
:103E700001D4082030BD18B112B104687CB901E04A
:103E80000E2030BD0A4B1D684DB140681D8901FBF5
:103E9000050059685B8903FB0511814201D80720A1
:103EA00030BDC2E90040002030BD00006429002080
:103EB0000C330020F8B5054621480E46007940072E
:103EC00001D40820F8BD15B1286870BB01E00E20B0
:103ED000F8BD1C4C0027206838B3618922896068CE
:103EE00001FB0201686881421FD9FFF74BF970B1ED
:103EF000D5E9000200EB400004EB80004368018933
:103F0000D41AB4FBF1FC01FB1C4474B901E010208D
:103F1000F8BDB6FBF1F401FB146434B92EB140894D
:103F2000324400FB0130824201D90720F8BD3346FC
:103F30000022294603200097FDF77AFDF8BD000016
:103F4000642900200C3300204FF0805040697047F6
:103F50004FF08050006980B27047000070B5104883
:103F600000242546047044702846FDF751FD6D1C61
:103F70000A2DF9D30B4D6C80FFF7E6FF861EFFF785
:103F8000E7FF46430648AE60CC306C6104600481B4
:103F900044812C70AC610420EC616860002070BD2D
:103FA00040320020642900202DE9F8438046234850
:103FB0001F46164600790D46400702D40820BDE88A
:103FC000F8832DB1B8F1000F02D0286898B901E04C
:103FD0000E20F4E71A4C206868B162892089616874
:103FE00002FB00116A68914205D926B1B04202D3A2
:103FF000F119814201D90720E1E74046FFF7C2F8F5
:10400000D0B13846FFF7BEF8B0B16868FFF7BAF82C
:1040100090B168683246C1194046FBF749FA0096EC
:104020002868002200EB4000434654F8204002215B
:104030002846A0470020C2E71020C0E764290020DE
:104040000C3300202DE9F041294D04460E46287915
:10405000400702D40820BDE8F081ECB1E6B1206849
:10406000D0B1FFF775FF0146A088814212D3102816
:1040700010D3E08870B1FFF767FF471EFFF768FFB6
:104080004743E288A188A86802FB0102974201D356
:10409000890703D00720DEE70E20DCE769880129C5
:1040A00023D0C6E90010134A01EB410302EB830160
:1040B0004860206842F82300A0880881E088488191
:1040C000FFF746FF0146A088E2885043401E90FB60
:1040D000F1F4641CFFF73CFFA96804FB0010A86022
:1040E0006888401C68800020B5E70420B3E7000022
:1040F000642900200C330020F8B504461C481E46F5
:10410000154600790F46400701D40820F8BD1FB1BD
:1041100014B1206898B901E00E20F8BD1548016877
:1041200069B142894168008902FB001162689142CD
:1041300005D925B1A84202D3A919814201D9072086
:10414000F8BD3846FFF71EF878B13046FFF71AF889
:1041500058B16068FFF716F838B12B463A46214649
:1041600001200096FDF764FCF8BD1020F8BD0000AA
:10417000642900200C3300201049024608780028EA
:104180001AD0042818D0022A14D0032A14D10A798C
:1041900012070FD48A69521C8A61B2F57A7F06D061
:1041A000022801D000F090BA487800F0D7BB0D206B
:1041B000FBF798BEFEF7D0BB7047000064290020D3
:1041C000F8B504461C481E46154600790F464007C0
:1041D00001D40820F8BD1FB114B1206898B901E0DE
:1041E0000E20F8BD1548016869B14289416800890F
:1041F00002FB00116268914205D925B1A84202D3A1
:10420000A919814201D90720F8BD3846FEF7BAFF47
:1042100078B13046FEF7B6FF58B16068FEF7B2FFDE
:1042200038B12B463A46214604200096FDF700FCA3
:10423000F8BD1020F8BD0000642900200C330020D8
:104240002DE9FF4F91B08346DDE91E580878209E86
:1042500092460F46C0064FF0000414D50D949DF809
:10426000340020F00F00401C20F0F00010308DF8DA
:10427000340028788DF835009DF8360020F00600CF
:10428000801C8DF836001C2105A8FBF72AF9387828
:104290008DF814000694089409943878C00601D566
:1042A0000DA800E00020CDE90A0401278DF83A703E
:1042B00042F64D20ADF838000C9468788DF8300047
:1042C000A8788DF831009DF83200142120F0060006
:1042D000801C68F3C30020F0100040F001008DF84E
:1042E00032006846FBF7FDF80DF138080DF1300992
:1042F000ADF80840CDE90089ADF80A40ADF80CA052
:104300000494BBF8080033466A4605A9A2DF0028DA
:104310002CD18DF83A7042F60810ADF838000C94A4
:1043200068788DF83000A8788DF831009DF832005B
:10433000142120F00600801C20F019008DF83200B6
:104340006846FBF7CEF8CDE900890FA81499FCF771
:104350007CFEADF80800ADF80C000FA8ADF80A40DF
:104360000490308806F108026946A3DF15B0BDE865
:10437000F08F2DE9F04796B00D4606461C2106A8A1
:10438000FBF7AFF800249DF818000A9440F00200F3
:104390008DF818004FF0010807948DF83E8042F622
:1043A0004B2009940B940C94ADF83C000D9495F8B7
:1043B0002C008DF8340095F82D008DF835009DF80F
:1043C0003600142120F00600801C20F0180040F078
:1043D00001008DF836006846FBF783F80DF13C09C3
:1043E0000DF1340ACDE9009AA88CADF80800ADF8BB
:1043F0000A40A88CADF80C00286A0490308906F5B4
:10440000A2736A4606A9A2DF002807D195F8260004
:1044100008B1A86A08B1002744E0072016B0BDE83B
:10442000F0878DF83E8042F60710ADF83C000D9401
:104430009DF8340010AA20F00F00401C20F0F0007E
:1044400020308DF834009DF835000EA920F0FF00D3
:104450008DF835009DF8360020F00600801C20F015
:1044600019008DF83600A86A00EB870065DF002888
:10447000D4D114216846FBF734F89DF83800ADF824
:104480000800CDE9009AADF80C0010A8ADF80A407C
:104490000490B6F8440106F5A6726946A3DF002829
:1044A000BCD17F1C95F82600B842BADC0020B5E7E5
:1044B00070B51446002242F64D25837C0BE000BF08
:1044C00002EB820600EB4606B68A8E4201D101213C
:1044D00023E0521CD2B29342F2D8002290F87830F6
:1044E0000CE000BF02EB820600EB4606B6F87A60ED
:1044F0008E4201D1022110E0521CD2B29342F1D877
:10450000002290F8DE3010E002EB820600EB460657
:10451000B6F8E0608E4206D103212846FFF716F870
:104520002060012070BD521CD2B29342ECD8002012
:1045300070BD000070B5012670044FF0E021002529
:10454000C1F88001084C4010C4F84803C4F80803BF
:1045500066602F20FAF75EFFA660044C2F2065618D
:10456000FAF758FF257170BD00100140B0290020F6
:1045700006480021C0F80811D0F818150448037D3A
:10458000C268D154017D491C01757047002000406C
:10459000283200201FB501218DF8080005488DF84C
:1045A0000010C16801910021C174D0E90012684671
:1045B00090471FBD283200200A7B1AB1496801606C
:1045C000002102E00968016001210171704710B506
:1045D00004798B68026844B149688C1A9C4201D9FD
:1045E000D11807E00160002108E00968541A9C42D4
:1045F00002D9D11A016002E0016001210171006855
:1046000010BD00002DE9F0410746806A1446884637
:10461000C8B3002531E000BFB96A05EB450001EBE6
:104620008006B088801CFE2802D90C20BDE8F081ED
:104630002288401C08F8020020881622401C80B204
:10464000208008F800202088401C80B2208000EBE9
:104650000801308800F0A0FA2188084480B2208048
:10466000B28842B1B16871B14044FAF721FF2088A5
:10467000B188084420806D1CEDB297F82C00A84248
:10468000CAD80020D2E7FFE70720CFE70022114673
:10469000FBF7FCBB10B50020FCF714FF18B100229B
:1046A0001146FBF7F3FBFCF737FE18B10022114669
:1046B000FBF7ECFB3CDF002805D00022BDE81040F2
:1046C0001146FBF7E3BB10BD0C49087040B101284F
:1046D0000FD002280FD003280FD14869FEF782B906
:1046E00000208861C86106484078002805D0FDF7A1
:1046F00075B900F0EFB800F04BB87047642900209E
:104700004032002010B508461146AFF3008010BDBE
:1047100018B10349C860002070470E2070470000A0
:10472000D429002010B521B1002211461046FBF714
:10473000ADFBBDE81040FEF7B9BC00000021024A05
:104740000846FBF703BC00002547020070B509B11D
:104750008C0701D0072070BD064C0125A160628046
:104760000549636010DF0028F5D1257016202EDF83
:1047700070BD0000D42900200547020018B103498C
:104780000861002070470E2070470000D4290020E7
:104790002DE9F041164C606820F00100606015487A
:1047A000017801EB810100EB81063569FFF7D0FB51
:1047B000B5FBF0F76761FFF7CBFBF1886D1E29446D
:1047C000B1FBF0F08742606802D140F0020001E0E6
:1047D00020F0020060602079E16800F002000843E8
:1047E00004D00020BDE8F04100F0B8B80220F9E79D
:1047F000642900204032002001484069FEF7F2B8E9
:104800006429002010B5FFF79FFB441EFFF7A0FBB3
:104810004443FFF79DFB05494A69521E5043CA684D
:104820002146BDE81040FEF7E0B8000064290020F2
:104830002DE9F0411048017801EB810100EB810482
:104840002569FFF785FBE188228911442944B1FBE2
:10485000F0F200FB1216FFF777FB471EFFF778FB1D
:1048600007FB0061E08822891044044A2844126949
:10487000BDE8F041FEF7B9B84032002064290020BD
:1048800010B5FFF761FB441EFFF762FB4443FFF7DF
:104890005FFBB4FBF0F0BDE81040FEF7A3B80000EA
:1048A00070B5FFF755FB8608FFF752FB07494969CA
:1048B00000FB01F4FFF748FB451EFFF749FB684387
:1048C00032462146BDE87040FEF78FB864290020CB
:1048D0000020704770B51448017801EB810100EBAE
:1048E0008104241DFFF734FB6188104E884211D2E9
:1048F000FFF72EFB61880D1AFFF72AFB8208A188BB
:10490000E0680844216928442944FEF76EF8FFF75F
:104910001FFB07E0A288E06810448A082169FEF7BF
:1049200064F86088F06170BD403200206429002086
:1049300004480079000702D4012000F00FB800F00D
:1049400003B80000642900200348416821F00801F1
:104950004160407800F002B86429002002494870A4
:10496000024951F82000004764290020E44D02006C
:1049700010B50446FFF700FC2046BDE81040FBF7E9
:10498000A7BE70B50C00054604D1002211461046A2
:10499000FBF77CFA25B9002211461046FBF776FAA0
:1049A000207828702088000A68702068000CA870A1
:1049B0002068000EE87020792871207A68712089BB
:1049C000000AA871A068000CE87170BD0348007966
:1049D000000701D4FCF7F2BFFFF7B6BF642900203F
:1049E000F0B5194C00EBC001A36803EB8105216908
:1049F0004A1C0AD001EBC10603EB86076A687E6891
:104A0000B24204D8B21A7A6029622061F0BD0C4625
:104A100002E00C46316AD21B4E1C0DD001EBC107DF
:104A200003EB870677689742F3D301EBC10603EBEC
:104A300086067768BF1A77606A60296204EBC40152
:104A400003EB81010862F0BDB029002070B51C4B5A
:104A50001A699C681546114607E0814208D00A464B
:104A600001EBC20604EB8601096A4E1CF5D170BD4C
:104A7000002EFCD08A420DD105EBC50004EB80006E
:104A8000006A1861401C05D10E4D0120A860002568
:104A90005D61587101EBC10004EB800002EBC202C2
:104AA000416804EB8202006A1062421CDFD000EB16
:104AB000C00004EB800042681144416070BD0000FA
:104AC000B0290020001001402DE9F0411E4C25695D
:104AD000681C37D01D48002601686069081A20F05C
:104AE0007F4718E0A16805EBC50001EB8002506824
:104AF000B84212D8156AA3693F1A064443B1D2E9F5
:104B00000601984738B100221146FBF7BFF902E0D1
:104B1000D2E906108847681CE4D1A178E078814288
:104B200006D1401CC0B2E070022801D10020E07024
:104B30000548E1781C3040F82160BDE8F0411420C0
:104B4000FAF7CCBDBDE8F081B02900200415014082
:104B5000064A0020C2F81C010548038A8168C95C26
:104B6000038A5B1C0382C2F81C15704700200040BA
:104B7000283200201FB500218DF8080005488DF867
:104B80000010826801928174D0E900126846904753
:104B90001FBD0000283200200870000A4870022063
:104BA0007047000001218140024842688A43426008
:104BB000704700004C29002038B515494888A0F5F9
:104BC0007F42FF3A23D04A78124C521CD2B24A702C
:104BD000237B93420AD3083175DF002817D0A169DF
:104BE000002914D001B0BDE83040084700254D70C1
:104BF000217C29B13B2176DF10B1A16901B1884741
:104C00006169002903D08DF800506846884738BD97
:104C1000E8280020743000200F480068C005C00D4F
:104C200013D0103840B2002806DA00F00F0000F16F
:104C3000E02090F8140D03E000F1E02090F800046B
:104C40004009012803D0032803D002207047002028
:104C5000704701207047000004ED00E0427883783F
:104C6000521C934200D100220378934201D10020CC
:104C700070470A604168407800EB400001EBC000DB
:104C800070472DE9FC411646DDE90854CDE9005492
:104C90001F468046022200F00CF8002807D1CDE91B
:104CA00000543B4610223146404600F002F8BDE871
:104CB000FC812DE9FC5F0026DDE90C4B994692460C
:104CC0008E4680462788354630E0D8F8040000221A
:104CD00000EB850069460068019001A865DF0028A7
:104CE00030D19DF8000050451FD10EB1002100E0E9
:104CF0000221228808441118594522D846B9521C6D
:104D000090B2208009F800E02088401C2080012615
:104D1000218801A801EB0902694665DF002811D14D
:104D200020889DF80010084420806D1CB8F8000011
:104D3000A842CADC56B12088C01B401E80B2FF28A2
:104D400002D90C20BDE8FC9F09F807000020F9E714
:104D5000017911B9007B002800D0012070470000C4
:104D60000101000000000000000000000100000040
:104D7000280000001E00000001000000800C000060
:104D8000B40000000D0000000E0000000F00000045
:104D9000100000000D0003002D1302000E000300A0
:104DA0002D1302000F0003002D130200100003005A
