:020000040001F9
:10F00000485100208DF4010095F4010097F40100AF
:10F0100099F401009BF401009DF401000000000040
:10F020000000000000000000000000009FF401004C
:10F030000000000000000000A1F40100A3F40100A2
:10F04000A5F40100A5F4010071F80100A5F4010088
:10F05000A5F40100A5F4010039F50100A5F40100B3
:10F06000A5F40100A5F40100A5F40100A5F4010038
:10F07000A5F40100A5F40100A5F40100A5F4010028
:10F08000A5F40100B1F60100A5F40100A5F401000A
:10F09000D5F60100A5F4010029F70100A5F401004F
:10F0A000A5F40100A5F40100A5F40100A5F40100F8
:10F0B000A5F40100A5F4010000000000000000001C
:10F0C000A5F40100A5F40100A5F40100A5F40100D8
:10F0D000A5F40100A5F401000000000000000000FC
:10F0E0000000000000000000000000000000000020
:10F0F0000000000000000000000000000000000010
:10F1000000000000000000000000000000000000FF
:10F1100000000000000000000000000000000000EF
:10F40000DFF80CD000F086F8004800473D1F0200EE
:10F4100048510020401E00BF00BF00BF00BF00BF1A
:10F4200000BF00BF00BF00BF00BF00BF00BF00BFE4
:10F4300000BF00BF00BF00BF00BF00BF00BF00BFD4
:10F4400000BF00BF00BF00BF00BF00BF00BF00BFC4
:10F4500000BF00BF00BF00BF00BF00BF00BF00BFB4
:10F4600000BF00BF00BF00BF00BF00BF00BF00BFA4
:10F4700000BF00BF00BF00BF00BF00BF00BF00BF94
:10F4800000BF00BF00BFC5D17047000006488047DD
:10F4900006480047FEE7FEE7FEE7FEE7FEE7FEE779
:10F4A000FEE7FEE7FEE7000051F7010001F401006E
:10F4B00040EA01039B0703D009E008C9121F08C0F6
:10F4C000042AFAD203E011F8013B00F8013B521E76
:10F4D000F9D27047D2B201E000F8012B491EFBD2ED
:10F4E00070470022F6E710B513460A46044619464F
:10F4F000FFF7F0FF204610BD30B50446002003465C
:10F5000000E05B1C934203D2E05CCD5C401BF8D072
:10F5100030BD0000064C074D06E0E06840F00103F6
:10F5200094E8070098471034AC42F6D3FFF76CFF1D
:10F53000B8370200D83702002DE9F05F0025012717
:10F54000DFF8FCA0A8464FF480762C46B94630463A
:10F5500003F01EF848B1DAF8041309FA04F0014286
:10F5600003D0304603F00AF83D43361D7F00641C8B
:10F57000B6B2082CEBD34FF4BE74204603F008F863
:10F5800038B1204602F0FAFF2E4845F00045D0F889
:10F5900000802D4E280715D0012700242F420DD0C2
:10F5A0000AEB8401D1F81005D1F81015C0F304203E
:10F5B00006EB8402C1F30141526890477F00641C4E
:10F5C000082CEBD3002D36DA0024CB46B2460AEBEA
:10F5D0000400574690F8540020F0C0054FEA9019F7
:10F5E0000BFA05F6284603F089F908B3284601F01E
:10F5F000A1F907EB80004768D7B1A80000F1A0404F
:10F60000D0F8000716EA080FC0F3014002D0022824
:10F6100002D00DE003280BD1B9F1030F05D1022868
:10F620000BD00221284602F09AFF49462846B847E7
:10F63000641C042CCBD3BDE8F09F0321F2E700004B
:10F6400000600040100500500030002000F01F0254
:10F65000012191404009800000F1E020C0F88012B3
:10F66000704700F01F02012191404009800000F125
:10F67000E020C0F80011704700F01F020121914006
:10F680004009800000F1E020C0F8001270474907EF
:10F69000090E002806DA00F00F0000F1E02080F8E3
:10F6A000141D704700F1E02080F80014704700003E
:10F6B00007480021C0F84011C0F84411C0F84811B3
:10F6C000C0F84C11C0F80011C0F8041103F038BEA6
:10F6D000001001402DE9F04186B04FF0FF30114D90
:10F6E00002906846D5E9046802F0DAF8074602F0AD
:10F6F00051FB044647B102AA4146009802F0F0F8D7
:10F70000029802F099FB04E0029802F095FB00B920
:10F7100014B1304601F038FA0020687106B0BDE837
:10F72000F0810000B4280020084810B5406840B1BE
:10F730008047002809D00022BDE81040114600F0A3
:10F7400067BABDE8104002F091BA10BDDC28002075
:10F7500070B53F483E490024091D00780A1D131D5D
:10F76000012506280BD10E78360708D11678C6F386
:10F770000316032E03D11E7816F0F00F02D00628D0
:10F7800006D011E03348016821F0807101600EE07D
:10F790000E78360708D11678C6F30316032E03D168
:10F7A0001E7816F0F00F02D0062804D015E02A4982
:10F7B000032008600BE0087800070ED11078C0F332
:10F7C0000310032809D1187810F0F00F05D14FF07D
:10F7D0008040C0F80C41C0F810411E4874380168E0
:10F7E00041F470010160BFF34F8FBFF36F8F4FF093
:10F7F0001021D1F80002002803DBD1F80002002814
:10F8000021DA164A156016480368002BFCD0152330
:10F81000C1F800320568002DFCD0C1F8043201683F
:10F820000029FCD0146001680029FCD0BFF34F8F81
:10F830000848F03801680B4A01F4E06111430160A7
:10F84000BFF34F8FFEE709490748086070BD00000D
:10F85000E00F00F0FCED00E0A005004004E50140F1
:10F8600000E401400400FA050090D003F0280020D5
:10F870002DE9FF47584C0026584DE07D4FF0020916
:10F8800000284FF492714FF4A27A284649D002F032
:10F890008CFEA0B1C5F824618DF80090D5F88004E5
:10F8A000C5F880040390D5F83C058DF80800E068A1
:10F8B0000190E674D4E90012684690470FE04FF4D7
:10F8C0008871284602F071FE48B1C5F81061D5F87C
:10F8D0003C05E17CC0B2814201D103F0E1FA51461E
:10F8E000284602F062FE40B1C5F84461E07C20B1D8
:10F8F000D5F83C05C0B203F0D3FA4FF49071284616
:10F9000002F053FE002865D0C5F82061A07C0028D5
:10F9100060D0D5F84C0504B0C0B2BDE8F04703F0A4
:10F92000FDBD02F03DFE4FF401780127C0B1C5F8DE
:10F930002461C5F80883607D00B96F608DF8009080
:10F94000D5F88004C5F880040390E07C8DF80800A9
:10F95000E0680190E674D4E900126846904713E02D
:10F960004FF48471284602F01BFE68B103F018FAC8
:10F97000E07C217D884207D1607D00B96F60C5F8C9
:10F980000883207D03F08CFA4FF48E71284602F034
:10F9900007FE58B1A07C218A884202D903F05CFDA1
:10F9A00004E0C5F81C6108B103F0B8FD51462846D3
:10F9B00002F0F6FD00280DD0C5F84461607D00B16D
:10F9C0002F60E07C002805D0207D04B0BDE8F04722
:10F9D00003F066BABDE8FF875830002000200040E1
:10F9E0000FB4054B10B503A9044A029800F017F8AC
:10F9F00010BC5DF814FB0000F5190200D8280020A7
:10FA000002E008C8121F08C1002AFAD170477047E7
:10FA1000002001E001C1121F002AFBD170472DE92F
:10FA2000F84F9946924688460546002706E0252865
:10FA30000AD051464A4690476D1C7F1C2878002802
:10FA4000F5D13846BDE8F88F002315F8011F184698
:10FA50002E2915D115F8011F04232A290DD06FF086
:10FA60002F022978A1F13004092C09D800EB80007D
:10FA700002EB400008446D1CF3E758F8040B6D1CC2
:10FA80002A78002ADDD0632A07D0732A0FD01046C7
:10FA900051464A4690477F1C2AE018F8042B8DF8FF
:10FAA000002000218DF801106E46012103E058F876
:10FAB000046B4FF0FF315A074FF0000401D409E006
:10FAC000641C84420BDA8C42FADB325D002AF7D1E7
:10FAD00005E0641C8C42FCDB305D0028F9D1274432
:10FAE00004E016F8010B51464A469047641EF8D2CE
:10FAF0006D1CA3E770B500238D880C680DE0E61837
:10FB0000E15C7678864206D1E018801C491E1060C0
:10FB10009180002070BD0B445B1C9D42EFD80520F6
:10FB200070BD10B501220221002000F03FFD08B198
:10FB3000072810D107220221012000F037FD08B16B
:10FB4000072808D100210A22084600F02FFD08B13D
:10FB5000072800D1002010BD064800684FF400219E
:10FB6000044A8143121D1160111D00F40020086039
:10FB7000704700000405005070B50024064D06E0F3
:10FB80006868012110F8340002F08AFA641C2878B1
:10FB90008442F5D3002070BD9C280020F8B515469E
:10FBA0000C460646052A01D20720F8BD02F050FB9C
:10FBB00018B902F025FB0028F7D1114900204E604A
:10FBC0000C7008618D6048610E4D0DE006EBC400BD
:10FBD0002968009181788DF8011000780A4A6946F9
:10FBE00002F0A8FA0028E0D1641EE4B2EED2BDE82B
:10FBF000F84003480021054A0C3000F079B80000B5
:10FC00009C280020B4370200451B0200850D02002D
:10FC1000BFF34F8F04480168044A01F4E0611143C7
:10FC20000160BFF34F8FFEE70CED00E00400FA0522
:10FC3000014B1B6818470000BC2F00208268C36876
:10FC400093420AD0826883881A4003689A5C0A70DB
:10FC50008168491C8160002070470520704729B1E8
:10FC600012B1531E134203D0092070470E20704773
:10FC70000160838000218160C1600846704782680E
:10FC8000C3689B1A8288934208D8C36813400268ED
:10FC9000D154C168491CC1600020704704207047DE
:10FCA00038B50C46074BA268097802EB420253F8BC
:10FCB0002250054A126A0092024604F108002369A4
:10FCC000A84738BD3C31002078280020074910B5EE
:10FCD0000A7802EB820201EB8201091DFFF7E0FFC7
:10FCE000BDE81040042003F057B900007030002038
:10FCF00070B5114DAC6824B12AB120B100232D7824
:10FD00000AE0082070BD072070BD00BF03EBC306EA
:10FD100014F8266026B15B1CAB42F7DB042070BDF3
:10FD200003EBC305012604F8256004EB850461702C
:10FD3000A2610360002070BDB42800202DE9F047C7
:10FD40008146089C1D461746884698074FF00006D6
:10FD50000AD14DB103F006F82046244CA06184F886
:10FD600000800020A5600BE00720BDE8F08700BF01
:10FD700000EBC001401C05F8216005EB81010E7508
:10FD80004045F5DB08EBC80005EB800103206070FF
:10FD900001F11800002207EB4705E16001EBC20307
:10FDA000521C1E705E709F70586000EBC500032AE5
:10FDB000F4DB4FF0FF302061A670E6701420FFF7EF
:10FDC00045FC03211420FFF762FC1420FFF749FCD7
:10FDD0000749C1F8009003211120FFF758FC04489F
:10FDE000001F006860610020BFE70000B428002009
:10FDF000081501402DE9F84304461F480D461746F3
:10FE0000816869B10278944201D2052D02D207209F
:10FE1000BDE8F88304EBC40211F82230012B01D0B5
:10FE20000820F5E7814601EB8200407801281FD0C9
:10FE30005FF0000603F008FCD9F80C10804601EBD7
:10FE4000C800694603F022FCA0B1012100F8041BA0
:10FE50000A4910C0096880E8E200D9F80C1000983F
:10FE600001EBC80148701420FFF706FC0020CFE723
:10FE70002E46DFE70420CBE7B4280020041501401C
:10FE8000F8B5154C0546A06850B121788D4201D3D4
:10FE90000720F8BD05EBC50110F82100012801D0AD
:10FEA0000820F8BD03F0D0FB0646E068694600EB89
:10FEB000C60003F0EBFB60B1022101704560E06811
:10FEC00000EBC601009848701420FFF7D5FB002016
:10FED000F8BD0420F8BD0000B42800200146014808
:10FEE000FFF7ACBEE02F002070B50446214888B073
:10FEF0001E460D0042603AD0A888296882B21E488A
:10FF0000FFF7ADFE002830D1A889A96882B21A484F
:10FF10001030FFF7A4FE002827D120221749684699
:10FF2000FFF7C6FAA0680690207900B101208DF88D
:10FF300014008DF81C60607900B10E208DF815005A
:10FF4000E0780290A078039020780190607800908B
:10FF50000B49684602F084F9002806D102F04AFAFB
:10FF600004480121801C02F0B3F908B070BD0720DD
:10FF7000FBE7000070280020E02F00204C37020033
:10FF8000A535020010B50446074801214470401C05
:10FF900002F03CFA112805D12146BDE81040034883
:10FFA000FFF76DBE10BD000070280020F02F00206C
:10FFB0002DE9F0410446006802F0C7FA2078174F97
:10FFC000012606FA00F038600021606802F0B4FAF9
:10FFD0001348144DC07DA069C5F82405607D217DBE
:10FFE0000843C5F86C05D4E90001C5F80C05C5F84F
:10FFF0001415207D01280FD1E06802F0A6FA207BBD
:020000040002F8
:1000000086403E600021A06802F096FAD4E9020121
:10001000C5F80815C5F81005BDE8F08108050050C1
:10002000583000200020004008B5002817D00029D3
:1000300015D00A88102A13D0352A14D0372A20D098
:10004000382A0CD18A8983889A4208D101228DF8F6
:100050000020897C8DF8011082686946904708BDB0
:100060008988018008BD31F80C2F83889A4208D115
:1000700002228DF8002089798DF801108268694686
:100080009047BDE8084003F09FB9000004480021F4
:10009000012281600270C160416008467047000023
:1000A0004428002010B5040016D0002914D0284898
:1000B0000078002810D0088830281AD00DDC1028CD
:1000C00015D0112808D162212046FFF70AFA4FF611
:1000D000FF7000BFA4F85C0010BD322831D0332877
:1000E000FAD12046BDE81040091D02F04BBB8888BC
:1000F000F0E7C888091D40B10021204600F076FFD6
:100100002046BDE8104002F091BB94F86000C0EBBF
:10011000C00202EB001004EB4000D1F80A2002609C
:10012000D1F80E10C0F82A10204600F00BFC010098
:10013000D2D0002084F861002046BDE8104000F0D5
:1001400097BF2046BDE81040091D02F0A9BA000083
:100150004428002010B5040009D01148027842B1AB
:10016000826832B194F861202AB1112010BD0E20AE
:1001700010BD082010BD0022C260426084F86020DB
:100180000848A4F85C1022460068206088B201216B
:1001900090DF0028EED1012084F86100002010BD1E
:1001A00044280020A42D002010B5044600F090FF44
:1001B00021460A48FFF776FF08482146643000F0E0
:1001C00035F8064821467030FFF72EFF204600F034
:1001D00007F92046BDE8104002F0FEB9502C00207F
:1001E00070B5E8B10F4C0288438820680E4D00EBD3
:1001F0008001401C00F00700206005EB8101022017
:100200004B81C881081D086100248C81012008727F
:1002100008714C710A80887003F0FAF8204670BDAE
:100220000E2070BD54280020242E002008B5002880
:100230001BD0002919D00A88102A17D0372A1AD0C3
:10024000382A12D18A8983889A420ED102228DF8E7
:1002500000208A7CD30701F101020AD0B2F8121003
:10026000ADF8021082686946904708BD8988018010
:1002700008BDC97CF4E7BDE8084003F0C9B8000038
:1002800030B5174B0D4604000FCB85B08DE80F003D
:1002900023D015B34FF6FF70A0822868A06100201C
:1002A000A0752146684663DF002814D120788DF8B8
:1002B00012000120ADF81000A21C04A9A0DF002844
:1002C00009D12946204602F07DFD002803D12946A8
:1002D000204603F0D3F805B030BD0E20FBE7000048
:1002E0003C37020007B584B068B1828AA2F57F432B
:1002F000FF3B0AD0827D42B1BDF81820142A06D9EE
:10030000072007B000BD0E20FBE70820F9E7002218
:1003100000920192029203928289039106A90291AE
:10032000ADF8002001218DF80210808A6946A6DF11
:10033000E7E700001CB5002348221349082002F01B
:1003400059FE18B100221146FFF762FC0020009010
:1003500001908DF80000684660DF18B10022114658
:10036000FFF756FC094802F03BFE18B10022114687
:10037000FFF74EFC064802F055FE002803D000228D
:100380001146FFF745FC1CBD08290020A901020009
:10039000193202007CB5114E0C004FF000053060A0
:1003A00015D06946002000F0AFF8002815D101A94A
:1003B000012000F0A9F800280FD19DF8041009B120
:1003C000022003E09DF8001001B10B20207070683E
:1003D00010B9FFF7A6FB054628467CBD3028002053
:1003E00010B51A4C0188606810290ED011292BD144
:1003F000401E606028D1FFF794FB002824D02168BC
:10040000002921D0BDE810400847D0B900210122C1
:10041000084600F0CBF808B107280FD107220221C7
:10042000012000F0C3F808B1072807D104220221F7
:10043000002000F0BBF820B1072802D0216801B1EC
:1004400088476068401C606010BD000030280020B4
:1004500010B5032000F018FA08B1062800D10020DA
:1004600010BD00002DE9F04707460024234802E0B4
:10047000641C042C3FD250F82420BA42F8D1042C3A
:1004800039D2DFF87C90DFF87C80A9F11006F069A2
:1004900039B301290ED002292DD104EB4400404488
:1004A0004578002D27D0F168002924D02846BDE8E2
:1004B000F047084704EB440118F80150884498F8C5
:1004C000011049B171680E4A01EB810149000F3AF0
:1004D000FFF790FC00B9777098F8021009F8041043
:1004E000DFE7FFF7CDFC04EB4401414419F80400B9
:1004F0008D78A842D5D0BDE8F0870000C83602004C
:1005000020280020F82C002004280CD2074A12686A
:10051000074B13F8203001209840904300D0012071
:100520000870002070470020FAE700001005005016
:10053000C836020070B51C4C042814D007281FD000
:100540000A282DD1002000F053F818B100221146DE
:10055000FFF75EFBFFF77CFF18B100221146FFF7A3
:1005600057FB3CDF04E01321208976DF082817D0F1
:10057000002815D0BDE8704000221146FFF748BBA7
:100580006078012501280AD1A07840B9A57087DFDD
:1005900038B1082803D000221146FFF739FBA570B7
:1005A00070BD02F09BFCFAE70028002070B5002324
:1005B000042810D20D4D00EB4004012A02D101297C
:1005C0000CD00022094E00EB4000304461B10129FB
:1005D00006D0022906D00723184670BD0D30C2B2DE
:1005E0002A55F9E74270F7E78270F5E7F82C00200A
:1005F000044A01460020127AD20702D0084600F0D1
:1006000055B870471028002070B50E4621490546A0
:1006100000204E60C1E90252A9071BD50024012227
:1006200011462046FFF7C2FF641C042C02D20028AA
:10063000F5D00FE070B9720804211748FFF7AEFA41
:1006400040B9FFF799FA28B91248144A00211C3022
:10065000FFF74EFBE9070AD0114A4FF4F011116081
:100660000F4B00221B1D1A600D4A1032116000282A
:100670000FD108480B4A00211430FFF739FB00283E
:1006800007D1BDE8704003480121074A1830FFF741
:100690002FBB70BD10280020D8360200C50802000C
:1006A00008050050811D020059FB01002DE9F05F93
:1006B00007467448DFF8C8910022416809F1040434
:1006C000251DD0F814C04FF4A01A4FF400334FF496
:1006D000802B01EB810E1646182F12D2DFE807F0AF
:1006E0000C12123344536075778077808B8F8F8F15
:1006F0008F8FB1B9BFC5CBCB4FF4B01121602E6045
:100700000670A3E0C4F800A02E60D9F8002082F49F
:10071000F012920309D523602E60022F02D14FF40C
:10072000E16209E04FF47A6206E02B602660022F56
:1007300034D000BF4FF4C87207706420B2FBF0F0F1
:10074000414300223CE0C4F800A02E60D9F800200C
:1007500082F4F012920304D523602E604FF44872A5
:10076000EAE72B60266019E0C4F800A02E60D9F8F3
:10077000002082F4F012920302D523602E60D1E7AC
:100780002B602660D6E7C4F800A02E60D9F80020C0
:1007900082F4F0129203E4D523602E60C822CBE7E6
:1007A000C4F800A02E60D9F8002082F4F012920361
:1007B00002D523602E6001E02B602660077018E0F0
:1007C0006046FFF717FB024640E0514643E0D9F888
:1007D00000002BEA0002226000F48020286008E07C
:1007E000D9F800002BEA0001216000F48020286085
:1007F00071460022E4E74FF4F01028601FE08046C5
:100800008069FFF73DFB0246D7F111004FF4002746
:1008100000D012B127602E6018E001280ED9C8213F
:1008200010FB01F16420B1FBF0F1D8F80420D8F8F6
:10083000180051430022FFF7DDFA02462F602660C0
:1008400004E04FF4F01121602E6007701046BDE8FF
:10085000F09F4FF4E01121602E602B600EE04FF40A
:10086000D01121602E60594607E04FF4C01121607D
:100870002E60891001E04FF4F01129602660E4E752
:10088000040500501028002070B500210C4D0124F3
:1008900055F82120920002F1A042D2F8006704FA34
:1008A00001F3034000D0032326F4403646EA034315
:1008B000C2F80037491C0429EAD3002070BD0000AB
:1008C000C836020000780221FFF7CCBD05494FF081
:1008D000FF3201EB800308285A6002D3084480F8F5
:1008E0004C20704700300020F0B54FF0FF3512B1BA
:1008F0000023082601E008230C260D4C06E000BF6B
:1009000004EB83077F687F1C04D05B1CB342F7D3E2
:100910002846F0BD26185DB286F8345004EB8306F5
:10092000002A7160F4D1E11881F84C00F0E7000072
:10093000003000200249084490F93400704700005C
:100940000030002008B590F86010C1EBC10202EB46
:10095000011190F85F2000EB410142B1521ED2B26A
:1009600002EB420201EB8202D289521C00E04A8D66
:10097000ADF80020898DADF80210B0F85C00694632
:1009800092DF08BD2DE9F0413B48017801EB810180
:1009900000EB8104D4E9030600EB40013648241D36
:1009A000CC3000EB8100B0F808804589476802F040
:1009B00043F8B6FBF0F100FB116088B35FF0000074
:1009C00008FB05776188A288DFF8B08011448D1993
:1009D0000022C8F8102040B102F02EF86188884249
:1009E00021D0BD4201D1A088E8B1A06802281AD068
:1009F00002F022F8A18844463144B1FBF0F200FB3A
:100A000012108008C8F80C0002F016F8B5FBF0F1DF
:100A100000FB115078B10020BD4228D068B126E01B
:100A2000FFE70120CCE702F007F8B6FBF0F1032066
:100A3000C8F814101CE00120EEE7ADB2BEB201F020
:100A4000FBFFB6FBF0F701F0F7FFB5FBF0F08742D4
:100A500001D1701B09E001F0EFFF064601F0ECFF49
:100A6000B5FBF0F100FB1150301A80082061022024
:100A7000BDE8F04102F090BA7030002078280020E4
:100A80000648017801EB810100EB81000079042820
:100A900001D000F059B8012002F07EBA7030002079
:100AA0000A480B4A017801EB810100EB8100C18803
:100AB00011620079012805D0032801D0042804D14F
:100AC000FFF760BF012002F067BA70477030002066
:100AD0007828002000EB80020548002100EB82000E
:100AE00001220171C180C0E9032141610181704788
:100AF000703000202DE9F041114D069E6C780A2CD3
:100B00001BD02F783C440A2C00D30A3C04EB84040D
:100B100005EB840420716261D1E90001C4E903019D
:100B2000E38026816878401C68700648007808B920
:100B3000FFF7B6FF0020BDE8F0810420FBE70000CE
:100B4000703000207828002010B50E4C207800EB83
:100B5000800004EB80010020091DFFF7A1F8207838
:100B6000FFF7B8FF6078401E60702078401CC0B26C
:100B700020700A2801D100202070BDE8104000201C
:100B800002F00ABA703000202DE9F05F25480169B3
:100B90004A1C41D0826801EBC101DFF88CB002EB46
:100BA000810181464E68DBF8004047690079E11B0E
:100BB00021F07F45ED1CB0B9DFF870804FF4803034
:100BC000C8F84403C8F804031120FEF73FFD1120C4
:100BD000FEF747FD4FF0010AC8F800A02F20FEF7EE
:100BE00019FC89F804A0B54200D235460E49E8192F
:100BF0003C3120F07F400860DBF80010001B091B2F
:100C000021F07F4120F07F40C91C814208D9BDE816
:100C1000F05F1120FEF730BDBDE8F05F02F0A2B832
:100C2000BDE8F09FB42800200415014000100140E9
:100C300070B5094B044608209E7A00250E4208D064
:100C4000A4F57F40FF3802D01889A04202D10020CD
:100C5000156070BD052070BDB02F002000EB400274
:100C60000748012100EB820081724FF6FF7101817C
:100C7000FF21C172002101608180817170470000F5
:100C8000B02F002010B5134C207900071ED46069E6
:100C9000401C6061E06808B104200AE001F048F8F7
:100CA00008B1022005E0206960B16068C10704D086
:100CB0000320BDE8104002F0A5BA40F001006060DA
:100CC0000020F6E7BDE81040FFF7DABEBDE81040AF
:100CD00002F08EBA7828002006494868020707D437
:100CE000820702D540F001004860022002F08ABA73
:100CF00002F07EBA782800202DE9F843054690F8E6
:100D000060000F46C0EBC00101EB001005EB400690
:100D100095F85F40327904EB440006EB8001601CDB
:100D2000891D904227D16B460022284600F0DAFF49
:100D300020B310E0401EA04201D1002004E004EBEB
:100D4000440006EB80001230804602466B4628467F
:100D500000F0C8FF38B100203870B5F85C00694673
:100D600093DFBDE8F88395F85F004146401C641CA2
:100D700085F85F00E4B23079A042DBD801203870FA
:100D80000020EEE72DE9F04100260125144C22E079
:100D90006068626900EBC607387805FA00F1114215
:100DA00017D08A43626101F021FA0246387823693C
:100DB00005FA00F1194002FA00F3994209D1797855
:100DC000012901D0012100E0002151407A6802B1DF
:100DD0009047761CF6B220788642D9D3BDE8F081E0
:100DE0009C2800202DE9FC410E46044681786A4685
:100DF000254801F0ADFD002829D16078234F00EB94
:100E0000400007EB8000807A400622D4022E20D0DA
:100E1000012E20D01E4D1D49A078D03900EB400096
:100E200001EBC001002318226846A847A8B1022E92
:100E30000DD02078154900EB40000C3101EB80000B
:100E40001449807A51F82020214668469047BDE831
:100E5000FC81114DDFE7114DDDE7022EF7D0607800
:100E6000182300EB400007EB8000817A21F040015D
:100E70008172064960782839C0EBC00001EB80011F
:100E80001C226846A847D4E768280020B02F00201D
:100E900079310200FC360200A92C0200E12B02008D
:100EA00070B5064608780D46152856D009DC2C4C3E
:100EB00011280DD012282BD013283ED014284CD145
:100EC00040E0212843D0222841D0232845D13EE0CC
:100ED0000720FFF78DFB18B100221146FEF798FEA0
:100EE0006868018821813168C4F80A1001881D48AA
:100EF000FFF730F918B100221146FEF789FE20787D
:100F0000401C10F0FF00207027D101F0E7FF24E023
:100F100062211448FEF7E5FA0020FFF769FB18B1DB
:100F200000221146FEF774FE2078012801D101F05D
:100F3000D5FF2078401E20700FE009480A3000F0ED
:100F4000DFFB05E007486430FFF74AF900E0104690
:100F500018B100221146FEF75BFE002070BD0000B4
:100F600000280020502C00201FB58DF80C0001F047
:100F700069FD18B100221146FEF74AFE03A800F0F1
:100F800077FA18B100221146FEF742FE0020CDF894
:100F900005008DF809001348009002208DF8040028
:100FA0009DF80500694620F01C0040F003000C305D
:100FB00020F020008DF8050007208DF80600102095
:100FC0008DF807009DF8080040F003008DF8080038
:100FD000054800F06DFB002803D000221146FEF703
:100FE00017FE1FBDA10E0200062800202DE9F041CA
:100FF000054690F860008846C0EBC00101EB001088
:1010000005EB4007384601F08FFE060029D0164C4C
:101010006068022825D2B5F85C10144DC0EBC00002
:1010200005EBC003B8F1000F598008D0002105F886
:101030003010181D2E223946FEF73AFA02E002213E
:1010400005F830106068C0EBC00105EBC101401C21
:101050004E636060A168884203D1BDE8F04101F0B1
:1010600035BCBDE8F081000044280020B42D0020EC
:101070002DE9F041044690F860000D46C0EBC00138
:1010800001EB001004EB400001F04EFE010019D00E
:101090000D484268022A15D2B4F85C700B4CC2EBC2
:1010A000C20604EBC603521C5F80012704F83670A9
:1010B0005D60596342608068824203D1BDE8F041BF
:1010C00001F004BCBDE8F08144280020B42D0020CC
:1010D0002DE9F04F0646DD48002793B00078002840
:1010E00067D0DB4D2868002863D005A800F0B4F96C
:1010F00018B100221146FEF78BFD301D4FF000089D
:1011000003904FF0FF0B2A208DF816B0ADF81000B9
:101110008DF81480CDF81C80CD4C30880C3CC14635
:1011200010280FD0B08807AA0221FFF781FD48B927
:10113000079800EB400104EB8101C97A8DF8161085
:101140008DF815003188DFF808A31729AAF1DC0A09
:101150007DD031DC10293CD0112979D0132928D138
:10116000CDF8309007990AF1A802C1EBC10302EB58
:10117000830201EB4101CDF8389004EB8101CDF8F9
:1011800034900992C97A09AB01EB41020AEBC20122
:10119000CDE90A190022B08811467FDF002808D166
:1011A000079800EB400004EB8000817A41F00401D5
:1011B000817213B0BDE8F08FA648182974D01C299D
:1011C00073D05229F5D1A97A50F8211005A8884783
:1011D000EFE707AA01214FF6FF70FFF729FD00286E
:1011E000E7D10799022201EB410004EB80008272F3
:1011F00011228DF808208DF81510B188018156F85C
:10120000061F0160B1888180B179B34681710026E3
:1012100006EB46010AEBC100072259461030FEF7E3
:101220006BF918B1761C072EF2D3D6E007980FAAF7
:1012300000EB400004EB8000C672817A41F00801A7
:10124000817282488DF81660B1B2083001E048E042
:1012500018E001F07DFB002813D107981823C0EB9C
:10126000C0017B481C22343800EB81000FA901F03B
:101270000FFC7849A87A103951F8202005A90FA849
:101280009047AAE0079800EB400004EB8001887AC1
:1012900020F002008872010708D500060ED5002153
:1012A00005A8FFF79FFD09E05FE0A0E09DF81600AC
:1012B000FF2803D001F0ECFA8DF816B0079800EB88
:1012C000400004EB8000817A490704D5697A012740
:1012D00021F0010169721021817212208DF808003D
:1012E0007BE0687A20F001006872079800EB40020A
:1012F00004EB8200817A21F00403837214218DF8BB
:101300000810B179012709B1884666E0F1794907EB
:1013100063D59DF81610FF295FD043F00803837250
:10132000B37A9B0707D501EB41060AEBC603DE7DC6
:1013300026F00106DE75C37AFF2B4ED014F822206A
:10134000022A0DD001EB41020AEBC20102680A61D8
:1013500082888A8280798875C87D20F00200C875ED
:10136000012105A8FFF73EFD37E0B1790122B2EB7C
:10137000111F1FD101F00F0101291BD1079901EBAA
:10138000410304EB83018A7A160713D530481838D5
:1013900000EB83031620C3F80490A3F808908DF89F
:1013A000080042F060008872687A012740F002006D
:1013B000687212E0079901EB410104EB81018A7A1E
:1013C00042F080028A7215218DF80810A97A50F82F
:1013D000211005A888474FF00008424602A905A839
:1013E000FEF726FC9DF80800122802D00BE013201F
:1013F00074E7079800EB400104EB8101897A012929
:1014000001D0FFF72BFC002F3FF4E2AE687A800793
:101410007FF5DEAE06AA20214FF6FF70FFF708FC2D
:1014200020B1687A20F002006872C2E68DF804905C
:1014300006988DF8050000EB400004EB8000C07AB0
:101440008DF8060001A800F0DFFBB2E6602800205E
:10145000BC2F00201C37020030B1FF210170417009
:101460008170C1700020704748F20E007047000084
:101470002DE9FF41050033D0274800240460447261
:1014800084722046FFF7EAFB23487838002604667A
:1014900044668466304601F0FBF9761C072EF9D3CA
:1014A0005C20ADF804000720ADF806001B48009052
:1014B0001B49684601F03AFB00280ED1184E012066
:1014C000083E3070287870B1BDF80400BDF80610F1
:1014D000484381B2124801F061FA04B0BDE8F081DE
:1014E00048F20E00F9E70C4F0025DC3FA9B202AA32
:1014F0000B4801F02DFA48B905EB450007EBC00099
:101500000023182202A901F0C3FA08B13470E4E7FD
:101510006D1C072DEAD3E0E7BC2F00202515020043
:10152000682800202DE9FF4F80465E488FB01E4698
:1015300000681C9F8A46002875D05C2F73D86846C7
:10154000FFF78AFF18B100221146FEF761FB002465
:101550008DF800408DF80440CDE905762546A9B206
:101560000DAA514801F0F4F928B908220DA9404606
:10157000FDF7C2FFD8B16D1C072DF0D39DF8020016
:10158000FF2850D04FF020094FF0400B04ADBAF1C6
:10159000030F0FD0434B1827DC3BF11AB1FBF7F1D7
:1015A0000122072919D20295119959B110E08DF83D
:1015B0000250E3E75C2F02D08DF804B069E08DF8AB
:1015C000049066E038498240083949680A425DD093
:1015D00002F030F88DF8049048E032494FF01C08D2
:1015E0003439A6EB010CBCFBF8FCBCF1000F1BD09E
:1015F00001F11C03F11A0C27B1FBF7F703F10C0101
:101600003FB32A4A8DF804B0964242D0A1F1EC02D1
:1016100052F82020B24239D10295C97A884225D1A8
:101620008DF8014022E031E01E488DF804908DF8DD
:1016300001400C30CDE90A409DF80200029500EB14
:10164000400003EBC0000890079107A8CDE90570A2
:101650000CE030208DF801408DF804008DF8032057
:10166000887A800702D41C605C609C609DF804004E
:10167000BAF1020F12D040F0020000BF8DF8040052
:10168000029501A96846119AFEF7D2FA13B0BDE897
:10169000F08F9DF8040040F00300EFE740F00100F8
:1016A000ECE70000BC2F002068280020F83602007C
:1016B000114A10B512785AB148F20E0258B151B120
:1016C0000B6843B10D4A14683CB148F2040010BDE8
:1016D00048F2080010BD104610BD1360074BD1F84A
:1016E0000540783BDC674C7A83F880400979917239
:1016F00000210170084610BD60280020BC2F00208A
:10170000F8B53E4948F208020978002974D018B1AA
:101710000178002970D102E048F20E00F8BD384C83
:101720002168002968D0417861B9A4F10C03997A45
:10173000012907D089075FD519468278C97AFF2A1F
:1017400005D102E048F21000F8BDFF2907D02C4A6D
:101750008170343A02F11201188981DF4BE0284D83
:1017600000216E4648F24302B5F1DC0501EB41076A
:1017700005EBC707FF7DFF2F03D0491C0729F5D3D1
:101780003AE01A78022A01EB410205EBC20208D0C6
:10179000FD25D5751F6817619F8897829D7995757E
:1017A00001E0FE25D575317045789DF8001005EBF8
:1017B000450503EB85050022E9728170017801EB94
:1017C000410104EB8101497AC90712D0417801EB4C
:1017D000410103EB81018B7A43F020038B72007887
:1017E00000EB400004EB8000417A41F002014172BD
:1017F00002E000F009FA02461046F8BD6028002019
:10180000BC2F0020F0B5244A137848F2080233B305
:10181000931D38B131B10C6824B18C6814B10078D3
:10182000E8B901E01846F0BD1C480068B8B10023D3
:101830001A4C1A460C3C1846A4F1D005E67A8642AA
:1018400002D1A67AB6071FD40E7B96420DD900EBC3
:10185000400605EBC606F77DFF0702D005E01046FF
:10186000F0BD8F6847F82260521C0E799E420BD95A
:1018700000EB400605EBC606F77DBF0704D40F68F2
:10188000103647F823605B1C401C0728D6D30B7129
:101890000A730020F0BD000060280020BC2F00204B
:1018A0000E4910B58A78CC780023A24212D0521C7F
:1018B000D2B28A70022A00D18B70084A8B781C320F
:1018C00052F8232002604869104420F07F404861AC
:1018D000012010BD0360002010BD0000B4280020CE
:1018E0002DE9F043154E89460024B768336920E09E
:1018F00003EBC30107EB81014D68854202D9281A29
:10190000486018E0401B2C4400254D600D751D46B5
:10191000D1F810C00B6ABCF1000F0AD009EB040823
:1019200028F07F48C1E9028CD2F800C0C1F820C07D
:101930001560591CDCD13361BDE8F083B428002068
:10194000002808D0112801D0FEF7C0B9024841682C
:1019500041F00801416070477828002010B51F4C05
:10196000204621784068012910D002292DD0032972
:1019700032D1000725D46069401C606100F0D8F9BD
:10198000D8B12078BDE8104001F006BB000718D49C
:101990001348A28B017801EB810100EB8100C18823
:1019A000891A0904090CC18003D0BDE8104001F078
:1019B000E5BBBDE81040FFF7C7B8BDE81040FFF732
:1019C0005FB8BDE8104000F03FBB0648617850F8B2
:1019D0002100BDE81040004710BD0000782800201D
:1019E00070300020A037020028DFFFF7A9BF29DFF1
:1019F000FFF7A6BF10B50446C0B2FEF7C3FA2046F3
:101A000010BD002070470020704700207047000084
:101A10002DE9F04140780F4C00EB4003002154F8D1
:101A2000235004F10C000A4600EB830045B1867A8E
:101A3000370605D5760603D404EB8301AAB2091D47
:101A400000890323A9DF002801D048F24100BDE846
:101A5000F0810000A42F002070B50D460146687883
:101A60000A4C00EB400004EB800034230C2201F010
:101A70000FF8002808D1697801EB410154F82120C2
:101A8000521C01D144F8212070BD0000A42F002079
:101A9000FEB507460620ADF808004878234E00EB57
:101AA000400006EB80000D460089032302AA694628
:101AB000AADF08BB6878A6F10C0400EB400004EB39
:101AC0008000BDF808206946001DFDF715FD0028BF
:101AD000687800EB400004D054F8201069B1144E2F
:101AE0000CE006EB8001897A89071DD404EB8000A5
:101AF000002101604160816016E00E4EBDF80820B3
:101B000044F820206878694600EB400004EB800030
:101B1000001DFDF7CDFC6878342300EB400004EB9A
:101B200080010C223846B0470020FEBDB02F0020B7
:101B3000A92C0200E12B0200FFF76ABFFFF78CBF60
:101B4000FFF7A6BF70B5114C06460125B540E06809
:101B5000FEF796F900280CD16169294207D1304679
:101B600000F044FB0028206904D0284303E0A94387
:101B7000616170BDA8432061606928436061D4E958
:101B80000210BDE870400022FEF734B99C28002006
:101B900070B51B4C207900072DD41A48017801EB51
:101BA000810100EB81052E6900F046FFE9882A8952
:101BB000761E11443144B1FBF0F02169002549B192
:101BC0006169814206D1E560606840F001006060B3
:101BD000002008E000F0ACF810B10220E56002E05F
:101BE000206920B10320BDE8704001F00BBBBDE8C7
:101BF0007040FEF745BFBDE8704001F0F9BA000043
:101C0000782800207030002070B504460078164E09
:101C100000EB400006EB80016078A6F10C0500EBBC
:101C2000400005EB8000091D00897EDF002819D1E6
:101C3000217801EB410106EB81014A7A42F0010271
:101C40004A72617801EB410105EB8102917A41F022
:101C500004019172627821F0200102EB420205EB4F
:101C60008202917270BD0000BC2F0020F8B51C4CA0
:101C70002078002832D0206928B10026E06820B101
:101C8000002526B112E00126F8E70125F9E76846AC
:101C900051DF052805D030B100221146FDF7B8FF0D
:101CA00004E0012602E021690098884795B9608820
:101CB000ADF800006946A06861DF052805D030B1A5
:101CC00000221146FDF7A4FF04E0012502E0D4E95B
:101CD00002018847002EDAD0002DD2D0F8BD0000D6
:101CE000DC28002010B509892AB1D088491C81421E
:101CF00018D1002010BD90F86020C2EBC20404EBA4
:101D0000021200EB4202928D9142F2D0491C1980DE
:101D100090F86010C1EBC10202EB011100EB410031
:101D2000808D02E01980D088401E5880012010BDAF
:101D300070B50E48017801EB810100EB8104256943
:101D400000F07AFEE18822896D1E11442944B1FB1E
:101D5000F0F1074842698A4205D301D1006910B108
:101D60004FF0000070BD4FF0010070BD70300020DA
:101D700078280020800701D000207047012070479C
:101D80000348017AC90702D00078FEF78FBC70477C
:101D9000102800202DE9F04726484FF00009804622
:101DA0004578D0F810A038E0D8F80C0000EBC50654
:101DB00034782FE004EB44017068641C00EBC10030
:101DC000B178E4B2A14200D100240178022902D006
:101DD00003291FD115E04068D8F8081000EBC002B5
:101DE00001EB8207397DA9B101F06CFA87F81490F4
:101DF00010E000BF00EBC00002EB80000375006A3A
:101E000004E0D8F80820D8F810004B46471CF1D160
:101E1000C8F810007078A042CCD16D1EEDB2C3D2CC
:101E2000D8F81010514502D00120BDE8F0870020FD
:101E3000FBE70000B42800202DE9F04704463D48A8
:101E4000002781464678D0F810A067E0D9F80C103A
:101E500001EBC6055CE0601C08D02246D9F80800FA
:101E600004EBC20100EB8100046A2FE02878696866
:101E700000EB4002401CC0B201EBC2012870AA78FE
:101E8000904200D12F704A68D9F808C002EBC20016
:101E90000CEB800091F800C0BCF1010F3AD190F832
:101EA00014C0BCF1000F35D1D1F808C0C0F808C08B
:101EB000D1F80CC0C0F80CC0D1F810C0C0F810C0E8
:101EC0004969C16199F8051001B187608368D9F843
:101ED00014C0DFF86480A3EB0C0121F07F41414581
:101EE00002D2C368194407E0ACEB0301C36821F0D8
:101EF0007F418B4202D9591A416000E047608760F8
:101F00000121C7600175891E0162104601F0A4F924
:101F1000601CA0D12878697888429CD1761EF6B2E0
:101F200094D2D9F81010514502D00120BDE8F087B5
:101F30000020FBE7B4280020FFFF7F0088B00020CE
:101F4000314B032205210090FDF7F8FE18B1002265
:101F50001146FDF75DFE2D4A40F6CD410320FEF708
:101F600053FB18B100221146FDF752FE69460020CE
:101F7000FEF710FA18B100221146FDF749FE9DF850
:101F8000000002283DD00024214A04AB07CA83E8A0
:101F9000070020480090012001901F4802904FF454
:101FA0008070039003231D4A694604A8FDF79CFF37
:101FB00018B100221146FDF72BFE19A0FDF710FD08
:101FC000FEF7B8F92046FEF7CFFFFEF75FF818B12D
:101FD00000221146FDF71CFE194800906946194879
:101FE000FEF74EF918B100221146FDF711FE00F080
:101FF00075FF48DF0028FCD000221146FDF708FEDF
:10200000F7E70124C0E70000502A00203505020050
:10201000BC3602000528002050290020413502006E
:102020004865617274207261746520636F6C6C65C1
:1020300063746F72206578616D706C650D0A0000C5
:10204000B5250200DC2C00200348416821F008017E
:102050004160007800F0A0BF782800200020704781
:1020600000207047002070474907090E002806DA53
:1020700000F00F0202F1E02282F8141D03E000F1EB
:10208000E02282F8001400F01F0201219140400973
:10209000800000F1E020C0F88012C0F80011704705
:1020A0002DE9F0410E46054600F028FC01240028E9
:1020B000284619D0FEF73EFC1B490838084490F822
:1020C00054008009032802D0012805D006E01748F3
:1020D0000068AC40204201D1022100E003212846E3
:1020E000BDE8F04100F03BBA00F014FC002818D025
:1020F0002846FEF71FFC05460D4F4FF4807007EB96
:10210000850100EB8500D1F8102580B242F0010274
:10211000C1F8102500F032FA002E02D0AC40C7F80A
:102120000443BDE8F081000000300020100500509D
:10213000006000402DE9FC41DFF8A480044608EB74
:102140000400002790F934001346C0170E46401CC7
:1021500001D0082740E0F27819462046FEF7C4FB7C
:102160000546401C37D0B07848B1A00000F1A0402F
:10217000D0F8001721F00201C0F8001707E0002195
:102180007378204600910A46019100F0B3F9F07887
:10219000C0B11448317800EB8500D0F81025124BFF
:1021A0001A40C0F810254FF4F8524FF4403302EAB9
:1021B000042203EA01410A43D0F810150A43C0F88B
:1021C000102509E008EB0500327810F84C1F41EAB1
:1021D0008211017000E004273846BDE8FC81000050
:1021E0000030002000600040FFE0FCFF0349096868
:1021F000C14011F0010000D00120704710050050CF
:1022000070B5114D287808B1082070BD0020411E1E
:102210002A18401CC0B282F834102028F8D30024B9
:102220002046FEF753FB641CE4B20C2CF8D30121CA
:102230000620FFF719FF05494FF00040C1F80403DD
:1022400001202870002070BD003000200060004098
:1022500002480078002800D001207047003000209C
:102260002DE9F041154C05460F46A07D10B1082020
:10227000BDE8F08105B9124D687FE0752846FDF78D
:1022800097FE676028690F4E206057B1297FE07D77
:1022900008B10D4800E00D48C6F804030220FFF71E
:1022A000E3FEE07D08B1082000E00420C6F8000548
:1022B0000120A07500206075DAE70000583000208A
:1022C0006C37020000200040100302008000020072
:1022D0002DE9F05F454DEA7C12B11120BDE8F09F79
:1022E000E9740026E8602E75EA7D414C4FF0010844
:1022F0004FF4A2774FF4927A9AB36214B2EB104F74
:1023000001D01020EAE74FF48873B146C4F8106199
:10231000C4F84461C4F83405C4F83815C4F8008022
:10232000686848BB9B46B8465946204600F03DF9D0
:1023300006464146204600F038F9074651462046F9
:1023400000F033F901463E430E43EDD0C4F810913E
:10235000C4F84491C4F8249185F81390B9BBC7BB65
:102360000AE0FFE7687D08B900F0ACFD686828B1B5
:102370004FF40170C4F804030020AFE7D346AA4627
:102380005946204600F00CF905464FF4847120466A
:1023900000F006F981464FF4A271204600F000F9E2
:1023A000074649EA07002843EAD055EA070007D163
:1023B00000F0F6FC9AF813109AF814008142DFD866
:1023C000C4F84461C4F824618AF8136015B103208D
:1023D00084E700E00FB10F2080E79AF8150000288D
:1023E000404601D02060C7E76060C5E75830002054
:1023F0000020004010B5044C607D002803D100F09F
:1024000061FD0120607510BD583000202DE9F05F9E
:10241000364C0027A27C12B11120BDE8F09FA174B8
:102420000026A0602682E37D314D01225BB3530379
:10243000B3EB104F01D01020EFE74FF49073C5F8C5
:1024400020614FF4AC7CC5F85861C5F84405C5F867
:102450004815AA606068A04608BB9A46E146514606
:10246000284600F0A2F804464946284600F09DF8A8
:102470000443F4D0C5F82061C5F8586100B10F27B6
:1024800088F8126030E04FF48E7AC5F81C619046EF
:10249000AA6000F0E1FF61684FF4807079B123E039
:1024A0005D465146484600F07BF810B9208AA842A4
:1024B000F7D1208AA84204D000F0CEFF01E0834685
:1024C000A946A07C218A8842EAD8208A584501D1B1
:1024D0000F2708E04D465146284600F061F80028D5
:1024E000F9D0C5F80C80A674384696E7583000201D
:1024F0000020004030B541EA4201DDE9034541EAF0
:102500008301800041EA042100F1A04041EA054135
:10251000C0F8001730BD30B541EA4201DDE903459E
:1025200041EA8301800041EA042100F1A04041EA30
:102530000541C0F8001730BD1CB500220B460092C3
:1025400011460192FFF7E7FF1CBD1CB50021009169
:102550000B46012201911146FFF7DDFF1CBD8000F3
:1025600000F5E06000F1A040026822F44032026011
:10257000026842EA0141016070470000034908B562
:102580000844002101600068009008BD0060004020
:1025900002494058012800D00020704700600040E8
:1025A0004058002800D0012070474058002800D033
:1025B000012070470EB504A207CA8DE807006946DE
:1025C00004A0FDF70DFA0EBD52656365697665647A
:1025D0000A000000257300007FB5041D008819283B
:1025E00051D01B280DD01D2836D12088A11C75DFA5
:1025F000002831D004B00022BDE870401146FDF73C
:1026000007BB04F10B000290A07A6A46C008ADF83F
:102610000C0002A90220FDF76DFA30B16A4602A94A
:102620000320FDF767FA002816D1002001254FF698
:10263000FF76BDF804200CE0009905EB4003C95C6F
:1026400006EA0123009911F810101943012904D05A
:10265000401CB0EB520FEFD37FBD87DF0020FDF7AA
:10266000C7FF18B100221146FDF7D2FA09480A4AFD
:10267000017821F0020101700146A01C88DF0749A2
:10268000002088707FBDA0780228FBD1BDE87F4084
:1026900000F024BCCC2C0020B4360200002800201E
:1026A000F8B5044690F860000A46C0EBC00101EBA3
:1026B000001004EB400150880025E0BB32F8086FA1
:1026C0000879F3B250FA86F6032E01D8034400E0ED
:1026D00003230B71002314E000EB400603EB830798
:1026E00002EB470701EB8606D7F802C0C6F806C022
:1026F000D7F806C0C6F80AC07F89F781401C35822A
:102700005B1C0E798642E7D894F8602000EB40000D
:10271000C2EBC20303EB021201EB800004EB4202A6
:102720004088928D904212D2F0B203280FD084F8E4
:102730005F00204600E00AE0FEF704F9010013D034
:1027400084F861502046BDE8F840FEF791BC84F85B
:102750005F5069462046FEF7CFFA010005D084F8A5
:1027600061502046FEF784FCF8BD9DF8000000286B
:10277000FAD001212046FEF739FC204600F056F839
:10278000F8BD0000F8B5044690F860000A46C0EBBA
:10279000C00101EB001004EB400394F85F0002F16C
:1027A000080100EB400003EB80055088AD1DB0B977
:1027B000002042F602160A880FE000BF00EB400737
:1027C00001EB4707BF88B74206D100EB400001EBA1
:1027D00040004088688102E0401C8242EED800251B
:1027E0008DF8005094F85F001979401C884203D19D
:1027F00001208DF8000011E084F85F006946204652
:10280000FEF77AFA010005D084F861502046FEF701
:102810002FFCF8BD9DF800000028FAD001212046C9
:10282000FEF7E4FB204600F001F8F8BD30B416498D
:1028300004460025C868401CC860896888421FD2C9
:1028400084F85F5094F86000401CC0B2C0EBC00137
:1028500001EB001104EB41020C4984F8600001EB2C
:10286000C0000121006810601571B4F85C0090DFB1
:10287000010007D084F86150204630BCFEF7F8BB59
:1028800084F8615030BC704744280020A42D0020FB
:1028900070B5054600EB45010B48002400EBC10173
:1028A000FF20C1F81140A1F815400C604C608C600D
:1028B000CC600874C875284600F0BCFE02481C387D
:1028C00040F8254070BD0000E02E002070B50024C7
:1028D000084D094E07E000BFC4EBC40006EBC00082
:1028E000416B8847641CA8688442F5D30020686067
:1028F00070BD000044280020B42D00200449084485
:1029000090F93400082801DB01207047002070474F
:10291000003000200449084490F93400082801D20E
:1029200001207047002070470030002006490979D7
:10293000490701D40820704720B104494978016053
:10294000002070470E20704778280020703000204B
:1029500030B5104B1B795B0701D4082030BD18B18E
:1029600012B104687CB901E00E2030BD0A4B1D682D
:102970004DB140681D8901FB050059685B8903FB67
:102980000511814201D8072030BDC2E90040002076
:1029900030BD0000782800203C310020F8B5054605
:1029A00021480E460079400701D40820F8BD15B132
:1029B000286870BB01E00E20F8BD1C4C0027206881
:1029C00038B361892289606801FB0201686881422D
:1029D0001FD9FFF7CFF970B1D5E9000200EB400035
:1029E00004EB800043680189D41AB4FBF1FC01FBBD
:1029F0001C4474B901E01020F8BDB6FBF1F401FBF2
:102A0000146434B92EB14089324400FB0130824253
:102A100001D90720F8BD334600222946032000973C
:102A2000FEF768F8F8BD0000782800203C3100204F
:102A30004FF08050406970474FF08050006980B27D
:102A40007047000070B5104800242546047044709B
:102A50002846FEF73FF86D1C0A2DF9D30B4D6C800C
:102A6000FFF7E6FF861EFFF7E7FF46430648AE6026
:102A7000CC306C610460048144812C70AC61042012
:102A8000EC616860002070BD703000207828002064
:102A90002DE9F843804623481F46164600790D4627
:102AA000400702D40820BDE8F8832DB1B8F1000F2B
:102AB00002D0286898B901E00E20F4E71A4C20688B
:102AC00068B162892089616802FB00116A689142DD
:102AD00005D926B1B04202D3F119814201D90720AC
:102AE000E1E74046FFF746F9D0B13846FFF742F933
:102AF000B0B16868FFF73EF990B168683246C11915
:102B00004046FCF7D5FC00962868002200EB400008
:102B1000434654F8204002212846A0470020C2E73F
:102B20001020C0E7782800203C3100202DE9F0413A
:102B3000294D04460E462879400702D40820BDE8F6
:102B4000F081ECB1E6B12068D0B1FFF775FF014626
:102B5000A088814212D3102810D3E08870B1FFF70B
:102B600067FF471EFFF768FF4743E288A188A86810
:102B700002FB0102974201D3890703D00720DEE759
:102B80000E20DCE76988012923D0C6E90010134A2A
:102B900001EB410302EB83014860206842F8230007
:102BA000A0880881E0884881FFF746FF0146A08899
:102BB000E2885043401E90FBF1F4641CFFF73CFF99
:102BC000A96804FB0010A8606888401C6880002089
:102BD000B5E70420B3E70000782800203C3100204E
:102BE000F8B504461C481E46154600790F464007B6
:102BF00001D40820F8BD1FB114B1206898B901E0D4
:102C00000E20F8BD1548016869B142894168008904
:102C100002FB00116268914205D925B1A84202D396
:102C2000A919814201D90720F8BD3846FFF7A2F85B
:102C300078B13046FFF79EF858B16068FFF79AF810
:102C400038B12B463A46214601200096FDF752FF47
:102C5000F8BD1020F8BD0000782800203C3100208D
:102C600010490246087800281AD0042818D0022AF1
:102C700014D0032A14D10A7912070FD48A69521C7E
:102C80008A61B2F57A7F06D0022801D000F084B9BB
:102C9000487800F0B7BA0D20FDF718B8FEF75EBE11
:102CA0007047000078280020F8B504461C481E46EE
:102CB000154600790F46400701D40820F8BD1FB122
:102CC00014B1206898B901E00E20F8BD15480168DC
:102CD00069B142894168008902FB00116268914232
:102CE00005D925B1A84202D3A919814201D90720EB
:102CF000F8BD3846FFF73EF878B13046FFF73AF8AE
:102D000058B16068FFF736F838B12B463A4621468D
:102D100004200096FDF7EEFEF8BD1020F8BD00007F
:102D2000782800203C31002030B50D4B00210B4AA3
:102D30009B680FE002EBC1048578A478AC4208D10F
:102D400032F831400588AC4203D102EBC100406843
:102D500030BD491C9942EDD3002030BDA42D002088
:102D60004428002070B5012670044FF0E0210025B2
:102D7000C1F88001084C4010C4F84803C4F80803A7
:102D800066602F20FCF746FBA660044C2F2065618F
:102D9000FCF740FB257170BD00100140B4280020F5
:102DA00006480021C0F80811D0F818150448037D22
:102DB000C268D154017D491C017570470020004054
:102DC0005830002030B58FB00024054607949DF898
:102DD0001C001C2120F00F00401C20F0F0001030DF
:102DE0008DF81C009DF81D0020F00F00401C20F005
:102DF000F00010308DF81D009DF81E0020F0060038
:102E0000801C8DF81E006846FCF76BFB9DF80000E7
:102E1000019440F010008DF8000007A8CDE90440AF
:102E20000394069428788DF83A000320ADF8380012
:102E30000D949DF83400142120F00F00401C20F068
:102E4000F00010308DF834009DF8350020F00F00B0
:102E5000401C20F0F00010308DF835009DF8360051
:102E600020F00600801C20F0180040F001008DF8D2
:102E7000360008A8FCF735FB0EA808900DA80990AD
:102E80000120ADF828001420ADF82A40ADF82C0040
:102E9000688805F10C0308AA6946A2DF0FB030BDAF
:102EA0001FB501218DF8080005488DF80010C16894
:102EB00001910021C174D0E90012684690471FBDFE
:102EC0005830002004480021C0F82411C0F808112F
:102ED00001210160704700000020004030B595B02E
:102EE00004A8FFF723FD18B100221146FCF790FE5D
:102EF000274D049818B10120E87015B030BD0820A6
:102F00008DF8040005A800900DA802902048002428
:102F10008DF80C406946801DFEF774FC18B1002244
:102F20001146FCF775FE9DF804301A48A021502286
:102F300013B99DF80C3023B16B78012B01D1AB781C
:102F400043B1037823F0030303700181428144609D
:102F500084810BE0037823F0010343F00203037044
:102F600001814281C0F804D01E218181094886DF99
:102F700018B100221146FCF74BFE0120FDF738FB8B
:102F80000028BAD000221146FCF742FEB5E7000047
:102F900000280020CC2C00200C49087040B10128EA
:102FA0000FD002280FD003280FD14869FEF71CBDAF
:102FB00000208861C86106484078002805D0FDF7E8
:102FC0006FBD00F0DBB800F037B8704778280020FC
:102FD0007030002010B508461146AFF3008010BDD8
:102FE00018B10349C860002070470E2070470000E8
:102FF000DC28002070B509B18C0701D0072070BD16
:10300000064C0125A16062800549636010DF00283D
:10301000F5D1257016202EDF70BD0000DC280020C1
:10302000D52F020018B103490861002070470E2017
:1030300070470000DC2800202DE9F041164C606844
:1030400020F0010060601548017801EB810100EB80
:1030500081063569FFF7F0FCB5FBF0F76761FFF714
:10306000EBFCF1886D1E2944B1FBF0F087426068EB
:1030700002D140F0020001E020F0020060602079FF
:10308000E16800F00200084304D00020BDE8F041F0
:1030900000F0B8B80220F9E778280020703000204E
:1030A00001484069FEF7A0BC7828002010B5FFF762
:1030B000BFFC441EFFF7C0FC4443FFF7BDFC0549BD
:1030C0004A69521E5043CA682146BDE81040FEF7C7
:1030D0008EBC0000782800202DE9F04110480178CE
:1030E00001EB810100EB81042569FFF7A5FCE18874
:1030F000228911442944B1FBF0F200FB1216FFF7BC
:1031000097FC471EFFF798FC07FB0061E0882289C7
:103110001044044A28441269BDE8F041FEF767BC38
:10312000703000207828002010B5FFF781FC441E85
:10313000FFF782FC4443FFF77FFCB4FBF0F0BDE8EF
:103140001040FEF751BC000070B5FFF775FC860813
:10315000FFF772FC0749496900FB01F4FFF768FCBF
:10316000451EFFF769FC684332462146BDE87040C2
:10317000FEF73DBC782800200020704770B5144849
:10318000017801EB810100EB8104241DFFF754FC61
:103190006188104E884211D2FFF74EFC61880D1AEB
:1031A000FFF74AFC8208A188E068084421692844A6
:1031B0002944FEF71CFCFFF73FFC07E0A288E0680B
:1031C00010448A082169FEF712FC6088F06170BD26
:1031D000703000207828002004480079000702D4CD
:1031E000012000F00FB800F003B80000782800209C
:1031F0000348416821F008014160407800F002B8BE
:103200007828002002494870024951F82000004700
:10321000782800208C37020010B50446FFF720FD07
:10322000022C01D0032C09D10548C178002905D012
:103230000021C170BDE81040FFF750BE10BD000076
:103240000028002003480079000701D4FDF718BCCE
:10325000FFF7CEBF78280020F0B5194C00EBC00175
:10326000A36803EB810521694A1C0AD001EBC10662
:1032700003EB86076A687E68B24204D8B21A7A60A5
:1032800029622061F0BD0C4602E00C46316AD21B77
:103290004E1C0DD001EBC10703EB87067768974200
:1032A000F3D301EBC10603EB86067768BF1A77609C
:1032B0006A60296204EBC40103EB81010862F0BD7E
:1032C000B428002070B51C4B1A699C68154611463D
:1032D00007E0814208D00A4601EBC20604EB8601F2
:1032E000096A4E1CF5D170BD002EFCD08A420DD16A
:1032F00005EBC50004EB8000006A1861401C05D195
:103300000E4D0120A86000255D61587101EBC100E0
:1033100004EB800002EBC202416804EB8202006A07
:103320001062421CDFD000EBC00004EB800042685A
:103330001144416070BD0000B4280020001001401D
:103340002DE9F0411E4C2569681C37D01D48002628
:1033500001686069081A20F07F4718E0A16805EB52
:10336000C50001EB80025068B84212D8156AA36903
:103370003F1A064443B1D2E90601984738B100220A
:103380001146FCF745FC02E0D2E906108847681CAC
:10339000E4D1A178E078814206D1401CC0B2E0704F
:1033A000022801D10020E0700548E1781C3040F887
:1033B0002160BDE8F0411420FCF75EB9BDE8F08162
:1033C000B42800200415014010B50F4CD4E90010BA
:1033D000884211D000EB80020C4800EB82018B7810
:1033E0005BB130F82200083197DF002804D1207942
:1033F000401C00F00700606010BD30F82200898892
:10340000002295DFF1E7000038280020042D00207D
:1034100010B50F4CD4E90010884211D000EB8002A7
:103420000C4800EB82018B785BB130F82200083148
:1034300097DF002804D12079401C00F0070060606D
:1034400010BD30F822008988002295DFF1E70000E6
:1034500054280020242E0020064A0020C2F81C0117
:103460000548038A8168C95C038A5B1C0382C2F831
:103470001C157047002000405830002030B58FB038
:1034800005461C216846FCF72CF800249DF8000036
:10349000019440F00C008DF800000394049405940E
:1034A000069428788DF836000220ADF834000C948C
:1034B0009DF83000142120F00F00401C20F0F00097
:1034C00010308DF830009DF8310020F00F00401CC6
:1034D00020F0F00010308DF831009DF8320020F01F
:1034E0000600801C20F0180040F001008DF832002A
:1034F00007A8FBF7F6FF0DA807900CA8089001207D
:10350000ADF824001420ADF82640ADF828006888F6
:103510002B1D07AA6946A2DF0FB030BD1FB50021E1
:103520008DF8080005488DF80010826801928174BA
:10353000D0E90012684690471FBD000058300020B7
:1035400070B5017851B1012901D0022925D1406817
:10355000BDE8704000221146FCF75ABB104C0F4DDD
:1035600020792844FCF7BAFC2079401CC2B2A81884
:10357000227110F8010C0A2801D0142A0DD3074932
:1035800001F57A70FCF7AEFE082804D018B10022CD
:103590001146FCF73DFB0020207170BDF42800208F
:1035A000002800201CB50178204C012909D00229EF
:1035B00026D0002923D121461D48FCF73FFB28B324
:1035C00028E0406801781A481038FCF758FB20B111
:1035D00001218DF80010019009E01548103881682C
:1035E000C068401A012805D100208DF800006168EC
:1035F000684688470D480121801CFEF769FE1CBD06
:1036000002218DF80010C06801900BE001210748ED
:10361000FEF7FCFE06488168C0688842EFD10320AF
:103620008DF800006168684688471CBD702800203E
:10363000F02F002001218140024842688A43426005
:1036400070470000602800200F480068C005C00DCA
:1036500013D0103840B2002806DA00F00F0000F155
:10366000E02090F8140D03E000F1E02090F8000451
:103670004009012803D0032803D00220704700200E
:10368000704701207047000004ED00E04278837825
:10369000521C934200D100220378934201D10020B2
:1036A00070470A604168407800EB400001EBC000C1
:1036B000704700000600060000009001080605079C
:1036C0000100000000509D000D0000000E000000F1
:1036D0000F000000100000000D0003006504020050
:1036E0000E000300650402000F00030065040200E1
:1036F0001000030065040200FFFFFFFF65200200C9
:10370000911A02000B1A0200411B02006120020004
:10371000591A0200071A02003D1B02005D20020038
:10372000111A0200031A0200391B02009ECADC248F
:103730000EE5A9E093F3A3B50000406E9ECADC2419
:103740000EE5A9E093F3A3B50000406E060000006B
:103750000800000007000000050000000000000055
:103760000000000000009D000300000006000000B3
:103770000800000007000000050000000000000035
:103780000000000000009D0003000000293102003D
:1037900049310200A1300200D9300200AD300200F0
:1037A000D9310200D90C0200850C0200453202001A
:1037B000911B020003000000D837020000280020FF
:1037C000F400000000FA0100CC380200F4280020C8
:1037D0005428000010FA0100000200000000000060
:1037E00000000000000000000000000000000000D9
:1037F00000000000000000000000000000000000C9
:1038000000000000000000000000000000000000B8
:1038100000000000000000000000000000000000A8
:103820000000000000000000000000000000000098
:103830000000000000000000000000000000000088
:103840000000000000000000000000000000000078
:103850000000000000000000000000000000000068
:103860000000000000000000000000000000000058
:103870000000000000000000000000000000000048
:103880000000000000000000000000000000000038
:103890000000000000000000000000000000000028
:1038A0000000000000000000000000000000000018
:1038B0000000000000000000000000000000000008
:0C38C00000000000000000000090D00399
:040000050001F40101
:00000001FF
