:020000040000FA
:10000000B00B0020F50000000F01000011010000FE
:1000100000000000000000000000000000000000E0
:1000200000000000000000000000000013010000BC
:100030000000000000000000150100001701000092
:1000400019010000190100007D08000019010000DD
:100050001901000000000000B506000019010000B1
:100060001901000019010000190100001901000028
:100070001901000019010000190100001901000018
:100080001901000001080000190100001901000019
:1000900021080000190100001901000019010000E9
:1000A000190100001901000000000000000000001C
:1000B0000000000000000000000000000000000040
:1000C0000348854600F050FA004800479D1D000097
:1000D000B00B0020401E00BF00BF00BF00BF00BF2C
:1000E00000BF00BF00BF00BF00BF00BF00BFF1D115
:1000F000704700000321094802680A43026008486B
:1001000002680A4302600748804707480047FEE745
:10011000FEE7FEE7FEE7FEE7FEE7000024050040FD
:100120005405004029080000C100000030B50B460E
:10013000014600202022012409E00D46D5409D42C1
:1001400005D31D469540491B254695404019154647
:10015000521E002DF1DC30BD03460B439B0703D03C
:1001600009E008C9121F08C0042AFAD203E00B787C
:100170000370401C491C521EF9D27047F0B51FB4E1
:100180000646002082B005464024019100901BE005
:10019000019922460F46304600F008FA049A059B62
:1001A000801A994110D310461946224600F0EEF904
:1001B000361A8F410197224601200021009F00F04E
:1001C000E5F938184D4100902046641E0028DFDC18
:1001D000019B00982946324607B0F0BDF0B50746AE
:1001E0000846584087B0C00F049048000E4659009A
:1001F00040084908BC1A884105D2384631461E4697
:1002000017460B4602465800400810434CD0300DAC
:10021000039040055900400D490D0590401A029089
:10022000402872DA18030121000B090508430190E8
:1002300004980092002805D001995242002088417C
:1002400000920190029840210A1A0199009800F04A
:100250009DF905460C466B4607CB00F0B8F9C0196E
:100260007141039A0E0D0023D71756401A467A4063
:10027000164344D0049A002A2DD0029A012A039AE8
:1002800015DC1205C01A914101263605001C71418A
:10029000D20F059ED2070093019202962A4623466A
:1002A00000F0B5F907B0F0BD38463146FAE716055B
:1002B000224A0F46B218C01AB74101210905001C95
:1002C0004F4100187F41114618187941E20F104341
:1002D0006D19644113E0E2076D0815436408C20715
:1002E0001443039A01261205C01A91413605001CD9
:1002F0007141CE07400830434908C01851412A4691
:10030000234600F077F9CDE7FFE70498012240008B
:10031000C117121A00238B4104983146C417381AAA
:10032000A141EEE730B40124E407634030BC55E757
:1003300030B40124E407614030BC4FE70000E0FF27
:10034000F0B51FB488B00B9909980024484009996A
:10035000C00F490049080991C0070B990090490056
:1003600049080B9109990898A64608431CD00B9997
:100370000A98084318D0099801244000420D48000B
:10038000410D099824050003000B204309900B98A8
:100390000003000B20430B9050181C49401800220A
:1003A00001901446104605E0002001460DB0F0BD56
:1003B000032801DA034600E003239C46C11A0AAE73
:1003C0000AE05F0008ADED5B4F00F75B7D4300275F
:1003D000AA187C41491C5B1E6145F2DD410004AB5B
:1003E0005A522104120C0A43240C401C0828DFDB5B
:1003F000019802900099704601910090059B049A23
:100400000799069800F003F9D0E700000DFCFFFF04
:10041000F0B50C465C4085B0E40FE40703944C0053
:100420000026640859009446490802460296224371
:1004300021D062460A431ED06200570D4A000E03C7
:100440002303550D012402462C492405781B1B0B60
:10045000360B401823432643614600901C46501A31
:10046000B44103D30098401C009002E09218009819
:100470005B41002803DA0020014605B0F0BD0020F2
:10048000012109050746864611E064461D46141BF6
:10049000B54106D36546521BB341744607430C432E
:1004A000A646CD0740084908284392185B410546F7
:1004B0000D43EAD11046184313D060461946504008
:1004C0007140084306D06046101AB34106D201229B
:1004D000002306E000220123DB0702E00122D243D1
:1004E0005310009874460105381C6141029C039D1D
:1004F0000019694100F07EF8BFE70000FD0300002D
:100500004A0009030123090B1B0519430A4B10B5C7
:10051000520D9A4202DA0020014610BD064B3433D8
:100520009A4203DC9A1A00F041F810BD034BD2182E
:1005300000F02CF810BD0000FF030000CDFBFFFF12
:1005400010B5002904DB0124E40740428C41214618
:10055000002B04DB1C460123DB075242A3419942D6
:1005600000D1904210BD0000064C0125064E05E06A
:10057000E36807CC2B430C3C98471034B442F7D3C4
:10058000FFF7A2FD642A0000842A000010B5202A8B
:1005900004DB0146203A9140002010BD9140202309
:1005A0009C1A0346E3401943904010BD10B5202A21
:1005B00004DB0846203AD040002110BD0B46D34052
:1005C000D0402024A21A91400843194610BD10B50E
:1005D000202A06DBCB170846203A1041C1170B43EF
:1005E00006E00B461341D0402024A21A9140084354
:1005F000194610BD10B5002B08DA0024401C6141DB
:1006000092185B411A4301D14008400010BDF0B57B
:100610001FB482B005460C0003D0084600F04CF928
:1006200002E000F049F920300246009021462846B9
:10063000FFF7ACFF049B059A04460F46184311438D
:10064000084314D0184610431BD0009840210A1AC2
:1006500018460599FFF7AAFF05460E46009A059928
:100660000498FFF793FF084305D0012004E02046DB
:10067000394607B0F0BD0020C11705430E432C4397
:10068000374300990E986305401A7905E40A002261
:100690000C43FD0A0A3002D500200146E9E70105B6
:1006A000101969410C9C0D9D00196941FFF7A2FFCB
:1006B000DFE70000F8B50024FF25013501262746B5
:1006C0000094284601F072FE002808D034484068A3
:1006D000304204D0334800212818344301602D1DD6
:1006E00076007F1CADB2042FEBD3FF207D3001F0EC
:1006F0005DFE002807D02C4800210160400704431C
:100700002A48006900902A4F200712D001260025B0
:1007100026420AD02748AA00111808690969C004AE
:10072000C00E8903BA58890F904776006D1C042DBE
:10073000EED3002C30DA00241D4E00213019403059
:100740004156491C25D00778BD06AD0E284601F05C
:100750001FF980003658002E1BD0BF090121A94087
:10076000154AA80080180068009A8003800F114283
:1007700002D0022802D00CE003280AD1032F05D1B1
:1007800002280AD00221284601F000FE39462846F8
:10079000B047641C042CCFD3F8BD0321F3E700005D
:1007A00000630040006000407C6100400005005094
:1007B0002803002000650040000700508307FF2247
:1007C000DB0E9A408907090E994000280BDA0007D2
:1007D000000F0838830808489B001818C369934322
:1007E0000B43C3617047830804489B001B181868BB
:1007F000904308431860704700ED00E000E400E01B
:1008000010B506490020086048608860C860034948
:1008100040390860486001F04BFF10BD40110140B5
:1008200010B501F0DBFE10BD10B501F0B5F90028E0
:1008300005D00E490C484860C8130D4988610D4821
:10084000018CC9B201290ED1818C09070BD1018D10
:100850000906090F042906D1808D0006000F02D178
:1008600005490120886010BDDFFF07C0000500407A
:10087000006C0040C00F00F00006004010B501F011
:10088000D7FF10BD0FB410B503A9044B044A02985A
:1008900000F0F2F810BC08BC04B018473B1B000085
:1008A0005C00002010B5024B024A00F0E5F810BDD4
:1008B0003B1B00005C0000202021020C01D0102115
:1008C0001046020A01D010460839020901D010462C
:1008D000091F820801D01046891E420801D0881ED7
:1008E0007047081A704730B47446641E2578641C3B
:1008F000AB4200D21D46635D5B00E31830BC184775
:1009000002E008C8121F08C1002AFAD170477047D8
:10091000002001E001C1121F002AFBD17047000036
:10092000F0B51FB484B007980699020D014314D0A6
:100930004A484B491018484305140F9801280E984F
:100940001CD0281A401C0024464E474900940191AF
:100950000290002814DA474227E00F98012443A3AD
:10096000012808D0002104980F9A84600360C260B7
:10097000416009B0F0BD0E98C143F4E74042E2E7A0
:10098000074612E0F80707D022463346019900983F
:10099000FFF7D6FC019100902246334610461946D7
:1009A000FFF7CEFC04460E467F10002FEAD10298D6
:1009B000019B0028009A0799069802DAFFF7C0FC0D
:1009C00001E0FFF725FD04460E460022284BFFF705
:1009D000B7FD03D80020C043014607E00022254BA5
:1009E00020463146FFF7FAFBFFF78AFD102409E0A5
:1009F000002C0ADB0A220023FFF7C0FB059B3032E4
:100A00001A55641E02460A43F2D11122641C059B4A
:100A1000121B1C190F9B012B03D0012308430ED17D
:100A20000AE0084304D011200E9000200F9084E7C4
:100A30000E98151A6D1E0BE00E98824202DD0023FF
:100A40006D1C03E0824201DA00236D1E002BEED004
:100A500004980F998260C16030C08AE701FCFFFFF3
:100A6000104D0000000024400000F03F3000000066
:100A70000000F0430000E03FFFB597B006460025B8
:100A800018E2252877D100242746FD49049400E088
:100A90000443761C32780120203A90400842F7D176
:100AA00030782A280ED002223078014630390929C0
:100AB00016D804990A235943303940181443761C38
:100AC0000490F1E7189802C804911890002904DAFC
:100AD0000120400304434842049002200443761C52
:100AE00030782E2814D1042004437078761C2A28EC
:100AF00009D11898761C80C8189009E00A214F4344
:100B0000303FC719761C3078014630390929F5D9AC
:100B100030786C2810D006DC4C281AD068280ED00B
:100B20006A2817D104E0742813D07A2812D110E073
:100B30000120400504430CE00121090501E00321E7
:100B400009050C437178814203D101200005241866
:100B5000761C761C3078119066280BD013DC582850
:100B60007DD009DC00287BD04528F6D04628F4D07B
:100B700047281AD1A5E118E0632835D0642870D041
:100B8000652812D19DE170286CD008DC6728F1D06F
:100B900069287BD06E280DD06F2806D1BAE0732863
:100BA0002ED0752871D0782859D01A9A1999904763
:100BB0006D1C7EE16002400F022809D003280DD091
:100BC0000428189801680DD00D60001D189070E180
:100BD0001898EA1701680D604A60F6E718980168EE
:100BE0000D80F2E70D70F0E718986A4601781172EF
:100BF000001D18900020507202A80090012005E00E
:100C0000189802C8189000200091C04361070DD5C4
:100C1000002101E00199491C0191B94212DA814297
:100C2000F8DB009A515C0029F4D10BE0002101E0CF
:100C30000199491C01918142FADB019A0099895C72
:100C40000029F5D1019904981A9B471A2146384684
:100C5000199A00F097FA0199401945180BE04FE0F6
:100C60002CE113E04EE0009800990078491C0091B7
:100C70001A9A199990470198401E0190401CF2D190
:100C8000214638461A9B199A10E137E00A200021C4
:100C9000009001916002410F022907D0189A01CA01
:100CA0001892C2179446032908D00AE01898C01D6C
:100CB000C108C90005C91891944607E000B2C217DF
:100CC0009446042902D140B2C1178C4600226146E5
:100CD000944506DA0A460021404291418C462D2176
:100CE00002E0210504D52B216A461173012103E09E
:100CF000E10701D02021F7E7029155E00A200AE040
:100D0000102008E0102000900021042004430191ED
:100D1000082703E008200021019100906002410FA4
:100D2000022907D0189A01CA189200229446032972
:100D300008D008E01898C01DC108C90005C918915D
:100D4000944603E080B2042900D1C0B20021029190
:100D5000210729D51199702906D0009A1021019BED
:100D60004A401A4305D00EE040216A461173012122
:100D700008E06146014306D030216A46117311999B
:100D8000517302210291009A0821019B4A401A43A3
:100D90000AD16146014301D1610705D530216A4678
:100DA000117301217F1E02911199582904D035A198
:100DB0000E910DA90D910DE037A1F9E76146019B58
:100DC000009AFFF7DBF90E9B8C469B5C0D9A521E36
:100DD0000D92137061460143F0D10D9805A9081AD0
:100DE00020300190600703D501200004844300E017
:100DF00001270198874201DD381A00E0002001999F
:100E000000904118029809180498401A0490E003D1
:100E100006D421461A9B199A049800F0B3F9451993
:100E2000002706E003A81A9AC05D199990476D1C27
:100E30007F1C02988742F5DBE0030CD521461A9B04
:100E4000199A049800F09EF9451904E01A9A302086
:100E5000199990476D1C0099481E00900029F5DCF7
:100E600008E00D980D990078491C0D911A9A19996E
:100E700090476D1C0199481E01900029F1DC63E147
:100E80000928010030313233343536373839616260
:100E90006364656600000000303132333435363724
:100EA00038394142434445460000000000F05AF9F9
:100EB0004519761C3078002800D0E2E528461BB0A2
:100EC000F0BD600700D406271898C01DC108C900EE
:100ED00048680A680831C30FDB071891190001D070
:100EE0009CA108E0210501D59BA104E0E10701D008
:100EF0009AA100E09AA1430011985B08109165281F
:100F00000CD006DC452809D046281DD0472841D101
:100F100041E0662818D067283CD13CE00021112F21
:100F200001DB112000E0781C0191009008A911A8B4
:100F3000FFF7F6FC139905910021119A15927F1C79
:100F400012980197009150E00120C0070390012002
:100F5000019008A9009711A8FFF7E2FC139A1499D1
:100F600005920022119B009212981593059A019206
:100F7000002901D0104602E0791C40180190381A6F
:100F800001D5019804E04042401E0090781C019079
:100F9000C01B029043E0012F00DA01270021112F2E
:100FA00001DD112000E038460191009008A911A848
:100FB000FFF7B6FC13990591119A0021129815922A
:100FC0000091019721070CD40599B94201DB0199E1
:100FD00000E00191012904DD159A491E515C302978
:100FE00006D0B84201DA011D05DA0121029115E0AF
:100FF0000199491EEDE7002805DC00994118009190
:101000000199091A03E0019A411C914200DD019106
:101010000099401A401C02900120C007039020074D
:1010200006D402990198814202DB0020C04302905D
:1010300000206946C87707AF012103980337C90725
:10104000884224D0022011902B201290039800286F
:101050000CDA404203902D20129007E00A210398F9
:10106000FFF764F830317F1E039039701199481EE4
:1010700011900029F2DC03980028EFD1791E129814
:1010800008703078202108404530BF1E387006A80F
:10109000C01BC01D039010980078002800D00120CC
:1010A000019941180298C017091803980918049863
:1010B000401A401E0490E00306D421461A9B199A58
:1010C000049800F05FF8451910980078002803D0C4
:1010D0001A9A199990476D1CE00324D521461A9B52
:1010E000199A049800F04EF845191CE00098002861
:1010F00007DB00990598884203DD1598405C199933
:1011000001E0199930201A9A904700986D1C401CF4
:1011100000900298401E0290002804D11A9A2E20B6
:10112000199990476D1C0199481E01900029DDDC3A
:1011300005E038781A9A7F1C199990476D1C03991D
:10114000481E03900029F4DC21461A9B199A049842
:10115000ACE600002D0000002B0000002000000085
:1011600000000000F8B5044600251E461746880416
:1011700004D405E039462020B0476D1C641EF9D523
:101180002846F8BDFFB50446002581B01E46C803B9
:1011900001D5302700E02027880404D505E0384633
:1011A0000399B0476D1C641EF9D5284605B0F0BD03
:1011B000044842680121C9050B46934383600A40F5
:1011C000C26070470005005070B50024064D06E06F
:1011D0006968E000085C012100F094FE641C287836
:1011E0008442F5D3002070BD28000020F8B51546D4
:1011F0000C460646052A01D20720F8BD00F058FF2C
:10120000002803D100F02AFF0028F6D11049002061
:101210004E600C70C8608D6008610E4D0DE0E000FE
:1012200069688019009181786A46517000780A4A8D
:10123000694600F0B7FE0028DFD12046641EE4B204
:101240000028ECD1054A0021024800F04DF8F8BD15
:10125000280000205C2A0000491B0000751A0000CD
:10126000BFF34F8F04490348C860BFF34F8F00BFDF
:10127000FDE700000400FA0500ED00E00EB50021D6
:10128000029000916A4601910148FFF7E9FF0000D2
:101290000140000010B58268C368934203D000F09B
:1012A00039FC002010BD052010BD002906D0002A01
:1012B00002D0531E134203D0092070470E207047FE
:1012C0000160838000218160C1600846704710B5CD
:1012D0008268C3689A1A83889A4203D800F024FC73
:1012E000002010BD042010BD094B9B68002B07D0C7
:1012F000002A07D0002805D00068037C002B03D00B
:1013000008207047072070474174426100207047F1
:101310003C000020FFB59007002581B014460E4622
:10132000002832D11B4F002C31D001F0EBF804988B
:1013300078610320387033461821224600204B4341
:10134000BC601834C10089180D704D708E704C60EF
:101350001C19401C0328F5DBFD607D7001240E483C
:10136000BD702405046003211420FFF727FA0B4801
:1013700004600B4C0198A06003211120FFF71EFAB6
:1013800060683861002005B0F0BD0720FBE7BD6054
:10139000FBE700003C00002080E200E000E100E00C
:1013A00000150140FEB50D461B49174689680446E5
:1013B00000292AD0002C28D0052D01D20720FEBDFF
:1013C0006069002821D0607C012820D0002601F02F
:1013D000C3FAC0001049019089684018694601F0BD
:1013E000E5FA002815D0012101700C4944604968D4
:1013F0000830E2C0084901988968411868460078B9
:10140000487001F02DF90020FEBD0820FEBD2E46DB
:10141000DDE70420FEBD00003C0000200015014077
:10142000F8B5134D0446A96800291CD0002C1AD029
:101430006069002817D00026267401F08DFAC700D5
:10144000A8686946381801F0B1FA00280DD00221C9
:1014500001704460A868391868460078487001F047
:10146000FFF83046F8BD0820F8BD0420F8BD0000A4
:101470003C00002070B50446224888B01E460D008E
:1014800042601CD0A888296882B21F48FFF70DFF70
:10149000002815D1A889A96882B21B481030FFF72F
:1014A00004FF00280CD1202218496846FEF754FE9C
:1014B000A06806902079002804D0012103E00720CD
:1014C00008B070BD00216846017506776079002874
:1014D00000D00E2069464875E0780290A07803900D
:1014E00020780190607800900949684600F0E8FD96
:1014F0000028E5D100F06EFE02480121801C00F0BA
:1015000043FEDDE720000020080300201C2A000025
:101510008127000010B50446064801214470401C94
:1015200000F0B2FE112803D121460348FFF7CFFE99
:1015300010BD00002000002018030020F8B5074669
:101540000024234802E0641C042C1AD2A200825812
:10155000BA42F8D1042C14D21D481E4E0C38002972
:1015600029D001290ED002290BD160002018801942
:101570004578002D05D018480169002901D028467A
:101580008847F8BD61006118755C8E197178002973
:101590000CD011490A224968806851430E4A521CF6
:1015A000FFF700FF002801D10B4847700A48B178C7
:1015B00014300155DDE78068FFF732FF064861000F
:1015C000611814308919005D8D78A842D1D0F8BD1A
:1015D000EC290000DC0200200800002070B5002388
:1015E000042811D2440004190D4D012A02D1012909
:1015F0000DD0002246008019094E801900290CD018
:10160000012906D0022906D00723184670BD0D30E7
:10161000C2B22A55F9E74270F7E78270F5E7000099
:10162000DC02002010B5054A0146127A0020D207DC
:1016300002D0084600F062F810BD0000080000204B
:1016400070B50D46FFF7EEFF0446294602A000F0F4
:101650009BFB204670BD00002573000070B50E4650
:10166000204905464E608D6000200A61A9071ED5FD
:101670000024012211462046FFF7B0FF641C042C11
:1016800002D20028F5D012E0002810D172080421FF
:101690001548FFF7ABFD002809D1FFF795FD00289D
:1016A00005D11148114A00211438FFF71DFEE90742
:1016B00006D00F220E4952058A600023CB608A6152
:1016C00000280DD108480B4A00211C38FFF70CFEFA
:1016D000002805D10448084A01211838FFF704FE04
:1016E00070BD000008000020FC290000F518000073
:1016F00000050050E11B0000B1110000FEB57A4D5D
:101700000722EB6892059A4302936B6800939C0052
:1017100006461B1900200121019349050746734C19
:101720003300FFF7E0F8180D1515374755677C882B
:101730007F8891DE9E9E9E9E9EC8CED1D8DEDE140E
:101740000F21029A49059143A160E7602F70FEBD09
:10175000A260E76060680F2252055040800209D500
:10176000A160E760022E02D1E120C0000AE07D20E6
:10177000400107E0E160A760022E01D1C82001E02E
:10178000FF2091302E706421FEF7D0FC0099414378
:1017900000223FE0A260E76060680F2252055040DF
:1017A000800204D5A160E76019204001EAE7E1600A
:1017B000A760E3E7A260E76060680F22520550402F
:1017C000800202D5A160E760D1E7E160A760D7E7BA
:1017D000A260E76060680F2252055040800202D587
:1017E000A160E76001E0E160A7602E700098410011
:1017F00000220FE0A260E76060680F2252055040AF
:10180000800202D5A160E76001E0E160A7602E7070
:101810000099002236480068FFF7C4FDFEBDA260B3
:10182000E7601BE061680120800502468A43A260F0
:101830000140E16010E06068012189050A468243A9
:10184000A2600840E060E3E76068012189050A467C
:101850008243A2600840E0600199C9E7E160A760A7
:101860002DE023484068FFF7DBFD11218A1B01D0E2
:10187000002807D00F22E96852051140A160E760F7
:10188000EF60FEBD0121C905E960012A0CD91046AF
:10189000C82148436421FEF749FC6968002241439E
:1018A00013484068FFF77EFD0F22E968520511409A
:1018B000E160A760FEBD0F214905A160E7602E70C1
:1018C000FEBD07229205AAE70D214905A160E76048
:1018D00001218905C2E70321C905A160E7608910DC
:1018E000BCE70F214905B9E70800002000050050BA
:1018F000E029000010B500780221FFF71FFE10BD9F
:1019000070B50446000E00F057FE0506200C00F0EE
:1019100053FE00040543200A00F04EFE000205437A
:10192000204600F049FE284370BD00000022D2434B
:10193000830004490428CA5002D3081820300277D3
:101940007047000028030020F0B50025ED43002A71
:1019500002D00023042601E0042308260B4C04E0F7
:101960009F00E7597F1C04D05B1CB342F8D3284684
:10197000F0BD26185DB2203635709E00A151002AB8
:10198000F5D1E11820310877F1E7000028030020A5
:10199000024909182020085670470000280300203B
:1019A00010B5084900230B600120820710600C6805
:1019B000002CFCD0044CA0614B609060486800286B
:1019C000FCD010BD0001004000050040F8B52348E0
:1019D000C16800293ED00E6821494C680769C0786B
:1019E000E11B0D022D0AED1C002814D101201D4A17
:1019F000000450601B4A403A50601B494000086098
:101A00001A4908601A49012008602F20FEF762FB7E
:101A100012490120C870B54200D23546E8190002CB
:101A20000F4B000A403318600D4A5168001B091B18
:101A30000902090A0002000AC91C814209D950683A
:101A400018602F20FEF746FB01200749400480392B
:101A50000860F8BD00F056FDF8BD00003C00002015
:101A6000001501404013014080E200E000E100E089
:101A700000100140F8B500260124154D23E06968E7
:101A8000F0004718387821462A698140114218D061
:101A90008A432A6100F0D8FA3A782146EB689140EF
:101AA00019400346934099420BD17978012901D01E
:101AB000012100E000217B684140002B01D010464D
:101AC0009847761CF6B228788642D8D3F8BD000035
:101AD0002800002010B50E4900234A788C78A242D5
:101AE00012D0521CD2B24A70022A00D14B704A78EE
:101AF000074B920018339A580260086910180002C8
:101B0000000A0861012010BD0360002010BD000024
:101B10003C000020826883881A4003689A5C0A703F
:101B20008168491C81607047C26883881A400368D5
:101B30009954C168491CC160704710B50446C0B2D1
:101B4000FFF7E8FC204610BDF8B50746104E01250A
:101B5000BD403068FFF764FC00280DD10D4C2069B2
:101B6000284207D1384600F06FFA0028E06804D018
:101B7000284303E0A8432061F8BDA843E060206942
:101B8000002228432061A1683068FFF70BFCF8BDF4
:101B90005C2A0000280000201048018CC9B20129ED
:101BA00017D1818C090714D1018D09060A0F03D1C1
:101BB000828D1206120F0ED0090F012903D1828DDA
:101BC0001206120F07D0032903D1808D0006000FE3
:101BD00001D000207047012070470000C00F00F0C6
:101BE00010B50448017AC90702D00078FFF786FDD6
:101BF00010BD000008000020F8B52C49C8680A692B
:101C00000C780F7989688646944600913EE00099E9
:101C1000E20055182A7836E0182353436968521CAD
:101C2000C918AB78D2B2934200D100220B78022BB4
:101C300002D0032B27D123E04E680346014603E080
:101C4000B14204D00B46C96900291CD0F8E700292D
:101C500019D08B4208D1C069002805D1144F012644
:101C6000BE600026B44601270E68C969D961002903
:101C700009D00B689B190B6005E00174C06900E096
:101C800000210028F9D169789142C5D12146641E0E
:101C9000E4B20029BBD1054962460A61C8600F71F0
:101CA000704501D00120F8BD0020F8BD3C000020A7
:101CB00000100140F8B5044631480026C168009183
:101CC00007784EE02E48F90080680D1843E0002C9C
:101CD00002D02046E4691FE02878182141436A6851
:101CE000401CC0B251182870AA78904200D12E70C2
:101CF0000A784868012A30D1027C002A2DD18A68EE
:101D00004260CA6882600A69C260496981611C498F
:101D10000979002900D04660194943680A699C4640
:101D2000991A0902174B090A994202D28268891846
:101D300007E06146511A09028268090A8A4202D9FB
:101D4000511A016000E0066046600121866001745E
:101D5000C66100F08DFC002CB9D1287869788842E2
:101D6000BAD138467F1EFFB20028ABD10448C16803
:101D70000098814201D00120F8BD0020F8BD00008C
:101D80003C000020FFFF7F000FB410B503A90298AC
:101D9000FEF788FD10BC08BC04B0184788B0FFF7F8
:101DA000FFFD0023234A03211846FFF7B3FA00285A
:101DB00001D0FFF763FA204A01AB07CA07C31F48E7
:101DC0000490012005901E480690FF2001300790E6
:101DD00003231C4A04A901A8FFF74CFB002801D0EB
:101DE000FFF74CFA002218490120FFF737FC0028C2
:101DF00001D0FFF743FA00F009FB10481349001D1A
:101E0000486013A11220FFF71BFC002801D0FFF748
:101E100035FA00F053FB044613A10A20FFF710FC2B
:101E2000002801D0FFF72AFA214615A0FEF72AFD67
:101E3000EFE7000064000020D4290000000000202B
:101E40009C0100207D270000CD0C00000015004003
:101E50005761697420666F722066697273742070AE
:101E600061636B65740A0D005061636B6574207764
:101E700061732072656365697665640A0D00000010
:101E800054686520636F6E74656E7473206F66208E
:101E9000746865207061636B6167652069732025D4
:101EA000750A0D008207D30EFF229A408907090E9A
:101EB00010B5994000280BDA03071B0F083B9C085C
:101EC0000C4BA400E318DC6994430C43DC6107E08D
:101ED0008408094BA400E418236893430B43236050
:101EE000C106C90E01208840044908600449086001
:101EF00010BD000000ED00E000E400E080E200E042
:101F000000E100E0F3B581B00F46019800F066FAF9
:101F1000012400281E4E019817D0FFF739FD8019C3
:101F20002030007F8009032802D0012806D007E076
:101F30001848006901998C40204201D1022100E03B
:101F40000321019800F022FAFEBD00F053FA0028A8
:101F5000FAD00198FFF71CFD05468100C81D0E4A06
:101F6000F93089180A6980B222430A610B49401886
:101F700000210160002FE7D00198FFF709FD8000E4
:101F800030580028E0D00648AC404460FEBD000058
:101F9000280300200005005000650040006000405C
:101FA00000630040FEB5044623480E460019202178
:101FB00041560027C8171346401C01D0082738E0B7
:101FC000F27819462046FFF7BFFC0546401C2FD08B
:101FD000B078002807D01948A10009180868022223
:101FE0009043086007E000217378204600910A467C
:101FF000019100F093F9F078002810D01048AA0061
:102000001018317802690F4B1A400261E206D20CB7
:102010008907890B0A4301690A43026109E00648FE
:10202000327840192030017F92011143017700E09E
:1020300004273846FEBD000028030020000700509A
:1020400000650040FFE0FCFF03490969C140C80783
:10205000C00F00D0012070470005005070B5124D30
:102060002879002801D0082070BD0F490020403990
:10207000421E0B182033401CC0B21A702028F8D31F
:1020800000242046FFF752FC641CE4B2082CF8D36D
:1020900003210620FFF706FF01200449C00748601E
:1020A00001202871002070BD6803002000630040FB
:1020B00002480079002800D0012070476803002002
:1020C000F3B52A4C0746E07E81B0002801D00820F5
:1020D000FEBD002F00D1264F386800F04CF938784B
:1020E000012631468140234881600021786800F054
:1020F00039F9214DB8696862787D397D0843E86611
:1021000003CFE8606961387B083F01280FD10021C7
:10211000B86800F027F9F86800F02DF9387B3146EF
:10212000814014488160F968B868A9602861029804
:1021300060603969216000280ED0FF230F481D33ED
:10214000397F0022C250FF234533C2500D4A0C484C
:1021500050600220FFF7A6FE042028600020E075F2
:102160002076A075E676A076FEBD00007003002004
:102170003C2A0000000500500025004000200040DF
:102180008000020000230040F8B5104B81245E68F7
:102190000022A4000E4D002E00D0AC60DF7D002F89
:1021A0000BD01A7E002A04D0002E00D06C601120C3
:1021B000F8BD18610122197604E0D9750024D860B1
:1021C0005C761C7600F012F8F8BD00007003002069
:1021D0000023004010B5044CA07E002803D100F07D
:1021E000DDF90120A07610BD70030020F8B5234D65
:1021F000A87E104301D100F0D1F96868204C002876
:1022000005D081201F49800048600020F8BDFF20D4
:10221000453000212150FF212531204600F0D0F823
:102220000546FF210931204600F0CAF80746FF2184
:102230004531204600F0C4F806463946314329436B
:10224000E9D02846304306D100F07EF90B48C17D25
:10225000407E8142DFD800210848002DC17501D0A1
:102260000320F8BD002E01D00F20F8BD817E012093
:10227000002901D02060C8E76060C6E77003002035
:10228000002000400023004010B5064A937D002B3B
:1022900001D0112010BD917590600020908200F057
:1022A00003F810BD70030020F8B50026194FFF2574
:1022B0001D357E510120B86000F03AFA164C616875
:1022C000002910D022E0FF2701372946114800F0ED
:1022D00077F8002802D1A08AB842F6D1A08AB84285
:1022E00001D000F025FAA08AA17D8842EBD3A18A13
:1022F000C81FF9380CD0074F2946384600F060F85F
:102300000028F9D00120F8600020A0753046F8BD03
:102310000F26F9E7002000407003002030B552007E
:102320000A439900039C0A432102049D0A4329049D
:102330000A43024980004018026030BD0007005087
:1023400030B552000A439900039C0A432102049DC0
:102350000A4329040A43024980004018026030BD44
:10236000000700501CB500220B4600921146019256
:10237000FFF7E6FF1CBD1CB5002100910B460122B2
:1023800001911146FFF7DCFF1CBD000082000648EA
:102390001018026803231B049A43026002680904B0
:1023A0000A430260704700000007005003494018CC
:1023B0000068012800D00020704700000060004045
:1023C0004058002800D001207047032212028018D4
:1023D0004068084000D001207047000004490818F8
:1023E00020214156042901DB01207047002070475D
:1023F000280300200449081820214156042901D24D
:1024000001207047002070472803002070B5254C3C
:102410000025E5600720A0602561C32000F0CCF80E
:102420000606C22000F0C8F800040643C12000F0F0
:10243000C3F800020643C02000F0BEF806436662FF
:10244000C72000F0B9F80606C62000F0B5F8000471
:102450000643C42000F0B0F80643A6621248FFF716
:102460004FFAE0611148FFF74BFA2062E562012064
:10247000206365610E48A06102206063606B800785
:10248000800F02280AD0606B8007800F012804D1DA
:10249000FF20E063FF200830A06370BD0548E063C3
:1024A0000548F9E70015004067452301EFCDAB89EA
:1024B00001010401FFFF00002110010030B50020E0
:1024C0000C49034608600C4A012454600D68002D35
:1024D000FCD0CB609460CD68002DFCD0074D2D68FA
:1024E000012D01D1064840680B6114610A69002A78
:1024F000FCD030BD0011004000100040001400402E
:102500000000002070B501240B49600408600B49ED
:1025100040108860094940398860094D6C602F205F
:10252000FDF7D8FDAC60074D00242F202C61FDF78E
:10253000D1FDEC7070BD000080E100E0401301406F
:10254000001001403C00002030B50A48FF21C57D45
:102550000022094C0931094B002D625007D09969BE
:10256000437EC268D154417E491C417630BD986992
:1025700030BD000070030020002000400025004016
:102580001FB501236A46137010720348019106C8F3
:10259000684690471FBD000070030020FF220548D9
:1025A000253200218150FF22093281500121016032
:1025B0007047000000200040014630B50020CBB23B
:1025C000014607241A46CA40D207D20F651AAA400C
:1025D0001043491C0829F5D330BD0000FEB51F4C3F
:1025E00000252769E06802906846FFF773FA0190BA
:1025F000FFF702FB06460198002822D0002300982E
:10260000E16817E00E680A46864202D9301A08606F
:1026100012E0801BF31800261660D668D169B44614
:10262000002E07D0FE183602360A566066469660BF
:10263000D56115460029E5D12846E160FFF73AFB50
:1026400006E02846FFF736FB002801D1002E02D015
:102650000298FFF7BBF900202071FEBD3C0000206E
:1026600001200249000508607047000000E200E018
:1026700010B50E4BD968002906D002680C68A2423A
:1026800004D8A21A0A60C161D86010BD0B4604E0EC
:102690000B46C969121B002904D00C689442F7D379
:1026A000A41A0C600260C161D86110BD3C0000201A
:1026B000F8B51D4DEC68002C34D01C48002740684C
:1026C0002969401A0602360A2068B04218D8361A1C
:1026D000C7192246107CE46900280FD0002010742E
:1026E0006B69002B07D0916950699847002805D085
:1026F000FEF7C4FD02E0516990698847002CE3D1E0
:102700006978A878814206D1401CC0B2A87002281E
:1027100001D10020A87004490006800D18310F5027
:10272000FFF79EFFF8BD00003C00002000150140AF
:10273000FF2107481D31002242500648828A8168E5
:10274000895C828A521C82820348C1617047000002
:102750000020004070030020002500401FB500212C
:102760006A4611701072044882680192817506C829
:10277000684690471FBD00007003002070470000AE
:102780007CB50178284D01290AD002292FD00029D3
:102790002CD129462548FEF77DFD002833D036E0B0
:1027A0004068017821481038FEF791FD1F4C103C1D
:1027B000002805D001216A4611700190684608E0A2
:1027C000A068E168081A012805D100206946087050
:1027D000684669688847A068E168081AA188884245
:1027E00004D811480121801CFFF7CEFC7CBD0221DA
:1027F0006A461170C06801900B480121801CFFF7E8
:10280000C3FC68460CE001210748FFF73DFD07487F
:102810008168C0688842E9D103206946087068462B
:10282000696888477CBD0000200000201803002054
:10283000F0B5454D012185B049022846FFF7C5FD99
:1028400001270026414C002824D0FF2125312846AD
:10285000FFF7B6FD00281DD0FF2025302E50812027
:102860003B4980008860A07E002800D16F60022173
:10287000684601703749086808600390E17D684642
:102880000172E0680190E675267606CC6846083C41
:1028900090472BE004212846FFF797FD002825D01C
:1028A000FF2109312846FFF78BFD00281ED0FFF7D6
:1028B0004BFEE07D617E884218D1207E002808D042
:1028C000627EE168E0752069E060267666761046F3
:1028D0000AE0A07E002800D16F6081201C498000A2
:1028E0008860E675607EE168FFF74AFEFF211D31D2
:1028F0002846FFF765FD00280DD0A18AA07D814202
:1029000002D2FFF715FF06E0FF211D316E500028AF
:1029100001D0FFF723FFFF2145312846FFF750FD87
:1029200000280ED0FF2045302E50A07E002800D079
:102930002F60E07D002804D0E675607EE168FFF737
:102940001FFE05B0F0BD0000002000407003002015
:10295000002300408024004012494868C005C00D93
:1029600019D0103840B2002807DA0207120F083ACF
:10297000920892005118C96904E081080A4A890046
:10298000891809688007C00EC1400806800F012819
:1029900003D0032803D00220704700207047012095
:1029A0007047000000ED00E000E400E0427883782A
:1029B000521CD2B2934200D100220378934201D13B
:1029C000002070470A704168407818225043081868
:1029D000704700000B09080A0100000000509D002C
:1029E0009C020020BC020020E80200201100000030
:1029F000120000001300000014000000110003008A
:102A00003D150000120003003D15000013000300F7
:102A10003D150000140003003D15000009000000F2
:102A20000B0000000A000000080000000000000089
:102A30000000000000509D0003000000090000009D
:102A40000B0000000A000000080000000000000069
:102A50000000000000509D00030000008C030020D7
:102A600003000000842A0000000000206400000031
:102A700000090000E82A0000640000204C0B000060
:102A8000100900000000000000000000000000002D
:102A90000000000000000000000000000000000036
:102AA0000000000000000000000000000000000026
:102AB0000000000000000000000000000000000016
:102AC0000000000000000000000000000000000006
:102AD00000000000000000000000000000000000F6
:082AE000000000000024F400D6
:04000005000000C136
:00000001FF
