:020000040000FA
:1000000050490020050500000D0500000F05000007
:100010001105000013050000150500000000000098
:1000200000000000000000000000000017050000B4
:100030000000000000000000190500001B05000082
:100040001D0500001D050000990800003D07000087
:100050001D0500001D050000B10500001D05000084
:100060001D0500001D0500001D0500001D05000008
:100070001D0500001D0500001D0500001D050000F8
:100080001D050000190700001D0500001D050000EA
:10009000750700001D0500001D0500001D0500007E
:1000A0001D0500001D0500001D0500001D050000C8
:1000B0001D0500001D0500000000000000000000FC
:1000C0001D0500001D0500001D0500001D050000A8
:1000D0001D0500001D0500000000000000000000DC
:1000E0000000000000000000000000000000000010
:1000F0000000000000000000000000000000000000
:1001000000000000000000000000000000000000EF
:1001100000000000000000000000000000000000DF
:10040000DFF80CD000F0C2F8004800479D1900004A
:1004100050490020401E00BF00BF00BF00BF00BF0A
:1004200000BF00BF00BF00BF00BF00BF00BF00BFD4
:1004300000BF00BF00BF00BF00BF00BF00BF00BFC4
:1004400000BF00BF00BF00BF00BF00BF00BF00BFB4
:1004500000BF00BF00BF00BF00BF00BF00BF00BFA4
:1004600000BF00BF00BF00BF00BF00BF00BF00BF94
:1004700000BF00BF00BF00BF00BF00BF00BF00BF84
:1004800000BF00BF00BFC5D170470000401E00BFC5
:1004900000BF00BF00BF00BF00BF00BF00BF00BF64
:1004A00000BF00BF00BF00BF00BF00BF00BF00BF54
:1004B00000BF00BF00BF00BF00BF00BF00BF00BF44
:1004C00000BF00BF00BF00BF00BF00BF00BF00BF34
:1004D00000BF00BF00BF00BF00BF00BF00BF00BF24
:1004E00000BF00BF00BF00BF00BF00BF00BF00BF14
:1004F00000BF00BF00BF00BF00BF00BF00BFC5D12D
:10050000704700000648804706480047FEE7FEE7C0
:10051000FEE7FEE7FEE7FEE7FEE7FEE7FEE7000098
:10052000790700000104000010B5431A934209D274
:100530008318881803E010F8011D03F8011D521EEE
:10054000F9D210BD40EA01039B0703D009E008C9B6
:10055000121F08C0042AFAD203E011F8013B00F888
:10056000013B521EF9D210BDD2B201E000F8012BBE
:10057000491EFBD270470022F6E710B513460A4623
:1005800004461946FFF7F0FF204610BD064C074D04
:1005900006E0E06840F0010394E807009847103453
:1005A000AC42F6D3FFF730FF902C0000B02C0000D7
:1005B0002DE9F0470025DFF8F090A8464FF480764B
:1005C00001242F46304601F0B5FE38B1D9F80403B6
:1005D000204203D0304601F0A3FE2543361D6400BF
:1005E0007F1CB6B2082FEDD34FF4BE74204601F045
:1005F000A1FE38B1204601F093FE2C4845F000459D
:10060000D0F800802A4E15F0FF0F14D001270024E7
:100610002F420CD009EB8401D1F81005D1F8101548
:10062000C0F3042056F82420C1F3014190477F0015
:10063000641C082CECD3002D32DA0024B14609EBFF
:1006400004004E4690F95010491C26D090F8507086
:1006500027F0C005284600F023FE56F82060E6B1DA
:10066000BF090120A840A90001F1A041D1F800175D
:1006700010EA080FC1F3014102D0022902D00CE0B8
:1006800003290AD1032F05D102290BD002212846C4
:1006900001F030FE39462846B047641C042CCED306
:1006A000BDE8F0870321F2E700600040100500502C
:1006B0006002002000F01F020121914040098000EB
:1006C00000F1E020C0F88012704700F01F02012105
:1006D00091404009800000F1E020C0F8001170470F
:1006E00000F01F02012191404009800000F1E0204C
:1006F000C0F8001270474907090E002806DA00F01A
:100700000F0000F1E02080F8141D704700F1E02098
:1007100080F800147047000007480021C0F840111D
:10072000C0F84411C0F84811C0F84C11C0F80011CD
:10073000C0F8041102F00AB80010014070B50C486E
:100740000A4C0025C0F80851214602F041F8002863
:100750000BD1A07EFF2801D001F0DAFD657625716E
:10076000201D2168BDE87040084770BDB802002018
:100770000030004001F086BF70B53F483E4900247C
:10078000091D00780A1D131D012506280BD10E78BE
:10079000360708D11678C6F30316032E03D11E7848
:1007A00016F0F00F02D0062806D011E03348016899
:1007B00021F0807101600EE00E78360708D11678BE
:1007C000C6F30316032E03D11E7816F0F00F02D0E5
:1007D000062804D015E02A49032008600BE00878B9
:1007E00000070ED11078C0F30310032809D1187840
:1007F00010F0F00F05D14FF08040C0F80C41C0F868
:1008000010411E487438016841F470010160BFF363
:100810004F8FBFF36F8F4FF01021D1F800020028E7
:1008200003DBD1F80002002821DA164A15601648C9
:100830000368002BFCD01523C1F800320568002D99
:10084000FCD0C1F8043201680029FCD014600168B2
:100850000029FCD0BFF34F8F0848F03801680B4ADD
:1008600001F4E06111430160BFF34F8FFEE70949D6
:100870000748086070BD0000E00F00F0FCED00E0EC
:10088000A005004004E5014000E401400400FA0531
:100890000090D003940000200348007F08B102F0CC
:1008A000C5B802F03FB80000D8020020014A024952
:1008B00000F013B89D1400009000002002E008C86A
:1008C000121F08C1002AFAD170477047002001E0CA
:1008D00001C1121F002AFBD170472DE9F0411646D5
:1008E0000F460446002503E03946B047641C6D1CE2
:1008F00020780028F8D12846BDE8F0810B46012178
:1009000001F048BD064800684FF40021044A8143C5
:10091000121D1160111D00F40020086070470000D6
:100920000405005070B50024064D06E068680121FA
:1009300010F8340001F0F2F8641C28788442F5D3F2
:10094000002070BD5C000020F8B515460C46064638
:10095000052A01D20720F8BD01F0C2F918B901F04B
:1009600095F90028F7D1104900204E600C70C1E9BC
:1009700002500E4D08610DE006EBC400696800915D
:1009800081788DF801100078094A694601F018F95C
:100990000028E0D1641EE4B2EED2BDE8F840054A7A
:1009A0000021024800F04AB85C000020882C0000BA
:1009B000AD1400005D130000BFF34F8F04480168C1
:1009C000044A01F4E06111430160BFF34F8FFEE779
:1009D0000CED00E00400FA050EB500210091CDE910
:1009E00001106A4644F20100FFF7E6FF10B5826885
:1009F000C368934203D000F001FD002010BD052024
:100A000010BD29B112B1531E134203D00920704703
:100A10000E2070470160838000218160C16008461C
:100A2000704710B58268C3689A1A83889A4203D8BF
:100A300000F0EEFC002010BD042010BD074B9B68A9
:100A400023B12AB120B10068037C1BB10820704794
:100A500007207047417442610020704770000020F9
:100A60002DE9F0478046994614460F4690074FF00F
:100A7000000634D11C4D8CB301F0D6FC0320C5F820
:100A80001490287004F11800002107EB4703AC60B4
:100A900004EBC102491C167056709770506000EB51
:100AA000C3000329F4DBEE606E70AE701420FFF714
:100AB00001FE03211420FFF71EFE1420FFF705FEA0
:100AC0000A49C1F8008003211120FFF714FE0748EE
:100AD000001F006828610020BDE8F08701E00720C2
:100AE000FAE7AE60FBE70000700000200815014047
:100AF0002DE9F843DFF870900D461746D9F8081035
:100B0000044651B34CB3052D02D20720BDE8F8834B
:100B1000606910B3607C012821D0002601F0F2FF4B
:100B2000D9F80810804601EBC800694602F00CF8BD
:100B3000B8B1012100F8041B0C4910C0096880E815
:100B4000E200D9F8081001EBC8009DF800104170D0
:100B50001420FFF7C5FD0020D8E70820D6E72E4671
:100B6000DCE70420D2E700007000002004150140FB
:100B7000F8B5124E0446B168E1B1DCB16069C8B1A4
:100B80000027277401F0BEFF0546B068694600EBF8
:100B9000C50001F0D9FF78B1022101704460B0684E
:100BA0009DF8001000EBC50041701420FFF798FD80
:100BB0003846F8BD0820F8BD0420F8BD70000020BC
:100BC00070B50446234888B01E460D00426035D0FB
:100BD000A888296882B22048FFF713FF00282ED189
:100BE000A889A96882B21C481030FFF70AFF0028C4
:100BF00025D1202219496846FFF796FCA068069087
:100C0000207900B101208DF814008DF81C60607906
:100C100000B10E208DF81500E0780290A0780390C6
:100C200020780190607800900D49684601F058F9ED
:100C3000002804D19DF81D0018B104E0072008B079
:100C400070BD01F0DDF903480121801C01F092F92B
:100C5000F5E7000054000020F8020020682C000096
:100C60007D28000010B50446074801214470401C4F
:100C700001F06CFA112805D12146BDE81040034867
:100C8000FFF7CFBE10BD0000540000200803002075
:100C90002DE9F0410446006801F022FB2078174F4F
:100CA000012606FA00F038600021606801F005FBBB
:100CB0001348144D007FA069C5F82405607D217D8F
:100CC0000843C5F86C05D4E90001C5F80C05C5F862
:100CD0001415207D01280FD10021A06801F0EDFA44
:100CE000E06801F0FDFA207B86403E60D4E9020115
:100CF000C5F80815C5F81005BDE8F08108050050D5
:100D0000D8020020002000402DE9F04707460024CB
:100D1000244802E0641C042C41D250F82420BA423A
:100D2000F8D1042C3BD21F48DFF87C901F4E0C38C2
:100D3000A9F1140841B301290FD002292FD104EBE6
:100D4000440030444578002D29D0D8F810100029EF
:100D500025D02846BDE8F047084704EB4401755C00
:100D60000E44717861B1D8F804100F4A01EB81018B
:100D70004900133A8068FFF7BBFE08B988F8017094
:100D8000B17809F80410DEE78068FFF7F1FE04EBA4
:100D90004401314419F804008D78A842D3D0BDE84D
:100DA000F0870000082C00005000002034020020D2
:100DB000114810B50121016000228807C0F8042104
:100DC000C0F80810D0F804110029FBD000230B4A0A
:100DD00003211846FFF744FE08B1FFF7FDFD00228E
:100DE00040F6CD41012000F02DF8002803D0BDE8E9
:100DF0001040FFF7F1BD10BD18050040BC000020F9
:100E000070B50023042810D20D4D00EB4004012AD8
:100E100002D101290CD00022094E00EB40003044E1
:100E200061B1012906D0022906D00723184670BDFA
:100E30000D30C2B22A55F9E74270F7E78270F5E744
:100E40003402002070B50E462149054600200A6193
:100E5000C1E90165A9071BD50024012211462046DE
:100E6000FFF7CEFF641C042C02D20028F5D00FE05F
:100E700070B9720804211748FFF766FD40B9FFF703
:100E800051FD28B91348144A00211438FFF7D6FD44
:100E9000E9070AD0114A4FF4F01111600F4B0022FC
:100EA0001B1D1A600D4A1032116000280FD109482D
:100EB0000B4A00211C38FFF7C1FD002807D1BDE80F
:100EC000704004480121074A1838FFF7B7BD70BDCC
:100ED0003C000020182C00002112000008050050E2
:100EE00001180000050900002DE9F84F854EDFF8D4
:100EF00010A24FF4E01CF16807462CEA010C0091A7
:100F0000002071680AF10404251D7F4B4FF4003264
:100F10004FF4802B01EB810E8146182F16D2DFE8AB
:100F200007F00C17173A4E607083868F868FEAA001
:100F3000A0A0A0A0CAD1D8E1EAEA009A4FF4F0112B
:100F400091432160C5F8009086F80090BDE8F88FC5
:100F5000C4F800C04846C5F80090DAF800C08CF428
:100F6000F01C5FEA8C3C09D522602860022F02D178
:100F70004FF4E16008E04FF47A6005E02A602060F9
:100F8000022F3CD04FF4C8706422B0FBF2F0414312
:100F9000377000225EE0C4F800C04846C5F80090F3
:100FA000DAF800C08CF4F01C5FEA8C3C04D52260B7
:100FB00028604FF44870E7E72A6020601FE0C4F81B
:100FC00000C04846C5F80090DAF800C08CF4F01C68
:100FD0005FEA8C3C02D522602860CCE72A60206062
:100FE000D0E7C4F800C04846C5F80090DAF800C061
:100FF0008CF4F01C5FEA8C3CDED522602860C820AF
:10100000C2E7C4F800C04846C5F80090DAF800C04E
:101010008CF4F01C5FEA8C3C02D52260286001E071
:101020002A602060377014E0C4F800C04DE0DAF8A0
:1010300000002BEA0002226000F48020286008E013
:10104000DAF800002BEA0001216000F4802028601B
:10105000714600221868BDE8F84FFFF749BD2160CE
:101060002EE098465868FFF783FDD7F1110100D0B4
:1010700040B1F16801F4F0112160C5F80090C6F8A4
:101080000C9063E74FF40022F26001290CD9C820CC
:1010900011FB00F16420B1FBF0F1706800224143C4
:1010A000D8F80400FFF724FDF16801F4F01129607D
:1010B000C4F800904AE74FF4F0112160C5F80090A1
:1010C000377043E74FF4E01121604946C5F80090BE
:1010D00006E04FF4D01121604946C5F800905A4609
:1010E0002A60BCE74FF4C01121604946C5F8009062
:1010F0004FF4C022F4E74FF4F01129604946AEE7FF
:10110000040500503C000020FC2B00002DE9F84FA6
:101110000E4601EB560782463F1D384600F09EFC06
:1011200080463946FFF727FA0020044605464FF06F
:101130000109009024E0321B0AEB04016B461348BE
:1011400000F0CCFA00980444B44202D10F4800F0F9
:10115000D9F97A1B08EB05016B460C4800F0E5F95C
:10116000009901280D44F4D0BD4204D308A0FFF734
:101170009DFB01F0ABF9B44202D1044800F0C2F982
:10118000B442D8D30020BDE8F88F00003803002017
:10119000636F6D7072657373696F6E2073686F75BE
:1011A0006C64206E6576657220657870616E64206F
:1011B00074686174206D756368720D0A0000000028
:1011C00010B50446D4E90202824201D1022010BDCA
:1011D000D4E90420FFF7A8F9D4E9041008446061B9
:1011E0006168884201D120686061E068401CE0606D
:1011F000002010BD70B5164604460D4601FB06F0F2
:1012000000F02CFC206048B105FB0601C4E9011583
:101210000021E160C4E90460A06170BD01F056F9ED
:1012200000780221FFF770BD81684068096881423B
:1012300001D20120704700207047000005494FF09F
:10124000FF32082841F8202002D3084480F84820C3
:101250007047000060020020F0B54FF0FF3512B17A
:101260000023082601E008230C260C4C05E000BFF3
:1012700054F823707F1C04D05B1CB342F8D328467B
:10128000F0BD26185DB286F8305044F82310002ACD
:10129000F5D1E11881F84800F1E700006002002074
:1012A0000249084490F930007047000060020020B5
:1012B0002DE9F05F2648C168F1B3DFF898B00E68F9
:1012C0008146DBF800400769C078E11B21F07F45CB
:1012D000ED1CB0B9DFF880804FF48030C8F84403CB
:1012E000C8F804031120FFF7E5F91120FFF7EDF925
:1012F0004FF0010AC8F800A02F20FFF7C7F889F8BF
:1013000003A0B54200D23546124BE8193C3320F019
:101310007F401860DBF800105A46091B21F07F411E
:10132000001B20F07F40C91C81420FD91068186053
:101330002F20FFF7ABF800E004E0BDE8F05F1120DC
:10134000FFF7CEB9BDE8F05F01F06EB8BDE8F09FE1
:101350007000002004150140001001402DE9F0410B
:1013600000260125144C22E06068226900EBC607C4
:10137000387805FA00F1114217D08A43226100F053
:101380007BFC02463878E36805FA00F1194002FA5E
:1013900000F3994209D17978012901D0012100E0B7
:1013A000002151407A6802B19047761CF6B220784D
:1013B0008642D9D3BDE8F0815C0000200E4910B50B
:1013C0004A788C780023A24212D0521CD2B24A70C2
:1013D000022A00D14B70084A4B78183252F8232069
:1013E00002600869104420F07F400861012010BDB0
:1013F0000360002010BD0000700000208268838818
:101400001A4003689A5C0A708168491C81607047C1
:10141000C26883881A4003689954C168491CC16036
:1014200070472DE9F04F00F2124700F1100A0AEB65
:1014300042004FF6FF7E0025F34607EB020CB0F9A1
:1014400002600FFA81F91BE0B8191CF80540415DF4
:10145000A14211D1012406E0015D1CF80480414540
:1014600003D1641CA4B29C42F6D3AC4204D92546F5
:101470001FFA86FB9C4206D00AEB4600B0F90260D8
:10148000B6EB0900E0D5012D06D909980580A2EB3D
:101490000B0080B2BDE8F08F7046FBE710B5044644
:1014A000C0B2FFF7DFFB204610BD00002DE9F04180
:1014B000124E07460125BD403068FFF759FB002852
:1014C0000DD10F4C2069284207D1384600F0D4FBDB
:1014D0000028E06805D0284304E0A8432061BDE867
:1014E000F081A843E060206928432061A16830684A
:1014F000BDE8F0410022FFF7FBBA0000882C000095
:101500005C00002048B1C17A41F00101C172017B49
:1015100031B1092907D0012070474FF0FF307047E3
:1015200001210173F7E7002070472DE9F04FADF579
:10153000037D1D461746040018D0B9B1B5B16FF050
:10154000010B002F71D04FF0000AC5F800A0CDE9C3
:10155000801704F212498295267B0A2E65D2DFE8B5
:1015600006F0B90B323651677A8FA6B94FF0FF30CB
:101570000DF5037DBDE8F08F04F11008FF224FF454
:1015800000716846FEF7F0FF20886A4600F580701B
:1015900083B2002008F1020809E019F8001032F8BF
:1015A00011C028F810C022F81100401C80B29842E7
:1015B000F3D363E02073C0B2B042CDD12868B84203
:1015C000CAD10120D4E7204600F0FBFFF2E70DF579
:1015D00000784046FFF728FE90B1A08850B1002265
:1015E00041462046FFF78AF9E088401E2081082105
:1015F000A17228E0012241462046FFF77FF915E05D
:101600000320D7E780A8A0460090FFF70DFE68B141
:10161000B8F802000821FF3080B24044009B90F8E7
:101620001224404600F0B6FE28E055E00420C1E751
:101630000DF500784046FFF7F7FD20B14146204602
:1016400000F0DAFE08B10520B4E7A088401E208132
:101650000421A1720AE00DF500784046FFF7E4FD91
:1016600020B14146204600F0C7FE08B10620A1E7A0
:101670006188A08808446080A4F804A0022099E74B
:101680006088C0F5807080B200F58071C0F580760A
:101690008AB23119484601F21241FEF745FFA4F81B
:1016A00002A02188891B218084F80CA054E7A17B2B
:1016B00080A880290AD0FFF7B7FD48B18298829DA3
:1016C000809B0068627B411C29601A54092000E05D
:1016D0000820207300204BE7584649E72DE9F041E8
:1016E0001F46040025D021B31FB3E07AC3076FF073
:1016F00001001CD1237B002B19D1208800F58073B9
:10170000C0F5807086B29BB2964200D2324695B246
:10171000E0182A4600F21240FEF706FF3D602088DE
:10172000B5422844208001D1012020730020BDE86B
:10173000F0814FF0FF30FAE72DE9F0439BB03422FF
:101740002D490DA8FEF7F0FE2B49342234316846AE
:10175000FEF7EAFE294D00242646287B05F10807FE
:1017600000F03F0000902869019068690290A86924
:101770000390E8690490286A0590686A0690A86A50
:101780000790D5E90B0100EB8110089068780028DC
:10179000FCD06E700DA8194910F824203DF82400E3
:1017A000891D40EA022040F40040020A0A70487095
:1017B0003E707E700220287000F038FF641C0D2CF3
:1017C000E4DBDFF83880002408F106084FF0050953
:1017D00068780028FCD06E7088F8006088F8016096
:1017E0003E707E7085F8009000F020FF641C022C93
:1017F000EEDB1BB0BDE8F083882B0000000000206A
:101800000348017AC90702D00078FFF76DBB704723
:101810003C0000202DE9F047DFF8ACA0DAF80C001E
:101820009AF8004080469AF80460DAF80890DAF8EE
:1018300010703AE009EBC4052A7833E002EB42016C
:101840006B68521C03EBC101AB78D2B2934200D15A
:1018500000220B78022B02D0032B23D11FE0D1F8FA
:1018600004C00346014603E0614503D00B46C96945
:10187000C1B1F9E7B1B18B4205D1C06918B9134FB5
:101880000126BE600027D1F800C0C969D96149B1FD
:101890000B6863440B6005E00174C06900E000213F
:1018A0000028F9D169789142C8D1641EE4B2C1D24E
:1018B000CAE903078AF80460404502D00120BDE868
:1018C000F0870020FBE700007000002000100140BE
:1018D0002DE9F04705462F48002680460778D0F8C6
:1018E0000C904BE0D8F8080000EBC70440E002D0B1
:1018F0002846ED691EE02078616800EB4002401C3C
:10190000C0B201EBC2012070A278904200D12670D3
:101910000A784868012A2DD1027C5ABB8A68426045
:10192000CA6882600A69C2604969816198F80410D6
:1019300001B146604268D8F81030DFF85CC0D11AB7
:1019400021F07F41614502D28268114406E0991A74
:10195000826821F07F418A4202D9511A016000E079
:1019600006604660012186600174C66100F0D0FE09
:10197000002DBCD1207861788842BCD17F1EFFB297
:10198000B0D2D8F80C10494502D00120BDE8F0874C
:101990000020FBE770000020FFFF7F0088B0FFF70A
:1019A00007FA2A4A032307CA8DE80700284803904C
:1019B00027490220891CCDE904010690254A03A984
:1019C0006846FFF7FDF808B1FFF706F85620FFF765
:1019D00049F90028FAD1FFF7AFFE5720FFF742F987
:1019E0000028FAD10122D1021B48FFF703FC184D51
:1019F000AD1E05F108045820FFF734F90028FAD18C
:101A00005920FFF72FF90028FAD168780028F7D07D
:101A1000002068700E4995F83420091D22F07F429D
:101A20000A704870207060700420287000F0FEFD7D
:101A300005E0A05DFFF716F90028FAD1761C022E0A
:101A4000F7DB012000F040F8DAE70000F02B00009F
:101A50000200002069280000A0000020F0B50B3033
:101A6000154D20F007010024144A0FE003688B4253
:101A70000BD38B4205D95E1A43184768C3E9006748
:101A800000E04368136002C004E0021D10680028F3
:101A9000ECD12046002802D1286808B10020F0BD12
:101AA000064A07481060074A121A22F00702C0E9E6
:101AB000002401202860D7E79C0000209800002027
:101AC000540900205029002031B540F2E73404E0E9
:101AD000401E00902046FEF79DFC00980028F7D19C
:101AE00038BD4907090E002806DA00F00F0202F19E
:101AF000E02282F8141D03E000F1E02282F80014D5
:101B000000F01F02012191404009800000F1E02017
:101B1000C0F88012C0F80011704700002DE9F047AE
:101B20008846814600F01EFC0124224E00284846CB
:101B300018D0FFF7B5FB304490F84800800903281F
:101B400002D0012806D007E01B48006804FA09F417
:101B5000204201D1022100E003214846BDE8F047C0
:101B600000F0C8BB00F00AFC002820D04846FFF770
:101B700097FB0546114F4FF4807007EB850100EB92
:101B80008500D1F8102580B242F00102C1F810257D
:101B900000F0C6FBB8F1000F09D04846FFF780FB04
:101BA00056F82000002802D0AC40C7F80443BDE836
:101BB000F087000060020020100500500060004027
:101BC0002DE9FC41DFF8A480044608EB040000275F
:101BD00090F930001346C0170E46401C01D008276C
:101BE00040E0F27819462046FFF736FB0546401CD8
:101BF00037D0B07848B1A00000F1A040D0F800176D
:101C000021F00201C0F8001707E000217378204698
:101C100000910A46019100F01DFBF078C0B1144814
:101C2000317800EB8500D0F81025124B1A40C0F82F
:101C300010254FF4F8524FF4403302EA042203EA2D
:101C400001410A43D0F810150A43C0F8102509E0F5
:101C500008EB0500327810F8481F41EA8211017044
:101C600000E004273846BDE8FC8100006002002047
:101C700000600040FFE0FCFF03490968C14011F02B
:101C8000010000D0012070471005005070B5124DC2
:101C900095F8540008B1082070BD0020411E2A1894
:101CA000401CC0B282F830102028F8D3002420460F
:101CB000FFF7C4FA641CE4B20C2CF8D3012106200F
:101CC000FFF70FFF05494FF00040C1F80403012062
:101CD00085F85400002070BD6002002000600040C4
:101CE000034890F85400002800D0012070470000FD
:101CF000600200202DE9FC5F07464079DFF80CA167
:101D00000C460AEB4016317E11B10820BDE8FC9F5D
:101D100014B93F4901EB00143260207B01250128F2
:101D2000DFF8F0B0207804D805FA00F0CBF8000016
:101D300001E000F0EDFA2178A946890001F1A04107
:101D4000C1F8005765784FF0FF38FF2D07D009FA2A
:101D500005F0CBF80000284600F0B8FA00E0454650
:101D6000A0784FF0000BFF2809D0002280465B4688
:101D7000CDF800B01146CDF804B000F07CFAE07860
:101D8000FF2804D000F0C4FAE07800F09FFA7979D7
:101D9000E0780AEB4111887638682378C0F8083576
:101DA000C0F80C55C0F81085A168C0F82415237B35
:101DB000617B01B10121012B04D0022B05D0032B43
:101DC00008D105E041F0020104E041F0040101E026
:101DD00041F00601C0F854157B7961790AEB431292
:101DE000D176316811B10421C0F804134D46C0F812
:101DF0000095306820B1217997F90400FFF771FE52
:101E000086F819B03576002080E70000B80200207F
:101E1000382C00000C0500501FB5069C00918DF871
:101E2000042002938DF80C400022694600F024F84B
:101E300004B010BD10B541790E4A02EB4112116891
:101E400059B190F90410012301F01F04A34049097E
:101E5000890001F1E021C1F880310068116819B1F1
:101E60004FF0FF31C0F808130021C0F800151176BB
:101E700010BD0000B80200202DE9F04113460C46C9
:101E80004179154A02EB41114A7E12B11120BDE899
:101E9000F0810A6801251AB113F0140F00D14D76B4
:101EA00094E8C41001F1080888E8C4104A7F22F0C1
:101EB00003024A778A7EFF2A02D09540074A1560BE
:101EC0001BB1002048760620E1E70068224600F0BA
:101ED00041FB0020DBE70000B80200200C050050A9
:101EE0002DE9F0411E4C07460D46E07E10B108205A
:101EF000BDE8F08107B91B4F787F20773846FEF7A1
:101F0000C7FE6560386920602800174E4FF0000555
:101F100016D0397F207F48B1C6F81051C6F820513D
:101F2000C6F82451C6F84451104804E0C6F81C51C4
:101F3000C6F844510E48C6F804030220FFF7D1FD4D
:101F4000207F08B1082000E00420C6F80005E575F0
:101F50002576A5750120E076A5760020C8E700006B
:101F6000D8020020482C000000200040100302008E
:101F7000800002002DE9F0411F4B1C7F3CB14FF463
:101F80000052B2EB104F02D01020BDE8F081D3F820
:101F900004C00022194D4FF404764FF40177BCF1D0
:101FA000000F05D014B1C5F8086301E0C5F8087347
:101FB00093F817E0BEF1000F10D01A7E52B1BCF1B9
:101FC000000F05D014B1C5F8046301E0C5F804732F
:101FD0001120DAE718610122197604E0D97500258D
:101FE000D8605D761D761CB1BDE8F04100F066B8A2
:101FF000BDE8F04100F014B8D802002000200040F5
:1020000010B5064C207F002806D1A07E002803D101
:1020100000F050FA0120A07610BD0000D802002088
:102020002DE9F05F234DA87E104301D100F042FA64
:10203000214C686830B14FF40170C4F804030020EB
:10204000BDE8F09F4FF000094FF4A27AC4F8449124
:102050004FF4927BA8465946204600F073F9054696
:102060004FF48471204600F06DF907465146204632
:1020700000F068F9064647EA06012943EBD055EA25
:10208000060007D100F0EEF998F8171098F819003B
:102090008142E0D888F817900DB10320D0E70EB147
:1020A0000F20CDE798F81A10012009B12060C6E78B
:1020B0006060C4E7D8020020002000402DE9F05FF6
:1020C000204C00264FF48873C4F810614FF4A275B9
:1020D000C4F84461C4F83405C4F838158AB1D4F89A
:1020E000000240F02000C4F80002DFF85C80D8F85D
:1020F000040048B14FF40470C4F804030020BDE8A4
:10210000F09F01202060F0E79A46A9464FF4927BA9
:102110005146204600F021F905464946204600F088
:102120001CF907465946204600F017F93D43054380
:10213000EED088F8176008B10320E0E7002FDDD06B
:102140000F20DCE700200040D80200202DE9F047F6
:102150001E4D2A7F3AB14FF40053B3EB104F02D01B
:102160001020BDE8F087AB7D0BB11120F9E7A97510
:102170000023A860AB822AB3154C00264FF490725E
:102180009846C4F820314FF4AC73C4F85881C4F8B1
:102190004405C4F848150120A060686880B99246DB
:1021A00099465146204600F0D8F807464946204651
:1021B00000F0D3F80743F4D000B10F2685F816805D
:1021C0003046CEE7BDE8F04700F004B8D802002062
:1021D000002000402DE9F05F1C4F00254FF48E7A5F
:1021E0002E46C7F81C514FF00108C7F8088000F0D0
:1021F00017FB174CB815616879B123E05F4651466B
:10220000484600F09FF810B9A08AB842F7D1A08ADA
:10221000B84204D000F004FB01E08346B946A08A2E
:10222000A17D8842EAD3A08A584501D10F2508E054
:102230004F465146384600F085F80028F9D0C7F8D7
:102240000C80A6752846BDE8F09F000000200040E5
:10225000D802002030B541EA4201DDE9034541EAF8
:102260008301800041EA042100F1A04041EA0541D8
:10227000C0F8001730BD30B541EA4201DDE9034541
:1022800041EA8301800041EA042100F1A04041EAD3
:102290000541C0F8001730BD30B541EA4201DDE923
:1022A000034541EA8301800041EA042100F1A04096
:1022B00041EA0541C0F8001730BD1CB500220B46AD
:1022C000009211460192FFF7E7FF1CBD1CB50021EB
:1022D00000910B46012201911146FFF7CCFF1CBD76
:1022E0001CB5002100910B46012201911146FFF718
:1022F000D3FF1CBD800000F5E06000F1A040026843
:1023000022F440320260026842EA014101607047F3
:10231000012181400148016070470000080500501C
:10232000034908B50844002101600068009008BD19
:102330000060004002494058012800D0002070474A
:10234000006000404058002800D001207047D0F8BD
:102350000403084000D0012070474058002800D0F6
:10236000012070470449084490F93000082801DB37
:102370000120704700207047600200200449084493
:1023800090F93000082801D20120704700207047E2
:1023900060020020F0B5082902D0491E04D5F0BD26
:1023A000817B80290FD007215FF0010606FA01F535
:1023B000154203D0447B857B2C434473847B6408A3
:1023C000847307D015E099681C680868431C0B608B
:1023D0002254F0BD802484739D68D3F800C0477BED
:1023E0002C6804F1010EC5F800E00CF8047000241C
:1023F0004473491EDAD5F0BD70B505460B46807AA8
:102400002989082804D908240838C140CAB202E042
:102410000400CAB206D021462846FFF7BBFFA87ABF
:10242000001BA872204670BD70B5012670044FF0E5
:10243000E0210025C1F88001084C4010C4F8480391
:10244000C4F8080366602F20FEF720F8A660044C4D
:102450002F202561FEF71AF8E57070BD00100140CD
:102460007000002009480A490022C37DC1F80821F4
:1024700043B1D1F81815437EC268D154417E491C3E
:1024800041767047D1F8180570470000D802002047
:10249000002000401FB501228DF8080004488DF887
:1024A00000200191D0E90012684690471FBD00004E
:1024B000D802002004480021C0F82411C0F80811F7
:1024C00001210160704700000020004003494FF4E3
:1024D000F01008600020091F0860FEE70C0500509E
:1024E00010B5007800281FD11048FFF7A3FC104951
:1024F0001048FEF765FE0E4C083C022812D10D482C
:10250000A26BC1680068FEF701FE10B10AA0FEF7D9
:10251000CDF9606B401CC11700EBD16121F01F01A8
:10252000401A60630120607010BD0000702B000035
:1025300008000020A00000204572726F7220636FB7
:102540006D7072657373696E672064617461210ACE
:102550000000000070B5002604460E7704200D46EA
:10256000C4F80803C4F80861107910B11068007845
:1025700000E0E87EC4F81C051079012802D9106833
:10258000407803E0107B012802D9E87EC4F81C05DE
:10259000286818B10420C4F8040370BDD4F80801F9
:1025A0000028FBD0C4F808612946204600F010F945
:1025B0000028F3D1A87EFF28EFD0BDE87040FFF7D8
:1025C000A7BE7CB504461023E17A4088258811F027
:1025D000010101D0012200E01A46AA1A824204DA5F
:1025E00009B108207CBD07207CBD00F580718AB24E
:1025F000A2F58071281A89B2102800DA83B201A8E6
:1026000000250090ADF804502046FEF70AFFA0F523
:102610007F41FF3905D0E080BDF80400A080032091
:102620007CBD6088401C6080A580F8E77FB5124CB7
:10263000002104F1080620466CCE8DE86C008DF870
:102640000D101D218DF8001019218DF801101C218D
:102650008DF802100C218DF80310084A6946FFF727
:1026600049FB08B1FEF7B8F90549022220468B1C48
:102670000092FFF7D1FB7FBD702B0000E12400002A
:10268000060000202DE9F84F204C00256846D4E9CB
:1026900003B6FEF793FE8046FFF7BCF80746A9464F
:1026A000B8F1000F25D00023009ACC46E06819E06D
:1026B00007680146974202D9BA1A026014E0C1F8CD
:1026C00000C0D1F80C80D21BC8693B448A46B8F1DF
:1026D000000F07D0F71827F07F47C1E90178CAF843
:1026E0001C500D460028E3D1E0602846FFF7F0F8C3
:1026F00004E02846FFF7ECF800B917B15846FEF79A
:10270000D7FD84F80490BDE8F88F00007000002029
:102710000D4B10B5D96831B102680C68A24204D8DB
:10272000A21A0A60C161D86010BD0B4603E00B46D7
:10273000C969121B21B10C689442F8D3A41A0C6029
:102740000260C161D86110BD700000202DE9F04128
:102750001D4DEC68002C35D01C4800270068296905
:10276000B846401A20F07F462068B04215D822466D
:10277000361A0744E469107C68B182F810806B69EE
:1027800033B1D2E90501984728B1FEF725F902E0F7
:10279000D2E905108847002CE6D16978A8788142F3
:1027A00006D1401CC0B2A870022801D185F8028071
:1027B0000548A978183040F82170BDE8F041142090
:1027C000FDF78EBFBDE8F0817000002004150140C8
:1027D00038B5D0F818258DF800200A7F0B7D9A4275
:1027E00003D29DF800300C69A3540A7F521CD3B267
:1027F0000B770C7B5A1C944202D98968895C03E0F0
:102800000D7D954203D9C97EC0F81C1503E0A34293
:1028100001D3AB4201D2012038BD002038BD0000F9
:10282000064A0020C2F81C010548838A8168C95CF9
:10283000838A5B1C8382C2F81C157047002000400D
:10284000D80200201FB500218DF8080005488DF83A
:102850000010826801928175D0E9001268469047A5
:102860001FBD0000D80200200178022901D00129F3
:1028700002D14068FEF7B0B8704700007CB501781F
:10288000264D012909D002292CD0002929D1294619
:102890002348FEF7ABF880B334E040680178204865
:1028A0001038FEF7BEF81E4C103C20B101218DF807
:1028B0000010019007E0A068E168081A012805D11E
:1028C00000208DF80000696868468847A068E168C4
:1028D000081AA188884204D810480121801CFFF7FB
:1028E00049FB7CBD02218DF80010C06801900B48A7
:1028F0000121801CFFF73EFB0CE0FFE701210748A8
:10290000FFF724FC06488168C0688842E9D10320AB
:102910008DF800006968684688477CBD5400002037
:10292000080300202DE9FF413E4D4FF40071284679
:10293000FFF70DFD01273C4C4FF40178002600B352
:102940004FF492712846FFF7FDFCD0B1C5F8246121
:10295000C5F80883A07E00B96F6002208DF80000E2
:10296000D5F88004C5F880040390E07D8DF8080058
:10297000E0680190E6752676D4E900126846904733
:1029800024E004212846FFF7E2FCF8B14FF48471FB
:102990002846FFF7D7FCC8B1FFF764FDE07D617EF4
:1029A000884213D1227E3AB1607EE168E2752269E5
:1029B000E2602676667607E0A07E00B96F60C5F813
:1029C0000883E675607EE168FFF764FD4FF48E7161
:1029D0002846FFF7B7FC58B1A18AA07D814202D2F8
:1029E000FFF71EFF04E0C5F81C6108B1FFF72AFFDE
:1029F0004FF4A2712846FFF7A5FC00280FD0C5F8B8
:102A00004461A07E00B12F60E07D002807D0E6750C
:102A1000607EE16804B0BDE8F041FFF73BBDBDE872
:102A2000FF81000000200040D80200207FB5334C19
:102A30004FF492712046FFF790FC314D0026B0B163
:102A4000C4F8246102208DF80000D4F88004C4F892
:102A500080040390D4F83C058DF80800E8680190E4
:102A6000EE752E76D5E90012684690471FE04FF4C8
:102A700088712046FFF771FCC8B1C4F81061D4F822
:102A80003C05E97DC0B2814211D12A7E5AB1E96884
:102A9000D4F8003223F02003C4F80032EA752A6922
:102AA000EA602E7601E0EE75E968FFF7F3FC4FF47B
:102AB000A2712046FFF751FC50B1C4F84461E87D93
:102AC00030B1EE75D4F83C05E968C0B2FFF7E2FC1E
:102AD0004FF490712046FFF740FC00280CD0C4F85A
:102AE0002061A87D002807D0D4F84C0504B0C0B2FE
:102AF000BDE87040FFF7A6BE7FBD0000002000408B
:102B0000D80200200F480068C005C00D13D010384F
:102B100040B2002806DA00F00F0000F1E02090F843
:102B2000140D03E000F1E02090F8000440090128B2
:102B300003D0032803D002207047002070470120F3
:102B40007047000004ED00E042788378521CD2B256
:102B5000934200D100220378934201D100207047B4
:102B60000A704168407800EB400001EBC0007047FC
:102B700000300040030000000000000003CC000013
:102B80000000001000000000010000000200000032
:102B90000400000008000000090000000A00000016
:102BA0000B0000000C0000000D0000000E000000F3
:102BB0000F000000100000001100000000000000E5
:102BC0000000000000000000000000000000000005
:102BD00000000000000000000000000000000000F5
:102BE000FF000000FF000000FF000000FF000000E9
:102BF000080605070100000000E0D701F4010020ED
:102C000014020020400200200D0000000E00000011
:102C10000F000000100000000D000300090D00006F
:102C20000E000300090D00000F000300090D000055
:102C300010000300090D00001D191CFF03FF000018
:102C40000000004000000000000000000000000044
:102C50000000000000000000000000000000000074
:102C600000009D00030000000000000000000000C4
:102C70000000000000000000000000000000000054
:102C800000009D0003000000180300200300000066
:102C9000B02C000000000020A0000000BC080000D4
:102CA000502D0000A0000020B0480000CC0800001B
:102CB00005010000000000000000000020000000EE
:102CC00028000000400000001E0000000500000079
:102CD0002B00000006000000100000003C00000077
:102CE00001000000000000000000000000000000E3
:102CF00000000000000000000000000000000000D4
:102D000000000000000000000000000000000000C3
:102D100000000000000000000000000000000000B3
:102D200000000000000000000000000000000000A3
:102D30000000000000000000000000000000000093
:102D4000000000000090D003000000000000000020
:0400000500000401F2
:00000001FF
