:020000040000FA
:10000000F80F00205905000061050000630500009D
:10001000650500006705000069050000000000009C
:10002000000000000000000000000000910400003B
:100030000000000000000000090500004505000068
:1000400071050000710500007105000071050000D8
:1000500071050000710500007105000071050000C8
:1000600071050000710500007105000071050000B8
:1000700071050000710500007105000071050000A8
:1000800071050000250400007105000071050000E5
:100090007105000071050000710500007105000088
:1000A0007105000071050000710500007105000078
:1000B0007105000071050000000000000000000054
:1000C0007105000071050000710500007105000058
:1000D0007105000071050000000000000000000034
:1000E0000000000000000000000000000000000010
:1000F0000000000000000000000000000000000000
:1001000000000000000000000000000000000000EF
:1001100000000000000000000000000000000000DF
:10040000DFF81CD000F0BAF800F01CFB0021034814
:1004100000F0A8FB00F028FBFEE700000800002029
:10042000F80F002000F092F880F309887047EFF38E
:1004300009807047684680F3098804480078C0073F
:1004400014BF0220032080F314887047441F00006B
:10045000DFF818C0EFF305831B0618BF6047EFF302
:100460001483DB0708BF604700DF70474D0D0000B5
:10047000DFF818C0EFF305831B0618BF6047EFF3E2
:100480001483DB0708BF604700DF7047C90F000017
:10049000EFF30980816911F8021CF1B990E80F109F
:1004A000E047EFF3098C8CE80700144B93E8060053
:1004B00091420FD039B12CE9F00FC1F828C00CB42B
:1004C00001F094F80CBC1A60D2F828C0BCE8F00F18
:1004D0008CF309886FF0020E704710B5084A126855
:1004E000914209D8074C54F8214090E80F10A047DA
:1004F000EFF3098C8CE80F0010BD00002C000020E9
:10050000A0050000A005000000F000FF0C4B93E8E0
:100510000600914210D0EFF3098C2CE9F00FC1F8DE
:1005200028C00CB401F062F80CBC1A60D2F828C0E4
:10053000BCE8F00F8CF309886FF0020E70470000E2
:100540002C00002001F02AF9E0E7000000F0EEFBAB
:1005500001F024F9DAE70000064880470648004722
:10056000FEE7FEE7FEE7FEE7FEE7FEE7FEE7FEE763
:10057000FEE70000C505000001040000064C074D21
:1005800006E0E06840F0010394E807009847103463
:10059000AC42F6D3FFF738FF841F0000A41F000011
:1005A000000000004907090E002806DA00F00F00DD
:1005B00000F1E02080F8141D704700F1E02080F881
:1005C00000147047F0B58C480022041D0378211DEB
:1005D000081D0126062B17D125782D0714D10D787B
:1005E000C5F30315032D03D1077817F0F00F0ED0D4
:1005F000042D03D1077817F0F00F08D0052D03D193
:10060000057815F0F00F02D0062B09D014E04FF05A
:100610008055D5F84452794FC5F342353D6002E02C
:1006200025782D0708D10D78C5F30315032D03D1C7
:10063000057815F0F00F02D0062B06D01DE0704DA6
:100640002F6827F080772F601AE025782D0714D1C6
:100650000D78C5F30315032D03D1077817F0F00FBC
:100660000ED0042D03D1077817F0F00F08D0052D18
:1006700003D1057815F0F00F02D0062B0AD015E053
:100680004FF08045C5F80C21C5F810215B4D2D1F9A
:100690002A6002E025782D0708D10D78C5F30315EF
:1006A000032D03D1057815F0F00F02D0062B05D0ED
:1006B00066E0524C03236434236002E023781B0776
:1006C0005ED10978C1F30311052959D1007810F0E2
:1006D000F00F55D14B4800684B4908604948001D50
:1006E0000068091D0860474808300068091D086057
:1006F00044480C300068091D08604248103000680A
:10070000091D08603F4814300068091D08603D4815
:10071000183000683C49203108603A481C300068B5
:10072000091D0860374820300068091D08603548F9
:1007300024300068091D0860324828300068091D0F
:10074000086030482C300068091D08602D483030A2
:1007500000682D49403108602A4834300068091D7E
:100760000860284838300068091D086025483C307A
:100770000068091D0860234840300068091D0860B2
:100780001F487438016841F470010160BFF34F8F56
:10079000BFF36F8F4FF01021D1F80002002803DB68
:1007A000D1F80002002822DA184B1E6018480468AD
:1007B000002CFCD01524C1F800420568002DFCD0A7
:1007C000C1F8044201680029FCD01A6001680029C0
:1007D000FCD0BFF34F8F0A48F03801680D4A01F48E
:1007E000E06111430160BFF34F8F00BFFDE70B498C
:1007F00009480860F0BD0000E00F00F03C05004033
:10080000FCED00E00404001020C5004004E50140B8
:1008100000E401400400FA050090D003200000200D
:1008200002E008C8121F08C1002AFAD170477047B9
:10083000002001E001C1121F002AFBD1704710B552
:10084000002A06DA22F00042D21D22F0070310220D
:1008500003E0D21C22F003030C2213B19C188C423B
:1008600001D9012010BD024401448360C0E9002188
:10087000C91AD018884202D810600246F9E7002051
:10088000106010BD4FF0FF342146012000F05EF9EA
:100890000828F9D1122000F0B9F8F5E708480068F7
:1008A000C0010BD507480068C00707D0054880384D
:1008B0000068002802DA044901200870704700002F
:1008C000FCED00E0800E00E0400000204FF06042B0
:1008D000D36F002BFCD0036BD367D36F002BFCD0FE
:1008E000C07840EA0120A2F87C0070474FF06041D8
:1008F000CA6F002AFCD081F87C00704770B50D46A5
:10090000040003D012B92078012801D0802070BDE6
:10091000204600F0FBFB28B12946204600F040F8B5
:10092000002070BD812070BD0A460146074810B501
:1009300000EB820050F8040C002805D000F034FDD4
:10094000BDE8104000F020BD10BD0000840B002069
:1009500010B504468089002821D0608904EB80000E
:10096000006908606078022805D10021204600F067
:100970001BFD00F009FD04F10C0000BFD0E85F1F73
:10098000491EC0E8521F002AF8D16089401C80B27D
:100990006081E189884201D100206081042010BD7E
:1009A00010B500F001FDBDE8104000F0EDBC1120D5
:1009B00000F02CB8112000F021F8122000F01EF8F1
:1009C00000210D4800F0CEF804460B48002201211A
:1009D000083800F0F1F8642100F008F904B100B122
:1009E000FEE74FF4C8750121204600F095F828462F
:1009F00000F01CF8F7E70000281F0000032180002A
:100A000000F1A040C0F800177047000001218140AC
:100A100005480068044B21EA00021B1D1A600840CB
:100A2000191D08607047000004050050EFF30581B0
:100A300009B182207047DFF808C000DF704700006E
:100A4000891B0000EFF3058008B182207047EFF3A7
:100A50001480C00703D0DFF80CC000DF704701F03E
:100A60009DB800009D1B000088B0EFF3058010B119
:100A7000822008B07047EFF3148010F00301134890
:100A800006D001291BD0022911D0032919D113E066
:100A900008A981F309880078C0070BD05FF0020035
:100AA00080F31488BFF34F8FBFF36F8F09E0007896
:100AB000C00706D10320F3E70078C00701D0FF206C
:100AC000D7E7DFF80CC000DFD3E70000441F0000C9
:100AD0000D1C00000EB50246EFF30580A0B180208A
:100AE00002B121B10090DDE9011203B000BD11781F
:100AF0000129F7D101A91046FFF72AFF042801D0E8
:100B00000020EFE71020EDE71046DFF808C000DF17
:100B1000EBE70000791C000070B5EFF305827AB1B5
:100B20000C4600F05BFE4FF0004138B1220C05D1BD
:100B3000058BC178A0B2FFF7F7FE2946084670BDC5
:100B4000DFF804C000DF70BDB31C0000EFF30583C5
:100B50000BB182207047DFF808C000DF704700004B
:100B6000D91C0000EFF305820AB100207047EFF3B3
:100B70001482064B02F001025B781A4303D0DFF8BF
:100B800010C000DF704701F0D1B800002400002041
:100B90002D1D0000DFF80CC000DFDFF80CC000DF07
:100BA000FEE700009D1D0000B91D0000DFF804C035
:100BB00000DF7047F11D000030B4EFF3058313B17F
:100BC000002030BC7047EFF31483064C03F00103A0
:100BD0006478234303D0DFF810C000DFF1E730BCB6
:100BE00001F012B924000020091E0000EFF3058275
:100BF0000AB182207047DFF808C000DF70470000AC
:100C0000411E0000094C4FF0FF3529462068FFF7D0
:100C100061FF02460846102AF7D1FFF7C7FF0028F8
:100C2000F3D0024608469047EFE700001C00002082
:100C3000FEE70000224890F8000441096FF001002F
:100C4000FFF7B0FC1F4D0026DFF87C801F4F01240A
:100C50006FF07F492C6000F041F820F07F400228BF
:100C60002AD9D8F8001042460844B0F1807F01D359
:100C7000A0EB0900144B3C331860C7F808434FF051
:100C8000E0234FF40030C3F8000172B6286840B189
:100C90004FF48030C7F8040330BFC7F84061C7F88D
:100CA000080362B6C7F804431068884201D3401AAB
:100CB00002E0A9EB0101084400F00AF8CAE70000CD
:100CC00011E000E004000020041501400010014084
:100CD000DFF804C000DF7047C9140000DFF804C06B
:100CE00000DF70471116000010B50D4801240460A4
:100CF0000021A007C0F80411C0F80840D0F8041182
:100D00000029FBD002211120FFF74CFC05492020CF
:100D100008600548C0F804430460112010BD0000BD
:100D20001805004008150140001001400648D0F8A1
:100D30000011002906D0D0F80413C90702D0002101
:100D4000C0F80011704700000010014050E8001F7B
:100D500031B10B6840E80032002AF7D108467047ED
:100D6000BFF32F8FFAE710B568B161B10B3121F0F5
:100D70000302016844680B1A1B1B934205D2084604
:100D800009680029F5D1002010BD3CB12118036885
:100D9000C1E90032016001F1080010BD4260083075
:100DA00010BD000070B50D46002812D04FF6FF713F
:100DB000084C884204D222680146104600F020FB0D
:100DC00020684570044800F023F9BDE8704000F049
:100DD00031BC70BD2C000020C80B00200F4810B59E
:100DE0000D4942680E480B680068934204D00A60BF
:100DF000CB88421E1A448A808A8880B282420AD1F5
:100E000000200860054800F003F90146BDE81040E5
:100E1000024800F019BB10BD44000020C80B0020A0
:100E20003C00002070B5194DE86800282CD0A88A35
:100E3000401EA882002621E0A06838B161684160A8
:100E4000606810B1A16881606660A6600F482146A5
:100E5000183800F0F9FAA08AA8826078042804D132
:100E60000B49E08A09880844A08201206070E0688C
:100E7000E860E06808B10561E6602661A88A00289C
:100E800002D1EC68002CD7D170BD0000E00B00202F
:100E90003C00002070B504000FD00D4DA178012654
:100EA0002868827891420CD900F0EAFA28684670E6
:100EB0002046BDE8704000F0BDBB064800F0A8F831
:100EC000F7E766702146BDE87040024800F0BCBA02
:100ED0002C000020C80B00200321FFF763BF000097
:100EE00010B50446008B084320836278618B062A84
:100EF00018D0052A19D1084217D001EA00026283EE
:100F000088432083204600F02AFB01206070628B1A
:100F10000821204600F01FFB2146BDE81040034891
:100F200000F092BA31EA0002EAD010BDC80B0020EE
:100F30000246154810B500EB810050F8044C002C17
:100F400021D0208B104320836278618B062A17D032
:100F5000052A18D1084216D001EA000262838843AC
:100F60002083204600F0FBFA01206070628B08218C
:100F7000204600F0F0FA2046BDE81040FFF78ABF97
:100F800031EA0002EBD010BD840B002070B503469F
:100F90000C480D460468208B42B133EA000101D0B1
:100FA000062109E098432083022070BD10EA030166
:100FB00001D06183F6E7052163832846FFF7F2FE3F
:100FC000012070BD2C000020814202D342688A4279
:100FD00001D80120704750E8002F0A6040E8001255
:100FE000002AF8D10020704768B161B108390022A9
:100FF00002E00246006830B18842FAD12AB10068A6
:101000001060002070470120704700214160F8E720
:101010000146406842684A600B780022022B05D0E6
:10102000012B03D0032B01D04260704743680BB102
:101030009960426082607047810700D0002070474D
:1010400070B5044600201546207001226270A17020
:1010500084F824106060A060E06020612062A082BB
:10106000E0822083608384F82500E08C18B905486D
:10107000FFF76CFEE06229462046BDE8704000F0B4
:101080001DB800007001002008B1082901D201201C
:1010900070470144091F002201600A604260104647
:1010A0007047000003480021016003490988C1809E
:1010B0007047000044000020401F000010B5C28CA3
:1010C000920803D10F4A1288C2F38D02C36A03EB60
:1010D0008202530700D5121F403A4FF08073C2E9D5
:1010E0000E1300234FEA030442F823405B1C0E2B2F
:1010F000FAD3C369136282620163C06A0249016064
:1011000010BD00003C1F0000A52E5AE2C189808955
:10111000081A7047012202700022427082704260F9
:101120000281428110398281C1F38F01C1817047F0
:101130002DE9F041044640680E464FF0000804F1E6
:101140000C05E0B36078012701283DD0022813D0B8
:1011500003285BD10846FFF7F9FD050056D020466D
:10116000FFF756FF0446294600F0F2F96770204663
:1011700000F0F5F9214620E02046FFF749FF06463A
:10118000002100F0E5F92189F06904EB8101086193
:10119000D5E85F0F401CC5E8510F0029F8D1208920
:1011A000401C80B22081E189884201D1A4F80880E6
:1011B0007770304600F0D3F93146184800E00CE073
:1011C000BDE8F04100F040B92046FFF721FF04469A
:1011D0003246102100F0BFF9C8E7A089E1898842B2
:1011E00016D2208904EB8000C0F81060D5E85F0FAC
:1011F000401CC5E8510F0029F8D12089401C80B25D
:101200002081E189884201D1A4F80880BDE8F081FD
:10121000BDE8F0410320FFF70BBD0000C80B002024
:1012200070B50446808915460026B8B3608904EB82
:101230008000006908606089401C80B26081E1899B
:10124000884200D16681606810B1607802280AD0B7
:1012500014F10C04D4E85F0F401EC4E8510F0029BC
:10126000F8D1002070BD2046FFF7D2FE05460021D0
:1012700000F06EF92189E86904EB81010861208999
:10128000401C80B22081E189884200D12681284615
:1012900000F065F92846FFF7FDFDE2E7FFE73DB105
:1012A0000A48626801682AB1204600F0CDF808E0DB
:1012B000012070BD616001684E600068846001209B
:1012C000607008212846FFF76DFDF1E72C00002033
:1012D000411C13D00B4A4FF6FE7190420CD800EB24
:1012E0004002C2EBC0120848036803EBC202521E60
:1012F000B2FBF3F0884200D9084670474FF6FF7002
:101300007047000000093D00501F000070B51B48E9
:10131000012102685170006800F0B2F8184D6C7835
:1013200017E000BF05EBC40148680278E2B1012A6A
:101330001FD000F041F9E878641C844200D10024F9
:101340000F48801CD0E84F1F491EC0E8421F002AEA
:10135000F8D1A8780028E5D16C700A48FFF758FE4C
:10136000BDE8704000F066B9098989B2FFF7B8FDA1
:10137000E1E78968FFF7DCFEDDE700002C000020D4
:10138000000B0020C80B00200548017811B1012195
:101390004170704703494FF080500860704700006B
:1013A0003400002004ED00E0F0B4144A941CD57819
:1013B0004FEA0206D4E84F3FAB4202D1BFF32F8F72
:1013C0000EE05B1CC4E8473F002FF3D1D6E84F3F47
:1013D0005C1CAC4200D10024C6E8474F002FF5D179
:1013E000D4789C4205D902EBC302C2E90101F0BCEA
:1013F0007047F0BC0220FFF71BBC0000000B002070
:10140000104A10B5D368ABB113469B8A03E08CB188
:101410002246A48A2344D4688B42F8D3C460D060A7
:101420000261C46804B12061591A8182908A401A0D
:10143000908210BD0024C460D060C91A02619182FC
:10144000848210BDE00B002030B502780023022A10
:1014500003D0012A01D0032A00D101238C7800E0B7
:101460001046426812B19578A542F9D24A604160AF
:101470001BB102B19160886030BD0020FBE7000025
:1014800003494A6842600022826048607047000059
:10149000C80B002010B5836804462BB9607801287A
:1014A0000ED1084B03E09B6818780028FBD020463B
:1014B00000F06AF82146BDE810401846FFF7C4BFA7
:1014C00010BD0000C80B00202DE9F04106461B4866
:1014D000012401684C700068FFF7D2FF1849002012
:1014E000184D08601848E968C9B1A98AB14210D8F6
:1014F0000268771A11440160AC820446FFF792FC3F
:1015000087B120687F1E401C2060E8680028F5D164
:1015100008E003689A190260881BA88202E001684B
:1015200031440160304600F0D9FC0848FFF770FDF7
:1015300000F080F8BDE8F04100F0FEBA2C00002079
:1015400044000020E00B00203C000020C80B0020DD
:10155000806A01627047806AC0E90812704710B55E
:10156000016900290ED0C268CA60C36800223BB17D
:101570008B8A848A23448B82C3681961C26000E02D
:101580008A82026110BD0000816839B142684A60F8
:101590004168002901D0806888607047054906E0ED
:1015A0004A68824202D1406848607047114600296B
:1015B000F6D17047C80B002010B5416881B1FFF724
:1015C00027FD0446FFF7CBFF01206070014620464F
:1015D000FFF7BEFF2146BDE810400348FFF734BFC8
:1015E0004188491C418010BDC80B00200648006896
:1015F000D0E90A10814203D300680449884202D02E
:101600000120FFF715BB70472C000020A52E5AE2E1
:1016100010B54FF6FF7400F021FA0548C16801B11A
:10162000848A00F073FCA04200D20446204610BD1C
:10163000E00B00200749022248604270064A1278F7
:10164000002A05D006C98A4202D0C078FFF74EB9F9
:10165000704700002C0000204000002070B5FFF70C
:101660001DF9002004462F4A2F4902E042F820408D
:10167000401C0B889842F9D32C48342201882C480E
:10168000FFF7DDF82B48008880B240F000422A487E
:1016900001682A48FFF7D3F8294808220188294819
:1016A0000068FFF7CCF8284DFF20284AE870EC844A
:1016B00000212846FFF7C4FC25480421017044603E
:1016C00024480170C4600461848223482449056071
:1016D000022068702148047044700978C170FFF7D7
:1016E000E1FC2048016841F47F01016000684FF08F
:1016F0007F4101EA00201B49C0431439B0FA80F051
:101700000968C0F10800C1F30221814200DB481CD6
:101710001449091F0B686FF08072824063F317024F
:101720000A6070BD840B0020381F0000581F0000A5
:10173000900000203C1F00005C1F00007001002092
:10174000801F000000000020940B0020350C0000DA
:10175000C80B0020E00B00202C000020000B002014
:10176000641F000020ED00E010B5FFF7BDFA094945
:10177000002808600DDB084AFF21815400F01F0299
:101780000121914040114FF0E02202EB8000C0F8AF
:10179000001110BD3800002000E400E00C4810B536
:1017A0000268012151700068FFF76AFEFFF716FB1F
:1017B00008480168491C0160FFF734FB00F064FB36
:1017C0000548FFF725FCBDE81040FFF733BF0000D8
:1017D0002C0000203C000020C80B0020002805D071
:1017E000810702D10178002900D000207047000055
:1017F00030B50C4C0023626805E015898D4204D891
:1018000013461268491B002AF7D189B20260018190
:1018100012B11589691A11810BB1186030BD606071
:1018200030BD0000240000200D4B0022596803E069
:10183000814204D00A4609680029F9D104E019B1AF
:10184000016822B1116003E04FF0FF30704759602A
:10185000016819B10A890089104408810020704785
:10186000240000202DE9F0411E46174680460C4614
:1018700011F0FF0F00D14C1C1748FFF767FA050065
:1018800028D0C4F30F20EF62E884E1B24246284634
:10189000EE61FFF7D5FB01241048114906E000BFB7
:1018A00000EB840252F8042C22B1641C0A88944292
:1018B000F6D9002400EB840040F8045C0948EC7081
:1018C000007818B101212846FFF700F82846FFF7F5
:1018D000E1FA2046BDE8F08190000020840B002052
:1018E000381F0000400000202DE9F05F564DDFF862
:1018F00050A1DFF8509129684FF00008012618B177
:10190000CA78AB46824241D1474681F80180FEF752
:101910008EFD29688862FFF769FE2868B046046A70
:101920001AE06068B8B12046FFF772FB0646002156
:10193000FFF70EFE3046FFF712FE86F801803146B3
:101940004248FFF781FDA4F80280A660316AE16099
:101950003462E46800E0E468002CE2D12868C278D0
:1019600009EB820141F8047CC16A3948FFF72CFB7E
:101970002868C7629AF8001011B10021FEF7A6FF8F
:1019800034482968FFF720FB2F6053E0324909886B
:1019900088420DD809EB800757F8045C45B128460A
:1019A000FFF7F2FD2846FFF7DAFDB1462C6A1DE08D
:1019B000FF20BDE8F09F6068B8B12046FFF728FB24
:1019C00006460021FFF7C4FD3046FFF7C8FD86F844
:1019D000019031461D48FFF737FDA4F80290A6603C
:1019E000316AE1603462E46800E0E468002CE2D12E
:1019F00047F8048C44461648E96AFFF7E5FAEC62BA
:101A00009AF8000018B100212846FEF75FFF29462A
:101A10001048FFF7D9FA0D48DBF8001040688B78C2
:101A200082789A4209D981F801900848DBF80010C1
:101A3000FFF70AFD0020FFF72DFA0020B9E70000AC
:101A400040000020840B00202C000020C80B002048
:101A50007001002090000020381F000030B5114AAE
:101A60000121114853684FF0E024002B08DA0523C8
:101A700023611170016803EA9161917049060EE0DB
:101A800003F01F0501FA05F55B1104EB8303C3F8AE
:101A9000805111700168C1F300719170C906016035
:101AA00030BD00003400002004ED00E070B51A4D98
:101AB00080B11A4A128890421FD8194A02EB80005E
:101AC00050F8044CCCB1A17084F824102868A042CE
:101AD00005D014E028688170286880F82410114827
:101AE00040688078884215D90E482968FFF7ACFC19
:101AF00029680120487000200AE0FF2070BD2046C0
:101B0000FFF7C8FC6078012804D10648FFF780FA87
:101B1000FFF7C0F9002070BD2C000020381F000026
:101B2000840B0020C80B002002480068002800D069
:101B3000C07870472C000020F0B511480021024603
:101B40004368104C92784FF0E025002B07DA07230A
:101B50002B610170437842EA830292060CE003F0A5
:101B60001F070126BE405B1105EB8303C3F800612C
:101B7000017043781A43120722604170F0BD0000E3
:101B80003400002004ED00E010B5002805D0FFF778
:101B90009FFB80B2FFF7A0F9402010BD10B5134C99
:101BA000207860B91248400705D1124801681048F2
:101BB000FFF76AFA08B1852010BDFFF74FFD0E4907
:101BC000FF2009688870207858B900210B4800F080
:101BD00041F80B49086000210A4800F0A7F80A49BB
:101BE0000860012020700020607010BD24000020DB
:101BF000D8030020601F00002C000020781F000088
:101C00001C000020681F00001800002070B50F4D58
:101C1000687808B1002070BD0D4C206890F8241041
:101C20000020FFF743FF2068C178FF2903D1816AB4
:101C3000203181F30988616811B96060002020605B
:101C4000FFF792FD01206870E4E700002400002007
:101C50002C00002010B5040005D0216819B160687F
:101C600008B102780AB1002010BD8900103189B294
:101C7000FFF750FA606810BD3EB504000D464FF006
:101C8000800012D0217801290FD12846FFF720FBD0
:101C900082B201A92046FFF7C3FA012801D0102023
:101CA00003E00DB1402000E00020DDE9011203B0A7
:101CB00030BD70B50C46FFF791FD4FF0004108B103
:101CC000220C01D0084670BD058BC178A0B2FFF789
:101CD0002FF9284670BD000070B504460D46000C73
:101CE00001D086201EE008462CB1FFF7F1FA81B240
:101CF000A0B2012205E0FFF7EBFA81B200224FF615
:101D0000FF70FFF743F9022802D04DB1402008E0F0
:101D100008200CB1214605E003490968498B01E020
:101D200000200021324670BD2C00002070B50E4608
:101D300004002BD0206848B3B4F9040010F1030F5D
:101D400024DB032822DCE16829B11148FFF70BF8F6
:101D500005001BD000E00025B4F90400E168001D77
:101D600040EA012133462A462068FFF77BFD40B157
:101D7000084901EB8000084950F8040C826A51635D
:101D800070BD1DB129460248FFF72EF9002070BD35
:101D9000D8030020840B0020950B000010B5FFF73E
:101DA000C3FE002804D0034901EB800050F8040C66
:101DB00010BD0000840B002010B5FFF70FFD18B117
:101DC000C18C19B1C46A02E0802010BD0024C07823
:101DD000FFF78AFDFF2806D01CB121460348FFF714
:101DE00003F9002010BD812010BD0000D8030020A1
:101DF00010B5FFF721F920B101690A68C1681046E2
:101E000010BD0020014610BD10B503000CD01868AD
:101E100050B15868002808D009B1012904D1074CF5
:101E200024680CB104790CB1002010BD00240460BA
:101E3000012404714171C0E9032310BD1800002082
:101E400070B50D46FFF7F8F804000AD02846FFF7F2
:101E50003FFA050007D0207901280CD0022808D1CC
:101E600003E0802070BD862070BD2046FFF7DCFCBB
:101E700020B1812070BD0220207165812946204655
:101E8000FFF7B6FC002070BD2DE9F041114E7468DB
:101E9000002C18D02089104F401E20814FF00108DF
:101EA0000EE0254624687460002229463868FEF753
:101EB00025FD6879012808D085F80480002C02D01F
:101EC00020890028EDD0BDE8F08169892846FFF718
:101ED0008FFCF3E7240000201C00002070B50446AE
:101EE0000126094D06E00189A14209D8641A06813C
:101EF000FFF7CAFF6868002801D0002CF3D170BD3D
:101F00000189091B018170BD24000020034840683D
:101F100008B1008970474FF6FF7070472400002019
:101F2000AF0900004C0000208508000001000000FF
:101F3000010000000000000004000000C8000201D1
:101F40000500010001000000020001004A00040039
:101F5000E803000000000000DC0000006802000050
:101F60002807000010000000050C0000020000001F
:101F700001000000200300000800000060000020B5
:101F800000000000A41F0000000000204C00000022
:101F900020080000F01F00004C000020AC0F0000E3
:101FA000300800000000000000000000B50900003B
:101FB0000000000001000000E80300000000000035
:101FC000000000000090D0030000000000000000AE
:101FD0000000000000000000000000000000000001
:101FE00000000000000000000000000000000000F1
:0400000500000401F2
:00000001FF
