:020000040000FA
:1000000070200020150400001D0400001F040000E3
:10001000210400002304000025040000000000006B
:1000200000000000000000000000000027040000A5
:100030000000000000000000290400002B04000064
:100040002D0400002D0400002D0400002D040000EC
:100050002D0400002D0400002D0400002D040000DC
:100060002D0400002D0400002D0400002D040000CC
:100070002D0400002D0400002D0400002D040000BC
:100080002D0400002D0400002D0400002D040000AC
:100090002D0400002D0400002D0400002D0400009C
:1000A0002D0400002D0400002D0400002D0400008C
:1000B0002D0400002D0400000000000000000000DE
:1000C0002D0400002D0400002D0400002D0400006C
:1000D0002D0400002D0400000000000000000000BE
:1000E0000000000000000000000000000000000010
:1000F0000000000000000000000000000000000000
:1001000000000000000000000000000000000000EF
:1001100000000000000000000000000000000000DF
:10040000DFF80CD000F04AF800480047490A000025
:10041000702000200648804706480047FEE7FEE7B8
:10042000FEE7FEE7FEE7FEE7FEE7FEE7FEE7000089
:10043000D90400000104000040EA01039B0703D037
:1004400009E008C9121F08C0042AFAD203E011F813
:10045000013B00F8013B521EF9D27047D2B201E0D5
:1004600000F8012B491EFBD270470022F6E710B5B9
:1004700013460A4604461946FFF7F0FF204610BD12
:1004800030B504460020034600E05B1C934203D2D3
:10049000E05CCD5C401BF8D030BD0000064C074D41
:1004A00006E0E06840F0010394E807009847103444
:1004B000AC42F6D3FFF7A8FF5C0D00007C0D0000F6
:1004C00000F01F02012191404009800000F1E0206E
:1004D000C0F8801270470000F0B58C480022041D5F
:1004E0000378211D081D0126062B17D125782D071D
:1004F00014D10D78C5F30315032D03D1077817F038
:10050000F00F0ED0042D03D1077817F0F00F08D0AC
:10051000052D03D1057815F0F00F02D0062B09D078
:1005200014E04FF08055D5F84452794FC5F3423569
:100530003D6002E025782D0708D10D78C5F303153D
:10054000032D03D1057815F0F00F02D0062B06D04D
:100550001DE0704D2F6827F080772F601AE0257816
:100560002D0714D10D78C5F30315032D03D107789A
:1005700017F0F00F0ED0042D03D1077817F0F00F0D
:1005800008D0052D03D1057815F0F00F02D0062B09
:100590000AD015E04FF08045C5F80C21C5F81021B0
:1005A0005B4D2D1F2A6002E025782D0708D10D78BC
:1005B000C5F30315032D03D1057815F0F00F02D014
:1005C000062B05D066E0524C03236434236002E01E
:1005D00023781B075ED10978C1F30311052959D18E
:1005E000007810F0F00F55D14B4800684B49086077
:1005F0004948001D0068091D086047480830006828
:10060000091D086044480C300068091D0860424814
:1006100010300068091D08603F4814300068091D4B
:1006200008603D48183000683C49203108603A486D
:100630001C300068091D0860374820300068091D1B
:100640000860354824300068091D086032482830A9
:100650000068091D086030482C300068091D0860DA
:100660002D48303000682D49403108602A48343028
:100670000068091D0860284838300068091D0860B6
:1006800025483C300068091D086023484030006858
:10069000091D08601F487438016841F47001016049
:1006A000BFF34F8FBFF36F8F4FF01021D1F80002CF
:1006B000002803DBD1F80002002822DA184B1E6064
:1006C00018480468002CFCD01524C1F800420568C5
:1006D000002DFCD0C1F8044201680029FCD01A604A
:1006E00001680029FCD0BFF34F8F0A48F038016839
:1006F0000D4A01F4E06111430160BFF34F8F00BF69
:10070000FDE70B4909480860F0BD0000E00F00F06C
:100710003C050040FCED00E00404001020C5004052
:1007200004E5014000E401400400FA050090D00314
:100730004000002002E008C8121F08C1002AFAD1B8
:1007400070477047002001E001C1121F002AFBD151
:1007500070470000114810B50178427801F00F0190
:1007600002290ED8252A0CD821B101290BD05523F6
:10077000002110E00A49801CFFF782FE08B9012021
:1007800010BD002010BD0F23F2E74418A4789C424E
:10079000F7D1491CC9B29142F7D3F0E744000020D9
:1007A000340D00002DE9F041444C9446D2B2A272BF
:1007B000C4E90E31012565720026E681277847B12C
:1007C00048B103280AD0012F0FD0E5810220BDE8EF
:1007D000F0810520FBE700F0D5F86DE0012FF4D0A3
:1007E000A08940F40040E081F5E7272902D9E5819E
:1007F0000120ECE7A681012802D0022809D05BE0A5
:1008000027212F48FFF731FE012000F0E1F90420F5
:100810002FE0252A02D9E5810320D8E7284803F0F4
:100820000F07B3F1FF3F0770264F427023D02BB163
:10083000012B09D0022B09D0E58137E0624622491D
:10084000801CFFF7F9FD06E00F2200E0552261460B
:10085000801CFFF703FE002000F0BAF91B49A069D5
:1008600000F5A0700860081D076018480C38056086
:100870000220207020E00846BCF1000F09D0BCF136
:10088000010F06D0BCF1020F0DD0BCF1030F13D144
:100890000EE0002000F09CF90D480660C7F80052F9
:1008A0003D600320E5E700F05BF803E004208EE7FD
:1008B00000F034F80028F9D0002088E7000000207C
:1008C0004400002000100040340D000010F50140ED
:1008D00050160040034900234A7A4B72C9890160CF
:1008E000104670470000002010B500F0BFF910B9A5
:1008F00000F016F908B1042010BD0648002141722D
:10090000012101700448016841F0100101600020DC
:1009100010BD00000000002010ED00E00C490A7836
:10092000012A04D828B1012807D0022809D00020C4
:10093000704708488861082006E007488861092058
:1009400002E0064888610A204870012070470000D4
:1009500000000020008000400090004000A0004007
:10096000074942B20B78012B04D828322D2A01D234
:10097000820701D0002070474861012070470000C5
:1009800000000020084910B5002008600749012434
:100990000C60064908310860091D086000F048F93C
:1009A0000348047010BD00005016004008F50140D7
:1009B000000000202DE9F0411E48016841F01001BF
:1009C00001601D4D0127DFF874801D4C002600BF1B
:1009D000D5F80C01B0B1C5F80C610120FFF770FD2E
:1009E000207804280ED16F60D8F80000012805D1C6
:1009F000FFF7B0FE10B1A089401CA081272111484B
:100A0000FFF733FDA069D0F8401111B1C0F8406183
:100A1000DEE7D0F844010028DAD0A069C0F84461CC
:100A200094F90100FFF74CFD2069401C2061BDE8EE
:100A3000F081000010ED00E00010004000140040C4
:100A400000000020440000202DE9F84F0026374622
:100A5000344600F03BF9FFF747FF4FF0FF3910B184
:100A60004846BDE8F88FDFF88CA04FF00008224D13
:100A7000FFF7A0FFD5F808110029F9D0C5F80881C3
:100A80001C49091F0968C9B237B106F11502904225
:100A900004D90C020646EBE70127FAE70C430027CE
:100AA000A00B04F00303C4F30521C4F38502032B58
:100AB00000D14B46FFF776FE6846FFF70BFF002894
:100AC000D6D0009A5146C2F30720CAF8000000BFF2
:100AD000D5F81C010128FBD14046C5F81C81D2B2D3
:100AE000C1F80020D5F81C110129FBD1C5F81C0163
:100AF000BEE700001C2500400020004030B541EA60
:100B00004201DDE9034541EA8301800041EA042115
:100B100000F1A04041EA0541C0F8001730BD0000D7
:100B200010B5294C606930F0FC0108D140B20428AE
:100B300005DC10F1280F02DB207A032801D90420FC
:100B400010BD00F075F8214960690860091D207A20
:100B500008601E481830016821F0FF01016002683A
:100B6000A16A42EA11620260080218491031086065
:100B700016490120243108600020091F0860E0792F
:100B8000617940EA01201149283108602079E17833
:100B9000000440EA0120A17808430C4908310860AC
:100BA00094F8240094F82010400640EA0160A18BDC
:100BB00040EA0140A17940EA0120044940F02500C3
:100BC0000C310860002010BD000000200C15004012
:100BD000124910B500220A601149124CCB6A2360F9
:100BE000241D0B6B2360CB6B022404EB43030D4CE1
:100BF000303C2360241F0C4B23600C4BC3F80021B6
:100C00000324C3F8004220B1C3F80C21012058602E
:100C100010BD486903492C39086010BD50160040CA
:100C20000000002038150040440000200010004063
:100C30000B49032008600B490020C1F80002C1F8ED
:100C400010010122C1F81020D1F81021002AFBD098
:100C5000C1F81001486008600349888170470000AE
:100C600008F50140001000400000002010B54FF0D2
:100C700080400021C0F8001101220260D0F800314C
:100C8000002BFBD0104B98694260C260C0F804157D
:100C9000C0F84011C0F84411C0F84811C0F84C1118
:100CA0004FF48034C0F80443C0F800220424C0F894
:100CB00010455C6BC0F840454FF48274C0F8444561
:100CC00002600020196110BD000000201CB5002446
:100CD000012206200094234611460194FFF70EFFDF
:100CE000002208200094234611460194FFF706FFD6
:100CF0000D49062008600C490820083108600A499F
:100D00000A48183108600A48C0F80841C0F81C4178
:100D1000C0F82441044A04210C3A1160C0F804438D
:100D20000121816001601CBD0C25004000A04E0027
:100D300000200040FFC1FBE84C90728BE7B3518963
:100D400063AB232302841872AA612F3B51A8E537B5
:100D500049FBC9CA0C18532CFD0000007C0D000093
:100D6000000000204400000034070000C00D000017
:100D7000440000202C200000440700000008080167
:100D8000000100030300000000000000000000005C
:100D90000000000000800040030000000000000090
:100DA00000000000294176715B0600005555550092
:100DB0007102000000000000000000000090D0035D
:0400000500000401F2
:00000001FF
