:020000040000FA
:10000000685A0020250500002D0500002F0500007E
:100010003105000033050000350500000000000038
:1000200000000000000000000000000015040000B7
:100030000000000000000000510400003B0500002B
:10004000F90600003D050000490A0000B507000060
:100050003D0500003D050000FD0500003D050000D8
:100060003D0500003D0500003D0500003D05000088
:100070003D0500003D0500003D0500003D05000078
:100080003D050000590700003D0500003D0500004A
:100090003D0500003D0500003D0500003D05000058
:1000A0003D0500003D0500003D0500003D05000048
:1000B0003D0500003D0500000000000000000000BC
:1000C0003D0500003D0500003D0500003D05000028
:1000D0003D0500003D05000000000000000000009C
:1000E0000000000000000000000000000000000010
:1000F0000000000000000000000000000000000000
:1001000000000000000000000000000000000000EF
:1001100000000000000000000000000000000000DF
:10040000DFF80CD000F0E8F8004800478114000045
:10041000685A0020244B19680868B0E8F04F80F350
:100420000988BFF36F8F4FF0000080F31188704789
:10043000000000000548006880F3088862B661B6D5
:10044000BFF34F8FBFF36F8F00DF0000000000008D
:10045000EFF30980BFF36F8F134B1A681EF0100F74
:1004600008BF20ED108A20E9F04F106008B44FF06B
:10047000200080F31188BFF34F8FBFF36F8F02F01E
:1004800039FC4FF0000080F3118808BC1968086837
:10049000B0E8F04F1EF0100F08BFB0EC108A80F3E8
:1004A0000988BFF36F8F704754000020401E00BFC3
:1004B00000BF00BF00BF00BF00BF00BF00BF00BF44
:1004C00000BF00BF00BF00BF00BF00BF00BF00BF34
:1004D00000BF00BF00BF00BF00BF00BF00BF00BF24
:1004E00000BF00BF00BF00BF00BF00BF00BF00BF14
:1004F00000BF00BF00BF00BF00BF00BF00BF00BF04
:1005000000BF00BF00BF00BF00BF00BF00BF00BFF3
:1005100000BF00BF00BF00BF00BF00BF00BFC5D10C
:10052000704700000648804706480047FEE7FEE7A0
:10053000FEE7FEE7FEE7FEE7FEE7FEE7FEE7000078
:10054000ED0700000104000010B5431A934209D2E0
:100550008318881803E010F8011D03F8011D521ECE
:10056000F9D210BD40EA01039B0703D009E008C996
:10057000121F08C0042AFAD203E011F8013B00F868
:10058000013B521EF9D210BDD2B201E000F8012B9E
:10059000491EFBD270470022F6E710B513460A4603
:1005A00004461946FFF7F0FF204610BD30B50B4654
:1005B000014600202022012409E021FA02F59D4293
:1005C00005D303FA02F5491B04FA02F52844151E67
:1005D000A2F10102F1DC30BD064C074D06E0E068F7
:1005E00040F0010394E8070098471034AC42F6D37A
:1005F000FFF70AFF8C360000AC3600002DE9F0470B
:100600000025DFF8E890A8464FF4807601242F46B5
:10061000304601F027FC38B1D9F80403204203D05A
:10062000304601F015FC2543361D64007F1CB6B230
:10063000082FEDD34FF4BE74204601F013FC38B1FF
:10064000204601F005FC2A4845F00045D0F800801E
:10065000284E15F0FF0F14D0012700242F420CD094
:1006600009EB8401D1F81005D1F81015C0F304206E
:1006700056F82420C1F3014190477F00641C082CE8
:10068000ECD3002D1DDA96F94400401C19D096F8E1
:10069000447027F0C004204600F0F6FB56F82050C6
:1006A000002D0ED0BE090121A140A00000F1A04004
:1006B000D0F8000711EA080FC0F3014003D0022868
:1006C00003D0BDE8F0870328FBD1032E05D1022813
:1006D00009D00221204601F0A5FB31462046AC4658
:1006E000BDE8F04760470321F4E7000000600040E8
:1006F00010050050201A00202DE9F0414FF48077BA
:10070000384600F0B7FF0124124EA50750B1384615
:1007100000F0B7FF0120C5F8080374720021301DF6
:1007200000F0BAFB4FF48277384600F0A3FF0028B0
:100730000DD0384600F0A5FF0220C5F80803B472BA
:10074000BDE8F04103480121103000F0A5BBBDE831
:10075000F0810000AC19002038B5144C0025C4F815
:100760000051D4F800010090C4F84051D4F8400181
:100770000090202080F3118804F5807402F090FD31
:10078000D4F80414081A30F07F400CD0022802D9A3
:10079000401E02F09FFA02F089FD20B104494FF09B
:1007A0008050086040BF85F3118838BD00100140BB
:1007B00004ED00E070B50C480A4C0025C0F8085163
:1007C000214601F047FF00280BD1A07EFF2801D071
:1007D00001F036FB65762571201D2168BDE870406B
:1007E000084770BD001A002000300040F0B58C486A
:1007F0000022041D0378211D081D0126062B17D198
:1008000025782D0714D10D78C5F30315032D03D1D9
:10081000077817F0F00F0ED0042D03D1077817F0EA
:10082000F00F08D0052D03D1057815F0F00F02D098
:10083000062B09D014E04FF08055D5F84452794F7B
:10084000C5F342353D6002E025782D0708D10D78CB
:10085000C5F30315032D03D1057815F0F00F02D071
:10086000062B06D01DE0704D2F6827F080772F6093
:100870001AE025782D0714D10D78C5F30315032D43
:1008800003D1077817F0F00F0ED0042D03D10778AD
:1008900017F0F00F08D0052D03D1057815F0F00FF3
:1008A00002D0062B0AD015E04FF08045C5F80C2188
:1008B000C5F810215B4D2D1F2A6002E025782D0719
:1008C00008D10D78C5F30315032D03D1057815F074
:1008D000F00F02D0062B05D066E0524C032364349F
:1008E000236002E023781B075ED10978C1F303116E
:1008F000052959D1007810F0F00F55D14B48006808
:100900004B4908604948001D0068091D08604748B8
:1009100008300068091D086044480C300068091D53
:100920000860424810300068091D08603F481430D4
:100930000068091D08603D48183000683C492031B6
:1009400008603A481C300068091D086037482030AC
:100950000068091D0860354824300068091D0860DA
:10096000324828300068091D086030482C30006883
:10097000091D08602D48303000682D49403108605D
:100980002A4834300068091D08602848383000685B
:10099000091D086025483C300068091D086023488F
:1009A00040300068091D08601F487438016841F430
:1009B00070010160BFF34F8FBFF36F8F4FF01021B5
:1009C000D1F80002002803DBD1F80002002822DA67
:1009D000184B1E6018480468002CFCD01524C1F880
:1009E00000420568002DFCD0C1F8044201680029CE
:1009F000FCD01A6001680029FCD0BFF34F8F0A4871
:100A0000F03801680D4A01F4E06111430160BFF361
:100A10004F8F00BFFDE70B4909480860F0BD00009B
:100A2000E00F00F03C050040FCED00E00404001085
:100A300020C5004004E5014000E401400400FA053F
:100A40000090D003B40000200348007F08B101F0FB
:100A50002FBF01F0A9BE0000E01900200FB4054B24
:100A600010B503A9044A029800F018F810BC5DF80C
:100A700014FB00002D110000B000002002E008C8A7
:100A8000121F08C1002AFAD170477047002001E008
:100A900001C1121F002AFBD1704700002DE9FF4F52
:100AA0008BB09A460F460546002606E025280BD057
:100AB00052460D9990476D1C761C28780028F5D178
:100AC0000FB03046BDE8F08F0024A04601226049F7
:100AD00000E0044315F8013F203B02FA03F008420E
:100AE000F7D128782E2817D115F8010F44F0040407
:100AF0002A280ED06FF02F022878A0F130010929A2
:100B00000AD808EB880102EB410100EB01086D1CDB
:100B1000F2E757F8048B6D1C287869283ED006DC74
:100B20000028CDD063280BD0642804D136E0732888
:100B300010D075284BD052460D999047761C85E011
:100B400017F8040B8DF8000000208DF80100E9462D
:100B5000012003E057F8049B4FF0FF3061074FF08E
:100B6000000401D40AE0641C44450DDA8442FADB37
:100B700019F804100029F6D106E0641C8442FCDB5D
:100B800019F804100029F8D1264404E019F8010BE3
:100B900052460D999047641EF8D257E001CF4FF0AE
:100BA0000A0B002802DA40422D2102E0210504D57B
:100BB0002B218DF82410012103E0E10705D020212D
:100BC000F7E70DF1200908910CE00021F9E701CFCA
:100BD0004FF00A0BF9E75946FFF7E8FC01F1300244
:100BE00009F8012D0028F6D1ADEB090000F1200B2A
:100BF000600701D44FF00108D84502DDA8EB0B00D7
:100C000000E000208046002406E009A85246005D6E
:100C10000D999047641C761C08988442F5DB04E02B
:100C2000302052460D999047761CB8F10001A8F18A
:100C30000108F5DC05E019F8010B52460D999047C3
:100C4000761CBBF10001ABF1010BF4DC6D1C34E749
:100C5000092801000B46012101F05ABBBFF34F8F59
:100C600005480168054A01F4E06111430160BFF3E2
:100C70004F8F00BFFDE700000CED00E00400FA0517
:100C80000EB500210091CDE901106A4644F2010041
:100C9000FFF7E4FF10B58268C368934203D000F009
:100CA000F5F9002010BD052010BD29B112B1531E69
:100CB000134203D0092070470E20704701608380E3
:100CC00000218160C1600846704710B58268C36822
:100CD0009A1A83889A4203D800F0E2F9002010BDE6
:100CE000042010BD70B50446234888B01E460D0090
:100CF000426035D0A888296882B22048FFF7D5FF26
:100D000000282ED1A889A96882B21C481030FFF7AC
:100D1000CCFF002825D1202219496846FFF714FC92
:100D2000A0680690207900B101208DF814008DF89C
:100D30001C60607900B10E208DF81500E0780290FB
:100D4000A078039020780190607800900D49684663
:100D500000F05EFE002804D19DF81D0018B104E0EB
:100D6000072008B070BD00F0E3FE03480121801C9D
:100D700000F098FEF5E70000A4000020C019002054
:100D80003C3600000127000010B504460748012149
:100D90004470401C00F072FF112805D12146BDE8C7
:100DA00010400348FFF791BF10BD0000A4000020D1
:100DB000D01900202DE9F0410446006801F01EF82A
:100DC0002078174F012606FA00F03860002160688D
:100DD00001F00BF81348144D007FA069C5F82405F5
:100DE000607D217D0843C5F86C05D4E90001C5F894
:100DF0000C05C5F81415207D01280FD10021A0682D
:100E000000F0F3FFE06800F0F9FF207B86403E60D1
:100E1000D4E90201C5F80815C5F81005BDE8F08150
:100E200008050050E019002000200040816840685B
:100E30000968814201D201207047002070470000FC
:100E4000F0B54FF0FF3512B10023082601E008236A
:100E500009260C4C05E000BF54F823707F1C04D019
:100E60005B1CB342F8D32846F0BD26185DB286F865
:100E7000245044F82310002AF5D1E11881F83C00F1
:100E8000F1E70000201A00200249084490F92400EC
:100E900070470000201A002070B50D4604462068F7
:100EA000002805D001682160416828468847F6E798
:100EB00070BD00002DE9F84F4FF0000A81460E4644
:100EC000544655461D48CDF800A000F022FA2DE00A
:100ED0001B49321B6B4651F829000119174800F0D5
:100EE0002CFA00980444B44202D1144800F025F9C9
:100EF000DFF84C80A8F140086B46D8F83C00411957
:100F0000A5F6044042420D4800F02AF90099012854
:100F10000D44F1D040F60440854202D309A0FFF70A
:100F20009DFDB44202D1054800F007F9B442CFD389
:100F3000034A363A02F809A0BDE8F88FC002002043
:100F400040000020636F6D7072657373696F6E206F
:100F500073686F756C64206E657665722065787055
:100F6000616E642074686174206D756368720D0A27
:100F700000000000094D4FF40066A5F10A04E07876
:100F8000295C0029FBD0411CE1703146FFF792FF3C
:100F9000E07800F00100E070F1E700000A000020B6
:100FA0002DE9F04140F60445284600F02DFB144C95
:100FB000E06310B913A0FFF751FD2946E06BFFF77E
:100FC000EAFA00240E4D274640354FF40066A5F19D
:100FD0003608304600F018FB45F8240018B92146C1
:100FE00011A0FFF73BFD55F824003146FFF7D3FA77
:100FF00008F80470641C022CEBDBBDE8F0810000F3
:10100000000000205472616E736D697373696F6EB6
:101010002062756666657220416C6C6F6320666144
:10102000696C65640D0A0000446174612062756634
:1010300066657220256420416C6C6F63206661696F
:101040006C65640D0A00000072B602480168491C14
:1010500001607047AC00002003490868401E08602A
:1010600000D162B670470000AC00002005490120A5
:10107000096809B1002070470349096A0029F9D1BC
:1010800070470000481900205400002082688388BF
:101090001A4003689A5C0A708168491C8160704735
:1010A000C26883881A4003689954C168491CC160AA
:1010B00070472DE9F04F00F2124700F1100A0AEBD9
:1010C00042004FF6FF7E0025F34607EB020CB0F915
:1010D00002600FFA81F91BE0B8191CF80540415D68
:1010E000A14211D1012406E0015D1CF804804145B4
:1010F00003D1641CA4B29C42F6D3AC4204D9254669
:101100001FFA86FB9C4206D00AEB4600B0F902604B
:10111000B6EB0900E0D5012D06D909980580A2EBB0
:101120000B0080B2BDE8F08F7046FBE710B50446B7
:10113000C0B2FFF729FE204610BD48B1C17A41F088
:101140000101C172017B31B1092907D0012070472B
:101150004FF0FF30704701210173F7E7002070471F
:101160002DE9F04FADF5037D1D461746040018D05C
:10117000B9B1B5B16FF0010B002F71D04FF0000A7B
:10118000C5F800A0CDE9801704F212498295267BAC
:101190000A2E65D2DFE806F0B90B323651677A8F36
:1011A000A6B94FF0FF300DF5037DBDE8F08F04F1D7
:1011B0001008FF224FF400716846FFF7E5F9208818
:1011C0006A4600F5807083B2002008F1020809E049
:1011D00019F8001032F811C028F810C022F81100D8
:1011E000401C80B29842F3D363E02073C0B2B04297
:1011F000CDD12868B842CAD10120D4E7204601F0F9
:10120000C8F9F2E70DF500784046FFF70FFE90B100
:10121000A08850B1002241462046FFF71BFDE08820
:10122000401E20810821A17228E00122414620466B
:10123000FFF710FD15E00320D7E780A8A046009037
:10124000FFF7F4FD68B1B8F802000821FF3080B262
:101250004044009B90F81224404601F059F828E0E1
:1012600055E00420C1E70DF500784046FFF7DEFDAC
:1012700020B14146204601F07DF808B10520B4E7D1
:10128000A088401E20810421A1720AE00DF500789B
:101290004046FFF7CBFD20B14146204601F06AF8F9
:1012A00008B10620A1E76188A08808446080A4F8FE
:1012B00004A0022099E76088C0F5807080B200F534
:1012C0008071C0F580768AB23119484601F2124128
:1012D000FFF73AF9A4F802A02188891B218084F83D
:1012E0000CA054E7A17B80A880290AD0FFF79EFDBF
:1012F00048B18298829D809B0068627B411C296076
:101300001A54092000E00820207300204BE75846BB
:1013100049E710B504464FF4007100F21240FFF7A0
:101320003AF90020208020736080E0728021A17350
:101330006073A0802081A07210BD2DE9F0411F468E
:10134000040025D021B31FB3E07AC3076FF001007A
:101350001CD1237B002B19D1208800F58073C0F5A8
:10136000807086B29BB2964200D2324695B2E018A7
:101370002A4600F21240FFF7E7F83D602088B542A8
:101380002844208001D1012020730020BDE8F08195
:101390004FF0FF30FAE700002DE9F0479AB0342211
:1013A00032490DA8FFF7D0F830493422343168466D
:1013B000FFF7CAF82E4D00242646287B05F10807C2
:1013C00000F03F0000902869019068690290A869C8
:1013D0000390E8690490286A0590686A0690A86AF4
:1013E0000790D5E90B0100EB81104FF47A78089053
:1013F00068780028FCD06E700DA81D4910F82420D4
:101400003DF82400891D40EA022040F40040020A11
:101410000A7048703E707E700220287001F0EEF86D
:10142000404600F036F9641C0D2CE1DBDFF84090FB
:10143000C246002409F106094FF005086878002823
:10144000FCD06E7089F8006089F801603E707E7093
:1014500085F8008001F0D2F8504600F01AF9641CBB
:10146000022CEBDB1AB0BDE8F0870000C4350000A9
:101470000000002002680A60002A01607047000036
:101480008AB000F013F908B1FFF7FAFB384A05AB50
:1014900007CA83E807003748009037494FF4807047
:1014A000CDE9010103900323344A694605A8FFF7FB
:1014B00019FC08B1FFF7E4FB2D480124843808A982
:1014C000006808908DF82140142000F04FF9FFF7D4
:1014D00063FFFFF765FD4220FFF756FC0028FAD1B5
:1014E000002504A80094CDE901052B464FF4827233
:1014F00023A12548039501F001FE049810B923A00B
:10150000FFF7ACFA4320FFF73FFC0028FAD1284848
:10151000012200900023114626A001F0DDFF040007
:1015200002D126A0FFF79AFA4420FFF72DFC0028ED
:10153000FAD101F0AFFE02460023012120460095BA
:1015400002F00AF8012802D023A0FFF787FA45200D
:10155000FFF71AFC0028FAD12748016841F004017E
:10156000016001F08FFB25A0FFF778FAFBE7000090
:101570002C360000C0000020C0010020ED26000035
:10158000635F7461736B0000750F0000636F6D70B3
:1015900072657373696F6E207461736B20696E6915
:1015A00074206D65737365642075700D0A0000000A
:1015B0009D240000735F74696D657200535049206B
:1015C00074696D657220696E6974206D65737365E9
:1015D000642075700D0A000054696D657220636F98
:1015E000756C64206E6F7420626520737461727410
:1015F00065640D0A0000000010ED00E04D65737396
:1016000065642075700D0A00F0B50B30154D20F0A3
:1016100007010024144A0FE003688B420BD38B426E
:1016200005D95E1A43184768C3E9006700E04368BC
:10163000136002C004E0021D10680028ECD12046AF
:10164000002802D1286808B10020F0BD064A0748EA
:101650001060074A121A22F00702C0E90024012094
:101660002860D7E7BC000020B80000206C1A0020DA
:10167000683A002000F180400068002800D0012076
:10168000704708B500F180400021016000680090BB
:1016900008BD31B540F2E73404E0401E009020461A
:1016A000FEF704FF00980028F7D138BD70B50A4C4A
:1016B000207A08B1852070BD002565602560074847
:1016C00025610126E56006600321284600F032F816
:1016D0002672284670BD0000AC1900201805004095
:1016E00070B50446FFF7B0FC104DA87A20B1B4B134
:1016F00061680120884712E024B10C48214610306F
:10170000FFF7B8FEE86850B94FF48270FFF7B9FFF1
:1017100002204107C1F80403054901200860E86878
:10172000401CE860BDE87040FFF796BCAC19002093
:10173000080000404907090E002806DA00F00F02F1
:1017400002F1E02282F8141D03E000F1E02282F8A9
:10175000001400F01F02012191404009800000F1B7
:10176000E020C0F88012C0F8001170472DE9FC415C
:10177000044628480D462044002690F92410491CB0
:1017800001D008263FE0A978002751B301220021AB
:101790002046FFF755FB411C21D083001E482A78C4
:1017A00018446978D0F81035DFF870C003EA0C03EC
:1017B000C0F81035D0F810354FF4F85C0CEA042C62
:1017C00043EA0C034FF4403C0CEA02424FF4801C05
:1017D0000CEA01510A431343C0F8103504E0042613
:1017E00011E0FE2180F8241069780120A040012931
:1017F0000CD00B49086001222046009700231146B7
:10180000019700F0E1FA3046BDE8FC810449091F68
:10181000F0E70000201A002000600040FFE0ECFF2D
:101820000C0500502DE9FC5F07464079DFF80CA15C
:101830000C460AEB4016317E11B10820BDE8FC9F32
:1018400014B93F4901EB00143260207B01250128C7
:10185000DFF8F0B0207804D805FA00F0CBF80000EB
:1018600001E000F0EDFA2178A946890001F1A041DC
:10187000C1F8005765784FF0FF38FF2D07D009FAFF
:1018800005F0CBF80000284600F0C2FA00E045461B
:10189000A0784FF0000BFF2809D0002280465B465D
:1018A000CDF800B01146CDF804B000F07CFAE07835
:1018B000FF2804D000F0C4FAE07800F0A9FA7979A2
:1018C000E0780AEB4111887638682378C0F808354B
:1018D000C0F80C55C0F81085A168C0F82415237B0A
:1018E000617B01B10121012B04D0022B05D0032B18
:1018F00008D105E041F0020104E041F0040101E0FB
:1019000041F00601C0F854157B7961790AEB431266
:10191000D176316811B10421C0F804134D46C0F8E6
:101920000095306820B1217997F90400FFF702FF94
:1019300086F819B03576002080E70000001A0020F4
:101940007C3600000C0500501FB5069C00918DF8F8
:10195000042002938DF80C400022694600F024F820
:1019600004B010BD10B541790E4A02EB4112116866
:1019700059B190F90410012301F01F04A340490953
:10198000890001F1E021C1F880310068116819B1C6
:101990004FF0FF31C0F808130021C0F80015117690
:1019A00010BD0000001A00202DE9F04113460C463E
:1019B0004179154A02EB41114A7E12B11120BDE86E
:1019C000F0810A6801251AB113F0140F00D14D7689
:1019D00094E8C41001F1080888E8C4104A7F22F096
:1019E00003024A778A7EFF2A02D09540074A156093
:1019F0001BB1002048760620E1E70068224600F08F
:101A000091FD0020DBE70000001A00200C050050CB
:101A10002DE9F0411E4C07460D46E07E10B108202E
:101A2000BDE8F08107B91B4F787F20773846FFF774
:101A3000C1F96560386920602800174E4FF0000535
:101A400016D0397F207F48B1C6F81051C6F8205112
:101A5000C6F82451C6F84451104804E0C6F81C5199
:101A6000C6F844510E48C6F804030220FFF762FE90
:101A7000207F08B1082000E00420C6F80005E575C5
:101A80002576A5750120E076A5760020C8E7000040
:101A9000E01900205C360000002000401003020026
:101AA000800002002DE9F0411F4B1C7F3CB14FF438
:101AB0000052B2EB104F02D01020BDE8F081D3F8F5
:101AC00004C00022194D4FF404764FF40177BCF1A5
:101AD000000F05D014B1C5F8086301E0C5F808731C
:101AE00093F817E0BEF1000F10D01A7E52B1BCF18E
:101AF000000F05D014B1C5F8046301E0C5F8047304
:101B00001120DAE718610122197604E0D975002561
:101B1000D8605D761D761CB1BDE8F04100F066B876
:101B2000BDE8F04100F014B8E019002000200040AA
:101B300010B5064C207F002806D1A07E002803D1D6
:101B400000F0A0FC0120A07610BD0000E0190020EC
:101B50002DE9F05F234DA87E104301D100F092FCE7
:101B6000214C686830B14FF40170C4F804030020C0
:101B7000BDE8F09F4FF000094FF4A27AC4F84491F9
:101B80004FF4927BA8465946204600F073F905466B
:101B90004FF48471204600F06DF907465146204607
:101BA00000F068F9064647EA06012943EBD055EAFA
:101BB000060007D100F03EFC98F8171098F81900BD
:101BC0008142E0D888F817900DB10320D0E70EB11C
:101BD0000F20CDE798F81A10012009B12060C6E760
:101BE0006060C4E7E0190020002000402DE9F05FAC
:101BF000204C00264FF48873C4F810614FF4A2758E
:101C0000C4F84461C4F83405C4F838158AB1D4F86E
:101C1000000240F02000C4F80002DFF85C80D8F831
:101C2000040048B14FF40470C4F804030020BDE878
:101C3000F09F01202060F0E79A46A9464FF4927B7E
:101C40005146204600F021F905464946204600F05D
:101C50001CF907465946204600F017F93D43054355
:101C6000EED088F8176008B10320E0E7002FDDD040
:101C70000F20DCE700200040E01900202DE9F047AC
:101C80001E4D2A7F3AB14FF40053B3EB104F02D0F0
:101C90001020BDE8F087AB7D0BB11120F9E7A975E5
:101CA0000023A860AB822AB3154C00264FF4907233
:101CB0009846C4F820314FF4AC73C4F85881C4F886
:101CC0004405C4F848150120A060686880B99246B0
:101CD00099465146204600F0D8F807464946204626
:101CE00000F0D3F80743F4D000B10F2685F8168032
:101CF0003046CEE7BDE8F04700F004B8E019002018
:101D0000002000402DE9F05F1C4F00254FF48E7A33
:101D10002E46C7F81C514FF00108C7F8088000F0A4
:101D2000C1FC174CB815616879B123E05F46514694
:101D3000484600F09FF810B9A08AB842F7D1A08AAF
:101D4000B84204D000F0AEFC01E08346B946A08A58
:101D5000A17D8842EAD3A08A584501D10F2508E029
:101D60004F465146384600F085F80028F9D0C7F8AC
:101D70000C80A6752846BDE8F09F000000200040BA
:101D8000E019002030B541EA4201DDE9034541EAAE
:101D90008301800041EA042100F1A04041EA0541AD
:101DA000C0F8001730BD30B541EA4201DDE9034516
:101DB00041EA8301800041EA042100F1A04041EAA8
:101DC0000541C0F8001730BD30B541EA4201DDE9F8
:101DD000034541EA8301800041EA042100F1A0406B
:101DE00041EA0541C0F8001730BD1CB500220B4682
:101DF000009211460192FFF7C5FF1CBD1CB50021E2
:101E000000910B46012201911146FFF7BBFF1CBD5B
:101E10001CB5002100910B46012201911146FFF7EC
:101E2000C2FF1CBD800000F5E06000F1A040026828
:101E300022F440320260026842EA014101607047C8
:101E400001218140014801607047000008050050F1
:101E5000034908B50844002101600068009008BDEE
:101E60000060004002494058012800D0002070471F
:101E7000006000404058002800D001207047D0F892
:101E80000403084000D0012070474058002800D0CB
:101E90000120704770B50B4C0546206845602069ED
:101EA0002168854205D2A06BBDE87040091D00F095
:101EB00091BD606B091D00F08DFDE06A854200D286
:101EC000E56270BD5400002010B500F0A7FD0E4C77
:101ED0002068A0B90D4800F06FFD0C48143000F0E8
:101EE0006BFD0A48E06014302061002210212020A0
:101EF00000F048FF206010B105A100F0FFFDBDE833
:101F0000104000F095BD00009000002084190020D2
:101F1000546D72510000000070B5124E124C1AE060
:101F200000F0E0FE3068D0B101F07EFA00F076FDFE
:101F3000F068C568281D00F02DFDE068401EE060D7
:101F40006068401E606000F073FD286B00F07AFD51
:101F5000284600F077FD60680028E1D170BD01F0EF
:101F600063FAF8E75C1900205400002030B4026CDA
:101F70000B46002A0BD0C1681144C1604468A142DD
:101F800001D30168C16030BC1846FEF7DDBA30BC31
:101F9000704770B51646026C0446002582B1C6B182
:101FA000E068FEF7D1FAE168206C091AE160226866
:101FB000914202D26168081AE060022E16D01AE03F
:101FC0002068C0B9606801F0C1F905460020606072
:101FD00011E0A068FEF7B8FA216CA0680844A06080
:101FE0006168884207D32068A06004E0A06B10B14C
:101FF000A06B401EA063A06B401CA063284670BD70
:1020000006480168C96A09B1002070470449096897
:102010000129F9D8C16A0069081A704754000020E4
:10202000E41800200E4C4FF080550E4EFFF774FF61
:102030002068012805D9356040BFBFF34F8FBFF33B
:102040006F8FFFF7DDFF0228F0D300F04BFEFFF7A4
:10205000D7FF022801D300F013FD01F0E5F9E5E711
:10206000E418002004ED00E070B5002441600B4D41
:102070000061914206D8D11A8269914206D2011DAF
:10208000286907E09A4203D2994201D3012403E070
:10209000011DE86800F09EFC204670BD9000002005
:1020A00030B589B0274D42E00498002806DADDE912
:1020B0000601059A90470498002838DB069C606961
:1020C00010B1201D00F066FC02A800F099F802464D
:1020D00004980A282BD2DFE800F00505052A1F27FF
:1020E00005052A1F0598A169034601442046FFF70C
:1020F000BBFF01281BD1616A20468847E06901289F
:1021000015D1002000900598A169002342181946B6
:10211000204601F021FA0AE00598A06181181346D3
:102120002046FFF7A1FF02E0204600F08BFC0023D1
:102130001A4604A9286800F043FE0028B4D109B06B
:1021400030BD0000900000202DE9FC410F460546FF
:1021500000F0C8FD01A800F053F80446019818B13A
:1021600001F062F9BDE8FC811B4E17BBA54220D8E7
:1021700001F05AF9F0682746C068C468201D00F0D5
:1021800009FCE069012810D1A0692B4641193A46A3
:102190002046FFF769FF012807D1002003460146CA
:1021A00000902A46204601F0D7F9616A2046884708
:1021B000D8E7291B306800F0B5FC01F035F900289C
:1021C000D0D106494FF08050086040BFBFF34F8F19
:1021D000BFF36F8FC6E700009000002004ED00E021
:1021E0000648416B096829B1416BC968C9684968EB
:1021F000C16270474FF0FF31FAE700005400002041
:1022000070B5054601F046F8064E0446B0688442B3
:1022100003D200F009F8012000E0002028602046E9
:10222000B46070BD90000020F8B5144D1EE0C06889
:10223000C4680668201D00F0ADFB616A204688472F
:10224000E069012812D1A0693044B04206D9246166
:102250006060211DE86800F0BDFB07E00020034638
:10226000014600903246204601F076F9E8680168A0
:102270000029DCD12969C5E90310F8BD90000020D0
:10228000202080F31188FEE7074CE068016841B127
:10229000C0680021D0F80000FFF756FFFFF700FFED
:1022A000F3E701210020F7E79000002070B5044615
:1022B00000F0B4FB04F124050AE0606A58B1284636
:1022C00001F07CF808B100F049FCA06C401EA0644D
:1022D000A06C0028F1DC4FF0FF36A66400F0A8FBEC
:1022E00000F09CFB04F110050AE0206958B1284673
:1022F00001F064F808B100F031FC606C401E6064CD
:10230000606C0028F1DC6664BDE8704000F090BBB2
:10231000F0B5082902D0491E04D5F0BD817B802983
:102320000FD007215FF0010606FA01F5154203D030
:10233000447B857B2C434473847B6408847307D07F
:1023400015E099681C680868431C0B602254F0BDB6
:10235000802484739D68D3F800C0477B2C6804F107
:10236000010EC5F800E00CF8047000244473491E07
:10237000DAD5F0BD70B505460B46807A2989082864
:1023800004D908240838C140CAB202E00400CAB225
:1023900006D021462846FFF7BBFFA87A001BA8728B
:1023A000204670BD70B504460025400704D004F0F7
:1023B0000700C0F10800044400F094FC0A49486892
:1023C00018B90A4820F0070048600A6840F6F87318
:1023D0001019984204D2904202D94B6808609D18A7
:1023E00001F022F8284670BD48000020DA080020DD
:1023F0000449086818B10868C26B521CC2630868B7
:10240000704700005400002010B5084C031F2468DA
:102410001C601B1F1960191F054B0B6014390A60E3
:10242000091F6FF0020244380A6010BD3836000000
:102430008122000009480A490022C37DC1F8082111
:1024400043B1D1F81815437EC268D154417E491C6E
:1024500041767047D1F8180570470000E019002058
:10246000002000401FB501228DF8080004488DF8B7
:1024700000200191D0E90012684690471FBD00007E
:10248000E019002004480021C0F82411C0F8081108
:1024900001210160704700000020004070B5134822
:1024A0004178E1B100244470826B4FF440451146FD
:1024B0002832831D45EA0222150A1D705A709A1CA3
:1024C00014705470032202700522491C91FBF2F330
:1024D00002FB13118163BDE8704000F08FB8452006
:1024E000FEF752FC0028FAD170BD00000000002069
:1024F00010B5007800280BD10648FFF733FA0648DC
:10250000417806A0FEF7AAFA03490120083948706D
:1025100010BD0000AC3500000800002025630D0A46
:102520000000000070B5002604460E7704200D461A
:10253000C4F80803C4F80861107910B11068007875
:1025400000E0E87EC4F81C051079012802D9106863
:10255000407803E0107B012802D9E87EC4F81C050E
:10256000286818B10420C4F8040370BDD4F8080129
:102570000028FBD0C4F808612946204600F06AF81C
:102580000028F3D1A87EFF28EFD0BDE87040FFF708
:1025900057BC7CB504461023E17A4088258811F0A9
:1025A000010101D0012200E01A46AA1A824204DA8F
:1025B00009B108207CBD07207CBD00F580718AB27E
:1025C000A2F58071281A89B2102800DA83B201A816
:1025D00000250090ADF804502046FEF76AFDA0F5F6
:1025E0007F41FF3905D0E080BDF80400A0800320C2
:1025F0007CBD6088401C6080A580F8E77FB5124CE8
:10260000002104F1080620466CCE8DE86C008DF8A0
:102610000D1018218DF8001017218DF801101621CA
:102620008DF8021019218DF80310084A6946FFF74A
:10263000F9F808B1FEF724FB0549022220468B1C5D
:102640000092FFF781F97FBDAC350000F124000056
:102650000600002038B5D0F818258DF800200A7F34
:102660000B7D9A4203D29DF800300C69A3540A7F77
:10267000521CD3B20B770C7B5A1C944202D9896846
:10268000895C03E00D7D954203D9C97EC0F81C1515
:1026900003E0A34201D3AB4201D2012038BD0020A8
:1026A00038BD0000064A0020C2F81C010548838A94
:1026B0008168C95C838A5B1C8382C2F81C157047E1
:1026C00000200040E01900201FB500218DF808000F
:1026D00005488DF80010826801928175D0E90012DA
:1026E000684690471FBD0000E019002001780229CC
:1026F00001D0012902D14068FEF7C2BA704700003C
:102700007CB50178264D012909D002292CD0002959
:1027100029D129462348FEF7BDFA80B334E040684A
:10272000017820481038FEF7D0FA1E4C103C20B13A
:1027300001218DF80010019007E0A068E168081AF7
:10274000012805D100208DF8000069686846884797
:10275000A068E168081AA188884204D810480121BD
:10276000801CFFF79FF97CBD02218DF80010C06826
:1027700001900B480121801CFFF794F90CE0FFE762
:1027800001210748FFF77AFA06488168C068884245
:10279000E9D103208DF800006968684688477CBD50
:1027A000A4000020D01900202DE9FF413E4D4FF438
:1027B00000712846FFF763FB01273C4C4FF401787A
:1027C000002600B34FF492712846FFF753FBD0B1B7
:1027D000C5F82461C5F80883A07E00B96F600220A7
:1027E0008DF80000D5F88004C5F880040390E07DE2
:1027F0008DF80800E0680190E6752676D4E90012AD
:102800006846904724E004212846FFF738FBF8B1DA
:102810004FF484712846FFF72DFBC8B1FFF70AFE7D
:10282000E07D617E884213D1227E3AB1607EE1680C
:10283000E2752269E2602676667607E0A07E00B93E
:102840006F60C5F80883E675607EE168FFF70AFEF1
:102850004FF48E712846FFF70DFB58B1A18AA07D79
:10286000814202D2FFF71EFF04E0C5F81C6108B1E7
:10287000FFF72AFF4FF4A2712846FFF7FBFA002862
:102880000FD0C5F84461A07E00B12F60E07D002824
:1028900007D0E675607EE16804B0BDE8F041FFF75F
:1028A000E1BDBDE8FF81000000200040E0190020EC
:1028B0007FB5334C4FF492712046FFF7E6FA314D65
:1028C0000026B0B1C4F8246102208DF80000D4F8CD
:1028D0008004C4F880040390D4F83C058DF8080007
:1028E000E8680190EE752E76D5E9001268469047AB
:1028F0001FE04FF488712046FFF7C7FAC8B1C4F84B
:102900001061D4F83C05E97DC0B2814211D12A7E24
:102910005AB1E968D4F8003223F02003C4F8003239
:10292000EA752A69EA602E7601E0EE75E968FFF73C
:1029300099FD4FF4A2712046FFF7A7FA50B1C4F8F1
:102940004461E87D30B1EE75D4F83C05E968C0B269
:10295000FFF788FD4FF490712046FFF796FA0028A4
:102960000CD0C4F82061A87D002807D0D4F84C050D
:1029700004B0C0B2BDE87040FFF7A6BE7FBD000046
:1029800000200040E0190020EFF31180202181F3A6
:1029900011887047D0E9013201699A60D0E90123BA
:1029A0005A604A68824201D182684A60002202610C
:1029B0000868401E0860704700F108014FF0FF32C0
:1029C000C0E90112C160016100210160704700216E
:1029D0000161704730B50B685A1C02D000F1080243
:1029E00002E0026904E02246546825689D42FAD953
:1029F00053684B6099608A60516008610168491CA6
:102A0000016030BD42684A6093688B60936859608A
:102A1000916008610168491C01607047202080F3C3
:102A2000118802480168491C01607047500000206D
:102A300003490868401E086001D180F3118870477F
:102A4000500000207047000010B50020FEF748FE3F
:102A500009482021C0F808150121C0F8041381603D
:102A600001600649E02081F800044FF0E0214FF4B6
:102A70000030C1F8000110BD0010014011E000E07D
:102A8000F8B505461B48854200D90546202080F34D
:102A90001188194C0120C4F80803D4F8040528440F
:102AA00020F07F40C4F840050026C4F84061D4F807
:102AB00040014FF480370090C4F80473FEF7D6FA53
:102AC00078B175B1BFF34F8F72B686F311884FF0AE
:102AD000E02020BFD0F80012D0F804221143F8D033
:102AE00062B686F31188C4F808730120C4F80403A1
:102AF000F8BD0000FDFFFF000010014010B5084BBD
:102B0000002200BF53F832401CB1521C022AF9D3F4
:102B100010BD43F8321003EBC201486010BD000045
:102B2000D418002070B50D460446FFF777FF616C9E
:102B30000020491C00D16064A16C491C00D1A06434
:102B4000FFF776FFA06B20B9294604F1240000F0BE
:102B500033F82046BDE87040FFF7A8BB01490120CB
:102B6000086270475400002070B5114C0D46216872
:102B70001831FFF72FFF2068001DFFF70BFF38B952
:102B8000206890F82C1001208840616981436161C0
:102B9000681C05D020692844BDE87040FFF77AB969
:102BA0002168BDE870400348091DFFF72BBF0000F6
:102BB000540000207019002070B50C4C0D4621689F
:102BC0001831FFF71FFF2068001DFFF7E3FE38B93B
:102BD000206890F82C100120884061698143616170
:102BE00020692844BDE87040FFF754B95400002024
:102BF00070B5040039D01D4DE06A2968C96A884261
:102C000033D2A069002804DB2868C06AC0F1030041
:102C1000A061E16A164E01EB8101606906EB81015A
:102C200088421FD1201DFFF7B5FE012150B9E06A8F
:102C300000EB800256F8222022B96A6901FA00F0FE
:102C400082436A612868C06AE0626A698140114310
:102C5000696100EB800006EB8000211DBDE870403B
:102C6000FFF7D0BE2868C06AE06270BD5400002043
:102C7000E418002002494A6A02600969416070470D
:102C8000540000201FB500240E480294CDE90040F6
:102C900023463C220CA10E48039400F02FFA012891
:102CA0000FD100F037FC01280BD1202080F31188D0
:102CB00004480121083881610461BDE81F4000F02B
:102CC0003BB81FBD5C00002049444C45000000009B
:102CD0002520000002490A6910440861704700007D
:102CE000540000200248016B491C0163704700003A
:102CF000540000200E48016B11B1012101627047A0
:102D00000021016241690B4AB1FA81F1C1F11F0151
:102D100001EB810102EB810101F108034A6852686D
:102D20004A609A4201D152684A60D1680160704796
:102D300054000020E41800200E49E02081F8140D12
:102D4000FFF782FE0C49002008600C48016841F43E
:102D5000700101600A48016841F040410160074884
:102D60007838016841F010010160FDF763FBFFF75F
:102D700087FA00000EE000E05000002088ED00E03F
:102D800034EF00E070B50E0005464FF0000413D09C
:102D900005FB06F0401C4C30FFF704FB50B1044625
:102DA00066B104F14C002060C4E90F5601212046B1
:102DB00000F09AF8204670BD0020ECE72460F3E7AD
:102DC0002DE9FF470027474E82B099468A460446C0
:102DD000B8464FF0805500BFFFF720FEA06B68B3E8
:102DE00051462046E768FFF7C1F8B9F1000F13D04C
:102DF000E760606A50B104F1240000F0DFFA28B106
:102E0000356040BFBFF34F8FBFF36F8FFFF710FEEA
:102E1000012006B0BDE8F087A06B401EA0632068CB
:102E200010B9FFF7E5FA606020690028EED004F1E0
:102E3000100000F0C3FA0128E2D0E7E7049808B1D7
:102E40001FB106E0FFF7F4FD1FE06846FFF712FF31
:102E50000127FFF7EDFDFFF745FFFFF7DFFD606C92
:102E6000401C01D1C4F84480A06C401C01D1C4F8BE
:102E70004880FFF7DDFD04A9684600F01BF930B17A
:102E80002046FFF713FA00F0CFFA0020C1E7FFF762
:102E9000C5FDA06B38B1FFF7CBFD2046FFF706FA62
:102EA00000F0C2FA98E7FFF7C3FD206830B9FFF7DA
:102EB000B5FD6068FFF79CFEFFF7BAFD04F1240042
:102EC0000499FFF751FE2046FFF7F0F900F0ACFA45
:102ED000002881D1356040BFBFF34F8FBFF36F8FA4
:102EE0007AE7000004ED00E070B50D460446FFF7F8
:102EF00095FDD4E90F12206801FB020060600020FC
:102F0000A0632068A0600146E06B401E00FB021039
:102F1000E0604FF0FF306064A06404F110004DB138
:102F2000FFF74AFD04F12400FFF746FDFFF780FD9F
:102F3000012070BD21690029F8D000F03FFA012876
:102F4000F4D104490007086040BFBFF34F8FBFF3BF
:102F50006F8FEBE704ED00E02DE9FF4700273C4EC3
:102F600082B099468A460446B8464FF0805500BF65
:102F7000FFF754FDA06BE16B884206D3B9F1020F55
:102F800003D00498E0B1F7B121E04A46514620460B
:102F9000FEF7FFFF616A31B104F1240000F00EFA80
:102FA000012801D006E028B1356040BFBFF34F8F44
:102FB000BFF36F8FFFF73CFD012006B0BDE8F0873F
:102FC000FFF736FD1FE06846FFF754FE0127FFF7C5
:102FD0002FFDFFF787FEFFF721FD606C401C01D13C
:102FE000C4F84480A06C401C01D1C4F84880FFF7AD
:102FF0001FFD04A9684600F05DF830B12046FFF7D8
:1030000055F900F011FA0020D7E7FFF707FDA06B94
:10301000E16B884214D1FFF70BFD04F11000049915
:10302000FFF7A2FD2046FFF741F900F0FDF9002867
:103030009ED1356040BFBFF34F8FBFF36F8F97E7CF
:10304000FFF7F6FC2046FFF731F900F0EDF98FE7C6
:1030500004ED00E02DE9F0411F461646884604467F
:10306000FFF792FC0546A06BE16B884207D3022F65
:1030700005D00020E9B281F31188BDE8F0813A461D
:1030800041462046FEF785FFA06C401C04D0A06C92
:10309000401CA0640120EDE7606A0028FAD004F12A
:1030A000240000F08BF90028F4D0002EF2D001208B
:1030B0003060EFE770B50D460446FFF7AFFC0E4AEF
:1030C00011692868431C0FD02368526A934202D0CA
:1030D00062688A420AD96268891A814206D2401A15
:1030E00028602046FFF7C6FD002400E00124FFF71A
:1030F0009FFC204670BD0000540000202DE9FF5FBA
:103100008A46DDE90F9091000E9F9B461546884642
:1031100010B90846FFF746F9060018D04820FFF717
:1031200041F90400304610D0A52241462063FDF746
:103130002BFA6FF0030101EB8501206B3D4608443B
:1031400020F007085146002004E0FFF77BFC4FF019
:10315000FF3486E022180B5C82F834300A5C12B12E
:10316000401C0428F6D3002684F83760032D00D3D2
:103170000225E562C4E90E56201DFFF728FC04F184
:103180001800FFF724FC2461C5F103016462A1610A
:10319000266484F844605A4640460099FFF734F9A3
:1031A0002060B9F1000F01D0C9F80040FFF736FCEC
:1031B0002E4DE868401CE8602868DFF8B48010B144
:1031C000A86940B32CE02C60E868012828D10026CB
:1031D00006EB860108EB8100FFF7EEFB761C032E61
:1031E000F6D323483C30FFF7E7FB21485030FFF788
:1031F000E3FB1F486430FFF7DFFB1D487830FFF723
:10320000DBFB1B488C30FFF7D7FB19483C30686369
:103210001430A86304E02868C06AB84200D82C6063
:10322000A86A0121401CA862E06A6A6981401143D2
:10323000696100EB800108EB8100211DFFF7E2FBD3
:103240000124FFF7F5FBA86958B12868C06AB842A5
:1032500007D208492007086040BFBFF34F8FBFF374
:103260006F8F04B02046BDE8F09F0000540000209E
:10327000E418002004ED00E00548816919B1006BF5
:1032800018B10020704701207047022070470000ED
:1032900054000020014800697047000054000020DD
:1032A0000148006970470000540000202DE9F041FA
:1032B000244C0027206B40B1E069401CE061206A8B
:1032C00000B101273846BDE8F0812069401C20612B
:1032D000266946B9606BA16B6163A063606A401C9C
:1032E0006062FEF77DFFE06A8642E8D3606B0068AB
:1032F00038B1606BC068C5686868864204D2E06215
:10330000DDE74FF0FF30FAE7281DFFF743FBA86A1F
:1033100018B105F11800FFF73DFBE96A0120626969
:1033200088401043606101EB8100074901EB800098
:10333000291DFFF767FBE86A2168C96A8842D5D36F
:103340000127D3E754000020E418002070B50400E2
:103350004FF000012BD0E06B401EE063A36BE26AEC
:103360009A4224D018BB201DFFF714FB114B124AC0
:10337000012150B9E06A00EB800553F8255025B9CA
:10338000556901FA00F085435561A06BE062C0F118
:103390000300A061E06A556981402943516100EB57
:1033A000800003EB8000211DFFF72CFB0121084664
:1033B00070BD0000E4180020540000202DE9F04109
:1033C000C068C46804F118000746FFF7E3FA144D1B
:1033D000286B012660B11348394600BFFFF712FB86
:1033E000E06A2968C96A884213D901242E6211E073
:1033F000201DFFF7CFFAE16A6A6906FA01F010436F
:10340000686101EB81000749643901EB8000211DEF
:10341000E4E70024FEF7E4FE2046BDE8F08100006A
:1034200054000020481900202DE9F0470027FFF73D
:10343000F5FA264C206B401E2063206B98BBE16898
:10344000234E012079B3A6F1640980463068E8B1C3
:10345000F068C56805F11800FFF79CFA281DFFF712
:1034600099FAE96A626908FA01F01043606101EBB8
:10347000810109EB8100291DFFF7C4FAE86A216880
:10348000C96A8842E2D3C4F82080DFE7E06958B116
:103490004546E06940B1FFF709FF00B12562E069E8
:1034A000401EE061F5E70BE0206A012808D10949D8
:1034B00001270007086040BFBFF34F8FBFF36F8F36
:1034C000FFF7B6FA3846BDE8F08700005400002048
:1034D0004819002004ED00E02DE9F0471E46DDF814
:1034E000209017460D00804612D02820FEF75AFF84
:1034F00004000AD0FEF7E8FCC4F80080C4E90657CF
:10350000C4E90869201DFFF762FA2046BDE8F0878C
:103510000024FAE71FB50024FEF7D6FC0A4800682D
:1035200070B10949022200200092091DCDE9011065
:1035300003460390502205A10648FFF7DFFD04462D
:1035400004B0204610BD000090000020546D722091
:1035500053766300892200002DE9FF41114C1F467C
:103560000346266800200A9D002E0ED08DE80E002E
:1035700006290FDAFFF780FE02284FF0000307D07C
:10358000002269462068FFF7E7FC04B0BDE8F0813F
:103590002A46F6E700233A4669463046FFF75AFDC9
:1035A000F3E700009000002001000100003000401F
:1035B000030000000000000003CC000000000080B9
:1035C00000000000010000000200000004000000F4
:1035D00008000000090000000A0000000B000000C5
:1035E0000C0000000D0000000E0000000F000000A5
:1035F00010000000110000000000000000000000AA
:1036000000000000000000000000000000000000BA
:10361000000000000000000000000000FF000000AB
:10362000FF000000FF000000FF0000000806050783
:103630000100000000509D0000000001000000009B
:10364000000000000000000000000000000000007A
:103650000000000000009D000300000000000000CA
:10366000000000000000000000000000000000005A
:103670000000000000009D0003000000020304FFA2
:1036800003FF00000000004000000000AC36000016
:1036900000000020C00000007C0A00006C37000021
:1036A000C0000020A85900008C0A0000050100009D
:1036B00000080000000000002000000028000000BA
:1036C000400000001E000000050000002B0000006C
:1036D00006000000100000003C0000000100000097
:1036E00000000000000000000000000000000000DA
:1036F00000000000000000000000000000000000CA
:1037000000000000000000000000000000000000B9
:1037100000000000000000000000000000000000A9
:10372000000000000000000000000000FFFFFFFF9D
:103730000000000000000000000000000000000089
:103740000000000000000000000000000000000079
:103750000000000000000000000000000000000069
:0C3760000090D0030000000000000000FA
:0400000500000401F2
:00000001FF
