:020000040001F9
:10F00000B85000208DF4010095F4010097F4010040
:10F0100099F401009BF401009DF401000000000040
:10F020000000000000000000000000009FF401004C
:10F030000000000000000000A1F40100A3F40100A2
:10F04000A5F40100A5F401008DF90100A5F401006B
:10F05000A5F40100A5F401001DF50100A5F40100CF
:10F06000A5F40100A5F40100A5F40100A5F4010038
:10F07000A5F40100A5F40100A5F40100A5F4010028
:10F08000A5F4010095F60100A5F40100A5F4010026
:10F09000B9F60100A5F401000DF70100A5F4010087
:10F0A000A5F40100A5F40100A5F40100A5F40100F8
:10F0B000A5F40100A5F4010000000000000000001C
:10F0C000A5F40100A5F40100A5F40100A5F40100D8
:10F0D000A5F40100A5F401000000000000000000FC
:10F0E0000000000000000000000000000000000020
:10F0F0000000000000000000000000000000000010
:10F1000000000000000000000000000000000000FF
:10F1100000000000000000000000000000000000EF
:10F40000DFF80CD000F078F800480047C114020083
:10F41000B8500020401E00BF00BF00BF00BF00BFAB
:10F4200000BF00BF00BF00BF00BF00BF00BF00BFE4
:10F4300000BF00BF00BF00BF00BF00BF00BF00BFD4
:10F4400000BF00BF00BF00BF00BF00BF00BF00BFC4
:10F4500000BF00BF00BF00BF00BF00BF00BF00BFB4
:10F4600000BF00BF00BF00BF00BF00BF00BF00BFA4
:10F4700000BF00BF00BF00BF00BF00BF00BF00BF94
:10F4800000BF00BF00BFC5D17047000006488047DD
:10F4900006480047FEE7FEE7FEE7FEE7FEE7FEE779
:10F4A000FEE7FEE7FEE7000035F7010001F401008A
:10F4B00040EA01039B0703D009E008C9121F08C0F6
:10F4C000042AFAD203E011F8013B00F8013B521E76
:10F4D000F9D27047D2B201E000F8012B491EFBD2ED
:10F4E00070470022F6E710B513460A46044619464F
:10F4F000FFF7F0FF204610BD064C074D06E0E06820
:10F5000040F0010394E8070098471034AC42F6D36A
:10F51000FFF77AFFCC260200EC2602002DE9F05F0F
:10F5200000250127DFF8FCA0A8464FF480762C4682
:10F53000B946304602F0CCFB48B1DAF8041309FAB8
:10F5400004F0014203D0304602F0B8FB3D43361DC3
:10F550007F00641CB6B2082CEBD34FF4BE74204677
:10F5600002F0B6FB38B1204602F0A8FB2E4845F069
:10F570000045D0F800802D4E280715D00127002423
:10F580002F420DD00AEB8401D1F81005D1F81015E7
:10F59000C0F3042006EB8402C1F301415268904796
:10F5A0007F00641C082CEBD3002D36DA0024CB46F8
:10F5B000B2460AEB0400574690F8540020F0C0050C
:10F5C0004FEA90190BFA05F6284602F015FC08B32D
:10F5D000284601F0A7FC07EB80004768D7B1A800D8
:10F5E00000F1A040D0F8000716EA080FC0F3014070
:10F5F00002D0022802D00DE003280BD1B9F1030F8D
:10F6000005D102280BD00221284602F048FB4946CA
:10F610002846B847641C042CCBD3BDE8F09F0321D7
:10F62000F2E700000060004010050050702F00203D
:10F6300000F01F02012191404009800000F1E0200C
:10F64000C0F88012704700F01F020121914040096C
:10F65000800000F1E020C0F80011704700F01F02A8
:10F66000012191404009800000F1E020C0F8001223
:10F6700070474907090E002806DA00F00F0000F174
:10F68000E02080F8141D704700F1E02080F800149D
:10F690007047000007480021C0F84011C0F844112D
:10F6A000C0F84811C0F84C11C0F80011C0F804119E
:10F6B00002F082BD001001402DE9F04186B04FF00C
:10F6C000FF30114D02906846D5E9046801F028FD2D
:10F6D000074601F021FE044647B102AA41460098C0
:10F6E00001F03EFD029801F069FE04E0029801F08D
:10F6F00065FE00B914B1304601F01CFC00206871B1
:10F7000006B0BDE8F0810000B4280020084810B51C
:10F71000406840B18047002809D00022BDE8104071
:10F72000114600F023BCBDE8104001F077BD10BDCC
:10F73000DC280020F0B58B480022041D0378211D31
:10F74000081D0126062B17D125782D0714D10D7819
:10F75000C5F30315032D03D1077817F0F00F0ED072
:10F76000042D03D1077817F0F00F08D0052D03D131
:10F77000057815F0F00F02D0062B09D014E04FF0F9
:10F780008055D5F84452784FC5F342353D6002E0CC
:10F7900025782D0708D10D78C5F30315032D03D166
:10F7A000057815F0F00F02D0062B06D01DE06F4D46
:10F7B0002F6827F080772F601AE025782D0714D165
:10F7C0000D78C5F30315032D03D1077817F0F00F5B
:10F7D0000ED0042D03D1077817F0F00F08D0052DB7
:10F7E00003D1057815F0F00F02D0062B0AD015E0F2
:10F7F0004FF08045C5F80C21C5F810215A4D2D1F3A
:10F800002A6002E025782D0708D10D78C5F303158D
:10F81000032D03D1057815F0F00F02D0062B05D08B
:10F8200066E0514C03236434236002E023781B0715
:10F830005ED10978C1F30311052959D1007810F080
:10F84000F00F55D14A4800684A4908604848001DF1
:10F850000068091D0860464808300068091D0860F6
:10F8600043480C300068091D0860414810300068AA
:10F87000091D08603E4814300068091D08603C48B6
:10F88000183000683B492031086039481C30006856
:10F89000091D0860364820300068091D086034489A
:10F8A00024300068091D0860314828300068091DAF
:10F8B00008602F482C300068091D08602C48303043
:10F8C00000682C4940310860294834300068091D1F
:10F8D0000860274838300068091D086024483C301B
:10F8E0000068091D0860224840300068091D086052
:10F8F0001E487438016841F470010160BFF34F8FF6
:10F90000BFF36F8F4FF01021D1F80002002803DB06
:10F91000D1F80402002821DA174B1E60174804684A
:10F92000002CFCD01524C1F800420568002DFCD045
:10F93000C1F8044201680029FCD01A60016800295E
:10F94000FCD0BFF34F8F0948F03801680C4A01F42E
:10F95000E06111430160BFF34F8FFEE70A49094898
:10F960000860F0BDE00F00F03C050040FCED00E059
:10F970000404001020C5004004E5014000E40140FB
:10F980000400FA050090D003F02800202DE9FF477D
:10F99000584C0026584DE07D4FF0020900284FF4E6
:10F9A00092714FF4A27A284649D002F09EF9A0B194
:10F9B000C5F824618DF80090D5F88004C5F880045E
:10F9C0000390D5F83C058DF80800E0680190E674D6
:10F9D000D4E90012684690470FE04FF4887128463A
:10F9E00002F083F948B1C5F81061D5F83C05E17C17
:10F9F000C0B2814201D102F0C7FA5146284602F056
:10FA000074F940B1C5F84461E07C20B1D5F83C05FB
:10FA1000C0B202F0B9FA4FF49071284602F065F9CD
:10FA2000002865D0C5F82061A07C002860D0D5F8FA
:10FA30004C0504B0C0B2BDE8F04702F099BC02F03A
:10FA40004FF94FF401780127C0B1C5F82461C5F81A
:10FA50000883607D00B96F608DF80090D5F8800450
:10FA6000C5F880040390E07C8DF80800E068019000
:10FA7000E674D4E900126846904713E04FF48471AD
:10FA8000284602F02DF968B102F0FEF9E07C217DF4
:10FA9000884207D1607D00B96F60C5F80883207D7A
:10FAA00002F072FA4FF48E71284602F019F958B13B
:10FAB000A07C218A884202D902F0F8FB04E0C5F854
:10FAC0001C6108B102F054FC5146284602F008F9C6
:10FAD00000280DD0C5F84461607D00B12F60E07C46
:10FAE000002805D0207D04B0BDE8F04702F04CBAF4
:10FAF000BDE8FF87C82F0020002000400FB4054B51
:10FB000010B503A9044A029800F017F810BC5DF87C
:10FB100014FB0000C1110200D828002002E008C830
:10FB2000121F08C1002AFAD170477047002001E077
:10FB300001C1121F002AFBD170472DE9F84F9946E9
:10FB4000924688460546002706E025280AD05146F9
:10FB50004A4690476D1C7F1C28780028F5D138460E
:10FB6000BDE8F88F002315F8011F18462E2915D17E
:10FB700015F8011F04232A290DD06FF02F022978D0
:10FB8000A1F13004092C09D800EB800002EB400001
:10FB900008446D1CF3E758F8040B6D1C2A78002A02
:10FBA000DDD0632A07D0732A0FD0104651464A464B
:10FBB00090477F1C2AE018F8042B8DF800200021C4
:10FBC0008DF801106E46012103E058F8046B4FF0E8
:10FBD000FF315A074FF0000401D409E0641C84424D
:10FBE0000BDA8C42FADB325D002AF7D105E0641CA7
:10FBF0008C42FCDB305D0028F9D1274404E016F884
:10FC0000010B51464A469047641EF8D26D1CA3E78B
:10FC10002DE9FC5F0025168807461580406B1446C9
:10FC20008946A8464FF00C0A11234FF0020B98B1F9
:10FC300001784846032E48D380F800B02288521C31
:10FC400092B2228083542288521C92B2228009F8F8
:10FC500002102088401C20803A6BDAB12088494687
:10FC600000F11205B54230D80B5420881023401CF7
:10FC700080B220800B542088401C20800F202388D5
:10FC8000155C401ECD54238840B25B1C23800028A5
:10FC9000F5DA454697F82E0030B1334622464946FC
:10FCA00001F006FB050011D197F82D0030B1324666
:10FCB0002146484600F0BAFD050007D1B87820B3C8
:10FCC0002088C846001DB04202D95046BDE8FC9FBE
:10FCD000684679DF0028F9D12188032008F801005F
:10FCE00020881921401C80B2208008F8001020884C
:10FCF000401C80B2208000EB0801BDF8000002F03B
:10FD0000C3FB0146208808442080F878B8B12288D7
:10FD100097F90310D31C4846B342D6D800F802B076
:10FD200022880123521C92B2228083542288521CC2
:10FD300092B2228009F802102088401C2080786846
:10FD4000B8B1218890F90020CB1C4846B342BCD8FA
:10FD500000F801B021880A23491C89B2218043544C
:10FD60002188491C89B2218009F801202088401C83
:10FD70002080388950B1CDE900464B460622022149
:10FD800007F1080002F0EBFB05009FD1388A50B163
:10FD9000CDE900464B460722032107F1100002F08F
:10FDA000DEFB050092D1388B50B1CDE900464B46C1
:10FDB0001522142107F1180002F0D1FB050085D1AE
:10FDC000386A30B133462246494601F007F905004A
:10FDD000DBD1786A30B133462246494601F064FCF3
:10FDE0000500D2D197F82C0038B133462246494657
:10FDF000384602F0E7F80500C7D1387838B1334605
:10FE000022464946384601F081FC0500BDD128460E
:10FE10005CE710B501220221002000F0BFFE08B10E
:10FE2000072810D107220221012000F0B7FE08B1F7
:10FE3000072808D100210A22084600F0AFFE08B1C9
:10FE4000072800D1002010BD30B5A7B0382101A887
:10FE5000FFF747FB02208DF8040000248DF80640D0
:10FE600005208DF8070038210FA8FFF73AFB0F484F
:10FE700001251490ADF84C5024211DA8FFF731FB4B
:10FE800040202190B42022908DF88050084B1DAA6C
:10FE90000FA9009401A800F07BFA002803D00022EB
:10FEA000114600F063F827B030BD000004280020A0
:10FEB0002D1D0200064800684FF40021044A8143CA
:10FEC000121D1160111D00F4002008607047000031
:10FED0000405005070B50024064D06E06868012155
:10FEE00010F8340001F07CFC641C28788442F5D3BF
:10FEF000002070BD9C280020F8B515460C4606462B
:10FF0000052A01D20720F8BD01F042FD18B901F021
:10FF100017FD0028F7D1114900204E600C700861D0
:10FF20008D6048610E4D0DE006EBC400296800911C
:10FF300081788DF8011000780A4A694601F09AFC30
:10FF40000028E0D1641EE4B2EED2BDE8F8400348D8
:10FF50000021054A0C3000F04BB800009C2800201E
:10FF6000C8260200D1110200C1100200BFF34F8F5A
:10FF700004480168044A01F4E06111430160BFF3E1
:10FF80004F8FFEE70CED00E00400FA058268C368BD
:10FF900093420AD0826883881A4003689A5C0A7088
:10FFA0008168491C8160002070470520704729B195
:10FFB00012B1531E134203D0092070470E20704720
:10FFC0000160838000218160C160084670478268BB
:10FFD000C3689B1A8288934208D8C368134002689A
:10FFE000D154C168491CC16000207047042070478B
:10FFF00070B5114DAC6824B12AB120B100232D7821
:020000040002F8
:100000000AE0082070BD072070BD00BF03EBC306E7
:1000100014F8266026B15B1CAB42F7DB042070BDF0
:1000200003EBC305012604F8256004EB8504617029
:10003000A2610360002070BDB42800202DE9F047C4
:100040008146089C1D461746884698074FF00006D3
:100050000AD14DB101F0FAFE2046244CA06184F88B
:1000600000800020A5600BE00720BDE8F08700BFFE
:1000700000EBC001401C05F8216005EB81010E7505
:100080004045F5DB08EBC80005EB800103206070FC
:1000900001F11800002207EB4705E16001EBC20304
:1000A000521C1E705E709F70586000EBC500032AE2
:1000B000F4DB4FF0FF302061A670E6701420FFF7EC
:1000C000B7FA03211420FFF7D4FA1420FFF7BBFA84
:1000D0000749C1F8009003211120FFF7CAFA04482C
:1000E000001F006860610020BFE70000B428002006
:1000F000081501402DE9F84304461F480D461746F0
:10010000816869B10278944201D2052D02D207209C
:10011000BDE8F88304EBC40211F82230012B01D0B2
:100120000820F5E7814601EB8200407801281FD0C6
:100130005FF0000602F0DEF9D9F80C10804601EB02
:10014000C800694602F0F8F9A0B1012100F8041BCB
:100150000A4910C0096880E8E200D9F80C1000983C
:1001600001EBC80148701420FFF778FA0020CFE7B0
:100170002E46DFE70420CBE7B42800200415014019
:10018000F8B5154C0546A06850B121788D4201D3D1
:100190000720F8BD05EBC50110F82100012801D0AA
:1001A0000820F8BD02F0A6F90646E068694600EBB3
:1001B000C60002F0C1F960B1022101704560E0683B
:1001C00000EBC601009848701420FFF747FA0020A2
:1001D000F8BD0420F8BD0000B42800200146014805
:1001E000FFF7D4BE502F002070B50446214888B0D8
:1001F0001E460D0042603AD0A888296882B21E4887
:10020000FFF7D5FE002830D1A889A96882B21A4824
:100210001030FFF7CCFE002827D12022174968466E
:10022000FFF746F9A0680690207900B101208DF80B
:1002300014008DF81C60607900B10E208DF8150057
:10024000E0780290A0780390207801906078009088
:100250000B49684601F0A4FB002806D101F06AFCB6
:1002600004480121801C01F0D3FB08B070BD0720B9
:10027000FBE7000070280020502F00208826020095
:10028000F923020010B50446074801214470401CC0
:1002900001F05CFC112805D12146BDE8104003485F
:1002A000FFF795BE10BD000070280020602F0020D1
:1002B0002DE9F0410446006801F0E7FC2078174F73
:1002C000012606FA00F038600021606801F0D4FCD5
:1002D0001348144DC07DA069C5F82405607D217DBB
:1002E0000843C5F86C05D4E90001C5F80C05C5F84C
:1002F0001415207D01280FD1E06801F0C6FC207B99
:1003000086403E600021A06801F0B6FCD4E90201FD
:10031000C5F80815C5F81005BDE8F08108050050BE
:10032000C82F002000200040F0B50C4693B01F21DC
:100330000726ADF80010ADF80410002750B1C178C1
:1003400049070DD56A4602A9FFF762FC002808D1CB
:1003500002AD02E00025ADF800706CB1E07810B19C
:10036000304613B0F0BD01AA0AA92046FFF750FCA1
:100370000028F6D10AAA02E00022ADF80470BDF808
:100380000400C3B2BDF80000C1B2284672DFE8E73E
:1003900070B50D4604991646040040D0F6B34148A6
:1003A00000224271C0E90331242231463E48FFF762
:1003B0007FF800F0BBF83C493431A1F11000016036
:1003C0002031816038215C38FFF78BF8364821787E
:1003D00038380170A1788170E178C170617841701E
:1003E000D4E90412C0E90412D4E90212C0E90212ED
:1003F000D4E90612C0E90612616AD1B100F1AC017C
:1004000000F1B80241628A60636A1B880B80616AEE
:10041000436A898899800021436A07E0FFE70E203C
:1004200070BD666AB668765C5654491C9E888E42DA
:10043000F7D8A16AD9B11C4AAC32A2F10C018A608A
:100440008162A36A9B888B80A16A836A098819806C
:100450000021836A04E0A66AB668765C5654491C9B
:100460009E888E42F7D894F82C1080F82C10216AC0
:1004700049B10C4914310162226A52884A80216ACA
:10048000026A09881180616821B10649891D4160AD
:10049000616841602946BDE8704003483838FFF77D
:1004A00043BF000038280020682E002010B50288C5
:1004B0001D4C102A18D00021112A1BD0192A18D13E
:1004C0008079002815D16079012820D0022824D015
:1004D000032824D004280CD12171E2680846002AA0
:1004E00007D0BDE810401047017D012901D1808867
:1004F000208110BD6170808821898842F9D1012056
:1005000006E021690029F4D0BDE810400847022028
:1005100000F030F80028F4D110BD0320F8E70320E4
:1005200020710420F4E70000382800200248002150
:100530008161818381777047382800200B4810B58E
:100540000078012810D10A4C607868B9607910B140
:1005500074DF002809D101206070607900F00AF88A
:1005600010B1216901B18847002010BD682E00201C
:10057000382800202DE9F04F724C87B000266071BA
:1005800006A8069601F050FC0127082805D000288F
:1005900071D1069810B12770C0E00696FFF7C6FF2C
:1005A000694D687810B16079012804D0A87848B105
:1005B0006079022806D1E16819B1E7700820884700
:1005C00000E0E6706079DFF87C814FF0020A08F104
:1005D00018084FF0030B012806D1687840B108F1E4
:1005E000010001F0FFFB18B16079022802D00AE097
:1005F00084F805A0A87820B108F1010001F0F2FB11
:1006000008B984F805B0287B4FF0040920B9607957
:10061000032801D184F80590287E20B96079042848
:1006200001D166712671E16841B16079032801D07A
:10063000042803D1287808B16078C0B1A6701821C9
:100640006846FEF74EFF8DF8006001968DF8086051
:100650000396607901280FD0022817D03A4E24362D
:10066000A6F15C0703281ED004284DD13BE0A770FB
:1006700007208847E3E752E0ADF81260CDF8048028
:100680008DF80070ADF8106027713FE0CDF8048060
:100690008DF800702889ADF81200A888ADF8100018
:1006A00084F804A032E0A88AADF81200288AADF8D8
:1006B00010002548243001F0B9FF18B1287808B19E
:1006C000607810B184F804B01EE01F488DF808A0CF
:1006D000039687F8039000213838FFF725FE00289D
:1006E0001DD105202BE0A88BADF81000288CADF8AB
:1006F00012001548243001F099FF18B1287808B18C
:10070000607878B184F80490607918B1684673DF36
:10071000002804D1E16809B120798847002007B09A
:10072000BDE8F08F08488DF808A0039687F803907D
:1007300000213838FFF7F8FD0028F0D1062020719D
:10074000E2E7000038280020682E002070B505463A
:1007500001461C221048FEF7ABFE104C0026267006
:10076000286838B10168A1604068E06004F10800C1
:100770007ADF02E0094808307BDF00280BD14FF612
:10078000FF7060806670BDE8704004480021044A34
:10079000001DFFF72DBC70BD342F0020582800200D
:1007A0009524020070B5204C068800251D49E28979
:1007B000102E16D00B46112E5B681ED0122E2BD099
:1007C000502E19D130F8061F914215D1018B022904
:1007D00012D1807E10F0010F13D0BDE8704000F000
:1007E00045BC83884B80D0F816300B61D0F81A00D6
:1007F00048614D70002AF0D070BD4FF6FF70488000
:100800004D701846FFF7BCFC0028F5D0A1690029FF
:10081000F2D0BDE87040084750F8062F0A614068E2
:100820004861DAE758280020342F00207CB50546BF
:1008300008880C460930904201D90C207CBD6846DE
:1008400071DF0028FAD121880820685420881B21F4
:10085000401C80B2208029542088401C80B2208017
:100860002844DDF801100160BDF805108180208862
:10087000801D80B220809DF8001001B10121295413
:100880002088401C208000207CBD000010B504465C
:10089000FFF788FF2146074800F040F8204601F0A6
:1008A00059FA2046FFF702FE2046BDE8104000F04E
:1008B000ABB80000082E002030B5174B0D460400E1
:1008C0000FCB85B08DE80F0023D015B34FF6FF7026
:1008D000A0822868A0610020A0752146684663DFD9
:1008E000002814D120788DF812000120ADF81000F6
:1008F000A21C04A9A0DF002809D12946204601F046
:10090000D5FA002803D12946204601F0E1FC05B0C4
:1009100030BD0E20FBE700007826020000281ED024
:1009200000291CD00A88102A14D0112A14D0502A69
:1009300015D131F8062F038A9A4202D10B8B022B74
:100940000ED083889A420AD18369002B07D00A8B84
:100950001A311847898801E04FF6FF71818270478C
:10096000897E11F0010100D001218175704707B522
:1009700084B068B1828AA2F57F43FF3B0AD0827DB2
:1009800042B1BDF81820142A06D9072007B000BDCF
:100990000E20FBE70820F9E7002200920192029264
:1009A00003928289039106A90291ADF800200121EA
:1009B0008DF80210808A6946A6DFE7E77CB5114E04
:1009C0000C004FF00005306015D06946002000F0A3
:1009D000AFF8002815D101A9012000F0A9F80028DE
:1009E0000FD19DF8041009B1022003E09DF800101A
:1009F00001B10B202070706810B9FFF70AFA0546A4
:100A000028467CBD3028002010B51A4C018860684B
:100A100010290ED011292BD1401E606028D1FFF77C
:100A2000F8F9002824D02168002921D0BDE8104021
:100A30000847D0B900210122084600F0AFF808B1FC
:100A400007280FD107220221012000F0A7F808B1E2
:100A5000072807D104220221002000F09FF820B1CE
:100A6000072802D0216801B188476068401C606097
:100A700010BD00003028002010B5032000F0FCF964
:100A800008B1062800D1002010BD00002DE9F04774
:100A900007460024234802E0641C042C3FD250F88F
:100AA0002420BA42F8D1042C39D2DFF87C90DFF848
:100AB0007C80A9F11006F06939B301290ED0022912
:100AC0002DD104EB440040444578002D27D0F16837
:100AD000002924D02846BDE8F047084704EB44012C
:100AE00018F80150884498F8011049B171680E4A0D
:100AF00001EB810149000F3AFFF7FCFA00B977706A
:100B000098F8021009F80410DFE7FFF739FB04EB4F
:100B10004401414419F804008D78A842D5D0BDE8BD
:100B2000F08700004826020020280020242E002004
:100B300004280CD2074A1268074B13F82030012012
:100B40009840904300D0012008700020704700209A
:100B5000FAE70000100500504826020010B50428EE
:100B600007D0072812D00A2814D1BDE8104001F0A0
:100B70006DBA09481321408876DF09E0002809D0C2
:100B80000022BDE810401146FFF7F0B9FFF7D6FC90
:100B90000828F3D110BD00000028002070B5002304
:100BA000042810D20D4D00EB4004012A02D1012986
:100BB0000CD00022094E00EB4000304461B1012905
:100BC00006D0022906D00723184670BD0D30C2B2E8
:100BD0002A55F9E74270F7E78270F5E7242E0020E6
:100BE000044A01460020127AD20702D0084600F0DB
:100BF00055B870471028002070B50E4621490546AB
:100C000000204E60C1E90252A9071BD50024012231
:100C100011462046FFF7C2FF641C042C02D20028B4
:100C2000F5D00FE070B9720804211748FFF764F996
:100C300040B9FFF74FF928B91248144A00211C3077
:100C4000FFF7D6F9E9070AD0114A4FF4F011116005
:100C50000F4B00221B1D1A600D4A10321160002834
:100C60000FD108480B4A00211430FFF7C1F90028C2
:100C700007D1BDE8704003480121074A1830FFF74B
:100C8000B7B970BD1028002058260200B50E02002A
:100C90000805005005130200B5FE01002DE9F05FC4
:100CA00007467448DFF8C8910022416809F104043E
:100CB000251DD0F814C04FF4A01A4FF400334FF4A0
:100CC000802B01EB810E1646182F12D2DFE807F0B9
:100CD0000C12123344536075778077808B8F8F8F1F
:100CE0008F8FB1B9BFC5CBCB4FF4B01121602E604F
:100CF0000670A3E0C4F800A02E60D9F8002082F4AA
:100D0000F012920309D523602E60022F02D14FF416
:100D1000E16209E04FF47A6206E02B602660022F60
:100D200034D000BF4FF4C87207706420B2FBF0F0FB
:100D3000414300223CE0C4F800A02E60D9F8002016
:100D400082F4F012920304D523602E604FF44872AF
:100D5000EAE72B60266019E0C4F800A02E60D9F8FD
:100D6000002082F4F012920302D523602E60D1E7B6
:100D70002B602660D6E7C4F800A02E60D9F80020CA
:100D800082F4F0129203E4D523602E60C822CBE7F0
:100D9000C4F800A02E60D9F8002082F4F01292036B
:100DA00002D523602E6001E02B602660077018E0FA
:100DB0006046FFF79FF9024640E0514643E0D9F80C
:100DC00000002BEA0002226000F48020286008E086
:100DD000D9F800002BEA0001216000F4802028608F
:100DE00071460022E4E74FF4F01028601FE08046CF
:100DF0008069FFF7C5F90246D7F111004FF40027CB
:100E000000D012B127602E6018E001280ED9C82149
:100E100010FB01F16420B1FBF0F1D8F80420D8F800
:100E2000180051430022FFF765F902462F60266043
:100E300004E04FF4F01121602E6007701046BDE809
:100E4000F09F4FF4E01121602E602B600EE04FF414
:100E5000D01121602E60594607E04FF4C011216087
:100E60002E60891001E04FF4F01129602660E4E75C
:100E7000040500501028002070B500210C4D0124FD
:100E800055F82120920002F1A042D2F8006704FA3E
:100E900001F3034000D0032326F4403646EA03431F
:100EA000C2F80037491C0429EAD3002070BD0000B5
:100EB0004826020000780221FFF7E8BD05494FF0FF
:100EC000FF3201EB800308285A6002D3084480F8FF
:100ED0004C207047702F0020F0B54FF0FF3512B155
:100EE0000023082601E008230C260D4C06E000BF75
:100EF00004EB83077F687F1C04D05B1CB342F7D3ED
:100F00002846F0BD26185DB286F8345004EB8306FF
:100F1000002A7160F4D1E11881F84C00F0E700007C
:100F2000702F00200249084490F9340070470000F7
:100F3000702F00202DE9F05F254801694A1C41D03F
:100F4000826801EBC101DFF88CB002EB81018146C0
:100F50004E68DBF8004047690079E11B21F07F45CE
:100F6000ED1CB0B9DFF870804FF48030C8F844034E
:100F7000C8F804031120FEF75BFB1120FEF763FBAA
:100F80004FF0010AC8F800A02F20FEF743FA89F8B5
:100F900004A0B54200D235460E49E8193C3120F094
:100FA0007F400860DBF80010001B091B21F07F4127
:100FB00020F07F40C91C814208D9BDE8F05F1120B4
:100FC000FEF74CBBBDE8F05F00F040BFBDE8F09F0E
:100FD000B428002004150140001001402DE9F04123
:100FE00017880646B81D14460D46984202D90C20B3
:100FF000BDE8F0813188072206290AD34FF4486CF6
:101000004FF6FF73614501D9994202D170880628D5
:1010100001D21046ECE7604501D99842F9D19942D6
:1010200003D0984201D08142F3D80520E8552088AA
:101030001221401C80B2208029542088401C80B29C
:1010400020804119308801F01FFA2188084480B2BD
:1010500020804119708801F017FA21880844208007
:101060000020C5E700221146FEF780BFF8B5124800
:1010700000F010F9104D0026104C103D30B16169A0
:10108000B1B101208DF80000684610E0287820B149
:10109000616969B18DF80060F6E7687850B1A168C0
:1010A00000226868FFF726F810B1A16901B18847EE
:1010B0002E70F8BD6168F3E768280020342F002007
:1010C0002DE9F04100260125144C22E06068626998
:1010D00000EBC607387805FA00F1114217D08A43B1
:1010E000626100F023FC02463878236905FA00F1BA
:1010F000194002FA00F3994209D17978012901D007
:10110000012100E0002151407A6802B19047761C2D
:10111000F6B220788642D9D3BDE8F0819C28002021
:101120000E4910B58A78CC780023A24212D0521C06
:10113000D2B28A70022A00D18B70084A8B781C3296
:1011400052F8232002604869104420F07F40486133
:10115000012010BD0360002010BD0000B428002055
:101160002DE9F043154E89460024B768336920E025
:1011700003EBC30107EB81014D68854202D9281AB0
:10118000486018E0401B2C4400254D600D751D463D
:10119000D1F810C00B6ABCF1000F0AD009EB0408AB
:1011A00028F07F48C1E9028CD2F800C0C1F820C005
:1011B0001560591CDCD13361BDE8F083B4280020F0
:1011C00010B50446C0B2FFF75DF8204610BD000020
:1011D00070B5114C06460125B540E068FEF7D0FF1A
:1011E00000280CD16169294207D1304600F09EFBEE
:1011F0000028206904D0284303E0A943616170BD41
:10120000A8432061606928436061D4E90210BDE809
:1012100070400022FEF76EBF9C280020F8B51C4CE1
:101220002078002832D0206928B10026E06820B15B
:10123000002526B112E00126F8E70125F9E7684606
:1012400051DF052805D030B100221146FEF78EFE91
:1012500004E0012602E021690098884795B960887A
:10126000ADF800006946A06861DF052805D030B1FF
:1012700000221146FEF77AFE04E0012502E0D4E9DF
:1012800002018847002EDAD0002DD2D0F8BD000030
:10129000DC280020054940880A88904204D3498808
:1012A000884201D801207047002070476028002044
:1012B00030B51488E51C9D4201D90C2030BD0225B3
:1012C0000D5513881C245B1C9BB21380CC541388CF
:1012D0005B1C9BB21380012807D0022807D003288B
:1012E00007D0042807D0072030BD002004E00120EB
:1012F00002E0CD5401E00320C8541088401C108047
:10130000002030BD0348017AC90702D00078FFF7FA
:10131000C5BC7047102800202DE9F04726484FF043
:10132000000980464578D0F810A038E0D8F80C00C5
:1013300000EBC50634782FE004EB44017068641CB0
:1013400000EBC100B178E4B2A14200D100240178E1
:10135000022902D003291FD115E04068D8F80810EF
:1013600000EBC00201EB8207397DA9B100F0E6FE77
:1013700087F8149010E000BF00EBC00002EB800083
:101380000375006A04E0D8F80820D8F810004B462E
:10139000471CF1D1C8F810007078A042CCD16D1E66
:1013A000EDB2C3D2D8F81010514502D00120BDE8EB
:1013B000F0870020FBE70000B42800202DE9F0476B
:1013C00004463D48002781464678D0F810A067E0E3
:1013D000D9F80C1001EBC6055CE0601C08D0224671
:1013E000D9F8080004EBC20100EB8100046A2FE089
:1013F0002878696800EB4002401CC0B201EBC201D2
:101400002870AA78904200D12F704A68D9F808C095
:1014100002EBC2000CEB800091F800C0BCF1010FA0
:101420003AD190F814C0BCF1000F35D1D1F808C002
:10143000C0F808C0D1F80CC0C0F80CC0D1F810C07A
:10144000C0F810C04969C16199F8051001B1876001
:101450008368D9F814C0DFF86480A3EB0C0121F095
:101460007F41414502D2C368194407E0ACEB030158
:10147000C36821F07F418B4202D9591A416000E0D4
:10148000476087600121C7600175891E01621046AF
:1014900000F01EFE601CA0D12878697888429CD19B
:1014A000761EF6B294D2D9F81010514502D0012020
:1014B000BDE8F0870020FBE7B4280020FFFF7F0095
:1014C0008CB065A2002407CA0DF1040C00948CE8CE
:1014D0000700644B052206212046FEF7AFFD18B138
:1014E00000221146FEF742FD5F4A01215F48FEF7E8
:1014F0007FFD18B100221146FEF738FD5C4A08ABAB
:1015000007CA83E807005B4804905B494FF480708A
:10151000CDE9050107900323584A04A908A8FEF75E
:1015200063FE18B100221146FEF720FD544A40F632
:10153000CD410320FFF760FB18B100221146FEF7F2
:1015400015FD69460020FFF739FA18B1002211464F
:10155000FEF70CFD4749002348225C39082000F0C3
:101560009FFD18B100221146FEF700FD049405947A
:101570008DF8104004A860DF18B100221146FEF774
:10158000F5FC404800F082FD18B100221146FEF73C
:10159000EDFC9DF800003CA120F00F00401C20F065
:1015A000F00010308DF800000B2268467CDF18B187
:1015B00000221146FEF7DAFC04940620ADF8100074
:1015C0000594ADF81200ADF814404FF4C870ADF8B2
:1015D000160004A87ADF18B100221146FEF7C6FCF7
:1015E0002C48009069462C48FFF766F918B1002294
:1015F0001146FEF7BBFCFEF727FC1C2104A8FDF7F3
:1016000070FF4FF42030CDE904404FF47020069075
:1016100003208DF81C002148099021480A90ADF85C
:101620001E408DF8204004A8FFF790F818B1002262
:101630001146FEF79BFC01A91AA0FEF75FFA0320F2
:10164000FEF798FF00E048DF0028FCD0002211469A
:10165000FEF78CFCF7E7000053746172742E2E2E97
:101660000A000000502B0020412202000C2800201C
:101670003C26020050290020502A00209523020019
:101680005D0B02008D0802004E6F726469635F5546
:1016900041525400F51C0200082E0020C51D020016
:1016A000651002002573000070B5144682880E464E
:1016B00005462088111D0144921C994201D8FE2A3A
:1016C00001D90C2070BD521C32542088FF21401CCF
:1016D00080B2208031542088401C80B22080811943
:1016E000288800F0D1FE2188084480B22080AA8892
:1016F00042B1A96841B13044FDF7DAFE2088A988DB
:1017000008442080002070BD072070BDF8B50E464B
:10171000017814460546012901D1687830B1208846
:10172000821C9A422DD8012902D006E00720F8BD7C
:1017300069780144891C994223D8181A801E87B2FF
:10174000ADF800702188B01C084469467DDF002890
:10175000EDD12878022805D1BDF80010B94201D892
:1017600009210AE00821012805D16878B84202D889
:10177000ADF8000001E0ADF80070BDF80000FE28F3
:1017800001D90C20F8BD2288401CB0542088401C90
:1017900080B2208031542088401C2080BDF8001089
:1017A000084420800020F8BD4907090E002806DA09
:1017B00000F00F0202F1E02282F8141D03E000F1B4
:1017C000E02282F8001400F01F020121914040093C
:1017D000800000F1E020C0F88012C0F800117047CE
:1017E0002DE9F0410E46054600F006FB01240028D5
:1017F000284619D0FFF796FB1B490838084490F893
:1018000054008009032802D0012805D006E01748BB
:101810000068AC40204201D1022100E003212846AB
:10182000BDE8F04100F03BBA00F0F2FA002818D011
:101830002846FFF777FB05460D4F4FF4807007EB06
:10184000850100EB8500D1F8102580B242F001023D
:10185000C1F8102500F032FA002E02D0AC40C7F8D3
:101860000443BDE8F0810000702F002010050050F7
:10187000006000402DE9FC41DFF8A480044608EB3D
:101880000400002790F934001346C0170E46401C90
:1018900001D0082740E0F27819462046FFF71CFBEC
:1018A0000546401C37D0B07848B1A00000F1A040F8
:1018B000D0F8001721F00201C0F8001707E000215E
:1018C0007378204600910A46019100F0B3F9F07850
:1018D000C0B11448317800EB8500D0F81025124BC8
:1018E0001A40C0F810254FF4F8524FF4403302EA82
:1018F000042203EA01410A43D0F810150A43C0F854
:10190000102509E008EB0500327810F84C1F41EA79
:101910008211017000E004273846BDE8FC81000018
:10192000702F002000600040FFE0FCFF03490968C1
:10193000C14011F0010000D0012070471005005097
:1019400070B5114D287808B1082070BD0020411EE7
:101950002A18401CC0B282F834102028F8D3002482
:101960002046FFF7ABFA641CE4B20C2CF8D301213B
:101970000620FFF719FF05494FF00040C1F80403A6
:1019800001202870002070BD702F002000600040F2
:1019900002480078002800D001207047702F0020F6
:1019A0002DE9F041154C05460F46A07D10B10820E9
:1019B000BDE8F08105B9124D687FE0752846FEF755
:1019C00077FC676028690F4E206057B1297FE07D62
:1019D00008B10D4800E00D48C6F804030220FFF7E7
:1019E000E3FEE07D08B1082000E00420C6F8000511
:1019F0000120A07500206075DAE70000C82F0020E4
:101A0000A82602000020004010030200800002000F
:101A10002DE9F05F454DEA7C12B11120BDE8F09F41
:101A2000E9740026E8602E75EA7D414C4FF001080C
:101A30004FF4A2774FF4927A9AB36214B2EB104F3C
:101A400001D01020EAE74FF48873B146C4F8106162
:101A5000C4F84461C4F83405C4F83815C4F80080EB
:101A6000686848BB9B46B8465946204600F03DF999
:101A700006464146204600F038F9074651462046C2
:101A800000F033F901463E430E43EDD0C4F8109107
:101A9000C4F84491C4F8249185F81390B9BBC7BB2E
:101AA0000AE0FFE7687D08B900F080FA686828B1AD
:101AB0004FF40170C4F804030020AFE7D346AA46F0
:101AC0005946204600F00CF905464FF48471204633
:101AD00000F006F981464FF4A271204600F000F9AB
:101AE000074649EA07002843EAD055EA070007D12C
:101AF00000F0CAF99AF813109AF814008142DFD85E
:101B0000C4F84461C4F824618AF8136015B1032055
:101B100084E700E00FB10F2080E79AF81500002855
:101B2000404601D02060C7E76060C5E7C82F0020AD
:101B30000020004010B5044C607D002803D100F067
:101B400035FA0120607510BDC82F00202DE9F05F27
:101B5000364C0027A27C12B11120BDE8F09FA17481
:101B60000026A0602682E37D314D01225BB3530342
:101B7000B3EB104F01D01020EFE74FF49073C5F88E
:101B800020614FF4AC7CC5F85861C5F84405C5F830
:101B90004815AA606068A04608BB9A46E1465146CF
:101BA000284600F0A2F804464946284600F09DF871
:101BB0000443F4D0C5F82061C5F8586100B10F277F
:101BC00088F8126030E04FF48E7AC5F81C619046B8
:101BD000AA6000F06BFB61684FF4807079B123E07C
:101BE0005D465146484600F07BF810B9208AA8426D
:101BF000F7D1208AA84204D000F058FB01E08346C8
:101C0000A946A07C218A8842EAD8208A584501D179
:101C10000F2708E04D465146284600F061F800289D
:101C2000F9D0C5F80C80A674384696E7C82F002076
:101C30000020004030B541EA4201DDE9034541EAB8
:101C40008301800041EA042100F1A04041EA0541FE
:101C5000C0F8001730BD30B541EA4201DDE9034567
:101C600041EA8301800041EA042100F1A04041EAF9
:101C70000541C0F8001730BD1CB500220B4600928C
:101C800011460192FFF7E7FF1CBD1CB50021009132
:101C90000B46012201911146FFF7DDFF1CBD8000BC
:101CA00000F5E06000F1A040026822F440320260DA
:101CB000026842EA0141016070470000034908B52B
:101CC0000844002101600068009008BD00600040E9
:101CD00002494058012800D00020704700600040B1
:101CE0004058002800D0012070474058002800D0FC
:101CF0000120704710B5022A14D10878472811D165
:101D0000487857280ED1084800224FF48371C068E4
:101D1000FEF7F0F9002805D00022BDE8104011467A
:101D2000FEF724B910BD00000028002010B560B1F6
:101D300003280ED10220FEF753FF002809D000220D
:101D4000BDE810401146FEF711B9BDE8104000F0A3
:101D50007DB910BD70B50188194C0546102913D006
:101D600011291BD020461329408823D0522920D185
:101D700000231A461946A9DF00281AD0BDE8704092
:101D800000221146FEF7F2B80720FEF729FF18B12E
:101D900000221146FEF7EAF8A88809E00020FEF7C5
:101DA0001FFF18B100221146FEF7E0F84FF6FF7052
:101DB000608070BD00231A4685217FDFDCE70000CC
:101DC000002800200078002809D105483B214088E0
:101DD00076DF002803D000221146FEF7C7B870470F
:101DE000002800200021425C0AB101207047491CF4
:101DF0000629F8D3002070470449084490F93400BC
:101E0000082801DB0120704700207047702F002058
:101E10000449084490F93400082801D20120704791
:101E200000207047702F002006490979490701D426
:101E30000820704720B104494978016000207047AC
:101E40000E20704778280020E02F002070B5012672
:101E500070044FF0E0210025C1F88001084C4010CB
:101E6000C4F84803C4F8080366602F20FDF7D2FACF
:101E7000A660044C2F206561FDF7CCFA257170BD7A
:101E800000100140B428002006480021C0F80811C5
:101E9000D0F818150448037DC268D154017D491C4F
:101EA0000175704700200040C82F002030B58FB06A
:101EB0000024054607949DF81C001C2120F00F000B
:101EC000401C20F0F00010308DF81C009DF81D0023
:101ED00020F00F00401C20F0F00010308DF81D00A5
:101EE0009DF81E0020F00600801C8DF81E0068463C
:101EF000FDF7F7FA9DF80000019440F010008DF80E
:101F0000000007A8CDE904400394069428788DF8D2
:101F10003A000320ADF838000D949DF834001421E8
:101F200020F00F00401C20F0F00010308DF834003D
:101F30009DF8350020F00F00401C20F0F00010301C
:101F40008DF835009DF8360020F00600801C20F04A
:101F5000180040F001008DF8360008A8FDF7C1FA1E
:101F60000EA808900DA809900120ADF828001420B3
:101F7000ADF82A40ADF82C00688805F10C0308AADA
:101F80006946A2DF0FB030BD1FB501218DF80800F2
:101F900005488DF80010C16801910021C174D0E995
:101FA0000012684690471FBDC82F0020044800213A
:101FB000C0F82411C0F80811012101607047000029
:101FC000002000402DE9F0410746806A144688460B
:101FD000C8B3002531E000BFB96A05EB450001EB4D
:101FE0008006B088801CFE2802D90C20BDE8F08154
:101FF0002288401C08F8020020881622401C80B26B
:10200000208008F800202088401C80B2208000EB4F
:102010000801308800F038FA2188084480B2208016
:10202000B28842B1B16871B14044FDF741FA2088ED
:10203000B188084420806D1CEDB297F82C00A842AE
:10204000CAD80020D2E7FFE70720CFE710B500206D
:10205000FEF7C6FD18B100221146FDF787FFFEF717
:102060000BFD18B100221146FDF780FF3CDF002870
:1020700005D00022BDE810401146FDF777BF10BD26
:1020800010B508461146AFF3008010BD18B10349E2
:10209000C860002070470E2070470000DC28002038
:1020A00070B509B18C0701D0072070BD064C012521
:1020B000A16062800549636010DF0028F5D12570BA
:1020C00016202EDF70BD0000DC28002081200200D9
:1020D000F0B5194C00EBC001A36803EB8105216941
:1020E0004A1C0AD001EBC10603EB86076A687E68CA
:1020F000B24204D8B21A7A6029622061F0BD0C465F
:1021000002E00C46316AD21B4E1C0DD001EBC10718
:1021100003EB870677689742F3D301EBC10603EB25
:1021200086067768BF1A77606A60296204EBC4018B
:1021300003EB81010862F0BDB428002070B51C4B90
:102140001A699C681546114607E0814208D00A4684
:1021500001EBC20604EB8601096A4E1CF5D170BD85
:10216000002EFCD08A420DD105EBC50004EB8000A7
:10217000006A1861401C05D10E4D0120A8600025A1
:102180005D61587101EBC10004EB800002EBC202FB
:10219000416804EB8202006A1062421CDFD000EB4F
:1021A000C00004EB800042681144416070BD000033
:1021B000B4280020001001402DE9F0411E4C256993
:1021C000681C37D01D48002601686069081A20F095
:1021D0007F4718E0A16805EBC50001EB800250685D
:1021E000B84212D8156AA3693F1A064443B1D2E92E
:1021F0000601984738B100221146FDF7B7FE02E00C
:10220000D2E906108847681CE4D1A178E0788142C1
:1022100006D1401CC0B2E070022801D10020E0705D
:102220000548E1781C3040F82160BDE8F0411420F9
:10223000FDF714BABDE8F081B42800200415014070
:1022400010B5104CA068411CA1600A280CD20124D2
:1022500014220DA11248FEF78AFB0028F8D1641E53
:1022600014F0FF04F4D110BD0020A06005220DA1E0
:102270000B48FEF77CFB0028F8D1E068BDE8104071
:10228000FDF77EBF00280020544B20536D656C6C19
:10229000732062616421212121212121000000009D
:1022A000082E0020446F6E6521000000064A0020C1
:1022B000C2F81C010548038A8168C95C038A5B1C5B
:1022C0000382C2F81C15704700200040C82F002070
:1022D00030B58FB005461C216846FDF702F9002491
:1022E0009DF80000019440F00C008DF8000003946C
:1022F00004940594069428788DF836000220ADF8F1
:1023000034000C949DF83000142120F00F00401C84
:1023100020F0F00010308DF830009DF8310020F0F2
:102320000F00401C20F0F00010308DF831009DF8B7
:10233000320020F00600801C20F0180040F0010060
:102340008DF8320007A8FDF7CCF80DA807900CA86F
:1023500008900120ADF824001420ADF82640ADF817
:10236000280068882B1D07AA6946A2DF0FB030BD80
:102370001FB500218DF8080005488DF8001082680F
:1023800001928174D0E90012684690471FBD000099
:10239000C82F002070B5017851B1012901D0022960
:1023A00025D14068BDE8704000221146FDF7DEBD32
:1023B000104C0F4D20782844FDF710FF2078401C6A
:1023C000C2B2A818227010F8010C0A2801D0142AF1
:1023D0000DD3074901F2CC40FEF7C9FA082804D012
:1023E00018B100221146FDF7C1FD0020207070BD1C
:1023F0003C290020002800201CB50178204C012930
:1024000009D0022926D0002923D121461D48FDF7F5
:10241000BDFD28B328E0406801781A481038FDF760
:10242000D6FD20B101218DF80010019009E015487A
:1024300010388168C068401A012805D100208DF845
:1024400000006168684688470D480121801CFFF73D
:10245000DFFA1CBD02218DF80010C06801900BE06E
:1024600001210748FFF772FB06488168C06888426F
:10247000EFD103208DF800006168684688471CBDD5
:1024800070280020602F00200870000A4870022089
:102490007047000038B515494888A0F57F42FF3ADB
:1024A00023D04A78124C521CD2B24A70237B9342FA
:1024B0000AD3083175DF002817D0A169002914D08C
:1024C00001B0BDE83040084700254D70217C29B19E
:1024D0003B2176DF10B1A16901B18847616900290C
:1024E00003D08DF800506846884738BD5828002032
:1024F000342F00200F480068C005C00D13D01038DD
:1025000040B2002806DA00F00F0000F1E02090F859
:10251000140D03E000F1E02090F8000440090128C8
:1025200003D0032803D00220704700207047012009
:102530007047000004ED00E042788378521C93421B
:1025400000D100220378934201D1002070470A6035
:102550004168407800EB400001EBC00070472DE976
:10256000FC411646DDE90854CDE900541F4680467B
:10257000022200F00CF8002807D1CDE900543B46B8
:1025800010223146404600F002F8BDE8FC812DE9FA
:10259000FC5F0026DDE90C4B994692468E4680464C
:1025A0002788354630E0D8F80400002200EB85008B
:1025B00069460068019001A865DF002830D19DF8C8
:1025C000000050451FD10EB1002100E002212288F9
:1025D00008441118594522D846B9521C90B220809F
:1025E00009F800E02088401C20800126218801A8ED
:1025F00001EB0902694665DF002811D120889DF8AA
:102600000010084420806D1CB8F80000A842CADC05
:1026100056B12088C01B401E80B2FF2802D90C2072
:10262000BDE8FC9F09F807000020F9E7017911B91E
:10263000007B002800D00120704700000806050735
:102640000100000000509D000D0000000E00000081
:102650000F000000100000000D0003008D0A0200B2
:102660000E0003008D0A02000F0003008D0A020015
:10267000100003008D0A02009ECADC240EE5A9E0CA
:1026800093F3A3B50000406E0600000008000000B0
:10269000070000000500000000000000000000002E
:1026A00000009D000300000006000000080000007C
:1026B000070000000500000000000000000000000E
:1026C00000009D000300000003000000EC26020053
:1026D00000280020F40000001CFB0100E02702009D
:1026E000F4280020C42700002CFB01000000FFFF9D
:1026F00001000200000000000000000000000000D7
:1027000000000000000000000000000000000000C9
:1027100000000000000000000000000000000000B9
:10272000000000000000000000000000FFFF0000AB
:102730000000000000000000000000000000000099
:102740000000000000000000000000000000000089
:102750000000000000000000000000000000000079
:102760000000000000000000000000000000000069
:102770000000000000000000000000000000000059
:102780000000000000000000000000000000000049
:102790000000000000000000000000000000000039
:1027A0000000000000000000000000000000000029
:1027B0000000000000000000000000000000000019
:1027C0000000000000000000000000000000000009
:1027D0000000000000000000000000000090D00396
:040000050001F40101
:00000001FF
